:020000040800F2
:1000000078480020B5010008712B0008B5250008CC
:100010006D2B0008BD020008D5320008000000006A
:10002000000000000000000000000000A1310008F6
:100030005103000800000000752B0008A5310008DE
:10004000CF010008CF010008CF010008CF01000850
:10005000CF010008CF010008CF010008CF01000840
:10006000CF010008CF010008CF01000809030008F4
:100070001503000821030008CF0100082D03000824
:100080003903000845030008CF010008CF0100082C
:10009000C9320008CF010008CF010008CF010008D5
:1000A000CF010008CF010008CF010008CF010008F0
:1000B000AD310008CF010008B9310008CF010008B8
:1000C000CF010008CF010008CF010008CF010008D0
:1000D000CF010008CF010008CF010008CF010008C0
:1000E000CF010008CF010008CF01000800F002F89E
:1000F00000F050F814A696E8000CB244B344DA4578
:1001000001D100F047F8BAE80F000FA696E83000DA
:10011000A5EB040504EB0607AAEB0704A7F101070A
:100120004FEA15154FEA3414A4F10104AC4201D38F
:1001300000F030F813F0010F18BFFB1A43F0010371
:1001400000F001F8DBE71847E0490000004A000032
:10015000103A24BF78C878C1FAD8520724BF30C8F3
:1001600030C144BF04680C60704700007047000055
:100170000023002400250026103A28BF78C1FBD8B0
:10018000520728BF30C148BF0B6070471FB51FBD65
:1001900010B510BD00F058F81146FFF7F7FF03F057
:1001A000DFF900F076F803B4FFF7F2FF03BC00F0CC
:1001B0007DF800000948804709480047FEE7FEE750
:1001C000FEE7FEE7FEE7FEE7FEE7FEE7FEE7FEE707
:1001D00004480549054A064B70470000A93100084C
:1001E000ED00000878420020784800207844002084
:1001F000784400204FF0000200B51346944696461E
:10020000203922BFA0E80C50A0E80C50B1F1200129
:10021000BFF4F7AF090728BFA0E80C5048BF0CC0D7
:100220005DF804EB890028BF40F8042B08BF704735
:1002300048BF20F8022B11F0804F18BF00F8012BA7
:100240007047704770477047754600F02BF8AE4610
:1002500005006946534620F00700854618B020B5D2
:10026000FFF7B6FFBDE820404FF000064FF0000753
:100270004FF000084FF0000BAC46ACE8C009ACE80A
:10028000C009ACE8C009ACE8C00921F007018D46FF
:10029000704710B50446AFF300802046BDE810401B
:1002A000FFF781BF00487047100000200149182067
:1002B000ABBEFEE72600020070470000FEE700002C
:1002C00070B540F2A40443F6D475C2F200040E26C1
:1002D00001200021C2F20005C4E90806C4E90011AA
:1002E000C4E90211C4E90411C4E9061028462146F4
:1002F00000F0A0F8284600F0D7FB2846022100F0C5
:100300002FF86662666170BD44F28400C2F200009C
:1003100000F062BC44F25010C2F2000000F05CBC7D
:1003200044F20C10C2F2000000F056BC43F6FC7020
:10033000C2F2000000F050BC44F2C800C2F200005B
:1003400000F04ABC44F24000C2F2000000F044BC9D
:1003500070470000EFF3108072B600BFFEE70000A8
:1003600090F82020013A012A08D8006800F1140210
:100370000020136819431160704700BF00F1240288
:1003800001204FF480211368194311607047000069
:1003900010B590F820E0D0F800C0AEF1010EBEF12B
:1003A000010FDCF808E011D81EF0E05F18D0CEF3A2
:1003B00001640120A04018608B68DBB1D1F804E033
:1003C000C86840EACE0040EA030E17E000F12403BB
:1003D00001204FF480211A681143196010BD00BF3D
:1003E00000F1240301204FF400111A681143196031
:1003F00010BD00BF0868CB6843EA405E0CF5C070D2
:1004000000EB0413240140F804E00C69184640F89E
:10041000044F097D012903D1016841F48071016015
:1004200050680121D8601068986000201A68114354
:10043000196010BD026890F82030013B012B29D8CB
:10044000B0B5D2F80002012340F00100C2F800026A
:10045000D1F814E0CC690EF01F0003FA00F0D2F8D6
:100460001C326FEA000C8343012CC2F81C3217D0F7
:100470006CBBD2F80C3203EA0C03C2F80C32CB6826
:100480008C8844EA034302EBCE04C4F840320B46A6
:1004900015E000BF416A41F48021416201207047AC
:1004A000D2F80C320343C2F80C320B688C8844EA51
:1004B000034302EBCE04C4F8403201F10C038D6813
:1004C0001B8802EBCE0443EA0543C4F84432D2F859
:1004D00004328C6943EA0005D1F810E0096A002C67
:1004E00008BF03EA0C05C2F80452D2F81432BEF178
:1004F000000F43EA000408BF03EA0C040129C2F814
:10050000144204D1D2F81C120843C2F81C02D2F8DB
:10051000000220F00100C2F800020020B0BD00007F
:1005200070470000B0B590F82040013C012C7DD808
:10053000D0F800C000290CBFDCF80C40DCF81040FB
:10054000A4077DD00CF5D8754FEA011C55F80C4076
:1005500014F00404946055F80CE005EB011C19BF7D
:100560004FEADE0555604FEA5E551560DCF8005035
:10057000E64605F00205D5605EF8044F24075ABF31
:10058000DEF8004004F00F0408241461DEF8004097
:100590000029C4F307249461DEF800504FEA1545A2
:1005A0005561DCF808201A70026802EB0112D2F8DB
:1005B000B8214FEA12225A70026802EB0112D2F8F7
:1005C000B8214FEA12429A70026802EB0112D2F887
:1005D000B8214FEA1262DA70026802EB0112D2F817
:1005E000BC211A71026802EB0112D2F8BC214FEA59
:1005F00012225A71026802EB0112D2F8BC214FEAB2
:1006000012429A71026802EB0112D2F8BC214FEA41
:100610001262DA7100680CBF00F10C0100F11001E8
:10062000002020220B681A430A60B0BD00F12401AB
:1006300001204FF480220B681A430A60B0BD00BF4E
:1006400000F1240101204FF400120B681A430A60E4
:10065000B0BD00002DE9F04F81B004460068466946
:10066000D0F804908768D0F80CB0D0F810A0D0F87B
:100670001880F10704D1002530071DD424E000BF05
:10068000F90710D00121BA07816009D4780700F179
:10069000AF80380700F1B680204600F033FA02E060
:1006A000204600F031FA0025F80500F18780F803B4
:1006B00000F1B180300707D51BF0100004D020688E
:1006C00045F400751021C160700708D51BF00800C3
:1006D00005D020680821C160204600F0ADF9B007C0
:1006E00006D52068C068800702D0204600F0A6F931
:1006F000700607D51AF0100004D0206845F4806514
:1007000010210161B00608D51AF0080005D0206854
:1007100008210161204600F0C1F9F00606D52068E5
:100720000069800702D0204600F0BAF9B00308D56E
:1007300019F0100005D0206810214160204600F01B
:10074000B1F9F00308D519F0080005D02068082198
:100750004160204600F0E2F9300440F19B805FEAFE
:10076000497040F1948006F4807008EA1020284314
:100770005FEA8871014648BF41F00201B20558BFE7
:1007800001465FEA48700D4648BF45F00405700514
:1007900058BF0D46300540F17A8018F0700000F027
:1007A00076801038000905286CD8DFE800F0036572
:1007B0005D61596945F0080564E000BF20684FF4A9
:1007C0008071BA0581600BD4780515D438051DD425
:1007D000204600F09BF9F8037FF56CAF1BE000BFEB
:1007E000204600F095F9F8037FF564AF13E000BFF1
:1007F0004FF4006558E700BF05F50055F8037FF595
:1008000059AF08E04FF480554EE700BF05F580452D
:10081000F8037FF54FAF20684FF48031BA03816051
:100820000AD4780310D4380314D4204600F072F9A7
:1008300030073FF541AF47E7204600F06DF930073C
:100840003FF53AAF40E700BF05F5004530073FF5FB
:1008500033AF39E705F5803530073FF52DAF33E786
:1008600045F080050EE000BF45F020050AE000BF1E
:1008700045F0400506E000BF45F0100502E000BF6E
:1008800045F480752068816921F0700181612068DC
:100890000421416055B1606A40EA05012046616269
:1008A00001B0BDE8F04FFFF73BBE00BF01B0BDE8AF
:1008B000F08F0000002804BF01207047B0B5044647
:1008C00090F8200010B9204600F06EF8206801680A
:1008D00041F00101016000F003FC05462068416819
:1008E000C90705D100F0FCFB401B0B28F6D310E034
:1008F000016821F00201016000F0F2FB054600BF33
:100900002068416889070DD500F0EAFB401B0B28E1
:10091000F6D3606A052140F400306062012084F85B
:100920002010B0BD217E0268012922F0800208BF9C
:1009300080320260617E0268012922F0400208BF15
:1009400040320260A17E0268012922F0200208BF25
:1009500020320260E17E0268012922F0100218BFF5
:1009600010320260217F0268012922F0080208BFCC
:1009700008320260617F0268012922F0040208BF88
:1009800004320260D4E901C2D4E9033561691A4333
:100990002A431143ACF101021143C161002001213E
:1009A000606284F82010B0BDB0B586B040F6000497
:1009B000C4F201040068A4F524420021904205918C
:1009C000CDE90311029101D006B0B0BD41F218008B
:1009D000C4F20200426802AD42F000724260426816
:1009E00002F000720192019A026842F00402026071
:1009F000006800F00400019001984FF40060CDE918
:100A0000020104912046294600F05CFA4FF4805020
:100A1000029002200390032005902046294600F012
:100A200051FA14200321002200F0DAFB142000F018
:100A3000C5FB06B0B0BD000070470000B0B540F285
:100A40007805C2F20005044600202B4643F8080F43
:100A5000586003F1080220460021FFF763FD20687B
:100A600046F20041C4F20001884201D0B0BD00BF8F
:100A7000286940F2212188420CD040F2FF218842AF
:100A800004D040F22221884218BFB0BD0020287057
:100A9000B0BD00BF01202870B0BD0000704700004D
:100AA0007047000070470000B0B5044690F8200081
:100AB00001281DD1022084F820002068016821F05F
:100AC0000101016000F00CFB054600BF2068406892
:100AD000C00713D000F004FB401B0B28F6D3606A5C
:100AE00040F400306062052084F820000120B0BD91
:100AF000606A40F4002060620120B0BD00206062A6
:100B0000B0BD000070470000704700007047000053
:100B100070470000704700007047000070470000F9
:100B200090F82110022923D1026840F2040C1168C8
:100B3000C4F2020C21F00E01116013682F21C4F2DF
:100B400002018A4223F00103136015DD3023C4F251
:100B500002039A421CD04423C4F202039A421BD0DF
:100B60005823C4F202039A421CD14FF4803321E08F
:100B700004218163012070470823C4F202039A42D2
:100B80000ED01C23C4F202039A420BD1102311E0B1
:100B90004FF480730EE000BF4FF480530AE000BFB3
:100BA000012307E00CF168014FF080738A4208BF0F
:100BB0004FF480130121CCF8003080F82110416BF4
:100BC0000022002980F8202004BF0020704780B553
:100BD0008847002080BD000010B5D0E90FCE016825
:100BE000DCF800300A6823FA0EF35C072AD512F00D
:100BF000040427D00A68920603D40A6822F004028B
:100C00000A602F22C4F20202914240F20402C4F2AE
:100C100002025BDD3023C4F20203994272D0442306
:100C2000C4F20203994273D05823C4F202039942DA
:100C300040F07A804FF480231360C16A002940F0AD
:100C400098806FE09C0727D512F0020424D00A6830
:100C5000920606D40A6822F00A020A60012280F88D
:100C600021202F22C4F20202914240F20402C4F277
:100C700002023BDD3023C4F20203994260D04423D8
:100C8000C4F2020399425FD05823C4F2020399428E
:100C900060D14FF4003365E01B0743D512F0080222
:100CA00008BF10BD0A6822F00E020A60012101FA95
:100CB0000EF2CCF80420816380F82110016B002231
:100CC000002980F8202054D12CE000BF0823C4F272
:100CD0000203994222D01C23C4F20203994223D179
:100CE00040231360C16A002943D11BE00823C4F2EA
:100CF000020399422CD01C23C4F20203994229D149
:100D000020232FE04FF480631360C16A89BB09E0A0
:100D10004FF480431360C16A59BB03E0042313609E
:100D2000C16A31BB10BD00BF02F168044FF080639F
:100D3000A14208BF4FF480031360C16AC9B9F1E74B
:100D40004FF400730EE000BF4FF400530AE000BF01
:100D5000022307E002F168044FF00073A14208BFCC
:100D60004FF400131360816A0022002980F82020CC
:100D7000D8D0BDE810400847014600284FF00100D8
:100D800008BF70472DE9F043D1F800C04FF6F87363
:100D9000CBF6FD734CF6CD426344CCF6CC42A3FBBC
:100DA00002236FF0030202EA93020023C4F202035B
:100DB00001F10C08C1E90F320222D1E9019E98E845
:100DC000F00181F82120DCF8002043F6F0739A430B
:100DD00042EA090242EA0E0222432A4332433A43DC
:100DE00042EA0802CCF8002000228A6381F8210040
:100DF00081F820200020BDE8F043704790F820C023
:100E0000BCF1010F04BF02207047F0B54FF0010E96
:100E100080F820E090F821C0BCF1010F26D14FF0FE
:100E2000020C80F821C04FF0000CC0F838C0D0E9A7
:100E300000C4C56AC66BDCF80070102C27F00107EF
:100E4000CCF80070006C0EFA00F070600846CCF828
:100E5000043004BF10460A46CCF80800CCF80C2039
:100E6000DCF8000045B140F00E000DE0002180F8F4
:100E700020100220F0BD00BF20F00400CCF80000DC
:100E8000DCF8000040F00A00CCF80000DCF80000BC
:100E900040F00100CCF800000020F0BDB0B50446E1
:100EA00000F01EF9054640F20000C2F20000007892
:100EB000611C18BF044400BF00F012F9401BA0429F
:100EC000FAD3B0BD2DE9F04F82B00E68002E00F0CD
:100ED000FD8041F20042C4F20102042340F2004EC0
:100EE000904208BF03234FF6FF7CC4F2010E00932B
:100EF00000240123C1F2100C4FF0000A4FF000094A
:100F00004BE000BF41F20002C4F20102009F904298
:100F100008BF022704F00C030F229A402BEA0202BA
:100F200007FA03F34FEA9A051A4346F825204E685C
:100F300040F20C45F202DEF8082054BF22EA080213
:100F400042EA0802C4F20105CEF808202A68B3027A
:100F500054BF22EA080242EA08022A60B303DEF81C
:100F6000042054BF22EA080242EA0802F303CEF842
:100F70000420DEF800204FF0010354BF22EA0802EB
:100F800042EA0802CEF800200E680AF1010A36FA99
:100F90000AF204F1040400F0998003FA0AFB16EA4D
:100FA0000B08F1D04E68664512DC122E56D8DFE8E9
:100FB00006F0350B4D495555555555555555555513
:100FC00055555545510000BFD1F80C9046E000BF83
:100FD0004FF6FF72C1F2210296420FDC0022C1F2ED
:100FE000110296421AD00022C1F21202964215D086
:100FF0000022C1F22102964210D02FE00022C1F25D
:10100000220296420AD00022C1F23102964205D055
:101010000022C1F23202964220D100BF8A684AB152
:10102000012A14BFC0F814B0C0F810B04FF008097E
:1010300014E000BF4FF0040910E000BFCA6802F1DD
:1010400004090BE04FF0000908E000BFCA6802F194
:10105000080903E0CA6802F10C0900BF02462646EF
:10106000B8F5807F24BF0432203E17680F25B540B5
:1010700027EA050509FA06F635431560CA79D2064E
:101080007FF582AF41F21803C4F202031A68AEF58D
:101090007E7642F001021A601A6802F001020192A3
:1010A000019A2AF0030256F802B040F60002C4F298
:1010B0000102904208D040F60042C4F20102904280
:1010C0007FF420AF012725E7002723E702B0BDE822
:1010D000F08F00008068084018BF012070470000B2
:1010E00044F27020C2F200000068704740F2000035
:1010F00044F27021C2F20000C2F2000100780A68D6
:10110000104408607047000080B542F20000C4F24D
:101110000200016841F010010160032000F08CF82A
:101120000F2000F005F800F027F8002080BD000037
:1011300070B540F20006C2F2000640F208013278B3
:10114000C2F200014FF47A730968B3FBF2F204466D
:10115000B1FBF2F1084600F05DFB0F2C4FF00105EA
:1011600008D838B94FF0FF3021460022002500F0A2
:1011700037F87460284670BD82B041F21800C4F29E
:1011800002000168022241F001010160016801F0E2
:10119000010101910199416841F08051416040682D
:1011A00000F08050009000980420C4F20100016813
:1011B00062F31A61016002B070470000002848BF66
:1011C000704700F01F01012202FA01F11C2202EA1D
:1011D000D0004EF20012CEF20002815070470000A3
:1011E00010B54EF60C5CCEF2000CDCF80030C3F308
:1011F000022E8EF00704042C28BF0424BEF1030342
:101200004FF0FF3E0EFA04F438BF0023A14399408B
:101210000EFA03F39A43114300F00F0200F160430A
:101220000901043A03F564436244002848BF02F10F
:101230000C03197010BD00004EF60C51CEF20001E7
:101240000A684FF6FF031A4060F30A2242F08060FA
:1012500040F0FD7008607047002804BF012070470F
:101260002DE9F04381B042F20008C4F202080446BE
:10127000D8F800000D4600F0070081420CD9D8F8DC
:10128000000020F007002843C8F80000D8F800004C
:1012900000F00700A8426CD1206841F204098107E0
:1012A000C4F2020917D5410705D5D9F8001041F459
:1012B000E061C9F80010010705D5D9F8001041F424
:1012C0006051C9F80010D9F80010A26821F0F001AF
:1012D0001143C9F80010C00742D1D8F8000000F04F
:1012E000070085420CD2D8F8000020F00700284300
:1012F000C8F80000D8F8000000F00700A84238D174
:101300002068410707D5D9F80010E26821F4E061B0
:101310001143C9F80010000708D5D9F80000216969
:1013200020F4605040EAC100C9F80000D9F800205C
:1013300002F00C00082841F20020C0F27A004DD1E2
:1013400044F69613C2F38341C0F60003595CD203FE
:1013500038D440F60010C0F23D0048433EE000BFE4
:10136000606859F8041C022808D0012826D1890396
:1013700006D4012001B0BDE8F08300BF8901F8D593
:10138000D9F8001021F003010843C9F80000FFF765
:10139000A7FE064641F28837D9F80000616800F0E0
:1013A0000C00B0EB810F98D0FFF79AFE801BB8427B
:1013B000F2D9032001B0BDE8F08300BF8907D8D57A
:1013C000DEE700BFD9F8002044F69413C2F3404290
:1013D000C0F600039A5C4843B0FBF2F0D9F8001065
:1013E00044F68412C1F30311C0F60002515C40F2CE
:1013F000080220FA01F140F20400C2F20000006885
:10140000C2F200021160FFF793FE002001B0BDE8B8
:10141000F0830000002804BF012070472DE9F0414F
:1014200082B00446007841F20006C007C4F202060A
:101430000CD0706800F00C00042840F08180306807
:10144000800303D56068002800F04681207880077B
:101450001BD5706810F00C0F09D0706800F00C00FC
:10146000082840F087807068C00300F183803068EE
:10147000800703D52069012840F02E81306861691A
:1014800020F0F80040EAC10030602078000713D453
:10149000207840072CD4E569002D00F01881706891
:1014A00000F00C00082840F0A780012D40F00481D6
:1014B000012002B0BDE8F081A069002800F084801E
:1014C0000020C4F242200121C0F88014FFF708FE7A
:1014D000054600BF706A800700F1B280FFF700FE8A
:1014E000401B0228F6D9032002B0BDE8F08100BFFE
:1014F000F0695FEAC00808D4F06940F08050F061FC
:10150000F06900F080500090009847F20007C4F2A4
:1015100000073868C00549D4386840F480703860E6
:10152000FFF7DEFD054600BF3868C0053ED4FFF773
:10153000D7FD401B6428F7D9032002B0BDE8F08135
:10154000706800F00C00082803D17068C0033FF5F4
:1015500076AF61683068002900F00C81B1F5A02FEA
:1015600000F00081B1F5803F40F01A8140F48030F6
:101570001CE100BF2069002840F20000C4F24220B4
:1015800000F0888001210160FFF7AAFD054600BF39
:10159000306880073FF572AFFFF7A2FD401B0228BD
:1015A000F6D9032002B0BDE8F08100BFE168306ADF
:1015B000002900F09D80052900F09280012940F06B
:1015C000AF8040F00100B1E00020C4F242200021D1
:1015D000C0F88014FFF784FD054600BF706A8007DD
:1015E0007FF556AFFFF77CFD401B0228F6D903209C
:1015F00002B0BDE8F08100BF0027C4F242270020FE
:101600003866FFF76DFD022D05460DD1306880016B
:1016100040F1DE80FFF764FD401B02284FF003001D
:10162000F4D902B0BDE8F081306880014FD5FFF7F2
:1016300057FD401B02284FF00300F5D9F1E700BF2A
:1016400040F20800C2F20000006844F6D351C1F233
:101650006201A0FB0101480A019000BF00BF019890
:10166000411E002801913FF413AF00BF0198411EB5
:10167000002801913FF40CAF00BF0198411E0028E3
:1016800001913FF405AF00BF0198411E0028019170
:10169000E4D1FDE600210160FFF722FD054600BF11
:1016A000306880077FF5F1AEFFF71AFD401B022876
:1016B0004FF00300F4D9B4E77068216A00F4803277
:1016C0008A4209D1616A00F47010884204D1002076
:1016D00002B0BDE8F08100BF012002B0BDE8F0819A
:1016E00040F004003062306A40F001001EE000BFAC
:1016F00020F001003062306A20F004003062FFF711
:10170000EFFC054641F28837306A800720D5FFF7A5
:10171000E7FC401BB8424FF00300F5D981E700BF5A
:1017200020F001003062306A20F004003062FFF7E0
:10173000D7FC054641F28837306A800708D4FFF7A6
:10174000CFFC401BB842F7D9032002B0BDE8F081BE
:10175000B8F1000F3FF59FAEF06920F08050F061C6
:1017600099E600BF40F480203060306840F480305B
:101770001CE000BF20F480303060306820F480200E
:101780003060FFF7ADFC0546306880037FF55EAE44
:10179000FFF7A6FC401B64284FF00300F4D940E794
:1017A00020F480303060306820F480203060FFF713
:1017B00097FC0546306880033FF548AEFFF790FC84
:1017C000401B6428F6D9032002B0BDE8F08100BFB9
:1017D000206AB0F5803F05D17168A26821F400311C
:1017E000114371607168626A21F4741111430843F6
:1017F000706001203866FFF773FC04463068800192
:101800003FF565AFFFF76CFC001B02284FF00300AB
:10181000F4D906E7411E0020B0EB116F1CBF012078
:1018200070474EF21002CEF2000251604EF6235184
:10183000CEF20001F0230B70072190601160704719
:10184000704700007047000090F83C20012A4FF0DC
:10185000020236D010B580F83D200268D2F804E0CC
:10186000D2F808C00C682EF07003234340F2FF74D6
:10187000C4F20004A24253600ADCB2F1804F13D0DC
:1018800040F20043C4F200039A420DD011E000BFC1
:1018900042F60043C4F201039A4205D040F6000329
:1018A000C4F200039A4204D149682CF08003194322
:1018B00091600121002280F83D1080F83C20BDE8B5
:1018C0001040104670470000002804BF01207047F8
:1018D00010B590F83D1031B9002180F83C10044655
:1018E00000F070F82046022180F83D10016840F2B7
:1018F000FF740B68C4F2000442F6004CA142C4F22B
:10190000010C15DCB1F1804F1AD040F20042C4F254
:101910000002914214D0A14218DCB1F1804F1DD0D9
:1019200040F20042C4F20002914217D01AE000BF18
:10193000614505D040F60002C4F200029142EAD1AE
:10194000826823F070031343A142E6DD614505D0B0
:1019500040F60002C4F20002914203D1026923F46E
:1019600040731343846923F08002D0F804E0C36815
:10197000224361450A60CB62C1F828E002D1426986
:10198000CCF8302001224A610B69DB0703D00B69D8
:1019900023F001030B6180F8462080F83E2080F898
:1019A0003F2080F8402080F8412080F8422080F8D5
:1019B000432080F8442080F8452080F83D20002016
:1019C00010BD00002DE9F04F83B00446006840F6DA
:1019D0000001C4F20001884200F0D08040F20041D2
:1019E000C4F2000188426BD0B0F1804F40F0C38058
:1019F00041F21C00C4F20200016840F2080841F004
:101A0000010101600068C4F2020800F001000290C8
:101A1000029843F6FC7508F15000C2F2000510264A
:101A200000274FF080094FF4807A4FF4806B85E8EF
:101A3000C10E2846C5E90677FFF79EF9002818BFB2
:101A4000FEF788FC65626C6244F28405C2F2000510
:101A500005F1080080E8800E2846C5E90086C5E942
:101A60000677FFF789F9002818BFFEF773FCE562D7
:101A70006C6244F2400508F17800C2F200051021C2
:101A8000002280234FF480774FF4806685E88F0032
:101A90002846C5E90562EA61FFF76EF9002818BF1C
:101AA000FEF758FC1C2000210022A56225636C6211
:101AB000FFF796FB1C2003B0BDE8F04FFFF77EBB9D
:101AC00041F21C00C4F20200016840F2080841F033
:101AD000020101600068C4F2020800F002000190F7
:101AE000019844F2C80508F16400C2F2000510260E
:101AF00000274FF080094FF4807A4FF4806B85E81F
:101B0000C10E2846C5E90677FFF736F9002818BF49
:101B1000FEF720FC6562A5636C6244F20C1508F1C7
:101B20002800C2F2000585E8C10E2846C5E90677FF
:101B3000FFF722F9002818BFFEF70CFCA5626C62C3
:101B400044F2501508F11400C2F2000510210022E1
:101B500080234FF480774FF4806685E88F00284615
:101B6000C5E90562EA61FFF707F9002818BFFEF72B
:101B7000F1FBE5626C6203B0BDE8F08F41F21C003E
:101B8000C4F202000168002241F004010160006813
:101B9000012100F00400009000981E20FFF720FBB8
:101BA0001E2003B0BDE8F04FFFF708BB90F83D10D2
:101BB00001291CBF01207047022180F83D100068F8
:101BC00040F2FF72C168C4F20002904241F001018C
:101BD000C16009DCB0F1804F12D040F20041C4F284
:101BE000000188420CD012E042F60041C4F201012B
:101BF000884205D040F60001C4F20001884206D1B7
:101C0000816801F00701062904BF002070470168C0
:101C100041F00101016000207047000090F83C2075
:101C2000012A4FF002026CD080B580F83D20D0F838
:101C300000C04FF67772DCF8083023EA0202CCF8D5
:101C400008200B684F2B29DC1F2B45DD202B46D0AD
:101C5000302B44D0402B40F0AF80D1F804E0C9686D
:101C6000DCF82030DCF8202022F00102CCF8202023
:101C7000DCF8182022F0F00242EA011123F00A02F7
:101C800042EA0E02CCF81810CCF82020DCF808103C
:101C900041F0470121F0300128E000BF6F2B33DD18
:101CA000B3F5005F74D0B3F5805F21D0702B40F0A6
:101CB0008380D1E901E3C968DCF8082043EA0E0318
:101CC00022F47F4243EA01211143CCF80810DCF8EA
:101CD000081041F0770109E00BB1102B6CD1DCF852
:101CE000081021F07001194341F00701CCF80810E9
:101CF0000022012180F83D10002180F83C10BDE851
:101D000080401046704700BF502B21D0602B53D12C
:101D1000D1F804E0C968DCF82030DCF8202022F09B
:101D20001002CCF82020DCF8182022F4704242EA9D
:101D3000013123F0A00242EA0E12CCF81810CCF8C0
:101D40002020DCF8081041F0670121F01001CDE7F8
:101D5000D1F804E0C968DCF82030DCF8202022F05B
:101D60000102CCF82020DCF8182022F0F00242EA30
:101D7000011123F00A0242EA0E02CCF81810CCF846
:101D80002020DCF8081041F0570121F02001ADE7D8
:101D9000D1E901E3C968DCF8082043EA0E0322F424
:101DA0007F4243EA01211143CCF80810DCF8081007
:101DB00041F480419AE700BF01229AE77047000092
:101DC0007047000070B504460068C5680669B10731
:101DD00016D515F0020113D06FF002010161012147
:101DE00021778069800703D02046FFF7E9FF05E0EF
:101DF000204600F08FF8204600F010FA00202077EF
:101E0000700719D515F0040016D020686FF0040192
:101E1000016102212177806910F4407F04D02046BF
:101E2000FFF7CEFF06E000BF204600F073F8204623
:101E300000F0F4F900202077300717D515F00800DE
:101E400014D020686FF00801016104212177C06976
:101E5000800703D02046FFF7B3FF05E0204600F0DF
:101E600059F8204600F0DAF900202077F00619D55D
:101E700015F0100016D020686FF0100101610821E4
:101E80002177C06910F4407F04D02046FFF798FF07
:101E900006E000BF204600F03DF8204600F0BEF905
:101EA00000202077F00718BF15F0010002D130069E
:101EB00009D412E020686FF001010161204600F0B2
:101EC0006DFB300609D515F0800006D020686FF054
:101ED000800101612046FFF7B3FC700609D515F0BB
:101EE000400006D020686FF040010161204600F0FC
:101EF0005FFBB00658BF70BD15F0200008D0216808
:101F00006FF0200220460A61BDE87040FFF79ABCDE
:101F100070BD00007047000090F83C30012B04BFFA
:101F2000022070474FEAB202032A00F2F1802DE945
:101F3000F043DFE802F003A53B7500BF036842F6FB
:101F400000461D6A1A6AC4F2010622F001021A62F2
:101F50001A465C6852F818CFB3428E68D1F800E098
:101F600025F0020545EA06050CD1CE68D1E90578D1
:101F700024F4407425F00C0526F004063C43354358
:101F800044EA08042CF0730747EA0E075C609F617F
:101F90004F6809695F631D629F6947F008079F6189
:101FA0009F6927F004079F61A6E000BF036842F61F
:101FB00000461D6A1A6AC4F2010622F480721A628F
:101FC0001A46D3F804C052F81CEFB3428E680C686E
:101FD00025F4007545EA06250FD1CE68D1E90598AC
:101FE000360240F2FF4725F44065BE4335432CF4EA
:101FF000405748EA090647EA061C2EF073072743B4
:10200000C3F804C0DF614F680969DF631D62DF69DF
:1020100047F00807DF61DF6927F00407DF616BE045
:10202000036842F60047D3F820C01A6AC4F20107D9
:1020300022F480521A621A465C6852F81C5FD1F88A
:1020400000E08E68BB4204D14F6924F4804444EA26
:1020500087142CF4005747EA063725F4E64646EA8B
:102060000E265C60DE614E6809691E641F62DF69CE
:1020700047F40067DF61DF6927F48067DF613AE0DA
:10208000036842F600461D6A1A6AC4F2010622F08D
:1020900010021A621A46D3F804C052F8184FB3421D
:1020A0008E68D1F800E025F0200545EA06150FD12D
:1020B000CE68D1E905986FF0400725F0C00507EA22
:1020C000061635432CF4406748EA090647EA860CB1
:1020D00024F4E64444EA0E27C3F804C09F614F6825
:1020E00009699F631D629F6947F400679F619F694B
:1020F00027F480679F61090213681943116000216A
:10210000BDE8F043002280F83C200846704700BF3D
:102110000121002280F83C2008467047002804BFB7
:102120000120704710B590F83D1031B9002180F8BA
:102130003C10044600F070F82046022180F83D1063
:10214000016840F2FF740B68C4F2000442F6004CD0
:10215000A142C4F2010C15DCB1F1804F1AD040F25B
:102160000042C4F20002914214D0A14218DCB1F145
:10217000804F1DD040F20042C4F20002914217D0BD
:102180001AE000BF614505D040F60002C4F200022B
:102190009142EAD1826823F070031343A142E6DD45
:1021A000614505D040F60002C4F20002914203D11D
:1021B000026923F440731343846923F08002D0F84A
:1021C00004E0C368224361450A60CB62C1F828E09D
:1021D00002D14269CCF8302001224A610B69DB0749
:1021E00003D00B6923F001030B6180F8462080F8CF
:1021F0003E2080F83F2080F8402080F8412080F881
:10220000422080F8432080F8442080F8452080F860
:102210003D20002010BD00007047000080B501681F
:1022200040F20042C4F2000291420FD0B1F1804F5F
:1022300039D1007F042823D0022815D0012832D1BB
:1022400044F29410C2F20000002124E0007F042830
:102250001CD002280ED0012818BF80BD44F2DC102B
:10226000C2F20000002116E044F29410C2F2000015
:10227000042110E044F2DC10C2F2000004210AE064
:1022800044F29410C2F2000004E000BF44F2DC10FB
:10229000C2F20000082100F025F944F26C20C2F2DD
:1022A00000000021017080BD7047000070B5B9B119
:1022B0004125082908BF4025042908BF3F25455D61
:1022C000022D04BF022070BD08291BD0042914BFB1
:1022D00000F1410500F13F052D78012D0AD016E0EF
:1022E000054615F83E4F022C04BF022070BD2D7824
:1022F000012D0CD1002A4FF0010C18BF002B09D181
:10230000604670BD00F140052D78012DF2D001200E
:1023100070BD00BF022569B1082913D0042914BF7C
:1023200080F8415080F83F504FEAB105032D0FD996
:10233000E6E700BF80F83E504FEAB105032D07D90C
:10234000DEE700BF80F840504FEAB105032DD7D833
:102350000E46DFE805F00365234300BF456A43F2FC
:10236000C514C0F60004AC62456A43F23124C0F6DD
:102370000004EC62456A43F269240168C0F6000477
:102380002C630546406A01F1340C11466246FEF7A3
:1023900035FD0028BBD14FF4007161E0C56A43F2FE
:1023A000C514C0F60004AC62C56A43F23124C0F61D
:1023B0000004EC62C56A43F269240168C0F60004B7
:1023C0002C630546C06A01F13C0C11466246FEF7DB
:1023D00015FD00289BD14FF4006141E0056B43F2ED
:1023E000C514C0F60004AC62056B43F23124C0F69C
:1023F0000004EC62056B43F269240168C0F6000436
:102400002C630546006B01F1400C11466246FEF755
:10241000F5FC00287FF47BAF4FF4805120E000BF33
:10242000856A43F2C514C0F60004AC62856A43F2C3
:102430003124C0F60004EC62856A43F26924016825
:10244000C0F600042C630546806A01F1380C114681
:102450006246FEF7D3FC00287FF459AF4FF4806149
:102460002868C2681143C16006F01F010122036A97
:102470008A4023EA02010162036A42F64441C4F23F
:1024800001011A43A1F144039842026203D10A6890
:1024900042F400420A6040F2FF71C4F20001884237
:1024A00006DCB0F1804F0FD040F2004108E000BFE1
:1024B00042F60041C4F20101884205D040F6000115
:1024C000C4F20001884204D1816801F007010629A5
:1024D00003D0016841F0010101604FF0000C60463B
:1024E00070BD0000F0B581B004464FEAB10003288A
:1024F0004FF001064FD80D4644F6C8112268C0F6C9
:10250000000151F82010D36804EB80001940D1601D
:10251000406A42F60047C4F20107FEF701FB20685B
:1025200005F01F01026A06FA01F122EA01010162C7
:10253000016AB84201620DD1396A41F211121142A9
:1025400008D1016A40F24442114203D1416C21F4A6
:1025500000414164016A41F21112114208D1016A3D
:1025600040F24442114203D1016821F001010160AF
:102570000120082D0CD0042D06D0002D14BF84F8A6
:10258000410084F83E0005E084F83F0002E000BF0F
:1025900084F840000026304601B0F0BD006840F6E7
:1025A0000001C4F20001884218BF704700F004B86F
:1025B00070470000FEE7000070B540F27006C2F2FE
:1025C00000063078002818BF70BD40F60044C4F201
:1025D000010420464FF48061FEF77CFDC0B3204625
:1025E0004FF40061FEF776FDB0B320464FF4805102
:1025F000FEF770FDA0B320464FF40051FEF76AFDD0
:1026000090B320464FF48041FEF764FD80B3A4F5FB
:10261000806528460821FEF75DFD68B32846102135
:10262000FEF758FD60B320464021FEF753FD58B336
:1026300020468021FEF74EFD50B320464FF4004166
:10264000FEF748FD0021002808BF0A21317070BD47
:102650000121317070BD00BF0221317070BD00BF1B
:102660000321317070BD00BF0421317070BD00BF07
:102670000521317070BD00BF0621317070BD00BFF3
:102680000721317070BD00BF0821317070BD00BFDF
:102690000921317070BD000080B543F6D47046F258
:1026A0000041C2F20000C4F20001002302224FF0F8
:1026B000807C4FF4702E80E80E50C0E90533838390
:1026C000FEF7F8F8002808BF80BDBDE88040FDF7A0
:1026D00041BE000080B582B041F21400C4F2020095
:1026E0000168002241F0010101600068002100F052
:1026F0000100019001980B20FEF772FD0B20FEF700
:102700005DFD0C2000210022FEF76AFD0C20FEF783
:1027100055FD0D2000210022FEF762FD0D20FEF781
:102720004DFD0F2000210022FEF75AFD0F20FEF77D
:1027300045FD102000210022FEF752FD1020FEF77B
:102740003DFD112000210022FEF74AFD112002B0BC
:10275000BDE88040FEF732BDF0B585B0002641F2FD
:102760001800CDE90366CDE90166C4F202000168F4
:1027700040F6000441F0200101600168C4F2010448
:1027800001F0200100910099016801AD41F00401C0
:1027900001600168012701F00401009100990168BE
:1027A00041F0080101600068294600F0080000902F
:1027B00000981820CDE9010620460397FEF782FB1A
:1027C0004FF6C04001A9C1C104F580602946FEF75B
:1027D00079FB05B0F0BD0000B0B594B044F29410A0
:1027E0000021C2F200004FF0804259230E91CDE942
:1027F0000C110991CDE90711CDE90511CDE90311BE
:10280000CDE90111C0E90021C0E902130161816134
:10281000FFF75AF8002818BFFDF79CFD4FF48050D1
:102820000B9044F29410C2F200000BA9FFF7F6F9E6
:10283000002818BFFDF78EFD44F29410C2F200008C
:10284000FFF76CFC002818BFFDF784FD44F29410DC
:102850000024C2F2000008A9CDE90844FEF7F4FF05
:10286000002818BFFDF776FD6020CDE9010444F291
:102870009410C2F2000001A9002203940594FFF70E
:102880004BFB002818BFFDF765FD44F29410C2F21F
:10289000000001A90422FFF73FFB002818BFFDF745
:1028A00059FD44F29414C2F2000401A92046082202
:1028B000FFF732FB002818BFFDF74CFD206840F2FF
:1028C0000041C4F2000188424FF00001CDE912112D
:1028D000CDE9101118D0B0F1804F43D141F218006A
:1028E000C4F20200016841F004010160006800F0D8
:1028F00004000F900F98072010900220119040F6CE
:102900000000C4F2010028E041F21800C4F2020005
:10291000016840F6000441F0040101600168C4F25E
:10292000010401F004010F910F990168022541F0A3
:1029300008010160006810A900F008000F900F98CE
:10294000C02010900320139020461195FEF7BAFA8C
:102950000120CDE9100504F580600321139110A931
:10296000FEF7B0FA14B0B0BDB0B594B040F60004B4
:10297000C4F2010444F2DC100021A4F58232C2F258
:10298000000059230E91CDE90C110991CDE90711F1
:10299000CDE90511CDE90311CDE90111C0E900210F
:1029A000C0E9021301618161FEF78EFF002818BFA4
:1029B000FDF7D0FC4FF480500B9044F2DC10C2F2D3
:1029C00000000BA9FFF72AF9002818BFFDF7C2FC89
:1029D00044F2DC10C2F20000FFF7A0FB002818BF91
:1029E000FDF7B8FC44F2DC100025C2F2000008A993
:1029F000CDE90855FEF728FF002818BFFDF7AAFC0F
:102A00006020CDE9010544F2DC10C2F2000001A90A
:102A1000002203950595FFF77FFA002818BFFDF700
:102A200099FC44F2DC10C2F2000001A90422FFF775
:102A300073FA002818BFFDF78DFC44F2DC15C2F2D2
:102A4000000501A928460822FFF766FA002818BFEA
:102A5000FDF780FC286840F20041C4F20001884282
:102A60004FF00001CDE91211CDE9101114D0B0F1F1
:102A7000804F3CD141F21800C4F20200016841F0DD
:102A800004010160006800F004000F900F98072017
:102A900010900220119024E041F21800C4F20200CC
:102AA0000168022541F004010160016801F00401A0
:102AB0000F910F99016841F008010160006810A9A9
:102AC00000F008000F900F98C02010900320139082
:102AD00020461195FEF7F6F9012004F58064CDE952
:102AE00010050320139010A92046FEF7EBF914B04F
:102AF000B0BD000080B586B044F2242040F600024C
:102B00000021C2F20000C4F2000241F61F434FF060
:102B1000090C0591CDE90311CDE90011C0E90023AD
:102B2000C0E9021C01618161FEF7CEFE002818BFDA
:102B3000FDF710FC4FF48050029044F22420C2F2C2
:102B4000000002A9FFF76AF8002818BFFDF702FC91
:102B500044F22420C2F200006946FEF775FE002808
:102B600018BFFDF7F7FB06B080BD0000FEE70000D0
:102B7000FEE700007047000080B588B00823069388
:102B80000023CDE9043343F6D473C2F20003984224
:102B9000029101D008B080BD43F6D470C2F20000AB
:102BA00002A901ABFDF7F4FB08B080BD2DE9F047A9
:102BB000044600200021002200F09EFC44F6D810BC
:102BC000C0F60000851E842635F8020FFF21002282
:102BD000002300F0AFFC013EF6D1E01C81B24CF6C0
:102BE000CD467143C90C01EB8101A0EB410505F213
:102BF000C71080B2FF210022002300F09BFC201DA3
:102C000081B27143C90C01EB8101A0EB410A0AF2C8
:102C1000C71080B2FF210022002300F08BFC601D52
:102C200081B27143C90C01EB8101A0EB410808F2AC
:102C3000C71080B2FF210022002300F07BFCA01C03
:102C400081B27143C90C01EB8101A0EB410707F28E
:102C5000D11080B2FF210022002300F06BFC05F2AE
:102C6000D11080B2FF210022002300F063FC0AF2A1
:102C7000D11080B2FF210022002300F05BFC601C19
:102C800081B27143C90C01EB8101A0EB410909F24A
:102C9000DB1080B2FF210022002300F04BFC07F282
:102CA000DB1080B2FF210022002300F043FC05F27C
:102CB000DB1080B2FF210022002300F03BFC04FB6C
:102CC00006F0C00C00EB8000A4EB400404F2E51019
:102CD00080B2FF210022002300F02CFC09F2E51055
:102CE00080B2FF210022002300F024FC07F2E5104F
:102CF00080B2FF210022002300F01CFC09F2EF103B
:102D000080B2FF210022002300F014FC07F2EF1034
:102D100080B2FF210022002300F00CFC05F2EF102E
:102D200080B2FF210022002300F004FC07F2F9101A
:102D300080B2FF210022002300F0FCFB05F2F91015
:102D400080B2FF210022002300F0F4FB0AF2F91008
:102D500080B2FF210022002300F0ECFB05F20320EB
:102D600080B2FF210022002300F0E4FB0AF20320DE
:102D700080B2FF210022002300F0DCFB08F20320D8
:102D800080B2FF210022002300F0D4FB05F20D20C9
:102D900080B2FF210022002300F0CCFB0AF20D20BC
:102DA00080B2FF210022002300F0C4FB08F20D20B6
:102DB00080B2FF210022002300F0BCFB07F21720A5
:102DC00080B2FF210022002300F0B4FB05F217209F
:102DD00080B2FF210022002300F0ACFB0AF2172092
:102DE00080B2FF210022002300F0A4FB09F2212081
:102DF00080B2FF210022002300F09CFB07F221207B
:102E000080B2FF210022002300F094FB05F2212074
:102E100080B2FF210022002300F08CFB04F22B2063
:102E200080B2FF210022002300F084FB09F22B2056
:102E300080B2FF210022002300F07CFB07F22B2050
:102E400080B2FF210022002300F074FB09F235203C
:102E500080B2FF210022002300F06CFB07F2352036
:102E600080B2FF210022002300F064FB05F2352030
:102E700080B2FF210022002300F05CFB07F23F201C
:102E800080B2FF210022002300F054FB05F23F2016
:102E900080B2FF210022002300F04CFB0AF23F2009
:102EA00080B2FF210022002300F044FB05F24920FC
:102EB00080B2FF210022002300F03CFB0AF24920EF
:102EC00080B2FF210022002300F034FB08F24920E9
:102ED00080B2FF210022002300F02CFB05F25320DA
:102EE00080B2FF210022002300F024FB0AF25320CD
:102EF00080B2FF210022002300F01CFB08F25320C7
:102F000080B2FF210022002300F014FB07F25D20B5
:102F100080B2FF210022002300F00CFB05F25D20AF
:102F200080B2FF210022002300F004FB0AF25D20A2
:102F300080B2FF210022002300F0FCFA09F2672092
:102F400080B2FF210022002300F0F4FA07F267208C
:102F500080B2FF210022002300F0ECFA05F2672086
:102F600080B2FF210022002300F0E4FA04F2712075
:102F700080B2FF210022002300F0DCFA09F2712068
:102F800080B2FF210022002300F0D4FA07F2712062
:102F900080B2FF210022002300F0CCFA09F27B204E
:102FA00080B2FF210022002300F0C4FA07F27B2048
:102FB00080B2FF210022002300F0BCFA05F27B2042
:102FC00080B2FF210022002300F0B4FA07F285202E
:102FD00080B2FF210022002300F0ACFA05F2852028
:102FE00080B2FF210022002300F0A4FA0AF285201B
:102FF00080B2FF210022002300F09CFA05F28F200E
:1030000080B2FF210022002300F094FA0AF28F2000
:1030100080B2FF210022002300F08CFA08F28F20FA
:1030200080B2FF210022002300F084FA05F29920EB
:1030300080B2FF210022002300F07CFA0AF29920DE
:1030400080B2FF210022002300F074FA08F29920D8
:1030500080B2FF210022002300F06CFA07F2A320C7
:1030600080B2FF210022002300F064FA05F2A320C1
:1030700080B2FF210022002300F05CFA0AF2A320B4
:1030800080B2FF210022002300F054FA09F2AD20A3
:1030900080B2FF210022002300F04CFA07F2AD209D
:1030A00080B2FF210022002300F044FA05F2AD2097
:1030B00080B2FF210022002300F03CFA04F2B72086
:1030C00080B2FF210022002300F034FA09F2B72079
:1030D00080B2FF210022002300F02CFA07F2B72073
:1030E00080B2FF210022002300F024FA09F2C1205F
:1030F00080B2FF210022002300F01CFA07F2C12059
:1031000080B2FF210022002300F014FA05F2C12052
:1031100080B2FF210022002300F00CFA07F2CB203E
:1031200080B2FF210022002300F004FA05F2CB2038
:1031300080B2FF210022002300F0FCF90AF2CB202C
:1031400080B2FF210022002300F0F4F905F2D5201F
:1031500080B2FF210022002300F0ECF90AF2D52012
:1031600080B2FF210022002300F0E4F908F2D5200C
:1031700080B2FF210022002300F0DCF940F21B3571
:10318000ACB22046FF210022002300F0D3F9B4F5B1
:10319000587F05F10105F3D3BDE8F04700F0AEB864
:1031A00070470000FDF7A2BF7047000044F2941082
:1031B000C2F20000FEF706BE44F22420C2F2000074
:1031C000FEF700BE10B5446A616A884212D0A16A57
:1031D000884217D0E16A88421CD0216B884220D1F6
:1031E000806908210028217704BF012084F841006C
:1031F00017E000BF816901200029207708BF84F80B
:103200003E000EE080690221217750B9012084F848
:103210003F0006E080690421217710B9012084F87D
:1032200040002046FEF7FAFF0020207710BD000086
:1032300010B5446A616A88420AD0A16A884209D0FE
:10324000E16A884208D0216B884207D1082004E057
:10325000012002E0022000E0042020772046FFF752
:1032600023F80020207710BD10B5446A616A8842B7
:103270000CD0A16A88420FD0E16A884212D0216B3B
:10328000884215D0012084F83D0016E00120207707
:1032900084F83E0011E000BF02202077012084F86E
:1032A0003F000AE004202077012084F8400004E079
:1032B00008202077012084F841002046FEF77EFD9B
:1032C0000020207710BD000043F6D470C2F2000049
:1032D000FDF7C0B9FEE7000080B540F2CC00C2F2B5
:1032E000000040F62321FCF785FF40F6F020C2F2F3
:1032F000000043F2E441FCF77DFF80BD2DE9F04F73
:1033000081B040F6F02A40F2CC084FF0000BC2F238
:10331000000AC2F200082AE000244FF0000C0AEB79
:103320004C006421FCF766FFAE686D6809EB49004C
:10333000322101EBC00083B2284631465246FEF7E7
:10334000B5FFC4EB041048F638114000C0F241014B
:10335000A0FB0101881DFDF7A1FD28463146FFF7BE
:10336000C1F80BF1010BBBF1060F00F0C18044F670
:10337000E0210BEB4B00C0F6000131F8209001EB8F
:103380008005B9F1000FC7D0B5F802E009EB49009C
:1033900002014FEAC00C0023002600950EEB060048
:1033A00080B200EB400008EB000595F9014039219F
:1033B00018F9007095F90200B4F1FF3FC8BF1D2154
:1033C0002AF8031061064FF039010AEB030558BFD4
:1033D0001D216980A1064FF0390158BF1D21A98028
:1033E000E1064FF0390158BF1D21E98021074FF058
:1033F000390158BF1D21298161074FF0390158BF9C
:103400001D216981A1074FF0390158BF1D21A981F4
:10341000E1074FF0390108BF1D21E9813921B7F1DA
:10342000FF3FC8BF1D21298279064FF0390158BFDF
:103430001D216982B9064FF0390158BF1D21A982AB
:10344000F9064FF0390158BF1D21E98239074FF0C5
:10345000390158BF1D21298379074FF0390158BF21
:103460001D216983B9074FF0390158BF1D21A98378
:10347000F9074FF0390108BF1D21E9833921B0F167
:10348000FF3FC8BF1D21298441064FF0390158BFB5
:103490001D21698481064FF0390158BF1D21A9847F
:1034A000C1064FF0390158BF1D21E98401074FF0D3
:1034B000390158BF1D21298541074FF0390158BFF7
:1034C0001D21698581074FF0390158BF1D21C007B3
:1034D0004FF0390003F13003A98508BF1D209A423F
:1034E00006F10106E8857FF459AF009D4C4616E7CA
:1034F00001B0BDE8F08F000010B540F2CC0C002305
:10350000C2F2000C40F6232E0CEB03040CF803006F
:103510000F3373456170A270E07021716271A07108
:10352000E17122726072A172E27220736173A27300
:10353000EAD110BDB0F5587F88BF704780B540F222
:10354000CC0C00EB4000C2F2000C0CEB000E0CF8AF
:1035500000108EF801208EF80230BDE880407047E0
:1035600096B0FDF7D1FD00240120CDE91144CDE94D
:103570000F440C9010904FF4E0104FF4803102256E
:1035800015900CA8CDE90D14CDE91351FDF742FFBC
:1035900020B1EFF3108072B6FEE700BF0F20CDE937
:1035A00007054FF48060CDE90A0407A802210994B9
:1035B000FDF752FE20B1EFF3108072B6FEE700BFB8
:1035C000FFF7CAF8FFF786F8FFF706F9FFF764F888
:1035D000FFF7CAF9FFF78EFAFDF782FD04460020D7
:1035E000CDE90C0044F22420C2F20000FEF7DEFA1E
:1035F00020B1EFF3108072B6FEE700BF0294FCF733
:103600005FFEFFF769FE002000210022FFF774FF34
:1036100040F21B34A5B22846FF2100220023FFF709
:1036200089FFB5F5587F04F10104F3D3FFF766FE77
:10363000FF2040F2700706900026C2F2000740F219
:10364000DE2B40F21A38002500204FF0000ACDE9A9
:103650000300019007E000BF80B2FFF7A7FA00BFA8
:103660000120FDF71BFC40F27800C2F20000047854
:1036700097F80090B9F1000F18BF3E700698844289
:1036800010D0002C00F08E81FDF72AFD0290002062
:103690000025FFF78BFA0020CDE9030006944FF0D8
:1036A000000A0190B4FA84F0B9F1000F4FEA50110A
:1036B00018BF002C01F06E80BAF1000F41F06A8053
:1036C0007878002841F066800120787043F6D47045
:1036D0000591C2F2000040F221310CAAFFF74CFA2A
:1036E000002000210022FFF707FFA9F101000928AF
:1036F00001F2C080DFE810F00A00620382017A055F
:103700009806BE08BA028C040A059E070120FF2114
:1037100000220023FFF70EFF0220FF2100220023DA
:10372000FFF708FF0320FF2100220023FFF702FF1D
:103730000420FF2100220023FFF7FCFE0520FF21CB
:1037400000220023FFF7F6FE0620FF2100220023BF
:10375000FFF7F0FE0720FF2100220023FFF7EAFE1B
:103760000820FF2100220023FFF7E4FE0920FF21AB
:1037700000220023FFF7DEFE0A20FF2100220023A3
:10378000FFF7D8FE0B20FF2100220023FFF7D2FE17
:103790000C20FF2100220023FFF7CCFE0D20FF218B
:1037A00000220023FFF7C6FE0E20FF210022002387
:1037B000FFF7C0FE0F20FF2100220023FFF7BAFE13
:1037C0001020FF2100220023FFF7B4FE1120FF216B
:1037D00000220023FFF7AEFE1220FF21002200236B
:1037E000FFF7A8FE1320FF2100220023FFF7A2FE0F
:1037F0001420FF2100220023FFF79CFE1520FF214B
:1038000000220023FFF796FE1620FF21002200234E
:10381000FFF790FE1720FF2100220023FFF78AFE0A
:103820001820FF2100220023FFF784FE1920FF212A
:1038300000220023FFF77EFE1A20FF210022002332
:10384000FFF778FE1B20FF2100220023FFF772FE06
:103850001C20FF2100220023FFF76CFE1D20FF210A
:1038600000220023FFF766FE1E20FF210022002316
:10387000FFF760FE1F20FF2100220023FFF75AFE02
:103880002020FF2100220023FFF754FE2120FF21EA
:1038900000220023FFF74EFE2220FF2100220023FA
:1038A000FFF748FE2320FF2100220023FFF742FEFE
:1038B0002420FF2100220023FFF73CFE2520FF21CA
:1038C00000220023FFF736FE2620FF2100220023DE
:1038D000FFF730FE2720FF2100220023FFF72AFEFA
:1038E0002820FF2100220023FFF724FE2920FF21AA
:1038F00000220023FFF71EFE2A20FF2100220023C2
:10390000FFF718FE2B20FF2100220023FFF712FEF5
:103910002C20FF2100220023FFF70CFE2D20FF2189
:1039200000220023FFF706FE2E20FF2100220023A5
:10393000FFF700FE2F20FF2100220023FFF7FAFDF2
:1039400040F2C714A7B23846FF2100220023FFF738
:10395000F1FD5F4504F10104F4D340F2DF2400BF20
:10396000A7B23846FF2100220023FFF7E3FD4745B9
:1039700004F10104F4D340F21B3400BFA7B238466F
:10398000FF2100220023FFF7D5FD78091A2804F152
:103990000104F3D92F20039001200125049000F0A9
:1039A000F0BE00BFBAF1000F04D000200121069044
:1039B00000F0EEBE002000210022CDF81490FFF7A9
:1039C0009BFD40F21B3600BFB7B23846FF210022F4
:1039D0000023FFF7AFFDB7F5587F06F10106F3D3DB
:1039E000FFF78CFC40F27007DDF8149000204FF0D8
:1039F000000A0026C2F20007069053E65A20FF2173
:103A000000220023FFF796FD5B20FF210022002308
:103A1000FFF790FD5C20FF2100220023FFF78AFDC5
:103A20005D20FF2100220023FFF784FD5E20FF219F
:103A300000220023FFF77EFD5F20FF2100220023EC
:103A4000FFF778FD6020FF2100220023FFF772FDC1
:103A50006120FF2100220023FFF76CFD6220FF217F
:103A600000220023FFF766FD6320FF2100220023D0
:103A7000FFF760FD6420FF2100220023FFF75AFDBD
:103A80006520FF2100220023FFF754FD6620FF215F
:103A900000220023FFF74EFD6720FF2100220023B4
:103AA000FFF748FD6820FF2100220023FFF742FDB9
:103AB0006920FF2100220023FFF73CFD6A20FF213F
:103AC00000220023FFF736FD6B20FF210022002398
:103AD000FFF730FD6C20FF2100220023FFF72AFDB5
:103AE0006D20FF2100220023FFF724FD6E20FF211F
:103AF00000220023FFF71EFD6F20FF21002200237C
:103B0000FFF718FD7020FF2100220023FFF712FDB0
:103B10007120FF2100220023FFF70CFD7220FF21FE
:103B200000220023FFF706FD7320FF21002200235F
:103B3000FFF700FD7420FF2100220023FFF7FAFCAD
:103B40007520FF2100220023FFF7F4FC7620FF21DF
:103B500000220023FFF7EEFC7720FF210022002344
:103B6000FFF7E8FC7820FF2100220023FFF7E2FCAA
:103B70007920FF2100220023FFF7DCFC7A20FF21BF
:103B800000220023FFF7D6FC7B20FF210022002328
:103B9000FFF7D0FC7C20FF2100220023FFF7CAFCA6
:103BA0007D20FF2100220023FFF7C4FC7E20FF219F
:103BB00000220023FFF7BEFC7F20FF21002200230C
:103BC000FFF7B8FC8020FF2100220023FFF7B2FCA2
:103BD0008120FF2100220023FFF7ACFC8220FF217F
:103BE00000220023FFF7A6FC8320FF2100220023F0
:103BF000FFF7A0FC8420FF2100220023FFF79AFC9E
:103C00008520FF2100220023FFF794FC40F2C71417
:103C1000A7B23846FF2100220023FFF78BFC5F4547
:103C200004F10104F4D340F2DF2400BFA7B2384608
:103C3000FF2100220023FFF77DFC474504F101042A
:103C4000F4D340F21B3400BFA7B23846FF21002254
:103C50000023FFF76FFC78091A2804F10104F3D957
:103C6000852003905A2000F08ABD00BFE620FF2186
:103C700000220023FFF75EFCE720FF210022002343
:103C8000FFF758FCE820FF2100220023FFF752FC39
:103C9000E920FF2100220023FFF74CFCEA20FF214E
:103CA00000220023FFF746FCEB20FF210022002327
:103CB000FFF740FCEC20FF2100220023FFF73AFC35
:103CC000ED20FF2100220023FFF734FCEE20FF212E
:103CD00000220023FFF72EFCEF20FF21002200230B
:103CE000FFF728FCF020FF2100220023FFF722FC31
:103CF000F120FF2100220023FFF71CFCF220FF210E
:103D000000220023FFF716FCF320FF2100220023EE
:103D1000FFF710FCF420FF2100220023FFF70AFC2C
:103D2000F520FF2100220023FFF704FCF620FF21ED
:103D300000220023FFF7FEFBF720FF2100220023D3
:103D4000FFF7F8FBF820FF2100220023FFF7F2FB2A
:103D5000F920FF2100220023FFF7ECFB40F2C714FB
:103D6000A7B23846FF2100220023FFF7E3FB5F459F
:103D700004F10104F4D340F2DF2400BFA7B23846B7
:103D8000FF2100220023FFF7D5FB474504F1010482
:103D9000F4D340F21B3400BFA7B23846FF21002203
:103DA0000023FFF7C7FB78091A2804F10104F3D9AF
:103DB000F9200390E62000F0E2BC00BF3020FF2194
:103DC00000220023FFF7B6FB3120FF210022002351
:103DD000FFF7B0FB3220FF2100220023FFF7AAFBF0
:103DE0003320FF2100220023FFF7A4FB3420FF2112
:103DF00000220023FFF79EFB3520FF210022002335
:103E0000FFF798FB3620FF2100220023FFF792FBEB
:103E10003720FF2100220023FFF78CFB3820FF21F1
:103E200000220023FFF786FB3920FF210022002318
:103E3000FFF780FB3A20FF2100220023FFF77AFBE7
:103E40003B20FF2100220023FFF774FB3C20FF21D1
:103E500000220023FFF76EFB3D20FF2100220023FC
:103E6000FFF768FB3E20FF2100220023FFF762FBE3
:103E70003F20FF2100220023FFF75CFB4020FF21B1
:103E800000220023FFF756FB4120FF2100220023E0
:103E9000FFF750FB4220FF2100220023FFF74AFBDF
:103EA0004320FF2100220023FFF744FB4420FF2191
:103EB00000220023FFF73EFB4520FF2100220023C4
:103EC000FFF738FB4620FF2100220023FFF732FBDB
:103ED0004720FF2100220023FFF72CFB4820FF2171
:103EE00000220023FFF726FB4920FF2100220023A8
:103EF000FFF720FB4A20FF2100220023FFF71AFBD7
:103F00004B20FF2100220023FFF714FB4C20FF2150
:103F100000220023FFF70EFB4D20FF21002200238B
:103F2000FFF708FB4E20FF2100220023FFF702FBD2
:103F30004F20FF2100220023FFF7FCFA5020FF2131
:103F400000220023FFF7F6FA5120FF210022002370
:103F5000FFF7F0FA5220FF2100220023FFF7EAFAD0
:103F60005320FF2100220023FFF7E4FA5420FF2111
:103F700000220023FFF7DEFA5520FF210022002354
:103F8000FFF7D8FA5620FF2100220023FFF7D2FACC
:103F90005720FF2100220023FFF7CCFA5820FF21F1
:103FA00000220023FFF7C6FA5920FF210022002338
:103FB000FFF7C0FA40F2C714A7B23846FF2100222B
:103FC0000023FFF7B7FA5F4504F10104F4D340F290
:103FD000DF2400BFA7B23846FF2100220023FFF7ED
:103FE000A9FA474504F10104F4D340F21B3400BFA1
:103FF000A7B23846FF2100220023FFF79BFA780979
:104000001A2804F10104F3D9592003903020B6E3B3
:10401000FA20FF2100220023FFF78CFAFB20FF216A
:1040200000220023FFF786FAFC20FF210022002354
:10403000FFF780FAFD20FF2100220023FFF77AFA24
:10404000FE20FF2100220023FFF774FAFF20FF214A
:1040500000220023FFF76EFA4FF48070FF21002248
:104060000023FFF767FA40F20110FF21002200232E
:10407000FFF760FA4FF48170FF2100220023FFF761
:1040800059FA40F20310FF2100220023FFF752FAF1
:104090004FF48270FF2100220023FFF74BFA40F219
:1040A0000510FF2100220023FFF744FA40F2C71455
:1040B000A7B23846FF2100220023FFF73BFA5F45F5
:1040C00004F10104F4D340F2DF2400BFA7B2384664
:1040D000FF2100220023FFF72DFA474504F10104D8
:1040E000F4D340F21B3400BFA7B23846FF210022B0
:1040F0000023FFF71FFA78091A2804F10104F3D905
:1041000040F205100390FA2039E300BF4FF48370AA
:10411000FF2100220023FFF70DFA40F20710FF21D4
:1041200000220023FFF706FA4FF48470FF210022DB
:104130000023FFF7FFF940F20910FF2100220023BE
:10414000FFF7F8F94FF48570FF2100220023FFF7F5
:10415000F1F940F20B10FF2100220023FFF7EAF9EA
:104160004FF48670FF2100220023FFF7E3F940F2AD
:104170000D10FF2100220023FFF7DCF94FF48770B8
:10418000FF2100220023FFF7D5F940F2C71400BF3A
:10419000A7B23846FF2100220023FFF7CBF95F4585
:1041A00004F10104F4D340F2DF2400BFA7B2384683
:1041B000FF2100220023FFF7BDF9474504F1010468
:1041C000F4D340F21B3400BFA7B23846FF210022CF
:1041D0000023FFF7AFF978091A2804F10104F3D995
:1041E0004FF4877003904FF48370C8E28620FF215C
:1041F00000220023FFF79EF98720FF2100220023E1
:10420000FFF798F98820FF2100220023FFF792F999
:104210008920FF2100220023FFF78CF98A20FF214B
:1042200000220023FFF786F98B20FF2100220023C4
:10423000FFF780F98C20FF2100220023FFF77AF995
:104240008D20FF2100220023FFF774F98E20FF212B
:1042500000220023FFF76EF98F20FF2100220023A8
:10426000FFF768F99020FF2100220023FFF762F991
:104270009120FF2100220023FFF75CF99220FF210B
:1042800000220023FFF756F99320FF21002200238C
:10429000FFF750F99420FF2100220023FFF74AF98D
:1042A0009520FF2100220023FFF744F99620FF21EB
:1042B00000220023FFF73EF99720FF210022002370
:1042C000FFF738F99820FF2100220023FFF732F989
:1042D0009920FF2100220023FFF72CF99A20FF21CB
:1042E00000220023FFF726F99B20FF210022002354
:1042F000FFF720F99C20FF2100220023FFF71AF985
:104300009D20FF2100220023FFF714F99E20FF21AA
:1043100000220023FFF70EF99F20FF210022002337
:10432000FFF708F9A020FF2100220023FFF702F980
:10433000A120FF2100220023FFF7FCF8A220FF218B
:1043400000220023FFF7F6F8A320FF21002200231C
:10435000FFF7F0F8A420FF2100220023FFF7EAF87E
:10436000A520FF2100220023FFF7E4F8A620FF216B
:1043700000220023FFF7DEF8A720FF210022002300
:10438000FFF7D8F8A820FF2100220023FFF7D2F87A
:10439000A920FF2100220023FFF7CCF8AA20FF214B
:1043A00000220023FFF7C6F8AB20FF2100220023E4
:1043B000FFF7C0F8AC20FF2100220023FFF7BAF876
:1043C000AD20FF2100220023FFF7B4F840F2C7140C
:1043D000A7B23846FF2100220023FFF7ABF85F4564
:1043E00004F10104F4D340F2DF2400BFA7B2384641
:1043F000FF2100220023FFF79DF8474504F1010447
:10440000F4D340F21B3400BFA7B23846FF2100228C
:104410000023FFF78FF878091A2804F10104F3D973
:10442000AD2003908620AAE1AE20FF2100220023C8
:10443000FFF780F8AF20FF2100220023FFF77AF872
:10444000B020FF2100220023FFF774F8B120FF21E4
:1044500000220023FFF76EF8B220FF210022002384
:10446000FFF768F8B320FF2100220023FFF762F86E
:10447000B420FF2100220023FFF75CF8B520FF21C4
:1044800000220023FFF756F8B620FF210022002368
:10449000FFF750F8B720FF2100220023FFF74AF86A
:1044A000B820FF2100220023FFF744F8B920FF21A4
:1044B00000220023FFF73EF8BA20FF21002200234C
:1044C000FFF738F8BB20FF2100220023FFF732F866
:1044D000BC20FF2100220023FFF72CF8BD20FF2184
:1044E00000220023FFF726F8BE20FF210022002330
:1044F000FFF720F8BF20FF2100220023FFF71AF862
:10450000C020FF2100220023FFF714F8C120FF2163
:1045100000220023FFF70EF8C220FF210022002313
:10452000FFF708F8C320FF2100220023FFF702F85D
:10453000C420FF2100220023FEF7FCFFC520FF213D
:1045400000220023FEF7F6FFC620FF2100220023F1
:10455000FEF7F0FFC720FF2100220023FEF7EAFF4D
:10456000C820FF2100220023FEF7E4FFC920FF211D
:1045700000220023FEF7DEFFCA20FF2100220023D5
:10458000FEF7D8FFCB20FF2100220023FEF7D2FF49
:10459000CC20FF2100220023FEF7CCFFCD20FF21FD
:1045A00000220023FEF7C6FFCE20FF2100220023B9
:1045B000FEF7C0FFCF20FF2100220023FEF7BAFF45
:1045C000D020FF2100220023FEF7B4FFD120FF21DD
:1045D00000220023FEF7AEFF40F2C714A7B2384610
:1045E000FF2100220023FEF7A5FF5F4504F101042F
:1045F000F4D340F2DF2400BFA7B23846FF210022E7
:104600000023FEF797FF474504F10104F4D340F27D
:104610001B3400BFA7B23846FF2100220023FEF75B
:1046200089FF78091A2804F10104F3D9D1200390F5
:10463000AE20A4E0D220FF2100220023FEF77AFF63
:10464000D320FF2100220023FEF774FFD420FF2196
:1046500000220023FEF76EFFD520FF210022002359
:10466000FEF768FFD620FF2100220023FEF762FF3D
:10467000D720FF2100220023FEF75CFFD820FF2176
:1046800000220023FEF756FFD920FF21002200233D
:10469000FEF750FFDA20FF2100220023FEF74AFF39
:1046A000DB20FF2100220023FEF744FFDC20FF2156
:1046B00000220023FEF73EFFDD20FF210022002321
:1046C000FEF738FFDE20FF2100220023FEF732FF35
:1046D000DF20FF2100220023FEF72CFFE020FF2136
:1046E00000220023FEF726FFE120FF210022002305
:1046F000FEF720FFE220FF2100220023FEF71AFF31
:10470000E320FF2100220023FEF714FFE420FF2115
:1047100000220023FEF70EFFE520FF2100220023E8
:10472000FEF708FF40F2C714A7B23846FF21002267
:104730000023FEF7FFFE5F4504F10104F4D340F2CD
:10474000DF2400BFA7B23846FF2100220023FEF776
:10475000F1FE474504F10104F4D340F21B3400BFDD
:10476000A7B23846FF2100220023FEF7E3FE7809B6
:104770001A2804F10104F3D9E5200390D220049013
:10478000012540F27007C2F20007FEF7B7FD059958
:104790004FF0010AB9F1000F08BF7E7000297EF4C6
:1047A0005FAF1DB9BAF1000F7EF45AAFFCF798FC69
:1047B0000299401A9628FEF453AFFCF791FC81460B
:1047C00001984CF6CD42093081B25143C90C01EB3E
:1047D0008101002DA0EB4100CDE901093EF43CAF81
:1047E000002000210022FEF787FE039884B204987F
:1047F00080B2A0420AD8049EB0B2FF21002200235A
:10480000FEF798FE0136B0B2A042F5D940F2C714C7
:10481000A7B23846FF2100220023FEF78BFE5F453A
:1048200004F10104F4D340F2DF2400BFA7B23846FC
:10483000FF2100220023FEF77DFE474504F101041D
:10484000F4D340F21B3400BFA7B23846FF21002248
:104850000023FEF76FFE78091A2804F10104F3D94A
:10486000FEF74CFD40F270070026C2F20007FEF78B
:10487000F7BE00BFFA20FF2100220023FEF75AFEF8
:10488000FB20FF2100220023FEF754FEFC20FF2125
:1048900000220023FEF74EFEFD20FF210022002310
:1048A000FEF748FEFE20FF2100220023FEF742FE15
:1048B000FF20FF2100220023FEF73CFE4FF4807012
:1048C000FF2100220023FEF735FE40F20110FF21F8
:1048D00000220023FEF72EFE4FF48170FF210022FC
:1048E0000023FEF727FE40F20310FF2100220023E1
:1048F000FEF720FE4FF48270FF2100220023FEF716
:1049000019FE40F20510FF2100220023FEF712FEDF
:1049100040F20F14A7B23846FF2100220023FEF711
:1049200009FEB7F5E37F04F10104F3D340F2C714A5
:10493000A7B23846FF2100220023FEF7FBFD5F45AA
:1049400004F10104F4D340F2DF2400BFA7B23846DB
:10495000FF2100220023FEF7EDFD474504F101048D
:10496000F4D340F21B3400BFA7B23846FF21002227
:1049700000230025FEF7DEFDB7F5587F04F10104A2
:10498000F2D3FEE600000000000000000102030474
:1049900006070809010202030405060708090A0BB5
:1049A0000C0D0E0F101000000200000004000000AB
:1049B0000800000010000000FDFFFFFFFBFFFFFFED
:1049C000F7FFFFFFEFFFFFFFFFFDFFFFFFFBFFFF15
:1049D000FFF7FFFFFFEFFFFF0000010002000A00EA
:1049E0000B000C000D000E00160017001800190037
:1049F0001A00220023002400250026002E002F008C
:104A00003000300031003200330034003500360011
:104A10003700380039003A003B003C003D003E00C2
:104A20003F00400041004200430044004500460072
:104A30004700480049004A004B004C004D004E0022
:104A40004F005000510052005300540055005600D2
:104A50005700580059005A005B006500660070005E
:104A600071007B007C0086008700900091009A0016
:104A70009B00A400A500AE00AF00B000B100B200E2
:104A8000B300B400B500B600B700B800B900BA0072
:104A9000BB00BC00BD00BE00BF00C000C100C20022
:104AA000C300C400C500C600C700C800C900CA00D2
:104AB000CB00CC00CD00CE00CF00D000D100D20082
:104AC000D700DC00E100E600EB00F000F500060195
:104AD0000701080109010A010B010C010D010E017A
:104AE0000F01000094410020040000005C000F0151
:104AF000DC410020000000005C006B01DC41002074
:104B0000080000001801C7019441002000000000C7
:104B10003C00DF02944100200800000046001B0317
:104B2000DC41002004000000484B00080000002089
:104B30001000000050010008584B00081000002031
:104B4000684800007001000801000000100000002B
:084B500000127A0000000000D1
:04000005080000ED02
:00000001FF
