:020000040800F2
:1000000038460020550200088122000845210008DA
:100010007D220008B90700086933000800000000CD
:10002000000000000000000000000000BD220008E9
:10003000110800080000000085220008592300086C
:100040006F0200086F0200086F0200086F020008CC
:100050006F0200086F0200086F0200086F020008BC
:100060006F0200086F0200086F0200086F020008AC
:100070006F0200086F0200086F0200086F0200089C
:100080006F0200086F0200086F0200086F0200088C
:100090006F0200086F0200086F0200086F0200087C
:1000A0006F0200086F0200086F0200086F0200086C
:1000B0001D2400086F0200086F0200086F0200088C
:1000C0006F0200086F0200086F0200086F0200084C
:1000D0006F0200086F0200086F0200086F0200083C
:1000E0006F0200086F0200086F0200086F0200082C
:1000F0006F0200086F0200086F0200086F0200081C
:100100006F0200086F0200086F0200086F0200080B
:100110006F0200086F0200086F0200086F020008FB
:100120006F0200086F0200086F0200086F020008EB
:100130006F0200086F0200086F0200086F020008DB
:10014000BD0700086F0200086F0200086F02000878
:100150006F0200086F0200086F0200086F020008BB
:100160006F0200086F0200086F0200086F020008AB
:100170006F0200086F0200086F0200080000000014
:100180006F0200086F02000800F002F800F052F859
:1001900014A696E8000CB244B344DA4501D100F04D
:1001A00049F8BAE80F000FA696E83000A5EB040561
:1001B00004EB0607AAEB0704A7F101074FEA1515A0
:1001C0004FEA3414A4F10104AC4201D300F032F838
:1001D00013F0010F18BFFB1A43F0010300F001F800
:1001E000DBE718475833000078330000103A24BF8B
:1001F00078C878C1FAD8520724BF30C830C144BF8C
:1002000004680C6070470000704700000023002461
:1002100000250026103A28BF78C1FBD8520728BF16
:1002200030C148BF0B6070471FB503F072F91FBDA6
:1002300010B510BD00F0D0F81146FFF7F5FF03F040
:1002400095F800F0EEF803B4FFF7F2FF03BC00F0FE
:10025000F5F800000948804709480047FEE7FEE737
:10026000FEE7FEE7FEE7FEE7FEE7FEE7FEE7FEE766
:1002700004480549054A064B704700000924000858
:100280008901000838060020384600203826002062
:100290003826002053EA020C00F069802DE9F04B6B
:1002A0004FF00006002B1FBFB3FA83F503FA05F4E5
:1002B00024FA05F65E4012BF1643B2FA82F502FA3E
:1002C00005F4C5F120051EBF22FA05FC44EA0C0422
:1002D000203556EA044C4FEA144418BF641C4FF012
:1002E00000084FF00009904271EB030C39D300294C
:1002F00019BFB1FA81F701FA07F6B0FA80F700FAF0
:1003000007F6C7F120071EBF20FA07FC46EA0C06D5
:100310002037B6FBF4FCA7EB0507103F07F01F0BD7
:10032000CBF120062CFA06F60CFA0BFB44BFB346C1
:100330000026202FA4BF5E464FF0000B5BEA060CA0
:1003400008BF4FF0010B19EB0B0948EB0608ABFB9C
:10035000027C06FB02CC0BFB03CCC01B71EB0C0137
:10036000C1E70B46024641464846BDE8F08B13B54F
:10037000084318BF4FF0FF300146AFF30080BDE8DF
:100380001C4070474FF0000200B513469446964655
:10039000203922BFA0E80C50A0E80C50B1F1200198
:1003A000BFF4F7AF090728BFA0E80C5048BF0CC046
:1003B0005DF804EB890028BF40F8042B08BF7047A4
:1003C00048BF20F8022B11F0804F18BF00F8012B16
:1003D0007047704770477047754600F02BF8AE467F
:1003E00005006946534620F00700854618B020B541
:1003F000FFF73EFFBDE820404FF000064FF000073A
:100400004FF000084FF0000BAC46ACE8C009ACE878
:10041000C009ACE8C009ACE8C00921F007018D466D
:10042000704710B50446AFF300802046BDE8104089
:10043000FFF709BF0048704710000020014918204D
:10044000ABBEFEE72600020070470000F0B542F2A6
:100450000020C4F2010000210160826847F65F11AC
:10046000CFF6FE7142F0804282600A4603689B0725
:1004700028D403689B075CBF03685FEA837321D4B9
:1004800003689B075CBF03685FEA83731AD4036841
:100490009B075CBF03685FEA837313D403689B0701
:1004A0005CBF03685FEA83730CD403689B075CBF7F
:1004B00003685FEA837305D40B32D7D14FF0000C89
:1004C00003E000BFC26C1FFA82FC00220260826857
:1004D00042F0804282600A4603689B075FBF036860
:1004E0005FEA837303685FEA837321D403689B0721
:1004F0005CBF03685FEA83731AD403689B075CBF21
:1005000003685FEA837313D403689B075CBF0368C7
:100510005FEA83730CD403689B075CBF03685FEAE0
:10052000837305D40B32D7D14FF0000E03E000BF28
:10053000C26C1FFA82FE00220260826842F0804292
:1005400082600A4603689B075FBF03685FEA8373A4
:1005500003685FEA83731FD403689B075CBF03686B
:100560005FEA837318D403689B075CBF03685FEA84
:10057000837311D403689B075CBF03685FEA8373CE
:100580000AD403689B075CBF03685FEA837303D4E4
:100590000B32D7D1002201E0C26C92B2002303607B
:1005A000836843F0804383600B460468A4075FBF01
:1005B00004685FEA847404685FEA847420D4046881
:1005C000A4075CBF04685FEA847419D40468A407B4
:1005D0005CBF04685FEA847412D40468A4075CBF3B
:1005E00004685FEA84740BD40468A4075CBF0468E1
:1005F0005FEA847404D40B33D7D1002302E000BF38
:10060000C36C9BB200240460846844F0804484601E
:100610000C460568AD075FBF05685FEA857505682C
:100620005FEA857520D40568AD075CBF05685FEAA1
:10063000857519D40568AD075CBF05685FEA8575E7
:1006400012D40568AD075CBF05685FEA85750BD4F9
:100650000568AD075CBF05685FEA857504D40B3497
:10066000D7D1002402E000BFC46CA4B2002505600D
:10067000856845F0804585600D460668B6075FBF12
:1006800006685FEA867606685FEA867620D40668A2
:10069000B6075CBF06685FEA867619D40668B607B7
:1006A0005CBF06685FEA867612D40668B6075CBF50
:1006B00006685FEA86760BD40668B6075CBF0668F4
:1006C0005FEA867604D40B35D7D1002502E000BF5F
:1006D000C56CADB200260660866846F0804686602E
:1006E0000E460768BF075FBF07685FEA877707683E
:1006F0005FEA877720D40768BF075CBF07685FEAB7
:10070000877719D40768BF075CBF07685FEA8777F8
:1007100012D40768BF075CBF07685FEA87770BD40E
:100720000768BF075CBF07685FEA877704D40B36AA
:10073000D7D1002602E000BFC66CB6B20027076022
:10074000876847F0804787600768BF075FBF076813
:100750005FEA877707685FEA87771FD40768BF0774
:100760005CBF07685FEA877718D40768BF075CBF7C
:1007700007685FEA877711D40768BF075CBF07681F
:100780005FEA87770AD40768BF075CBF07685FEA3C
:10079000877703D40B31D7D1002001E0C06C80B241
:1007A0000EEB0C01114419442144294431440844FE
:1007B000C0F3CF00F0BD0000FEE7000040F2D4001F
:1007C000C2F2000000F09EB970B540F2900440F211
:1007D000D405C2F200040E2601200021C2F2000559
:1007E000C4E90806C4E90011C4E90211C4E9041609
:1007F000C4E906102846214600F07AF8284600F0A1
:10080000EFFB2846022100F009F86662666170BDC0
:100810007047000072B600BFFEE7000090F820208D
:10082000013A012A08D8006800F114020020136878
:1008300019431160704700BF00F1240201204FF4FA
:1008400080211368194311607047000010B590F8BB
:1008500020E0D0F800C0AEF1010EBEF1010FDCF8CF
:1008600008E011D81EF0E05F18D0CEF3016401203B
:10087000A04018608B68DBB1D1F804E0C86840EA9A
:10088000CE0040EA030E17E000F1240301204FF4EC
:1008900080211A681143196010BD00BF00F12403C4
:1008A00001204FF400111A681143196010BD00BFF8
:1008B0000868CB6843EA405E0CF5C07000EB041397
:1008C000240140F804E00C69184640F8044F097D03
:1008D000012903D1016841F4807101605068012150
:1008E000D8601068986000201A681143196010BD24
:1008F00090F82020013A012A30D8B0B546F20060C5
:10090000C4F20000026842F001020260026822F4B0
:100910007C520260D1F814E0CC694A6A0368012C69
:1009200043EA022202600EF01F024FF0010303FAB5
:1009300002F2C3696FEA020C23EA0203C36113D017
:100940002CBBC36803EA0C03C360CB688C8844EA01
:10095000034300EBCE0423640B4611E0416A41F4EB
:100960008021416201207047C3681343C3600B6854
:100970008C8844EA034300EBCE04236401F10C03AA
:100980008C681B8843EA044300EBCE04636443682D
:100990008D6943EA0204D1F810E0096A002D08BF0E
:1009A00003EA0C0444604369BEF1000F43EA020409
:1009B00008BF03EA0C040129446102D1C169114353
:1009C000C161016821F0010101600020B0BD00009B
:1009D00070470000B0B590F82040013C012C7DD854
:1009E000D0F800C000290CBFDCF80C40DCF8104047
:1009F000A4077DD00CF5D8754FEA011C55F80C40C2
:100A000014F00404946055F80CE005EB011C19BFC8
:100A10004FEADE0555604FEA5E551560DCF8005080
:100A2000E64605F00205D5605EF8044F24075ABF7C
:100A3000DEF8004004F00F0408241461DEF80040E2
:100A40000029C4F307249461DEF800504FEA1545ED
:100A50005561DCF808201A70026802EB0112D2F826
:100A6000B8214FEA12225A70026802EB0112D2F842
:100A7000B8214FEA12429A70026802EB0112D2F8D2
:100A8000B8214FEA1262DA70026802EB0112D2F862
:100A9000BC211A71026802EB0112D2F8BC214FEAA4
:100AA00012225A71026802EB0112D2F8BC214FEAFD
:100AB00012429A71026802EB0112D2F8BC214FEA8D
:100AC0001262DA7100680CBF00F10C0100F1100134
:100AD000002020220B681A430A60B0BD00F12401F7
:100AE00001204FF480220B681A430A60B0BD00BF9A
:100AF00000F1240101204FF400120B681A430A6030
:100B0000B0BD00002DE9F04F81B004460068466991
:100B1000D0F804908768D0F80CB0D0F810A0D0F8C6
:100B20001880F10704D1002530071DD424E000BF50
:100B3000F90710D00121BA07816009D4780700F1C4
:100B4000AF80380700F1B680204600F077FA02E067
:100B5000204600F075FA0025F80500F18780F803BB
:100B600000F1B180300707D51BF0100004D02068D9
:100B700045F400751021C160700708D51BF008000E
:100B800005D020680821C160204600F0B5F9B00703
:100B900006D52068C068800702D0204600F0AEF974
:100BA000700607D51AF0100004D0206845F480655F
:100BB00010210161B00608D51AF0080005D02068A0
:100BC00008210161204600F005FAF00606D52068EC
:100BD0000069800702D0204600F0FEF9B00308D576
:100BE00019F0100005D0206810214160204600F067
:100BF000F5F9F00308D519F0080005D020680821A0
:100C00004160204600F026FA300440F19B805FEA04
:100C1000497040F1948006F4807008EA102028435F
:100C20005FEA8871014648BF41F00201B20558BF32
:100C300001465FEA48700D4648BF45F0040570055F
:100C400058BF0D46300540F17A8018F0700000F072
:100C500076801038000905286CD8DFE800F00365BD
:100C60005D61596945F0080564E000BF20684FF4F4
:100C70008071BA0581600BD4780515D438051DD470
:100C8000204600F0DFF9F8037FF56CAF1BE000BFF2
:100C9000204600F0D9F9F8037FF564AF13E000BFF8
:100CA0004FF4006558E700BF05F50055F8037FF5E0
:100CB00059AF08E04FF480554EE700BF05F5804579
:100CC000F8037FF54FAF20684FF48031BA0381609D
:100CD0000AD4780310D4380314D4204600F0B6F9AF
:100CE00030073FF541AF47E7204600F0B1F9300744
:100CF0003FF53AAF40E700BF05F5004530073FF547
:100D000033AF39E705F5803530073FF52DAF33E7D1
:100D100045F080050EE000BF45F020050AE000BF69
:100D200045F0400506E000BF45F0100502E000BFB9
:100D300045F480752068816921F070018161206827
:100D40000421416055B1606A40EA050120466162B4
:100D500001B0BDE8F04FFFF73BBE00BF01B0BDE8FA
:100D6000F08F0000002804BF01207047B0B5044692
:100D700090F8200010B9204600F06EF82068016855
:100D800041F00101016000F04BFA0546206841681E
:100D9000C90705D100F044FA401B0B28F6D310E038
:100DA000016821F00201016000F03AFA054600BF37
:100DB0002068416889070DD500F032FA401B0B28E6
:100DC000F6D3606A052140F400306062012084F8A7
:100DD0002010B0BD217E0268012922F0800208BFE8
:100DE00080320260617E0268012922F0400208BF61
:100DF00040320260A17E0268012922F0200208BF71
:100E000020320260E17E0268012922F0100218BF40
:100E100010320260217F0268012922F0080208BF17
:100E200008320260617F0268012922F0040208BFD3
:100E300004320260D4E901C2D4E9033561691A437E
:100E40002A431143ACF101021143C1610020012189
:100E5000606284F82010B0BD80B586B046F600010F
:100E60000068C4F20001002288420592CDE9032205
:100E70000292019202D006B080BD00BF43F640004E
:100E80000092C4F20200036843F0806303600368C9
:100E900003F080630093009B0092036843F00073AB
:100EA0000360036803F000730093009B009250F806
:100EB000103C43F0020340F8103C50F8100C00F0D6
:100EC000020000900098602001900220CDE902020B
:100ED000032004900920059001F5CE3001A900F00F
:100EE000CFF840200021002200F01CFA402000F042
:100EF00007FA06B080BD000070470000B0B582B0B0
:100F000040F2B804C2F200046B46002122460546B6
:100F1000FFF760FD40F2D400C2F20000854201D02C
:100F200002B0B0BD2068A0F201304FEA30100428B2
:100F3000F6D8DFE800F0033B1F2D110040F28800D7
:100F4000C2F200000121017040F27000C2F2000004
:100F500000780128E4D136E040F28800C2F20000B7
:100F60000121017140F27000C2F2000000780528F2
:100F7000D6D128E040F28800C2F200000121817041
:100F800040F27000C2F2000000780328C8D11AE0D5
:100F900040F28800C2F200000121C17040F27000EE
:100FA000C2F2000000780428BAD10CE040F28800B8
:100FB000C2F200000121417040F27000C2F2000054
:100FC00000780228ACD140F27100C2F2000001703A
:100FD00002B0B0BD704700007047000070470000CD
:100FE000B0B5044690F8200001281DD1022084F8F5
:100FF00020002068016821F00101016000F010F973
:10100000054600BF20684068C00713D000F008F90B
:10101000401B0B28F6D3606A40F400306062052064
:1010200084F820000120B0BD606A40F400206062B6
:101030000120B0BD00206062B0BD0000704700001C
:1010400070470000704700007047000070470000C4
:101050007047000070470000B0B5044600F0E0F8AB
:10106000054640F20000C2F200000078611C18BF83
:10107000044400BF00F0D4F8401BA042FAD3B0BD36
:101080002DE9F04F83B000F1200200F13E4741F618
:101090000045009207F1FF77C4F2020508224FEAEB
:1010A000B726A84208BF072200254FF000084FF0DE
:1010B0000009072E38BF4FEAB72201920AE000BFAD
:1010C00009F1010908F10208B9F1100F05F1040551
:1010D00000F0A2800F68012202FA09FE17EA0E0A48
:1010E000EED0D1F804C003220CF003077E1E02FAF2
:1010F00008F4012E6FEA040B12D88468CE6804EA63
:101100000B0406FA08F634438460446824EA0E06A9
:10111000CCF3001404FA09F42643466004E000BF4F
:10112000032F01D103271EE0C6688C6806EA0B0670
:1011300004FA08F42643022FC66014D16FF00302AC
:10114000009E02EA590756F807C005F01C040F225A
:101150000B69A2402CEA0202A3401A43F251D1F8D3
:1011600004C00CF00307026807FA08F302EA0B0256
:101170001A431CF4403F0260A2D0002243F644030D
:101180000292C4F202031A6843F6004442F4804219
:101190001A601A68C4F2010402F480420292029AB0
:1011A00029F003024FF6084C2244CFF6FF7C52F898
:1011B0000C3005F00C070F26BE40B343019E06FA23
:1011C00007F73B4342F80C30A2684B6842EA0A0733
:1011D00043F60C4CDE0258BF22EA0A07A760C4F2AD
:1011E000010CDCF800209E0242EA0A0758BF22EAFE
:1011F0000A07CCF8007062689E0342EA0A0758BFEB
:1012000022EA0A0767602268DB0342EA0A0758BF3E
:1012100022EA0A07276053E703B0BDE8F08F000019
:1012200040F23060C2F200000068704740F20000F7
:1012300040F23061C2F20000C2F2000100780A6898
:10124000104408607047000080B543F60040C4F2C7
:101250000200016841F400710160016841F480619D
:101260000160016841F480710160032000F086F89C
:101270000F2000F005F800F027F8002080BD0000E6
:1012800070B540F20006C2F2000640F20801327862
:10129000C2F200014FF47A730968B3FBF2F204461C
:1012A000B1FBF2F1084600F0ADFC0F2C4FF0010548
:1012B00008D838B94FF0FF3021460022002500F051
:1012C00031F87460284670BD82B0002043F64001BA
:1012D0000190C4F202014A6842F480424A604A68BE
:1012E00002F480420192019A0090086840F0805018
:1012F0000860086800F080500090009802B07047C5
:10130000002848BF704700F01F01012202FA01F1D6
:101310001C2202EAD0004EF20012CEF200028150EE
:101320007047000010B54EF60C5CCEF2000CDCF8F5
:101330000030C3F3022E8EF00704042C28BF0424CF
:10134000BEF103034FF0FF3E0EFA04F438BF002352
:10135000A14399400EFA03F39A43114300F00F02A0
:1013600000F160430901043A03F564436244002834
:1013700048BF02F10C03197010BD00004EF60C516D
:10138000CEF200010A684FF6FF031A4060F30A220A
:1013900042F0806040F0FD7008607047002804BF94
:1013A00001207047F0B581B00446056890F89504B7
:1013B00028B9002084F89404204600F027F903207F
:1013C000B5F1A04F84F8950404BF0020A0712068F7
:1013D00001F00EFE94E80F00267C009601F060FA02
:1013E000002840F000812068002101F009FE00285B
:1013F00040F0F98094F804E0BEF1000F00F0EC80BA
:101400000EF0030CBEF1040F4FF0000240D30EF0BB
:10141000FC03A4F190000321012500BFCE1E80F83B
:10142000A460A0F8BE608E1E80F8C860A0F8E260DC
:101430004E1E80F8EC60A0F8066180F81011A0F84C
:101440002A110E1D013180F8A55080F8A820C0E9AE
:101450002B22C0F8B42080F8C95080F8CC20C0E915
:101460003422C0F8D82080F8ED5080F8F020C0E990
:101470003D22C0F8FC2080F8115180F81421C0E909
:101480004622C0F82021903099423146C6D1F21E42
:10149000BCF1000F31D004F1140002EBC20100EBEB
:1014A0008105012300F821200021BCF1010F6B70A0
:1014B0006A832971C5E9021129611ED0551C05EB0B
:1014C000C50600EB8607BCF1020F7B7000F82650C2
:1014D0007D833971C7E9021139610ED0911C01EB8E
:1014E000C10200EB8203012500F8221000205D708C
:1014F00059831871C3E902001861BEF1000F6BD067
:10150000BEF1040F4FF0000236D30EF0FC000321B1
:10151000234600BFCF1E83F854728F1E83F8787263
:101520004F1E83F8C0120D1D013183F8552283F838
:101530005822C3E99722C3F8642283F8792283F8FA
:101540007C22C3E9A022C3F8882283F89D2283F875
:101550009C7283F8A022C3E9A922C3F8AC2283F8C5
:10156000C12283F8C422C3E9B222C3F8D022903347
:1015700081422946CED1EA1EBCF1000F2CD004F5E1
:10158000157002EBC20300EB83070021BCF1010FD1
:10159000797000F823203971C7E9021139611BD035
:1015A000531C03EBC30700EB8706BCF1020F7170FD
:1015B00000F827303171C6E9021131610CD0911C5D
:1015C00001EBC10200EB820300275F7000F82210DC
:1015D0001F71C3E902771F6194E80F00277C009711
:1015E00001F0AAFA30B1022084F89504012001B07C
:1015F000F0BD00BF00206074012084F895042068CD
:1016000001F08AFA002001B0F0BD0000B0B586B04C
:1016100000680024B0F1A04F0594CDE90344029482
:10162000019401D006B0B0BD43F630050094C4F279
:101630000205286801A940F001002860286800F030
:101640000100009000984FF4C05001900220CDE9B5
:101650000204032004900A2005900020C4F2020036
:10166000FFF70EFD686840F08000686000946869CC
:1016700040F480406861686900F480400090009800
:1016800006B0B0BD002804BF012070472DE9F0412D
:1016900043F60808C4F202080446D8F8F8030D46D9
:1016A00000F00700814207D988F8F853D8F8F8030A
:1016B00000F00700A84277D12068810717D54107BD
:1016C00005D5D8F8001041F4E051C8F80010010722
:1016D00005D5D8F8001041F46041C8F80010D8F8DA
:1016E0000010A26821F0F0011143C8F80010C007F3
:1016F00040D1D8F8F80300F00700854207D288F8F7
:10170000F853D8F8F80300F00700A8424CD120683D
:10171000410707D5D8F80010E26821F4E0511143E1
:10172000C8F80010000708D5D8F80000216920F497
:10173000604040EAC100C8F8000000F055F8D8F851
:10174000001043F22C52C1F30311C0F60002515CA9
:1017500040F2080220FA01F140F20400C2F2000057
:101760000068C2F200021160FFF78AFD0020BDE8A8
:10177000F08100BF6068811E022907D258F8081C5A
:1017800089015CBF0120BDE8F08111E0012807D18B
:1017900058F8081C89035CBF0120BDE8F08107E010
:1017A00058F8081C890703D40120BDE8F08100BF68
:1017B000D8F8001021F003010843C8F80000FFF733
:1017C0002FFD064641F28837D8F80000616800F026
:1017D0000C00B0EB810F8CD0FFF722FD801BB842CC
:1017E000F2D90320BDE8F08110B543F60404C4F239
:1017F00002046168C1F3810142F20040C0F2F400CA
:10180000DFE801F002040A0210BD00BF41F600301B
:10181000C0F2B70010BD00BF2068216823684902EC
:1018200041F60031C0F2B70100F03F02C3F3881067
:101830005CBF42F20041C0F2F401A1FB00010023B1
:10184000FEF728FD21680222C1F3014102EB4101AC
:10185000B0FBF1F010BD0000002804BF012070476C
:101860002DE9F04182B00446007843F60006C00737
:10187000C4F202060CD0B06800F00C00042840F05E
:1018800081803068800303D56068002800F068819B
:10189000207880071BD5B06810F00C0F09D0B06815
:1018A00000F00C00082840F087807068400200F1CA
:1018B00083803068800703D5E068012840F05081BC
:1018C0003068216920F0F80040EAC10030602078DB
:1018D000000713D4207840072AD4A569002D00F012
:1018E0003A81B06800F00C00082840F0A580012D76
:1018F00040F00E81012002B0BDE8F081606900284F
:1019000000F082800020C4F247200121C0F8801E30
:10191000FFF786FC054600BF706F8007DAD4FFF73B
:101920007FFC401B0228F7D9032002B0BDE8F081FC
:10193000306C5FEAC0080AD400200190306C40F09F
:1019400080503064306C00F080500190019847F274
:101950000007C4F200073868C00547D4386840F46F
:1019600080703860FFF75CFC054600BF3868C00532
:101970003CD4FFF755FC401B0228F7D9032002B0E6
:10198000BDE8F081B06800F00C00082803D1706851
:1019900040023FF576AF61683068B1F5803F07D00F
:1019A000B1F5A02F40F09A8040F48020306030687C
:1019B00040F4803030609AE0E068002840F2000097
:1019C000C4F247205CD001210160FFF729FC0546E5
:1019D000306880073FF574AFFFF722FC401B0228F8
:1019E000F6D9032002B0BDE8F08100BFA168306FD6
:1019F000012905D0052955D140F004003067306F2A
:101A000040F00100306756E00020C4F2472000217A
:101A1000C0F8801EFFF704FC054600BF706F80070A
:101A20007FF558AFFFF7FCFB401B0228F6D90320D7
:101A300002B0BDE8F08100BF0027C4F247270020B4
:101A40003866FFF7EDFB022D05460DD130688001A9
:101A500040F18A80FFF7E4FB401B02284FF00300AF
:101A6000F4D902B0BDE8F0813068800173D5FFF78A
:101A7000D7FB401B02284FF00300F5D9F1E700BF68
:101A800000210160FFF7CCFB054600BF30688007EE
:101A90007FF51DAFFFF7C4FB401B02284FF003008A
:101AA000F4D9DEE720F001003067306F002920F024
:101AB000040030677AD0FFF7B3FB054641F2883760
:101AC000306F800700F18480FFF7AAFB401BB8420B
:101AD000F6D9032002B0BDE8F08100BF20F48030C9
:101AE00030603068002920F4802030607AD0FFF721
:101AF00097FB0546306880033FF5CAAEFFF790FBC1
:101B0000401B6428F6D9032002B0BDE8F08100BF75
:101B10007068E16900F480028A4221D1216A00F0F4
:101B20003F028A421CD147F6C071626A0140B1EBA4
:101B3000821F15D1A16A4FF6FF73C903994300F4C0
:101B40004032A1F580318A420AD1E16A00F070602A
:101B5000B0EB016F04D1002002B0BDE8F08100BFFE
:101B6000012002B0BDE8F08104F11C052FCD08432F
:101B700040EA8210D9034FF6FF729143A1F58031FC
:101B800040EA05600843706001203866FFF748FBB3
:101B9000044600BF30688001DDD4FFF741FB001B25
:101BA00002284FF00300F5D95BE700BFFFF738FBD1
:101BB000054641F2883700BF306F800708D5FFF730
:101BC0002FFB401BB8424FF00300F5D949E700BF97
:101BD000B8F1000F3FF581AE306C20F080503064DA
:101BE0007BE600BFFFF71CFB054600BF30688003A3
:101BF0007FF54EAEFFF714FB401B64284FF0030047
:101C0000F4D92EE7411E0020B0EB116F1CBF01205C
:101C100070474EF21002CEF2000251604EF6235190
:101C2000CEF20001F0230B70072190601160704725
:101C3000704700007047000090F83C20012A4FF0E8
:101C4000020254D010B580F83D200268D2F804E0BA
:101C5000D2F808C00C682EF07003234341F2FF74E1
:101C6000C4F20004A24253600EDC40F2FF73C4F2DF
:101C700000039A4216DCB2F1804F2BD040F20043B1
:101C8000C4F2000324E000BF40F2FF33C4F20103BA
:101C90009A4213DC41F60003C4F200039A4219D0C1
:101CA000002313E040F60003C4F200039A4211D06F
:101CB00040F60043C4F200030AE000BF44F2000310
:101CC000C4F201039A4205D040F20043C4F201037A
:101CD0009A4204D149682CF0800319439160012194
:101CE000002280F83D1080F83C20BDE810401046EE
:101CF00070470000002804BF0120704710B504465B
:101D000090F83D0028B9002084F83C00204600F0FF
:101D10001FF8022084F83D002068211D00F084FB9C
:101D2000012084F8460084F83E0084F83F0084F8DF
:101D3000400084F8410084F8420084F8430084F8AD
:101D4000440084F8450084F83D00002010BD0000E8
:101D50000068B0F1804F18BF704780B582B0002096
:101D6000019043F64000C4F202000168002241F0F5
:101D7000010101600068002100F00100019001985C
:101D80001C20FFF7CFFA1C2002B0BDE88040FFF70F
:101D9000B7BA000090F83D1001291CBF0120704720
:101DA000022180F83D10006841F2FF72C168C4F260
:101DB0000002904241F00101C1600DDC40F2FF7170
:101DC000C4F20001884215DCB0F1804F2AD040F205
:101DD0000041C4F2000123E040F2FF31C4F20101EE
:101DE000884213DC41F60001C4F20001884219D098
:101DF000002113E040F60001C4F20001884211D036
:101E000040F60041C4F200010AE000BF44F20001C4
:101E1000C4F20101884205D040F20041C4F2010140
:101E2000884206D1816801F00701062904BF00201D
:101E30007047016841F00101016000207047000017
:101E400090F83C20012A4FF002026CD080B580F857
:101E50003D20D0F800C04FF67772DCF8083023EA56
:101E60000202CCF808200B684F2B29DC1F2B45DD24
:101E7000202B46D0302B44D0402B40F0AF80D1F8FF
:101E800004E0C968DCF82030DCF8202022F00102F0
:101E9000CCF82020DCF8182022F0F00242EA0111F0
:101EA00023F00A0242EA0E02CCF81810CCF82020E7
:101EB000DCF8081041F0470121F0300128E000BFB4
:101EC0006F2B33DDB3F5005F74D0B3F5805F21D0A5
:101ED000702B40F08380D1E901E3C968DCF8082069
:101EE00043EA0E0322F47F4243EA01211143CCF876
:101EF0000810DCF8081041F0770109E00BB1102B55
:101F00006CD1DCF8081021F07001194341F0070191
:101F1000CCF808100022012180F83D10002180F843
:101F20003C10BDE880401046704700BF502B21D0C8
:101F3000602B53D1D1F804E0C968DCF82030DCF81C
:101F4000202022F01002CCF82020DCF8182022F407
:101F5000704242EA013123F0A00242EA0E12CCF8AC
:101F60001810CCF82020DCF8081041F0670121F0AF
:101F70001001CDE7D1F804E0C968DCF82030DCF8C6
:101F8000202022F00102CCF82020DCF8182022F0DA
:101F9000F00242EA011123F00A0242EA0E02CCF8F2
:101FA0001810CCF82020DCF8081041F0570121F07F
:101FB0002001ADE7D1E901E3C968DCF8082043EA74
:101FC0000E0322F47F4243EA01211143CCF80810AA
:101FD000DCF8081041F480419AE700BF01229AE73B
:101FE0007047000070B504460068C5680669B1070F
:101FF00016D515F0020113D06FF002010161012125
:1020000021778069800703D02046FFF7E9FF05E0CC
:10201000204600F08FF8204600F08EF80020207750
:10202000700719D515F0040016D020686FF0040170
:10203000016102212177806910F4407F04D020469D
:10204000FFF7CEFF06E000BF204600F073F8204601
:1020500000F072F800202077300717D515F008003F
:1020600014D020686FF00801016104212177C06954
:10207000800703D02046FFF7B3FF05E0204600F0BD
:1020800059F8204600F058F800202077F00619D5BE
:1020900015F0100016D020686FF0100101610821C2
:1020A0002177C06910F4407F04D02046FFF798FFE5
:1020B00006E000BF204600F03DF8204600F03CF866
:1020C00000202077F00718BF15F0010002D130067C
:1020D00009D412E020686FF001010161204600F090
:1020E0002DF8300609D515F0800006D020686FF075
:1020F000800101612046FFF79BFD700609D515F0B0
:10210000400006D020686FF040010161204600F0D9
:1021100017F8B00658BF70BD15F0200008D0216830
:102120006FF0200220460A61BDE87040FFF782BDD3
:1021300070BD0000704700007047000000F098BAC2
:1021400070470000FEE7000080B540F2D40046F67C
:102150000001C2F20000C4F200010322002380E863
:102160000E0000F10C014FF4102C4FF4001E81E81A
:10217000085083618383FEF7F5FD002808BF80BD0A
:10218000BDE88040FEF746BB83B0002043F6300137
:102190000290C4F202010A6842F002020A600A6870
:1021A00002F002020292029A01900A6842F00102D1
:1021B0000A600A6802F001020192019A0090086820
:1021C00040F080000860086800F0800000900098EF
:1021D00003B0704780B586B040F2E0500021C2F2F3
:1021E00000004FF08042532340F2E73C0591CDE9D7
:1021F0000311CDE90011C0E90023C0E9021C01610F
:102200008161FFF777FD002818BFFEF703FB4FF44D
:102210008050029040F2E050C2F2000002A9FFF7A5
:102220000FFE002818BFFEF7F5FA40F2E050C2F2A8
:1022300000006946FFF700FD002818BFFEF7EAFA24
:1022400006B080BD80B540F2FC00C2F200004FF045
:10225000A0410160042101714FF40071C18002218D
:10226000C0F809100021C181FFF798F8002808BFC5
:1022700080BDBDE88040FEF7CDBA0000FEE700005B
:10228000FEE700007047000080B588B00823069381
:102290000023CDE9043340F2D403C2F20003984294
:1022A000029101D008B080BD40F2D400C2F200001B
:1022B00002A901ABFEF7CAFA08B080BD7047000062
:1022C00080B582B040F27002C2F20002107E0DF1C1
:1022D000030C002806BF01208DF803000020517E6A
:1022E00051B1937E7BB1D37EA3B1127FCAB1E0B965
:1022F000002002B080BD00BF02230CF80030013086
:10230000937E002BEFD103230CF800300130D37EF5
:10231000002BEAD104230CF800300130127F002A90
:10232000E5D105220CF80020013040F20C02C2F287
:102330000002136844F66D6143F2390EC4F2C6110F
:1023400003FB01E1B1FBF0F3116003FB10101CF87B
:10235000000002B080BD0000FEF768BF70B592B00B
:1023600006AC20463021FEF70DF8002543F640006C
:102370000595CDE90355CDE901550095C4F202005C
:102380000168022641F080510160006800F0805031
:102390000090009847F200000095C4F20000016828
:1023A00041F480410160006800F480400090009892
:1023B000012006904FF4803007904FF480000D907C
:1023C00006200E90A820CDE90F0607201190204688
:1023D0000C96FFF741FA18B172B600BFFEE700BFD6
:1023E0000F20CDE901064FF4A05004904FF4805027
:1023F000059001A805210395FFF744F910B172B6C5
:10240000FEE700BF12B070BD4EF68850CEF200005D
:10241000016841F4700101607047000040F2E05033
:10242000C2F20000FFF7DEBDB0B540F6FF3E056822
:10243000C4F2000E40F2004C7045C4F2010C25DCE1
:10244000B0F1804F2FD040F20043C4F20003984215
:1024500029D040F60003C4F20003984223D041F68D
:10246000FF73C4F20003984228DC70453ADCB0F1F7
:10247000804F5BD040F20043C4F20003984255D035
:1024800040F60003C4F200034EE000BF40F60043F4
:10249000C4F20003984206D0604504D00023C4F281
:1024A00001039842DBD14B6825F0700243EA020534
:1024B00041F6FF73C4F200039842D6DD43F6FF7382
:1024C000C4F2010398421FDC42F20003C4F200038D
:1024D00098422BD00023C4F20103984226D06045D5
:1024E00024D028E040F60043C4F2000398421DD0F7
:1024F00041F60003C4F20003984217D041F60043AE
:10250000C4F2000310E000BF44F20003C4F2010370
:1025100098420BD044F60003C4F20103984205D060
:1025200044F20043C4F20103984204D1CB6825F47D
:10253000407243EA02050A688C684B69C46240F441
:1025400080648262644504BF09690163026825F002
:10255000800142F0040219430260012242610160DD
:10256000B0BD0000B0B582B040F27004C2F2000409
:10257000002525706570A5702561E5706571A571F0
:10258000E571FEF74DFE40F20C017B30C2F2000116
:10259000086043F630002572E5810195C4F202001F
:1025A000016841F020010160016801F02001019102
:1025B00001990095416941F480614161406900F4ED
:1025C00080600090009841F20040C4F2020001686F
:1025D00041F440110160C16821F44011C16042F230
:1025E0000430C4F20100016821F440310160016847
:1025F00041F4803101606FF0FF014550082140F83F
:10260000FC5C40F8F85C40F8F45C40F8D85C40F8BA
:10261000D45C40F8D01C50F8F41C41F0E06140F864
:10262000F41C50F8FC1C41F0010140F8FC1CFDF7C3
:102630000DFF6081608948F21421484340F2011186
:1026400000F2FF70C0F21001A0FB0112801A02EB31
:1026500050004FF4487101EBD02060616572257124
:10266000A58125766576A576E576257702B0B0BD9D
:102670000068B0F1804F18BF704710B540F2700489
:10268000C2F20004207A0130C1B23129207205D88B
:10269000607A002850D0BDE81040704700202072BA
:1026A000FDF7D4FE6081608948F21421484340F26E
:1026B000011100F2FF70C0F21001A0FB0112801A9C
:1026C00002EB50004FF4487101EBD0206061617A59
:1026D0006069012906D145F2B96188421ED3002004
:1026E000607223E045F2B76188421FD8E089C728AD
:1026F00003D800F10100E0811AD140F22862C2F251
:10270000000200205060106040F2D400C2F20000CD
:1027100040F2FF21FFF7B8FD012060720120207117
:10272000E089A081BDE81040704700BF0020E08133
:1027300000202071E089A081206901302061E078CB
:10274000D0B1E0780128A6D1206940F6C4118842B2
:1027500024BF0120A0706078012851D12078012188
:102760002044C1750020207020616070A070E0706E
:10277000BDE81040704700BFE079012807D120690B
:10278000B0F5FA6FFFF487AF0020E0712061207E82
:1027900000B3607EF0B1A07EE0B1E07ED0B1207FDA
:1027A000C0B140F2D40040F22862C2F20000C2F28E
:1027B000000240F2FF21FFF767FD00200121207693
:1027C0006076A076E0762077E1712061BDE8104068
:1027D000704700BFFFF774FD2070207800283FF499
:1027E0005AAF207800F03CF8002020616070A070A3
:1027F00001206071A071E070BDE81040704700BF1B
:10280000A07801287FF447AF207800F009F8002075
:1028100020702061A070E070BDE81040704700009B
:1028200040F27001C2F20001497A002918BF7047D6
:102830000138C1B2042911D840F2022141EA001046
:1028400040F2F221014040F2D40040F22862C2F28C
:102850000000C2F20002FFF717BD00BF7047000082
:1028600040F27001C2F20001497A002918BF704796
:102870000138C1B2042911D840F2012141EA001007
:1028800040F2F121014040F2D40040F22862C2F24D
:102890000000C2F20002FFF7F7BC00BF7047000063
:1028A00082B002F47F42B2F5807F40F09980826B63
:1028B0004FF6BF7322F480328263C268CFF6BD73D5
:1028C0001A40C260029BC268DBB222F44012012BA4
:1028D000C26003D1C26842F48012C260002200923A
:1028E000009A01320092009AB2F1706F00F2F0800B
:1028F0000269002A21D4009A01320092009AB2F1B2
:10290000706F00F2E5800269002A16D4009A013245
:102910000092009AB2F1706F00F2DA800269002A28
:102920000BD4009A01320092009AB2F1706F00F25B
:10293000CF800269B2F1FF3FD2DC0A220092009AF6
:10294000AAB100BF009A013A0092009A7AB1009AA7
:10295000013A0092009A52B1009A013A0092009A0C
:102960002AB1009A013A0092009A002AEAD102693B
:1029700042F001020261009A01320092009AB2F123
:10298000706F00F2A5800269D20720D0009A013250
:102990000092009AB2F1706F00F29A800269D20739
:1029A00015D0009A01320092009AB2F1706F00F2D5
:1029B0008F800269D2070AD0009A01320092009AF1
:1029C000B2F1706F00F284800269D207D3D14FF068
:1029D000000C01F47F01B1F5803F40F099808FE059
:1029E000C26842F04002C26000220192019A0132A4
:1029F0000192019AB2F1706F72D80269002A1ED456
:102A0000019A01320192019AB2F1706F68D802699D
:102A1000002A14D4019A01320192019AB2F1706F26
:102A20005ED80269002A0AD4019A01320192019A01
:102A3000B2F1706F54D80269B2F1FF3FD6DC0A22BE
:102A40000192019AAAB100BF019A013A0192019A3A
:102A50007AB1019A013A0192019A52B1019A013A6E
:102A60000192019A2AB1019A013A0192019A002A2F
:102A7000EAD1026942F001020261019A0132019237
:102A8000019AB2F1706F2BD80269D2071DD0019A5A
:102A900001320192019AB2F1706F21D80269D20716
:102AA00013D0019A01320192019AB2F1706F17D8D6
:102AB0000269D20709D0019A01320192019AB2F15A
:102AC000706F0DD80269D207D7D14FF0000C09E022
:102AD0004FF0030C01F47F01B1F5803F18D10FE0F6
:102AE0004FF0030C826B13F47F4F14BF22F480323B
:102AF00042F48032826301F47F01B1F5803F07D157
:102B0000816841F006018160816841F020018160A7
:102B1000604602B0704700000146D0F8000E20F079
:102B20000300C1F8000ED1F8040840F002020020B2
:102B3000C1F80428704700002DE9F04F86B0C3F3B8
:102B4000074516468E460021C0F80411C0F808114A
:102B5000C0F80C11C0F81011C0F81411C0F8181109
:102B6000C0F81C11C0F82011C0F82411C0F82811B9
:102B7000C0F82C11C0F83011C0F83411C0F8381169
:102B8000C0F83C1145B1816B21F400118163816B68
:102B900041F4002111E000BFD0F8041841F0020117
:102BA000C0F80418816B41F400118163816B21F43A
:102BB00000218163816B21F4802106F47F428163CF
:102BC0000021B2F5807FC0F8001E07D1D0F80028A0
:102BD000B1EB1E6F08D1C0F8002809E0D0F800184A
:102BE00041F0030102E000BF42F00101C0F800180B
:102BF000002104910499013104910499B1F1706F9D
:102C000052D8016900291ED4049901310491049914
:102C1000B1F1706F48D80169002914D404990131C9
:102C200004910499B1F1706F3ED8016900290AD46A
:102C30000499013104910499B1F1706F34D801699C
:102C4000B1F1FF3FD6DC002104914FF484610161B2
:102C50000499013104910499B1F1706F24D801698C
:102C600089061DD50499013104910499B1F1706F61
:102C70001AD80169890613D5049901310491049980
:102C8000B1F1706F10D80169890609D50499013135
:102C900004910499B1F1706F06D801698906D7D4FF
:102CA0004FF0000A02E000BF4FF0010A0021059139
:102CB0000599013105910599B1F1706F4ED80169FF
:102CC00000291ED40599013105910599B1F1706F64
:102CD00044D80169002914D4059901310591059959
:102CE000B1F1706F3AD8016900290AD40599013110
:102CF00005910599B1F1706F30D80169B1F1FF3FCD
:102D0000D6DC002105911021016105990131059161
:102D10000599B1F1706F21D80169C90620D50599CF
:102D2000013105910599B1F1706F17D80169C90694
:102D300016D50599013105910599B1F1706F0DD83E
:102D40000169C9060CD50599013105910599B1F1C3
:102D5000706F03D80169C906D7D401E04FF0010AAA
:102D60005FFA8EF94FF00008B9F1000FC0F8108833
:102D7000C0F81488C0F81C8800F00D81CDF80CA0B4
:102D8000CDE9015ED0F800194FF0006404EA11119A
:102D90004FF67F35B9F1010BC0F80019C0F8108962
:102DA000C0F8085974D0A9F1020103290BF0030AF5
:102DB00004D20121BAF1000F40D169E000962BF056
:102DC000030700F5186600234FF0904C4FF67F3252
:102DD0004FF0000E56F8601C0EF1040E0CEAE17183
:102DE00046F8601C46F8503C46F8582C56F8401CF3
:102DF00077450CEAE17146F8401C46F8303C46F84D
:102E0000382C56F8201C0CEAE17146F8201C46F8D4
:102E1000103C46F8182C31680CEAE17131603361DE
:102E2000B26006F18006D5D1009E0EF101014FF689
:102E30007F354FF00064BAF1000F29D000F5106320
:102E40004F01B446DE594FF0904202EAE67603EBBA
:102E50004111DE51664600274FF67F33BAF1010F6C
:102E60000F618B6014D00E6ABAF1020F02EAE672AB
:102E700066460A620F638B620AD00A6C4FF0904379
:102E800003EAE2720A6400220A654FF67F328A641E
:102E9000D0F8001BBBF1000F04EA1111C0F8001BB1
:102EA0004FF00001C0F8101BC0F8085BDDE9015EBF
:102EB000DDF80CA06FD0A9F1020103290BF0030C7F
:102EC00004D20121BCF1000F3BD164E0A946009679
:102ED0002BF0030500F5386600234FF090474FF6BE
:102EE0007F32002156F8604C043107EAE47446F85A
:102EF000604C46F8503C46F8582C56F8404C8D42F1
:102F000007EAE47446F8404C46F8303C46F8382C62
:102F100056F8204C07EAE47446F8204C46F8103C7A
:102F200046F8182C346807EAE47434603361B26000
:102F300006F18006D6D1009E01314D46BCF1000F4E
:102F400029D000F530634F013446DE594FF09042EE
:102F500002EAE67603EB4111DE51264600274FF6E2
:102F60007F33BCF1010F0F618B6014D00E6ABCF18E
:102F7000020F02EAE67226460A620F638B620AD0EB
:102F80000A6C4FF0904303EAE2720A6400220A6579
:102F90004FF67F328A64D0F810181EF47F0F21F4A8
:102FA0008071C0F810186FF08041C0F8188041613E
:102FB00003D1816941F010018161816943F600020A
:102FC000C8F23C02114316F47F0F816103D081697E
:102FD00041F008018161012D05D1816941F08041F5
:102FE00041F004018161504606B0BDE8F08F000059
:102FF0000146806820F0010200208A6070470000CE
:10300000B0B50446C068002920F0C040E06000F080
:103010009980012940F0B080E0680A2540F0005016
:10302000E0600A20FEF718F854F8140FC00740F0CB
:103030009C800A20FEF710F82068C00740F09E80B0
:103040000A20FEF709F82068C00740F0A5800A2092
:10305000FEF702F82068C00740F0AC800A20FDF7B8
:10306000FBFF2068C00740F0B3800A20FDF7F4FFA3
:103070002068C00740F0BA800A20FDF7EDFF206805
:10308000C00740F0C1800A20FDF7E6FF2068C007B6
:1030900040F0C8800A20FDF7DFFF2068C00740F03D
:1030A000CF800A20FDF7D8FF2068C00740F0D68007
:1030B0000A20FDF7D1FF2068C00740F0DD800A201C
:1030C000FDF7CAFF2068C00740F0E4800A20FDF742
:1030D000C3FF2068C00740F0EB800A20FDF7BCFF6B
:1030E0002068C00740F0F2800A20FDF7B5FF206895
:1030F000C00740F0F9800A20FDF7AEFF2068C00746
:1031000040F000810A20FDF7A7FF2068C00740F0CB
:1031100007810A20FDF7A0FF2068C00740F00E815C
:103120000A20FDF799FF2068C00740F016810A20A9
:10313000FDF792FF2068C825A5F1C800B0FA80F01D
:103140004009B0BDE0680A2540F08040E0600A20F8
:10315000FDF782FF54F8140FC00706D00A20FDF7D0
:103160007BFF2068C00711D11425A5F1C800B0FA73
:1031700080F04009B0BD00BF0120B0BD1425A5F10D
:10318000C800B0FA80F04009B0BD00BF0A20FDF7CA
:1031900063FF2068C00707D11E25A5F1C800B0FA5B
:1031A00080F04009B0BD00BF0A20FDF755FF206840
:1031B000C00707D12825A5F1C800B0FA80F0400962
:1031C000B0BD00BF0A20FDF747FF2068C00707D148
:1031D0003225A5F1C800B0FA80F04009B0BD00BFAB
:1031E0000A20FDF739FF2068C00707D13C25A5F16B
:1031F000C800B0FA80F04009B0BD00BF0A20FDF75A
:103200002BFF2068C00707D14625A5F1C800B0FAFA
:1032100080F04009B0BD00BF0A20FDF71DFF206807
:10322000C00707D15025A5F1C800B0FA80F04009C9
:10323000B0BD00BF0A20FDF70FFF2068C00707D10F
:103240005A25A5F1C800B0FA80F04009B0BD00BF12
:103250000A20FDF701FF2068C00707D16425A5F10A
:10326000C800B0FA80F04009B0BD00BF0A20FDF7E9
:10327000F3FE2068C00707D16E25A5F1C800B0FA9B
:1032800080F04009B0BD00BF0A20FDF7E5FE2068D0
:10329000C00707D17825A5F1C800B0FA80F0400931
:1032A000B0BD00BF0A20FDF7D7FE2068C00707D1D8
:1032B0008225A5F1C800B0FA80F04009B0BD00BF7A
:1032C0000A20FDF7C9FE2068C00707D18C25A5F1AB
:1032D000C800B0FA80F04009B0BD00BF0A20FDF779
:1032E000BBFE2068C00707D19625A5F1C800B0FA3B
:1032F00080F04009B0BD00BF0A20FDF7ADFE206898
:10330000C00707D1A025A5F1C800B0FA80F0400998
:10331000B0BD00BF0A20FDF79FFE2068C00707D19F
:10332000AA25A5F1C800B0FA80F04009B0BD00BFE1
:103330000A20FDF791FE2068C00707D1B425A5F14A
:10334000C800B0FA80F04009B0BD00BF0A20FDF708
:1033500083FE2068C0077FF4EAAEBE25A5F1C80051
:10336000B0FA80F04009B0BDFEE70000FDF76CFF49
:10337000FEF7F4FFFEF708FFFEF7E6FEFEF762FF3A
:10338000FEF728FFFDF720FA40F2D40540F228644A
:10339000C2F20005C2F20004284640F2FF21224694
:1033A000FEF772FF6420FDF757FE284640F2FF212A
:1033B0002246FEF769FF6420FDF74EFE284640F2E4
:1033C000FF212246FEF760FF6420FDF745FE2846F8
:1033D00040F2FF212246FEF757FF6420FDF73CFE36
:1033E000284640F2FF212246FEF74EFF6420FDF7FB
:1033F00033FE284640F2FF212246FEF745FF6420B7
:10340000FDF72AFE284640F2FF212246FEF73CFF48
:103410006420FDF721FE284640F2FF212246FEF7F8
:1034200033FF6420FDF718FE284640F2FF212246B4
:10343000FEF72AFF6420FDF70FFE284640F2FF2129
:103440002246FEF721FF6420FDF706FE284640F2E3
:10345000FF212246FEF718FF6420FDF7FDFD2846F8
:1034600040F2FF212246FEF70FFF6420FDF7F4FD36
:10347000284640F2FF212246FEF706FF6420FDF7B2
:10348000EBFD284640F2FF212246FEF7FDFE6420B8
:10349000FDF7E2FD284640F2FF212246FEF7F4FE4A
:1034A0006420FDF7D9FD284640F2FF212246FEF7B1
:1034B000EBFE6420FDF7D0FD284640F2FF212246B6
:1034C000FEF7E2FE6420FDF7C7FD284640F2FF212B
:1034D0002246FEF7D9FE6420FDF7BEFD284640F2E5
:1034E000FF212246FEF7D0FE6420FDF7B5FD2846F9
:1034F00040F2FF212246FEF7C7FE6420FDF7ACFD37
:10350000FFF730F840F2E050C2F20000FEF742FC54
:10351000FEE7F1EE100A4FF6FF71C0F2C03120EA6B
:10352000010040F04070E1EE100A7047000000001A
:1035300000000000010203040607080960350008C6
:103540000000002010000000EC01000870350008A9
:1035500010000020284600000C02000800000000B7
:1035600001000000100000000024F4000100000031
:040000050800018965
:00000001FF
