:020000040800F2
:1000000080080020B5010008ED3400084D320008DA
:10001000E9340008DD020008A93F000800000000E4
:100020000000000000000000000000009D350008F6
:10003000AD030008000000005D350008F53500083C
:10004000CF010008CF010008CF010008CF01000850
:10005000CF010008CF010008CF010008CF01000840
:10006000CF010008CF010008CF010008CF01000830
:10007000CF010008CF010008CF010008CF01000820
:10008000CF0100084D030008CF010008CF01000890
:10009000993F0008CF010008CF010008CF010008F8
:1000A000CF010008CF010008CF010008CF010008F0
:1000B0006D3600087D360008CF010008CF0100082A
:1000C000CF010008CF010008CF010008CF010008D0
:1000D000CF010008CF010008893F0008CF010008C8
:1000E000CF010008CF010008CF01000800F002F89E
:1000F00000F050F814A696E8000CB244B344DA4578
:1001000001D100F047F8BAE80F000FA696E83000DA
:10011000A5EB040504EB0607AAEB0704A7F101070A
:100120004FEA15154FEA3414A4F10104AC4201D38F
:1001300000F030F813F0010F18BFFB1A43F0010371
:1001400000F001F8DBE71847604F0000804F000027
:10015000103A24BF78C878C1FAD8520724BF30C8F3
:1001600030C144BF04680C60704700007047000055
:100170000023002400250026103A28BF78C1FBD8B0
:10018000520728BF30C148BF0B6070471FB51FBD65
:1001900010B510BD00F06CF81146FFF7F7FF04F042
:1001A00079F800F08AF803B4FFF7F2FF03BC00F01F
:1001B0008DF800000948804709480047FEE7FEE740
:1001C000FEE7FEE7FEE7FEE7FEE7FEE7FEE7FEE707
:1001D00004480549054A064B704700006936000887
:1001E000ED0000088002002080080020800400202C
:1001F000800400204FF0000200B513469446964656
:10020000203922BFA0E80C50A0E80C50B1F1200129
:10021000BFF4F7AF090728BFA0E80C5048BF0CC0D7
:100220005DF804EB890028BF40F8042B08BF704735
:1002300048BF20F8022B11F0804F18BF00F8012BA7
:10024000704770477047704710B500F009F80068B4
:1002500010BD10B5044600F003F8046010BD0000A6
:100260000048704728000020004870472800002000
:100270007546FFF7F9FFAE4605006946534620F084
:100280000700854618B020B5FFF7A2FFBDE8204063
:100290004FF000064FF000074FF000084FF0000B42
:1002A000AC46ACE8C009ACE8C009ACE8C009ACE8B1
:1002B000C00921F007018D46704710B50446AFF321
:1002C00000802046BDE81040FFF76DBF01491820AF
:1002D000ABBEFEE72600020070470000FFE7FEE726
:1002E00080B58CB00B9000210691079101200890F9
:1002F0000191029103910491059109900E200A90B9
:100300000B9801A900F032F918B1FFE700F050F89E
:10031000FFE70B9800F05EFE18B1FFE700F048F829
:10032000FFE70B98022100F04BF818B1FFE700F04F
:100330003FF8FFE70B98012100F042F818B1FFE702
:1003400000F036F8FFE70CB080BD000080B540F249
:10035000E400C2F2000000F06BFF80BD84B00390A7
:100360000291019200930398C16B026C01209040AE
:10037000486000980399096848600398406810280D
:1003800009D1FFE7019803990968886002980399E9
:100390000968C86008E002980399096888600198B4
:1003A00003990968C860FFE704B070477047000010
:1003B00081B0EFF3108072B60090FFE7FEE7000017
:1003C00084B002900191029890F820008DF803000B
:1003D0009DF80300012805D0FFE79DF803000228DF
:1003E0000AD1FFE7019A0298016848691043486101
:1003F00000208DF80F0008E00299486A40F4802040
:10040000486201208DF80F00FFE79DF80F0004B04F
:100410007047000088B006900591049203930698F7
:1004200090F820008DF8070006980068806800901A
:100430000598806808B9FFE700E0FFE79DF807002E
:10044000012806D0FFE79DF80700022840F08080D1
:10045000FFE79DF80300400700280CD4FFE79DF854
:1004600003000007002806D4FFE79DF80300C0063C
:10047000002864D5FFE70098C0F30160029002995C
:1004800001208840039908600598806868B9FFE7F3
:1004900005980168C06840EA415006990968029AC7
:1004A00001EB0211C1F880010EE005994A688868E5
:1004B000C96840EAC200084306990968029A01EB3C
:1004C0000211C1F88001FFE70598006906990968E3
:1004D000029A01EB0211C1F884010598007D012800
:1004E0000CD1FFE706980068029900EB0111D1F8E2
:1004F000840140F48070C1F88401FFE704984068EB
:1005000006990968029A01EB0211C1F88C0104985E
:10051000006806990968029A01EB0211C1F8880186
:1005200006980068029900EB0111D1F8800140F0B3
:100530000100C1F8800100208DF81F0011E006992C
:10054000486A40F40010486201208DF81F0008E05E
:100550000699486A40F48020486201208DF81F0007
:10056000FFE79DF81F0008B07047000086B00490B8
:100570000391049800680190049890F820008DF889
:1005800003009DF80300012806D0FFE79DF8030053
:10059000022840F09B80FFE70199D1F8000240F06B
:1005A0000100C1F800020398406900F01F0101201A
:1005B00088400290029A0199D1F81C029043C1F838
:1005C0001C020398C069F0B9FFE7029A0199D1F8BB
:1005D0000C029043C1F80C02039A9088D1685269CA
:1005E00040EA0140019901EBC201C1F84002039ABF
:1005F00010889168526940EA0140019901EBC201FB
:10060000C1F84402FFE70398C06901281ED1FFE743
:10061000029A0199D1F80C021043C1F80C02039A16
:1006200090881168526940EA0140019901EBC201CA
:10063000C1F84002039A90899168526940EA0140EA
:10064000019901EBC201C1F84402FFE703988069F8
:1006500040B9FFE7029A0199D1F804029043C1F82A
:10066000040207E0029A0199D1F804021043C1F88C
:100670000402FFE70398006940B9FFE7029A019975
:10068000D1F814029043C1F8140207E0029A0199CC
:10069000D1F814021043C1F81402FFE70398006A6E
:1006A000012808D1FFE7029A0199D1F81C021043F2
:1006B000C1F81C02FFE70199D1F8000220F0010007
:1006C000C1F8000200208DF8170008E00499486A7C
:1006D00040F48020486201208DF81700FFE79DF864
:1006E000170006B07047000081B0009001B070475D
:1006F00086B00490039102920193049890F8200030
:100700008DF803009DF80300012806D0FFE79DF84F
:100710000300022840F0E880FFE7039880B9FFE774
:1007200004980068C068800748B9FFE70499486AE0
:1007300040F40010486201208DF81700DDE00FE062
:10074000049800680069800748B9FFE70499486A7F
:1007500040F40010486201208DF81700CDE0FFE75B
:1007600004980068039900EB0110D0F8B00100F084
:100770000400029988600298806858B9FFE70498DD
:100780000068039900EB0110D0F8B001400D029908
:1007900008600AE004980068039900EB0110D0F8A3
:1007A000B001C00802994860FFE704980068039907
:1007B00000EB0110D0F8B00100F002000299C8600F
:1007C00004980068039900EB0110D0F8B40100F020
:1007D0000F00082804D3FFE70299082008610BE006
:1007E00004980068039900EB0110D0F8B40100F000
:1007F0000F0002990861FFE704980068039900EB75
:100800000110D0F8B40180B2000A029988610498FE
:100810000068039900EB0110D0F8B401000C0299B4
:10082000486104980068039900EB0110D0F8B80102
:100830000199087004980068039900EB0110D0F842
:10084000B801000A0199487004980068039900EB08
:100850000110D0F8B801000C019988700498006864
:10086000039900EB0110D0F8B801000E0199C8708F
:1008700004980068039900EB0110D0F8BC010199BD
:10088000087104980068039900EB0110D0F8BC01CE
:10089000000A0199487104980068039900EB01105F
:1008A000D0F8BC01000C0199887104980068039984
:1008B00000EB0110D0F8BC01000E0199C87103983B
:1008C00038B9FFE704980168C86840F02000C860A4
:1008D00006E004980168086940F020000861FFE71D
:1008E00000208DF8170008E00499486A40F4802041
:1008F000486201208DF81700FFE79DF8170006B049
:100900007047000080B58AB00990002008900998CF
:100910000068406907900998006840680690099847
:1009200000688068059009980068C068049009987C
:1009300000680069039009980068806902909DF83A
:100940001C00C007002800F09480FFE79DF8140009
:10095000C00758B3FFE709980168012088609DF837
:1009600014008007002804D5FFE7099800F07CFBFD
:100970001BE09DF814004007002805D5FFE7089804
:1009800040F4006008900FE09DF814000007002874
:1009900005D5FFE7089840F48050089003E00998D7
:1009A00000F05EFBFFE7FFE7FFE7FFE79DF81500BC
:1009B000C00760B3FFE7099801684FF48070886052
:1009C0009DF815008007002804D5FFE7099800F07E
:1009D00053FB1BE09DF815004007002805D5FFE7F5
:1009E000089840F4005008900FE09DF815000007AB
:1009F000002805D5FFE7089840F48040089003E000
:100A0000099800F035FBFFE7FFE7FFE7FFE79DF8F8
:100A10001600C00760B3FFE7099801684FF4803003
:100A200088609DF816008007002804D5FFE7099824
:100A300000F02AFB1BE09DF816004007002805D5B2
:100A4000FFE7089840F4004008900FE09DF816007A
:100A50000007002805D5FFE7089840F4803008908B
:100A600003E0099800F00CFBFFE7FFE7FFE7FFE773
:100A7000FFE79DF81C000007002810D5FFE79DF850
:100A80001000C006002809D5FFE7089840F4007060
:100A90000890099801681020C860FFE7FFE79DF8FB
:100AA0001C00400700280FD5FFE79DF81000000745
:100AB000002808D5FFE7099801680820C860099850
:100AC00000F060FAFFE7FFE79DF81C0080070028B0
:100AD0000BD5FFE709980068C068800720B1FFE7E1
:100AE000099800F053FAFFE7FFE79DF81C00400665
:100AF000002810D5FFE79DF80C00C006002809D596
:100B0000FFE7089840F48060089009980168102079
:100B10000861FFE7FFE79DF81C00800600280FD55D
:100B2000FFE79DF80C000007002808D5FFE70998AB
:100B3000016808200861099800F040FAFFE7FFE724
:100B40009DF81C00C00600280BD5FFE70998006837
:100B50000069800720B1FFE7099800F033FAFFE74A
:100B6000FFE79DF81E00800700280FD5FFE79DF8DE
:100B70001800C006002808D5FFE709980168102072
:100B80004860099800F022FAFFE7FFE79DF81E0091
:100B9000C00778B1FFE79DF818000007002808D5C6
:100BA000FFE70998016808204860099800F070FA8A
:100BB000FFE7FFE79DF81D000006002840F18D804B
:100BC000FFE79DF818004007002840F18180FFE70B
:100BD0009DF81D00C00750B1FFE79DF80800C00751
:100BE00028B1FFE7089840F001000890FFE79DF862
:100BF0001D00800700280BD5FFE79DF8080080073F
:100C0000002805D5FFE7089840F002000890FFE7AC
:100C10009DF81D00400700280BD5FFE79DF8080050
:100C20004007002805D5FFE7089840F00400089029
:100C3000FFE79DF81D000007002848D5FFE79DF855
:100C4000080010F0700F42D0FFE7029800F070002B
:100C500001460191102814D0FFE70198202815D0F3
:100C6000FFE70198302816D0FFE70198402817D0F9
:100C7000FFE70198502818D0FFE70198602819D0A5
:100C80001DE0089840F00800089019E0089840F02E
:100C90001000089014E0089840F0200008900FE041
:100CA000089840F0400008900AE0089840F0800062
:100CB000089005E0089840F48070089000E0FFE795
:100CC00009980168886920F070008861FFE7FFE7F4
:100CD0000998016804204860FFE7089848B1FFE7D9
:100CE000089A0999486A104348620998FFF7FCFC82
:100CF000FFE70AB080BD000080B584B00290029882
:100D000020B9FFE701208DF80F00E0E0029890F88D
:100D1000200020B9FFE7029800F0DEF8FFE7029814
:100D20000168086840F00100086000F013FE0190BF
:100D3000FFE7029800684068C007A8B9FFE700F025
:100D400009FE0199401A0B280DD3FFE70299486A62
:100D500040F4003048620299052081F8200001200B
:100D60008DF80F00B3E0E4E702980168086820F00E
:100D70000200086000F0EEFD0190FFE702980068B5
:100D800040688007002815D5FFE700F0E3FD0199D2
:100D9000401A0B280DD3FFE70299486A40F400304F
:100DA00048620299052081F8200001208DF80F008B
:100DB0008DE0E3E70298007E012807D1FFE7029863
:100DC0000168086840F08000086006E00298016849
:100DD000086820F080000860FFE70298407E012844
:100DE00007D1FFE702980168086840F040000860FA
:100DF00006E002980168086820F040000860FFE7FC
:100E00000298807E012807D1FFE7029801680868F0
:100E100040F02000086006E002980168086820F0B1
:100E200020000860FFE70298C07E012807D1FFE795
:100E300002980168086820F01000086006E0029837
:100E40000168086840F010000860FFE70298007F22
:100E5000012807D1FFE702980168086840F0080000
:100E6000086006E002980168086820F00800086041
:100E7000FFE70298407F012807D1FFE70298016849
:100E8000086840F00400086006E0029801680868FD
:100E900020F004000860FFE7029B19685A68986810
:100EA000D3F80CC040EA0C00D3F810C040EA0C00A4
:100EB0005B691843013A1043C861029900204862F7
:100EC000029A012182F820108DF80F00FFE79DF8AB
:100ED0000F0004B080BD000080B58CB00B900020E6
:100EE0000A900990089007900B98006846F200411C
:100EF000C4F20001884243D1FFE7FFE741F21C0042
:100F0000C4F20200016841F000710160006800F065
:100F1000007006900698FFE7FFE741F21800C4F260
:100F20000200016841F004010160006800F0040063
:100F300005900598FFE74FF40060079000200390AC
:100F40000890099040F60000C4F20100019007A942
:100F5000029100F06FFB019802994FF480520792C2
:100F60000222089203220A9200F064FB039A1420E2
:100F70000490114600F08AFD049800F07DFDFFE723
:100F80000CB080BD81B0009001B0704780B582B0D8
:100F90000190019840F25C22C2F20002009240F2FD
:100FA0008803C2F200030021FFF7A2FB0099019819
:100FB000096803F015F902B080BD000081B000900F
:100FC00001B0704781B0009001B0704781B00090CF
:100FD00001B0704780B584B00290029890F820006C
:100FE00001282FD1FFE70299022081F82000029802
:100FF0000168086820F00100086000F0ABFC019077
:10100000FFE7029800684068C007A8B1FFE700F05A
:10101000A1FC0199401A0B280DD3FFE70299486AF9
:1010200040F4003048620299052081F82000012038
:101030008DF80F000FE0E4E70299002048628DF878
:101040000F0008E00299486A40F40020486201203D
:101050008DF80F00FFE79DF80F0004B080BD000081
:1010600081B0009001B0704781B0009001B070472E
:1010700081B0009001B0704781B0009001B070471E
:1010800081B0009001B0704781B0009001B070470E
:1010900081B0009001B0704783B0019000208DF8BE
:1010A0000300019890F8210002280DD0FFE7019974
:1010B00004208863FFE70199002081F82000FFE702
:1010C00001208DF80B0021E001980168086820F0EC
:1010D0000E00086001980168086820F001000860AF
:1010E0000198C16B026C012090404860FFE70199B4
:1010F000012081F82100FFE70199002081F82000FC
:10110000FFE79DF803008DF80B00FFE79DF80B004B
:1011100003B0704780B588B0079000208DF81B00A1
:10112000079890F82100022807D0FFE707990420CC
:10113000886301208DF81B0076E007980168086835
:1011400020F00E00086007980168086820F0010090
:101150000860079800680821C4F20201884203D1A0
:10116000FFE70120059047E0079800681C21C4F2C2
:101170000201884203D1FFE71020049039E007986C
:1011800000683021C4F20201884204D1FFE74FF425
:10119000807003902AE0079800684421C4F202019D
:1011A000884204D1FFE74FF4805002901BE007987B
:1011B00000685821C4F20201884204D1FFE74FF4CD
:1011C000803001900CE0079801686C22C4F20202A2
:1011D0004FF08070914208BF4FF480100190FFE7FC
:1011E00001980290FFE702980390FFE703980490AC
:1011F000FFE704980590FFE705980421C4F2020177
:1012000008600799012081F82100FFE70799002075
:1012100081F82000FFE70798406B20B1FFE70798AF
:10122000416B8847FFE7FFE79DF81B0008B080BDD2
:1012300080B58EB00D900D98C06B00680C900D9825
:10124000006800680B900C980D99096CC840400725
:10125000002875D5FFE79DF82C00400700286FD5C2
:10126000FFE70D98006800688006002807D4FFE7B4
:101270000D980168086820F004000860FFE70D98E9
:1012800000680821C4F20201884203D1FFE704206C
:101290000A9047E00D9800681C21C4F202018842C0
:1012A00003D1FFE74020099039E00D980068302114
:1012B000C4F20201884204D1FFE74FF48060089035
:1012C0002AE00D9800684421C4F20201884204D14A
:1012D000FFE74FF4804007901BE00D98006858210D
:1012E000C4F20201884204D1FFE74FF48020069047
:1012F0000CE00D9801686C22C4F202024FF080608D
:10130000914208BF4FF480000690FFE706980790CF
:10131000FFE707980890FFE708980990FFE709980A
:101320000A90FFE70A980421C4F2020108600D98B0
:10133000C06A20B1FFE70D98C16A8847FFE7B8E0AF
:101340000C980D99096CC8408007002840F18080F6
:10135000FFE79DF82C008007002879D5FFE70D985E
:1013600000680068800600280BD4FFE70D9801682C
:10137000086820F00A0008600D99012081F821001A
:10138000FFE70D9800680821C4F20201884203D1EA
:10139000FFE70220059047E00D9800681C21C4F289
:1013A0000201884203D1FFE72020049039E00D9824
:1013B00000683021C4F20201884204D1FFE74FF4F3
:1013C000007003902AE00D9800684421C4F20201E5
:1013D000884204D1FFE74FF4005002901BE00D98C3
:1013E00000685821C4F20201884204D1FFE74FF49B
:1013F000003001900CE00D9801686C22C4F20202EA
:101400004FF00070914208BF4FF400100190FFE7C9
:1014100001980290FFE702980390FFE70398049079
:10142000FFE704980590FFE705980421C4F2020144
:101430000860FFE70D99002081F82000FFE70D9874
:10144000806A20B1FFE70D98816A8847FFE72FE0A7
:101450000C980D99096CC8400007002827D5FFE7B4
:101460009DF82C000007002821D5FFE70D980168A2
:10147000086820F00E0008600D98C26B016C012016
:1014800000FA01F151600D9988630D9981F82100EE
:10149000FFE70D99002081F82000FFE70D98006B11
:1014A00020B1FFE70D98016B8847FFE7FFE7FFE7F3
:1014B000FFE70EB080BD000083B0019000200090D7
:1014C000019820B9FFE701208DF80B0047E0019952
:1014D00008684FF6F872CBF6FD7210444CF6CD4218
:1014E000CCF6CC42A0FB02026FF0030000EA9200AF
:1014F000086401990020C4F20200C8630199022027
:1015000081F821000198006800680090009843F677
:10151000F0718843009001994868D1F808C0CB6801
:101520000A6940EA0C00184310434A6910438A696B
:101530001043C9690143009808430090009801993D
:1015400009680860019900208863019A012182F8E6
:101550002110019981F820008DF80B00FFE79DF81C
:101560000B0003B07047000080B586B00490039173
:101570000292019300208DF80300FFE7049890F891
:101580002000012804D1FFE702208DF817004CE06D
:101590000499012081F82000FFE7FFE7049890F804
:1015A0002100012832D1FFE70499022081F82100AF
:1015B00004990020886304980168086820F00100FD
:1015C000086004980399029A019BFEF7C7FE0498ED
:1015D000C06A38B1FFE704980168086840F00E005F
:1015E00008600CE004980168086820F004000860B6
:1015F00004980168086840F00A000860FFE7049852
:101600000168086840F00100086009E0FFE70499FC
:10161000002081F82000FFE702208DF80300FFE79B
:101620009DF803008DF81700FFE79DF8170006B03E
:1016300080BD000090B00F900E9100200D90099099
:10164000FFE70E9800680D99C840002800F07F81E0
:10165000FFE70D99012088400C900E9800680C99C6
:1016600008400B900B980C99884240F06C81FFE782
:101670000E9840680590002851D0FFE70598012892
:101680003AD0FFE7059802283FD0FFE705980328E6
:101690005FD0FFE70598112832D0FFE705981228A0
:1016A00038D0FFE705980021C1F21101884236D0F9
:1016B000FFE705980021C1F2120188422FD0FFE711
:1016C00005980021C1F22101884228D0FFE7059842
:1016D0000021C1F22201884221D0FFE705980021B4
:1016E000C1F2310188421AD0FFE705980021C1F20A
:1016F0003201884213D02FE00E98C06809902CE088
:101700000E98C0680430099027E00E98C068083031
:10171000099022E00E98C0680C3009901DE00E98E8
:10172000806818B9FFE70420099011E00E988068DE
:10173000012806D1FFE7082009900C980F9908614D
:1017400005E0082009900C980F994861FFE7FFE732
:1017500003E00020099000E0FFE70B98FF2803D882
:10176000FFE70F98049003E00F9804300490FFE720
:10177000049808900B98FF2804D8FFE70D98800084
:10178000039006E00D996FF01F0000EB81000390BD
:10179000FFE70398079008980068079A0F21914087
:1017A0008843099991400843089908600E98C079C8
:1017B000C006002840F1C680FFE7FFE741F21800AD
:1017C000C4F20200016841F001010160006800F00C
:1017D000010006900698FFE70D9820F0030008210D
:1017E000C4F2010140580A900D9800F003008100F6
:1017F0000F2000FA01F10A9888430A900F9840F6EA
:101800000001C4F20101884203D1FFE700200290E9
:1018100026E00F9840F60041C4F20101884203D14E
:10182000FFE70120019018E00F9841F20001C4F297
:101830000101884203D1FFE7022000900AE00F99DE
:1018400041F20042C4F201020420914208BF032089
:101850000090FFE700980190FFE701980290FFE7F2
:1018600002980D9901F00301890000FA01F10A982C
:1018700008430A900A980D9921F003010822C4F246
:10188000010288500E988079C006002809D5FFE72C
:101890000B9A40F20841C4F2010108681043086045
:1018A00008E00B9A40F20841C4F201010868904335
:1018B0000860FFE70E9880798006002809D5FFE7C9
:1018C0000B9A40F20C41C4F2010108681043086011
:1018D00008E00B9A40F20C41C4F201010868904301
:1018E0000860FFE70E9880798007002809D5FFE798
:1018F0000B9A40F20441C4F20101086810430860E9
:1019000008E00B9A40F20441C4F2010108689043D8
:101910000860FFE70E988079C00748B1FFE70B9A8F
:1019200040F20041C4F2010108681043086008E079
:101930000B9A40F20041C4F201010868904308602C
:10194000FFE7FFE7FFE70D9801300D9079E610B053
:101950007047000040F27C20C2F20000006870472F
:1019600040F21800C2F20000027840F27C21C2F27C
:1019700000010868104408607047000080B542F21A
:101980000001C4F20201086840F010000860032062
:1019900000F096F80F2000F005F800F03BF800206A
:1019A00080BD000080B582B0009040F20000C2F21D
:1019B0000000006840F21801C2F200010A784FF4FA
:1019C0007A71B1FBF2F1B0FBF1F000F073FD20B1E0
:1019D000FFE701208DF8070018E000980F280DD8C8
:1019E000FFE700994FF0FF30002200F04FF8009819
:1019F00040F21C01C2F20001086003E001208DF8F2
:101A0000070003E000208DF80700FFE79DF80700BE
:101A100002B080BD83B0FFE741F21800C4F20200BB
:101A2000016841F001010160006800F001000290CE
:101A30000298FFE7FFE741F21C00C4F202000168D0
:101A400041F080510160006800F0805001900198E1
:101A5000FFE7FFE70421C4F2010108680090009845
:101A600020F0E0600090009840F000700090009836
:101A70000860FFE703B0704780B582B08DF80700BB
:101A80009DF9070002F04CFB02B080BD80B586B026
:101A90008DF81700049103920020029002F058FB89
:101AA00002909DF91700019002980499039A01F0A1
:101AB0001FFD0146019802F053FB06B080BD0000F7
:101AC00080B582B00190019802F06CFB02B080BD3D
:101AD00080B584B002900191029820B9FFE70120FF
:101AE0008DF80F001BE1019842F20001C4F20201DF
:101AF000096801F00701884216D9FFE742F20000A9
:101B0000C4F20200016821F00701019A114301604B
:101B1000006800F007000199884204D0FFE7012027
:101B20008DF80F00FBE0FFE702980078800700289F
:101B30002AD5FFE7029800784007002809D5FFE77B
:101B400041F20401C4F20201086840F4E060086058
:101B5000FFE7029800780007002809D5FFE741F267
:101B60000401C4F20201086840F460500860FFE715
:101B700041F20401C4F20201086820F0F000029A68
:101B8000926810430860FFE702980078C0070028B9
:101B900060D0FFE70298406801280ED1FFE741F2CC
:101BA0000000C4F2020000688003002804D4FFE7AC
:101BB00001208DF80F00B2E021E002984068022871
:101BC0000ED1FFE741F20000C4F20200006880017C
:101BD000002804D4FFE701208DF80F009FE00DE0FE
:101BE00041F20000C4F2020000688007002804D41B
:101BF000FFE701208DF80F0091E0FFE7FFE741F2DA
:101C00000401C4F20201086820F00300029A52683D
:101C100010430860FFF79EFE0090FFE741F20400CA
:101C2000C4F20200006800F00C0002994968B0EBB1
:101C3000810F0ED0FFE7FFF78DFE0099401A41F2A9
:101C40008931884204D3FFE703208DF80F0066E056
:101C5000E4E7FFE7019842F20001C4F202010968DB
:101C600001F00701884216D2FFE742F20000C4F2F9
:101C70000200016821F00701019A11430160006828
:101C800000F007000199884204D0FFE701208DF899
:101C90000F0044E0FFE702980078400700280CD5C9
:101CA000FFE741F20401C4F20201086820F4E06099
:101CB000029AD26810430860FFE702980078000794
:101CC00000280DD5FFE741F20401C4F202010868C3
:101CD00020F46050029A126940EAC2000860FFE7EF
:101CE00000F04CF841F20401C4F202010968C9B2E3
:101CF0000A0945F27C01C0F60001895CC84040F247
:101D00000001C2F20001086040F21C00C2F20000B3
:101D10000068FFF747FE00208DF80F00FFE79DF8F1
:101D20000F0004B080BD000040F20000C2F20000CD
:101D30000068704780B5FFF7F7FF41F20401C4F275
:101D400002010968C1F3022245F28C01C0F60001CC
:101D5000895CC84080BD000080B5FFF7E5FF41F217
:101D60000401C4F202010968C1F3C22245F28C01E8
:101D7000C0F60001895CC84080BD000086B000202C
:101D80000590049003900290019041F20400C4F287
:101D9000020000680590059800F00C0001460091D3
:101DA00000283FD0FFE70098042804D0FFE7009800
:101DB000082806D037E041F20020C0F27A000190F6
:101DC00037E00598C0F3834145F29400C0F6000067
:101DD000405C02909DF81600C007C0B1FFE741F2D9
:101DE0000400C4F202000068C0F3404145F2A400C0
:101DF000C0F60000405C0490029841F20021C0F25D
:101E00007A0148430499B0FBF1F0039007E002988F
:101E100040F60011C0F23D0148430390FFE70398EC
:101E2000019006E0FFE741F20020C0F27A00019045
:101E3000FFE7019806B0704780B586B0049004981B
:101E400020B9FFE701208DF817002EE304980078F1
:101E5000C007002800F0AE80FFE741F20400C4F2A2
:101E60000200006800F00C00042813D0FFE741F2E4
:101E70000400C4F20200006800F00C0008281BD126
:101E8000FFE741F20400C4F202000068C00300282A
:101E900012D5FFE741F20000C4F20200006880039F
:101EA000002808D5FFE70498406820B9FFE7012023
:101EB0008DF81700F9E27CE0FFE704984068B0F580
:101EC000803F09D1FFE741F20001C4F20201086836
:101ED00040F48030086032E00498406868B9FFE759
:101EE00041F20001C4F20201086820F48030086069
:101EF000086820F48020086020E004984068B0F56D
:101F0000A02F0DD1FFE741F20001C4F202010868E1
:101F100040F480200860086840F4803008600CE0DD
:101F200041F20001C4F20201086820F48030086028
:101F3000086820F480200860FFE7FFE7FFE7FFE77D
:101F400004984068D0B1FFE7FFF704FD0390FFE776
:101F500041F20000C4F202000068800300280CD4A3
:101F6000FFE7FFF7F7FC0399401A652804D3FFE762
:101F700003208DF8170098E2EAE719E0FFF7EAFC82
:101F80000390FFE741F20000C4F202000068800302
:101F900000280CD5FFE7FFF7DDFC0399401A652800
:101FA00004D3FFE703208DF817007EE2EAE7FFE79E
:101FB000FFE7FFE7049800788007002840F18D8054
:101FC000FFE741F20400C4F20200006810F00C0FB9
:101FD00013D0FFE741F20400C4F20200006800F0F1
:101FE0000C00082829D1FFE741F20400C4F20200E6
:101FF0000068C003002820D4FFE741F20000C4F2CB
:10200000020000688007002809D5FFE704980069EE
:10201000012804D0FFE701208DF8170045E241F2C6
:102020000001C4F20201086820F0F800049A526925
:1020300040EAC2000860FFE74EE00498006958B328
:10204000FFE70021C4F2422101200860FFF782FC73
:102050000390FFE741F20000C4F20200006880072D
:1020600000280CD4FFE7FFF775FC0399401A0328FA
:1020700004D3FFE703208DF8170016E2EAE741F2E8
:102080000001C4F20201086820F0F800049A5269C5
:1020900040EAC20008601EE00021C4F24221002094
:1020A0000860FFF757FC0390FFE741F20000C4F21D
:1020B00002000068800700280CD5FFE7FFF74AFC04
:1020C0000399401A032804D3FFE703208DF8170073
:1020D000EBE1EAE7FFE7FFE7FFE704980078000796
:1020E000002848D5FFE70498806918B3FFE740F25D
:1020F0008041C4F2422101200860FFF72BFC0390CD
:10210000FFE741F22400C4F20200006880070028C3
:102110000CD4FFE7FFF71EFC0399401A032804D3F1
:10212000FFE703208DF81700BFE1EAE7012001F087
:1021300017FA1FE040F28041C4F2422100200860FB
:10214000FFF708FC0390FFE741F22400C4F202000D
:102150000068800700280CD5FFE7FFF7FBFB039919
:10216000401A032804D3FFE703208DF817009CE1F1
:10217000EAE7FFE7FFE7049800784007002840F10E
:10218000D880FFE700208DF8070041F21C00C4F260
:1021900002000068C000002813D4FFE7FFE741F207
:1021A0001C00C4F20200016841F080510160006827
:1021B00000F0805000900098FFE701208DF80700A4
:1021C000FFE747F20000C4F200000068C0050028E5
:1021D00022D4FFE747F20001C4F20001086840F48E
:1021E00080700860FFF7B6FB0390FFE747F200003E
:1021F000C4F200000068C00500280CD4FFE7FFF718
:10220000A9FB0399401A652804D3FFE703208DF842
:1022100017004AE1EAE7FFE7FFE70498C0680128F2
:1022200009D1FFE741F22001C4F20201086840F041
:102230000100086031E00498C06868B9FFE741F226
:102240002001C4F20201086820F00100086008685B
:1022500020F0040008601FE00498C06805280DD134
:10226000FFE741F22001C4F20201086840F00400D7
:102270000860086840F0010008600CE041F22001AD
:10228000C4F20201086820F001000860086820F02C
:1022900004000860FFE7FFE7FFE7FFE70498C06876
:1022A000E0B1FFE7FFF756FB0390FFE741F22000A4
:1022B000C4F202000068800700280ED4FFE7FFF791
:1022C00049FB0399401A41F28931884204D3FFE760
:1022D00003208DF81700E8E0E8E71BE0FFF73AFB82
:1022E0000390FFE741F22000C4F20200006880077B
:1022F00000280ED5FFE7FFF72DFB0399401A41F2A6
:102300008931884204D3FFE703208DF81700CCE021
:10231000E8E7FFE79DF80700012809D1FFE741F250
:102320001C01C4F20201086820F080500860FFE739
:10233000FFE70498C069002800F0B380FFE741F28E
:102340000400C4F20200006800F00C00082800F04D
:102350008280FFE70498C06902285CD1FFE7602112
:10236000C4F2422100200860FFF7F4FA0390FFE76F
:1023700041F20000C4F202000068800100280CD580
:10238000FFE7FFF7E7FA0399401A032804D3FFE7B2
:1023900003208DF8170088E0EAE70498006AB0F59A
:1023A000803F0CD1FFE741F20401C4F2020108684A
:1023B00020F40030049A926810430860FFE741F26D
:1023C0000401C4F20201086820F47410049B1A6A24
:1023D0005B6A1A43104308606021C4F24221012065
:1023E0000860FFF7B7FA0390FFE741F20000C4F27C
:1023F00002000068800100280CD4FFE7FFF7AAFA6A
:102400000399401A032804D3FFE703208DF817002F
:102410004BE0EAE71EE06021C4F2422100200860A0
:10242000FFF798FA0390FFE741F20000C4F20200C0
:102430000068800100280CD5FFE7FFF78BFA0399AD
:10244000401A032804D3FFE703208DF817002CE07F
:10245000EAE7FFE724E00498C069012804D1FFE718
:1024600001208DF8170020E041F20400C4F20200C0
:1024700000680290029800F480300499096A88424A
:1024800008D1FFE7029800F470100499496A884265
:1024900004D0FFE701208DF8170006E0FFE7FFE713
:1024A000FFE700208DF81700FFE79DF8170006B042
:1024B00080BD000080B582B00190019801F070F8F5
:1024C00002B080BD81B0009001B0704781B0009033
:1024D00001B0704785B003900291FFE7039890F830
:1024E0003C00012804D1FFE702208DF813005BE0D7
:1024F0000399012081F83C00FFE7FFE703990220E0
:1025000081F83D00039800684068019003980068D6
:1025100080680090019820F0700001900298016896
:10252000019808430190019803990968486003984D
:10253000006842F60041C4F20101884218D0FFE76A
:1025400003980068B0F1804F12D0FFE7039800684D
:1025500040F20041C4F20001884209D0FFE703982D
:10256000006840F60001C4F2000188420ED1FFE786
:10257000009820F08000009002984168009808437D
:1025800000900098039909688860FFE7039901208B
:1025900081F83D00FFE70399002081F83C00FFE748
:1025A00000208DF81300FFE79DF8130005B0704779
:1025B00080B582B00090009820B9FFE701208DF827
:1025C00007003FE0009890F83D0040B9FFE7009910
:1025D000002081F83C00009800F038F8FFE70099EF
:1025E000022081F83D00009951F8040B01F04EF8EB
:1025F0000099012081F84600FFE70099012081F849
:102600003E00009981F83F00009981F84000009950
:1026100081F84100FFE7FFE70099012081F84200BF
:10262000009981F84300009981F84400009981F8ED
:102630004500FFE70099012081F83D0000208DF85A
:102640000700FFE79DF8070002B080BD80B586B0A7
:10265000059005980068B0F1804F19D1FFE7FFE7BA
:1026600041F21C00C4F20200016841F00101016066
:10267000006800F0010004900498FFE71C2002901D
:1026800000221146FFF702FA0298FFF7F5F922E05F
:102690000598006840F20041C4F20001884219D157
:1026A000FFE7FFE741F21C00C4F20200016841F0BD
:1026B00002010160006800F0020003900398FFE748
:1026C0001D20019000221146FFF7E0F90198FFF765
:1026D000D3F9FFE7FFE706B080BD000083B00190AB
:1026E000019890F83D00012804D0FFE701208DF803
:1026F0000B0047E00199022081F83D000198016834
:10270000C86840F00100C8600198006842F60041C6
:10271000C4F20101884218D0FFE701980068B0F1C7
:10272000804F12D0FFE70198006840F20041C4F2E8
:102730000001884209D0FFE70198006840F60001D7
:10274000C4F20001884212D1FFE701980068806856
:1027500000F0070000900098062807D0FFE70198D6
:102760000168086840F001000860FFE706E0019892
:102770000168086840F001000860FFE700208DF85C
:102780000B00FFE79DF80B0003B0704780B586B0E3
:102790000490039100208DF80B00FFE7049890F857
:1027A0003C00012804D1FFE702208DF81700ABE0C0
:1027B0000499012081F83C00FFE7FFE7049902201B
:1027C00081F83D000498006880680190019820F02D
:1027D00077000190019820F47F40019001980499BE
:1027E00009688860039800680090002872D0FFE7AD
:1027F000009810286ED0FFE7009820286AD0FFE7E5
:102800000098302866D0FFE70098402855D0FFE7B1
:102810000098502837D0FFE70098602840D0FFE7A5
:10282000009870280BD0FFE70098B0F5805F05D0C6
:10283000FFE70098B0F5005F16D052E055E004982D
:102840000068039B5A689968DB6800F0A3FF04984E
:10285000006880680190019840F07700019001982D
:1028600004990968886040E004980068039B5A68EE
:102870009968DB6800F08EFF04980168886840F46E
:102880008040886031E004980068039A5168D268FB
:1028900000F0B0FF04980068502100F095FF24E09C
:1028A00004980068039A5168D26800F0CBFF04983E
:1028B0000068602100F088FF17E004980068039A20
:1028C0005168D26800F096FF04980068402100F03B
:1028D0007BFF0AE0049800680399096800F074FF20
:1028E00003E001208DF80B00FFE70499012081F837
:1028F0003D00FFE70499002081F83C00FFE79DF8C8
:102900000B008DF81700FFE79DF8170006B080BD9B
:1029100081B0009001B0704780B584B003900398F7
:102920000068C068029003980068006901909DF8F3
:1029300004008007002824D5FFE79DF808008007E1
:1029400000281DD5FFE7039801686FF002000861B9
:10295000039901200877039800688069800720B1F7
:10296000FFE70398FFF7D4FF06E0039800F0E2F8D2
:10297000039800F0E3F8FFE7039900200877FFE7EA
:10298000FFE79DF804004007002825D5FFE79DF8E4
:102990000800400700281ED5FFE7039801686FF084
:1029A0000400086103990220087703980068806991
:1029B00010F4407F04D0FFE70398FFF7A9FF06E07B
:1029C000039800F0B7F8039800F0B8F8FFE7039910
:1029D00000200877FFE7FFE79DF8040000070028C4
:1029E00024D5FFE79DF80800000700281DD5FFE764
:1029F000039801686FF008000861039904200877C4
:102A000003980068C069800720B1FFE70398FFF7CB
:102A10007FFF06E0039800F08DF8039800F08EF831
:102A2000FFE7039900200877FFE7FFE79DF8040020
:102A3000C006002825D5FFE79DF80800C00600283D
:102A40001ED5FFE7039801686FF010000861039935
:102A50000820087703980068C06910F4407F04D00C
:102A6000FFE70398FFF754FF06E0039800F062F8D1
:102A7000039800F063F8FFE7039900200877FFE769
:102A8000FFE79DF80400C00778B1FFE79DF8080054
:102A9000C00748B1FFE7039801686FF001000861C3
:102AA000039800F04FF8FFE7FFE79DF804000006E9
:102AB000002810D5FFE79DF808000006002809D57A
:102AC000FFE7039801686FF0800008610398FFF743
:102AD000F9FCFFE7FFE79DF804004006002810D549
:102AE000FFE79DF808004006002809D5FFE7039896
:102AF00001686FF040000861039800F03DF8FFE7BF
:102B0000FFE79DF804008006002810D5FFE79DF838
:102B100008008006002809D5FFE7039801686FF0D8
:102B2000200008610398FFF7D1FCFFE7FFE704B03E
:102B300080BD000081B0009001B0704781B000906E
:102B400001B0704780B582B0019001980068B0F183
:102B5000804F03D1FFE700F09FFEFFE70198006878
:102B600040F20041C4F20001884203D1FFE701F0C6
:102B70001DFAFFE702B080BD81B0009001B0704740
:102B800082B00190ADF8021002B0704781B00090A1
:102B900001B0704780B592B011901198006800683C
:102BA000109011980068C0680F90119800684069F3
:102BB0000E9000200D900C90109800F00F000D90DA
:102BC0000D9888B9FFE79DF84000800600280AD5D7
:102BD000FFE79DF83C008006002804D5FFE7119828
:102BE00001F074F8E9E1FFE70D98002800F0C280D9
:102BF000FFE79DF83800C00738B9FFE7BDF83C0093
:102C000010F4907F00F0B680FFE79DF84000C00709
:102C100058B1FFE79DF83D00C00730B1FFE71199BB
:102C2000486C40F001004864FFE79DF84000400711
:102C300000280BD5FFE79DF83800C00730B1FFE74B
:102C40001199486C40F002004864FFE79DF840008D
:102C5000800700280BD5FFE79DF83800C00730B18A
:102C6000FFE71199486C40F004004864FFE79DF8C5
:102C700040000007002811D5FFE79DF83C008006C2
:102C8000002805D4FFE79DF83800C00730B1FFE702
:102C90001199486C40F008004864FFE71198406CB7
:102CA000002866D0FFE79DF84000800600280AD57E
:102CB000FFE79DF83C008006002804D5FFE7119847
:102CC00001F004F8FFE7119800684069C0F3801034
:102CD0000C901198406C0007002804D4FFE70C9872
:102CE00000283ED0FFE7119800F076FF11980068A9
:102CF0004069400600282FD5FFE7FFE7FFE711985E
:102D0000006850E8050F20F040000B90FFE70B999A
:102D10001198026842E805100028F0D1FFE7FFE7AC
:102D20001198C06B98B1FFE71198C16B43F6A920C9
:102D3000C0F6000048631198C06BFEF7EBF928B1AC
:102D4000FFE71198C06B416B8847FFE703E01198DC
:102D5000FFF71CFFFFE703E01198FFF717FFFFE7FE
:102D600006E01198FFF712FF119900204864FFE771
:102D7000FFE722E11198006B012840F0FE80FFE799
:102D80009DF84000C006002840F1F780FFE79DF85D
:102D90003C00C006002840F1F080FFE7FFE700207C
:102DA0000A901198006800680A90119800684068BD
:102DB0000A900A98FFE711980068406940060028C9
:102DC00040F18180FFE71198C06B00684068ADF862
:102DD0002600BDF82600002874D0FFE7BDF82600C5
:102DE0001199898D88426DDAFFE7BDF826001199A7
:102DF000C8851198C06B8069202858D0FFE7FFE78D
:102E0000FFE71198006850E8030F20F480700890E5
:102E1000FFE708991198026842E803100028F0D1F2
:102E2000FFE7FFE7FFE7FFE71198006850E8050FAD
:102E300020F001000790FFE707991198026842E827
:102E400005100028F0D1FFE7FFE7FFE7FFE7119843
:102E5000006850E8050F20F040000690FFE7069953
:102E60001198026842E805100028F0D1FFE7FFE75B
:102E70001199202081F84200119900200863FFE792
:102E8000FFE71198006850E8030F20F0100005904C
:102E9000FFE705991198026842E803100028F0D175
:102EA000FFE7FFE71198C06BFEF7F6F8FFE711990F
:102EB000022048631198818DC28D891A89B2FFF76B
:102EC0005FFEFFE779E01199888DC98D401AADF852
:102ED00012001198C08D00284ED0FFE7BDF81200F7
:102EE000002849D0FFE7FFE7FFE71198006850E8A6
:102EF000030F20F490700390FFE703991198026884
:102F000042E803100028F0D1FFE7FFE7FFE7FFE703
:102F10001198006850E8050F20F001000290FFE7CB
:102F200002991198026842E805100028F0D1FFE7E5
:102F3000FFE71199202081F84200119900200863D1
:102F4000FFE7FFE71198006850E8030F20F010003A
:102F50000190FFE701991198026842E803100028E8
:102F6000F0D1FFE7FFE71199022048631198BDF8FF
:102F70001210FFF705FEFFE71FE09DF84000000676
:102F800000280AD5FFE79DF83C000006002804D57C
:102F9000FFE7119800F0AEFF0FE09DF840004006FB
:102FA00000280AD5FFE79DF83C004006002804D51C
:102FB000FFE7119800F05AFEFFE712B080BD000055
:102FC00080B582B00090009820B9FFE701208DF80D
:102FD000070040E00098806908B1FFE700E0FFE7E4
:102FE000009890F8410040B9FFE70099002081F86F
:102FF0004000009800F034F8FFE70099242081F8A1
:10300000410000980168C86820F40050C86000982A
:1030100000F012FF00980168086920F490400861F0
:1030200000980168486920F02A004861009801680A
:10303000C86840F40050C860009900204864009AB5
:10304000202182F84110009A82F8421000994863CA
:103050008DF80700FFE79DF8070002B080BD000073
:1030600080B58CB00B9000200A90099008900790D2
:103070000B98006844F20041C4F20001884265D117
:10308000FFE7FFE741F21C00C4F20200016841F4CF
:1030900000310160006800F4003006900698FFE7F8
:1030A000FFE741F21800C4F20200016841F0040198
:1030B0000160006800F0040005900598FFE7042017
:1030C00007900220089003200A9040F60000C4F206
:1030D0000100019007A90291FEF7ACFA019802994C
:1030E000082207920022039208920992FEF7A2FAA0
:1030F000039940F2E400C2F2000004908022C4F27E
:10310000020202601022426081608022C26001617E
:1031100041618161C161FEF7CFF918B1FFE7FDF7A9
:1031200047F9FFE7FFE70B9840F2E401C2F2000124
:1031300081630B984862FFE7262000900022114629
:10314000FEF7A4FC0098FEF797FCFFE70CB080BDEB
:1031500081B0009001B0704780B586B004900391B3
:10316000ADF80A20049890F8410020285DD1FFE7CF
:10317000039820B1FFE7BDF80A0020B9FFE701205E
:103180008DF8170055E0039804990862BDF80A000D
:1031900004998884BDF80A000499C8840499002021
:1031A0004864049A212182F8411004998A6B43F6FD
:1031B0004531C0F60001916204998A6B43F6C13132
:1031C000C0F60001D16204998A6B43F6C921C0F6AA
:1031D000000111630499896B486303A80190049866
:1031E0000268806B019909680432BDF80A30FEF765
:1031F000BBF9049801686FF040000860FFE7FFE743
:103200000498006850E8050F40F080000090FFE748
:1032100000990498026842E805100028F0D1FFE701
:10322000FFE700208DF8170003E002208DF817005B
:10323000FFE79DF8170006B080BD000081B0009048
:1032400001B0704781B0009001B07047FFE7FEE722
:1032500080B58CB084460E98CDF82CC0ADF82A10FD
:10326000ADF82820ADF82630ADF824004FF40070FA
:1032700003900020049005900690082107918DF896
:1032800020009DF82B008DF800009DF82A008DF895
:1032900001009DF829008DF802009DF828008DF8A6
:1032A00003009DF827008DF804009DF826008DF896
:1032B00005009DF825008DF806009DF824008DF886
:1032C00007000B9803A96A4602ABFDF7A3F80CB000
:1032D00080BD000080B582B040F2BC00C2F20000A8
:1032E000009046F20041C4F20001016002214160F9
:1032F000002101918160C1604FF4402202614FF4CE
:1033000040124261017641768176C176017741773C
:10331000FDF7F2FC18B1FFE7FDF74AF8FFE702B04E
:1033200080BD000080B582B0FFE741F21400C4F216
:103330000200016841F001010160006800F0010035
:1033400001900198FFE71120009000221146FEF73E
:103350009DFB0098FEF790FB02B080BD82B0FFE7B6
:1033600041F21800C4F20200016841F0200101603E
:10337000006800F0200001900198FFE7FFE741F2AC
:103380001800C4F20200016841F004010160006805
:1033900000F0040000900098FFE702B070470000C2
:1033A00080B588B0002101910791069105910491A3
:1033B0000391029140F22810C2F200004FF08042C7
:1033C000026041F61F42426081606322C260016177
:1033D0008161FFF7EDF818B1FFE7FCF7E9FFFFE7C0
:1033E0004FF48050049040F22810C2F2000004A96B
:1033F000FFF7CCF918B1FFE7FCF7DAFFFFE7002091
:103400000290039040F22810C2F2000002A9FFF7D8
:1034100061F818B1FFE7FCF7CBFFFFE708B080BD0C
:1034200080B588B000210191079106910591049122
:103430000391029140F27010C2F2000040F200428B
:10344000C4F20002026041F61F424260816040F215
:10345000E732C26001618161FFF7AAF818B1FFE7A6
:10346000FCF7A6FFFFE74FF48050049040F2701085
:10347000C2F2000004A9FFF789F918B1FFE7FCF7D1
:1034800097FFFFE700200290039040F27010C2F215
:10349000000002A9FFF71EF818B1FFE7FCF788FF4C
:1034A000FFE708B080BD000080B582B040F2B810E0
:1034B000C2F20000019044F20041C4F20001016038
:1034C0004FF4E131416000218160C16001610C2253
:1034D00042618161C161FFF773FD18B1FFE7FCF73D
:1034E00067FFFFE702B080BDFFE7FEE7FFE7FEE70B
:1034F00088B0079006910592079800F007000490A5
:103500000498C0F10700052803D3FFE704200190C9
:1035100004E00498C0F107000190FFE701980390D0
:1035200004980430062803D8FFE70020009003E049
:10353000049803380090FFE70098029006980399DA
:10354000012202FA01F101390840029B98400599D5
:103550009A40013A1140084308B070477047000094
:1035600082B00190019840F20001C2F200010968A6
:10357000C90844F6D352C1F26202A1FB02218909B3
:1035800048430090FFE700BFFFE70098411E00910D
:103590000028F8D1FFE702B0704700007047000034
:1035A00080B582B0009000980138B0F1807F03D3DD
:1035B000FFE70120019019E0009801384EF2140154
:1035C000CEF2000108604FF0FF300F2100F0C8FD7F
:1035D0004EF21801CEF20001002008604EF21002F7
:1035E000CEF20002072111600190FFE7019802B0BE
:1035F00080BD000080B5FEF7B3F980BD80B590B006
:1036000006A800902821FCF7F5FD009800230593FB
:103610000493039302930193012206924FF48031A5
:10362000079108930A9202220D920E914FF4E01135
:103630000F91FEF701FC18B1FFE7FCF7B9FEFFE7B9
:103640000F20019002210291002003904FF480622C
:103650000492059001A8FEF73BFA18B1FFE7FCF7CA
:10366000A7FEFFE710B080BD7047000080B540F2B4
:103670002810C2F20000FFF74FF980BD80B540F27C
:103680007010C2F20000FFF747F980BD83B00290CE
:103690000191029800680090029842F60041C4F23D
:1036A0000101884215D0FFE70298B0F1804F10D099
:1036B000FFE7029840F20041C4F20001884208D0BE
:1036C000FFE7029840F60001C4F2000188420AD1E7
:1036D000FFE7009820F07000009001984168009882
:1036E00008430090FFE7029842F60041C4F201014E
:1036F000884215D0FFE70298B0F1804F10D0FFE765
:10370000029840F20041C4F20001884208D0FFE76D
:10371000029840F60001C4F2000188420AD1FFE796
:10372000009820F4407000900198C1680098084308
:103730000090FFE7009820F0800001994969084354
:103740000090009802990860019880680299C86208
:103750000198006802998862029842F60041C4F21A
:103760000101884205D1FFE70198006902990863C9
:10377000FFE702990120486102980069C00730B153
:10378000FFE70299086920F001000861FFE703B034
:103790007047000085B00490039102920193049851
:1037A00080680090009820F47F4000900398029970
:1037B000019A41EA022101430098084300900098D1
:1037C0000499886005B0704783B002900191029817
:1037D00080680090009820F0700000900198009997
:1037E000084340F00700009000980299886003B0F9
:1037F0007047000085B00490039102920498006A1B
:1038000000900499086A20F0010008620498806919
:103810000190019820F0F00001900299019840EA8F
:1038200001100190009820F00A0000900399009880
:1038300008430090019804998861009804990862EF
:1038400005B0704785B00490039102920498006A15
:1038500000900499086A20F01000086204988069BA
:103860000190019820F4704001900299019840EA7B
:1038700001300190009820F0A0000090039900987A
:1038800040EA011000900198049988610098049919
:10389000086205B07047000080B588B040F21000A3
:1038A000C2F20000006840F22021C2F2000105913E
:1038B000086040F20C00C2F200000068486040F26C
:1038C0000020C2F200000068886040F27820C2F256
:1038D0000000019000684DF20A71C3F6234100F028
:1038E0008DFF0199086040F20400C2F200000068F8
:1038F000029040F22000C2F200000068096801F066
:10390000C1F900F0B7FE0146029840F20802C2F287
:1039100000021268039201F0B5F9039900F06EFFFE
:10392000079007980021C4F2702101F0ABF940F62E
:10393000DA71C4F2C90100F0FFFF06900698002179
:10394000C4F2642101F09EF940F25821C2F2000154
:103950000491086040F20420C2F20000B0F91000A7
:1039600001F0FCF80499024605980968002300F06C
:10397000BBFC014640F21C20C2F20000016000685E
:103980004FF08E4100F0BEFF40B9FFE740F21C212E
:10399000C2F200014FF08E400860FFE740F21C20A9
:1039A000C2F2000000684FF0474100F0A4FF40B9A8
:1039B000FFE740F21C21C2F200014FF047400860CF
:1039C000FFE740F21C20C2F20000006801F0AAF8F4
:1039D000014668460023036040F2BC00C2F20000CA
:1039E0001A46FFF735FC08B080BD000080B582B0F4
:1039F00040F21000C2F2000040F20C01C2F20001DD
:103A000040F20022C2F2000213680A680168EC4624
:103A100048F20000C4F23B50CCF8040044F200002D
:103A2000C4F29C50CCF8000040F22020C2F200000A
:103A300000F0E6FC00F002F802B080BD80B582B074
:103A40004AF61460C3F647704CF28F21C3F68571B5
:103A500000F00AFD40F20401C2F200010191086089
:103A600042F2E960C3F6F1704FF0804100F0FCFCD7
:103A70000146019840F22002C2F200021160016882
:103A80004CF28F20C4F2050001F002FA40F2080166
:103A9000C2F20001086040F27821C2F20001002069
:103AA000086002B080BD000080B582B0019001982E
:103AB000406A009000990020C8850099C884009849
:103AC000FFF764F802B080BD80B584B00390002099
:103AD00002900398406A0190019800684069C0B262
:103AE000C0090290019890F8410021280AD1FFE70F
:103AF000029838B1FFE701990020C884019800F0CE
:103B0000C9F8FFE7019800684069C0F3801002908F
:103B1000019890F8420022280AD1FFE7029838B1B4
:103B2000FFE701990020C885019800F055F8FFE7EC
:103B30000199486C40F0100048640198FFF726F89E
:103B400004B080BD80B584B003900398406A0290B1
:103B5000039800680068800600282AD4FFE70299CD
:103B60000020C884FFE7FFE70298006850E8050FCF
:103B700020F080000190FFE701990298026842E876
:103B800005100028F0D1FFE7FFE7FFE7FFE7029805
:103B9000006850E8030F40F040000090FFE70099F4
:103BA0000298026842E803100028F0D1FFE7FFE71F
:103BB00003E00298FFF742FBFFE704B080BD00007E
:103BC00080B582B001900198406A00900098FFF79C
:103BD00039FB02B080BD000084B00390FFE7FFE72F
:103BE0000398006850E8030F20F490700290FFE7FC
:103BF00002990398026842E803100028F0D1FFE719
:103C0000FFE7FFE7FFE70398006850E8050F20F0A3
:103C100001000190FFE701990398026842E805104E
:103C20000028F0D1FFE7FFE70398006B012814D1CB
:103C3000FFE7FFE7FFE70398006850E8030F20F075
:103C400010000090FFE700990398026842E8031013
:103C50000028F0D1FFE7FFE7FFE70399202081F874
:103C6000420003990020086304B0704780B582B019
:103C7000019001980168C86820F04000C86001996F
:103C8000202081F841000198FFF7D8FA002002B007
:103C900080BD000082B00190FFE7FFE70198006857
:103CA00050E8030F20F0C0000090FFE70099019852
:103CB000026842E803100028F0D1FFE7FFE701990E
:103CC000202081F8410002B07047000080B586B026
:103CD0000490049890F84200222840F0A480FFE766
:103CE00004988068B0F5805F15D1FFE704980069FB
:103CF00088B9FFE7002003900498806A0290049836
:103D0000006840686FF35F20029908800499886A10
:103D10000230886225E00498806A039000200290B7
:103D200004988068B0F5805F08D0FFE70498806849
:103D300050B9FFE70498006930B9FFE704980068BC
:103D400040680399087007E004980068406800F034
:103D50007F0003990870FFE70499886A0130886240
:103D6000FFE70499C88D0138C8850004002856D1A2
:103D7000FFE704980168C86820F02000C860049834
:103D80000168C86820F48070C860049801684869B8
:103D900020F0010048610499202081F84200049934
:103DA000002048630498006B012830D1FFE7049994
:103DB00000200863FFE7FFE70498006850E8030F5E
:103DC00020F010000190FFE701990498026842E892
:103DD00003100028F0D1FFE7FFE7049800680068AF
:103DE000C00600280ED5FFE7FFE7002000900498EA
:103DF000006800680090049800684068009000988F
:103E0000FFE7FFE70498818DFEF7BAFE03E0049810
:103E1000FFF79EF9FFE700208DF8170007E000206C
:103E20008DF8170003E002208DF81700FFE79DF8DA
:103E3000170006B080BD000080B584B003900398E1
:103E40000068006920F44050039A1168D26810435A
:103E50000861039988680A69496910430843029018
:103E600003980068C06841F20C61884302990843D6
:103E700003990968C86003980068406920F440709D
:103E8000039A11689269104348610398006843F6E9
:103E90000001C4F20101884204D1FFE7FDF75CFF95
:103EA000019003E0FDF746FF0190FFE7019819211B
:103EB0004843039A116852689200B0FBF2FC48F242
:103EC0001F52C5F2EB12ACFB02304309642003FB26
:103ED00010CC322000EB0C10A0FB0202F02000EA14
:103EE000521000EB0310C2F343121044886004B078
:103EF00080BD000083B00190019890F84100212816
:103F00003AD1FFE701988068B0F5805F13D1FFE7F1
:103F10000198006978B9FFE70198006A009000985D
:103F200000886FF35F200199096848600199086A69
:103F30000230086208E0019A106A411C11620078A0
:103F4000019909684860FFE70199C88C0138C88465
:103F5000000468B9FFE701980168C86820F0800094
:103F6000C86001980168C86840F04000C860FFE779
:103F700000208DF80B0003E002208DF80B00FFE716
:103F80009DF80B0003B0704780B540F2B810C2F244
:103F90000000FEF7FFFD80BD80B540F2BC00C2F21C
:103FA0000000FCF7AFFC80BDFFE7FEE780B588B0FE
:103FB00040F2B810C2F2000090F84100202826D14B
:103FC000FFE740F25820C2F20000079040F20420C0
:103FD000C2F20000B0F9100000F0C0FD01460798E1
:103FE00040F21C22C2F2000212680068EC46002374
:103FF000CCF81430CCF81030CCF80C30CCF80830B9
:10400000CCF80430CCF8003000F004F8FFE708B03A
:1040100080BD000080B586B0DDF834C0DDF830C06A
:10402000DDF82CC0DDF828C0DDF824C0DDF820C0A4
:10403000059004910392029300208DF80700059AE1
:104040009DF80730591C8DF8071040F29001C2F21C
:10405000000141F82320049A9DF8073003F1010C78
:104060008DF807C041F82320039A9DF8073003F12B
:10407000010C8DF807C041F82320029A9DF8073003
:1040800003F1010C8DF807C041F82320089A9DF830
:10409000073003F1010C8DF807C041F82320099A7D
:1040A0009DF8073003F1010C8DF807C041F823207B
:1040B0000A9A9DF8073003F1010C8DF807C041F80A
:1040C00023200B9A9DF8073003F1010C8DF807C0EF
:1040D00041F823200C9A9DF8073003F1010C8DF86C
:1040E00007C041F823200D9A9DF8073003F1010C19
:1040F0008DF807C041F8232081F8280081F82900B5
:10410000802081F82A007F2081F82B0040F2B8102F
:10411000C2F200002C22FFF71FF806B080BD00009D
:1041200081B08DF803009DF9030000280ED4FFE74D
:104130009DF9031001F01F02012090404A094EF240
:104140000011CEF2000141F82200FFE701B07047F4
:104150004EF60C50CEF200000068C0F3022070470B
:1041600082B08DF8070000919DF9070000280AD45D
:10417000FFE7009800019DF907104EF20042CEF2D1
:10418000000288540BE0009800019DF8071001F030
:104190000F014EF61452CEF200028854FFE702B02F
:1041A0007047000083B00290029800F00700009072
:1041B0004EF60C51CEF200010868019001984FF6BE
:1041C000FF02104001900198009A40EA022000226C
:1041D000C0F2FA52104301900198086003B0704792
:1041E00083B002900191019840F2012188424ED1A2
:1041F000FFE740F20421C2F20001009108884880E4
:10420000088A48828868C86040F28800C2F20000CC
:104210000378427842EA03220A808278C07840EA32
:1042200002200882002088828875B1F90000B1F967
:104230000210401AB0F5805F08DDFFE740F204216C
:10424000C2F2000148680138486015E040F20421DC
:10425000C2F20001B1F90000B1F90210401A10F5E4
:10426000805F08DAFFE740F20421C2F200014868EB
:1042700001304860FFE7FFE740F20421C2F200018D
:10428000B1F900004A6800EB42308860FFE703B0F4
:104290007047000080B582B000200190FDF76EFBF2
:1042A000FFF7ACF9FFF75AF8FFF73CF8FFF712F801
:1042B000FFF776F8FFF7F8F8FFF7B2F840F2BC0026
:1042C000C2F20000FCF70CF8FFF790FB40F2281058
:1042D000C2F20000FEF702FA40F27010C2F20000D3
:1042E000FEF7FCF9FFE7FEE780B58CB00A90099174
:1042F000089207930A9818B9FFE700200B907BE01B
:104300000A99086A48620A99C8690862099808996E
:1043100000F0BEFD0A99C86109980A994861089899
:104320000A9988610A9904910868C96900F0AAFC91
:10433000049988620A9A06925068D169D26A0592F5
:1043400000F0A0FC059900F059FA0699C8620A9895
:104350000169C06A00F0D6FA20B9FFE70A99086936
:10436000C8620FE00A980169C06A81F0004100F05C
:10437000C2FA30B9FFE70A99086980F00040C862C4
:10438000FFE7FFE70A99019188680090C869096A08
:1043900000F07EFD0146009800F074FC019908636E
:1043A0000A9A0392906AD16A126B029200F026FA7E
:1043B000029900F023FA039948630A98C168406B98
:1043C00000F0A0FA20B9FFE70A99C86848630FE037
:1043D0000A98C168406B81F0004100F08CFA30B956
:1043E000FFE70A99C86880F000404863FFE7FFE7ED
:1043F0000A98406B0B90FFE70B980CB080BD000053
:1044000085B0DDF818C0DDF814C004900391029265
:104410000193049808B9FFE723E003980499086022
:104420000298049948600198049988600598049955
:10443000C8600698049908610499002000904861BA
:10444000049988610499C8610499086204994862D2
:10445000049988620499C8620499086304994863BE
:10446000FFE705B07047000080B586B00590049165
:1044700040F21400C2F20000019000680090FDF7C5
:1044800069FA00990346019846F20D62C0F21902DA
:1044900001FB02314FF25F32C3F66E4211440160FC
:1044A000008800F073FB4FF60071C4F27F7100F0DA
:1044B00043FA039005990291049800F0E9FC0399EE
:1044C00000F0E0FB029900F099F906B080BD4100D0
:1044D000080218BF04200A0E18BF40F001004FF078
:1044E0007F4232EA010108BF40F00200012808BF04
:1044F00005207047012100F072BD0021084600F040
:104500001BBA6FF05E01080700F069BD2DE9F04DA0
:104510000D4614464FF07F41B1EB440F9EBF4FF064
:10452000FF312960BDE8F08D4FF0004040EA0421E2
:10453000C4F3C750783810F01F024A4B4FEA601C92
:10454000C2F120067B44C4F3C750A0F178004FEAC3
:10455000601003EB800053F82C3008BFD0E901C68F
:1045600012D0D0F804C093402CFA06F73B4387687A
:104570000CFA02FC27FA06F8C06807FA02F2F040CB
:104580004CEA080C42EA0006A3FB0132ACFB01C076
:10459000A6FB016101EB0C068E4234BF4FF0010C0B
:1045A0004FF0000CC1186144BCF1000F02D08142F1
:1045B00002D903E0814201D2012000E00020104432
:1045C00000F120024FEA92188006CA0C40EA4230FD
:1045D0004F03C5F8008000F0C1FA8246384600F06B
:1045E000D5FA6FF0120100F0FAFC0746304600F0F1
:1045F000CDFA6FF0250100F0F2FC834639465046B3
:1046000000F0FCF8594600F0F9F800F500666FF389
:104610000B065146304600F03BFC394600F038FCB2
:10462000594600F02BFC104900F02CFB07460F49BF
:10463000304600F027FB394600F0E0F807460C4909
:10464000304600F01FFB394600F0D8F814F0004F58
:1046500008BFBDE8F08DC8F1805180F000402960AE
:10466000BDE8F08D140B0000DB0FC92F22AAFD2935
:104670000000C92F2DE9F843044602465248694616
:10468000B0EB420F09D94FF0E640B0EB420F94BFB8
:1046900000204FF0FF30009030E04C4B22F0004003
:1046A000834271D94A49204600F0ECFA00F0B6FB8B
:1046B000804600F037FA00F003000090454940467C
:1046C00000F0E0FA05464449404600F0DBFA0646B1
:1046D0004249404600F0D6FA07464149404600F0BC
:1046E000D1FA214600F0CAFB394600F0D1FB314631
:1046F00000F0CEFB294600F0CBFB04462546009C8B
:10470000002C45DB294614F0010F08461ED000F0AE
:10471000B9FA0546334900F0B5FA334900F06EF8AE
:10472000294600F0AFFA314900F068F8294600F058
:10473000A9FA4FF07E5100F061F814F0020F08BFA3
:10474000BDE8F88380F00040BDE8F88300F09AFAF5
:104750000646274900F096FA264900F04FF8314600
:1047600000F090FA244900F049F8314600F08AFA46
:10477000294600F087FA294600F040F814F0020FAD
:10478000E0D1BDE8F883FFE71046FFF7BFFEB4E7CE
:104790006800B0F17F4F09D22846FFF798FE042841
:1047A00008BFFFF7AEFE2846BDE8F88306D101201A
:1047B000FBF74FFDBDE8F843FFF79FBE2846BDE875
:1047C000F843FFF797BE0000B61F927E490E494698
:1047D00083F9223F1A61342C0020A23300A0FD3956
:1047E0000000C93FB93AB2BACA9F2A3DDDFFFFBEF9
:1047F000336D4CB9DA82083CA0AA2ABE90EA010FB8
:1048000048BF81F0004100F14A83421A3CBF801A40
:1048100089184FEAD052A2EBD1534FF07F4C1CEADB
:10482000410F18BF9CEA026F00F03B804FF0004C34
:104830004CEA00204CEA012121FA03FC10EB0C0C9D
:104840001ED202F1FF325FEA1C2040EBC25038BF9B
:1048500070471CF07F0F4FEA400C18BFBCF17F4F30
:1048600038BF7047C3F12003994008BF20F0010012
:10487000BCF17F4F38BF7047A0F1C04000F0C9BA0B
:104880004FEA3C00000A40EBC25028BF1CF0FF0F6B
:104890004FEA400CE6D018BFBCF17F4F38BF7047DD
:1048A000EAE79CEA026F05D010EA5C0F08BF00F04F
:1048B0000040704710B500F066FA00BF64FBBE3ED2
:1048C000014800F05ABB00BF0000C07F10B500F0E7
:1048D000F5F80CBF0120002010BD10B500F0EEF877
:1048E00014BF0120002010BD10B500F063F98CBF8B
:1048F0000120002010BD10B500F05CF92CBF012094
:10490000002010BD10B500F089F994BF01200020EF
:1049100010BD10B500F082F934BF0120002010BD99
:10492000401058BFC0F14040491058BFC1F140414C
:104930008142EFF3008070474FF47F0C1CEAD012E5
:104940001EBF1CEAD11392EA0C0F93EA0C0F00F081
:10495000858090EA010F48BF42F4807240F4000C59
:1049600041F400002CF07F4120F07F4000B5A2EB25
:10497000030281420FF2081CACEB504E9EF800E09F
:10498000C0F100004FEA4E0E00FB0EFC38BF49009C
:104990004FEA2C1C0CFB0EF34FEACE1E0EEB635EAF
:1049A0004FEA112C0EFB0CFC4FEAC1214FEA1C53BD
:1049B00000FB031102F5FA024FEA112C0EFB0CFC6E
:1049C0004FEA01314FEADC4C00FB0C1142EB224272
:1049D000C14228BF09184CEB03335DF804EB10EB20
:1049E000410143EBC250B2F57C0F38BF704729D567
:1049F00012F0F00F1CBF00F1C04000F00040704703
:104A0000008182838485868788898B8C8D8E8F91A7
:104A10009293959697999A9C9D9FA0A2A3A5A7A8CB
:104A2000AAACAEB0B2B3B5B7B9BCBEC0C2C5C7C9F7
:104A3000CCCED1D4D7D9DCDFE2E6E9ECF0F3F7FA5B
:104A4000FE0000004FEA400C0CF1807CBCF17E4F70
:104A500028BF7047B0F1C04000F0DBB90CEAD113B9
:104A600090EA010F48BF42F48072624538BF634547
:104A700007D213F47F0F16D080EA010000F0004047
:104A8000704710B500F07FF9097EFC3E00F005B8D4
:104A900080EA010000F00040704780EA010000F069
:104AA000004000F0B6B912F47F0F04BF024870470F
:104AB00080EA010000F0ADB90000C07F50EA010CAF
:104AC00000F113801CF5000F58BFBCF5000F01D496
:104AD0008842704707D710F5000F58BF11F5000F37
:104AE00015D488427047894270471CF5000F04D5E1
:104AF000BCF5000FF7D5814270474FF0807C1CEB6E
:104B0000400F38BF1CEB410F01D28142704710B5F6
:104B100000F039F9922449004FF000504FF08051D5
:104B2000FFF7FEBE41000B0ED3F19E0208D950F4F0
:104B300000034FEA032323FA02F048BF40427047C4
:104B400010B500F020F900BF499224800020704782
:104B50006FF0004282EA20007047000010F0004130
:104B600048BF4042B0FA80F310FA03F2C3F19D034C
:104B70000BD051EAC35101EB1220530638BF7047E6
:104B800000F1010008BF20F001007047B0FA80F387
:104B900010FA03F2C3F19D030AD0D90501EB1220EC
:104BA000530638BF704700F1010008BF20F0010034
:104BB0007047000050EA010C00F113801CF5000F53
:104BC00058BFBCF5000F01D48842704707D710F5D5
:104BD000000F58BF11F5000F15D488427047894265
:104BE00070471CF5000F04D5BCF5000FF7D58142C6
:104BF00070474FF0807C1CEB400F38BF1CEB410F1F
:104C000001D28142704710B500F0BDF892244900EE
:104C10004FF080504FF00051FFF782BE50EA010C78
:104C200000F113801CF5000F58BFBCF5000F01D434
:104C30008842704707D710F5000F58BF11F5000FD5
:104C400015D488427047894270471CF5000F04D57F
:104C5000BCF5000FF7D5814270474FF0807C1CEB0C
:104C6000400F38BF1CEB410F01D28142704710B595
:104C700000F089F8922449004FF000504FF0805125
:104C8000FFF74EBE4FF47F0C1CEAD0121EBF1CEA89
:104C9000D11392EA0C0F93EA0C0F00F0478090EAD0
:104CA000010F48BF42F480724FF0004C4CEA0020E4
:104CB0004CEA012102EB0302A0FB0113A2F5000262
:104CC000002918BF43F001035B0028BF4FEA3303FC
:104CD00042EB22425FEA132C4CEBC2502EBFBCEBDE
:104CE000436FB2F57C0F70474FEA036CBCF1004F85
:104CF00008BF20F00100B2F57C0F38BF70470BD51C
:104D000082F0FF0212F5803FC8BF704700F1C0403B
:104D1000D8BF00F00040704700F5000C5FEA4C0C73
:104D200048BF7047B0F1C04000F073B80CEAD1132F
:104D300090EA010F48BF42F48072624538BF634574
:104D400004D280EA010000F00040704710B500F086
:104D50001AF800BF8900013E00F007B800F009B85A
:104D60005FEA410C5FEA1C6C08D080EA010000F0A9
:104D700050B85FEA400C5FEA1C6CF6D14FF000407F
:104D8000A0F5800070470EF1020E2EF0030E5EF8C3
:104D9000044B244204D44FEA4102B2F17F4F11D8B0
:104DA0004FEA4003B3F17F4F0CD80ED14FEAD07CCD
:104DB0000CEB4C0C0CF1020CB2F17F4F08BF4CEB2A
:104DC000D17C04E04FF0080C01E04FEAD17C0CEB01
:104DD0004C0324FA03F404F00704B4F1040C06D2E3
:104DE0000EEB840CBDE810404CF0010C6047DFE88E
:104DF0000CF0070802024FF00040A0F5800010BD43
:104E00000846420018BFD2F1807288BF00F000400F
:104E100010BDFF2141EAD050C00570475FEA400C49
:104E20005FEA1C6CBCF17F0314D4D3F1170240F38A
:104E30001C804FF0010C0CFA02FCACF101030340A2
:104E400020EA0300B3EB5C0208BF10EA0C0F88BF36
:104E500060447047B3F1FF3F28BF5FEA002C00F0C9
:104E6000004088BF40F07E507047BCF1FF0FB8BFD4
:104E7000704710B5FFF787FF40DBB6BE80F00040FB
:104E800090EA010F7FF5C1AC81F0004100F007B856
:104E900090EA010F48BF81F000413FF5B6AC421ADD
:104EA00004D882F00042A0EB020011444FEAD05235
:104EB000A2EBD1534FF07F4C1CEA410F18BF9CEA84
:104EC000026F4AD04FF0004C4CEA00204CEA01211E
:104ED00021FA03FCB0EB0C0C0FD412F0FE0F36D00D
:104EE0005FEA4C001DD5001240EBC25038BF70473E
:104EF0001CF03F0F18BF70470BE05FEA1C20A2F1C7
:104F0000010240EBC25038BF70471CF07F0F18BF42
:104F10007047C3F12003994014BF401E20F00100E8
:104F200070474FEA1223800808BF7047B0FA80FC30
:104F3000A2EB0C02CCF1280C60FA0CF093EA122FD1
:104F400004BF00EBC25070474FEAC3707047130AAA
:104F50005FEADC1008BF7047F6E79CEA026F04D0F6
:104F600010EA5C0F08BF0020704710B5FFF70BFF79
:104F700040DFF63E81F0004070470CF00F03092B34
:104F800008BF082000F051800A2B0BD0082B18BF57
:104F9000704708BF1CF0400F0AD04FF000004FF0E0
:104FA000000170471CF0400F18BF4FF000407047E1
:104FB0001CF0100F08D000F07F4220F0704342EA4E
:104FC000D3014FEA4370704700F0604021F07F4208
:104FD00042EA000201F07F4040EA727070474FF0F1
:104FE000FF0212EAD0521CBF92F0FF038B42C2BFF5
:104FF000D14200EBC1507047002A0AD0002B0BD0E1
:1050000000F000400029A4BF40F0FE4040F4000042
:10501000704700F00040704743024FF00B0C18BF80
:105020004CF0806C7FF44CAC70471CF4801F11D0A6
:105030001CF4E02F03D06FEACC31490070474FF0E9
:105040004050EFF3008222F0704242EA000282F305
:10505000008870474FF0000070470000000000001B
:105060006E83F9A22915444ED15727FCC0DD34F5D3
:10507000999562DB4190433CAB6351FE0000000018
:1050800000000000010203040607080900000000F8
:105090000102030402030405060708090A0B0C0DAC
:1050A0000E0F101001020000C85000080000002080
:1050B0002800000050010008F050000828000020DF
:1050C000580800007001000800127A0014AE473F33
:1050D00014AEA73FA69B443B9A99993F6824571367
:1050E0000100000010000000E926F13F0000000070
:04000005080000ED02
:00000001FF
