:020000040800F2
:10000000D045002029020008291800085D170008C3
:1000100025180008D5030008E523000800000000AB
:10002000000000000000000000000000651800084B
:100030002D040008000000002D18000869180008B1
:10004000430200084302000843020008430200087C
:10005000430200084302000843020008430200086C
:10006000430200084302000843020008430200085C
:10007000430200084302000843020008430200084C
:10008000430200084302000843020008430200083C
:10009000430200084302000843020008430200082C
:1000A000430200084302000843020008430200081C
:1000B000430200084302000843020008430200080C
:1000C00043020008430200084302000843020008FC
:1000D00043020008430200084302000843020008EC
:1000E00043020008430200084302000843020008DC
:1000F00043020008430200084302000843020008CC
:1001000043020008430200084302000843020008BB
:1001100043020008430200084302000843020008AB
:10012000430200084302000843020008430200089B
:10013000430200084302000843020008430200088B
:10014000D9030008430200084302000843020008E4
:10015000430200084302000843020008430200086B
:10016000430200084302000843020008430200085B
:100170004302000843020008430200080000000098
:10018000430200084302000800F002F800F03CF8C7
:100190000AA090E8000C82448344AAF10107DA45E2
:1001A00001D100F031F8AFF2090EBAE80F0013F0F8
:1001B000010F18BFFB1A43F00103184794220000F7
:1001C000B4220000103A24BF78C878C1FAD8520788
:1001D00024BF30C830C144BF04680C6070470000C1
:1001E0000023002400250026103A28BF78C1FBD840
:1001F000520728BF30C148BF0B6070471FB502F0DF
:1002000011F91FBD10B510BD00F0A9F81146FFF798
:10021000F5FF02F0E9F800F0C7F803B4FFF7F2FFCA
:1002200003BC00F0CFF800000948804709480047A8
:10023000FEE7FEE7FEE7FEE7FEE7FEE7FEE7FEE796
:10024000FEE7FEE704480549054A064B70470000F3
:100250001519000889010008D0050020D0450020AC
:10026000D0250020D025002053EA020C00F0698040
:100270002DE9F04B4FF00006002B1FBFB3FA83F5BA
:1002800003FA05F424FA05F65E4012BF1643B2FAEB
:1002900082F502FA05F4C5F120051EBF22FA05FC1D
:1002A00044EA0C04203556EA044C4FEA144418BFC3
:1002B000641C4FF000084FF00009904271EB030CF2
:1002C00039D3002919BFB1FA81F701FA07F6B0FA5C
:1002D00080F700FA07F6C7F120071EBF20FA07FCD7
:1002E00046EA0C062037B6FBF4FCA7EB0507103FE7
:1002F00007F01F0BCBF120062CFA06F60CFA0BFBCD
:1003000044BFB3460026202FA4BF5E464FF0000B2B
:100310005BEA060C08BF4FF0010B19EB0B0948EB29
:100320000608ABFB027C06FB02CC0BFB03CCC01B1C
:1003300071EB0C01C1E70B46024641464846BDE859
:10034000F08B13B5084318BF4FF0FF300146AFF3F1
:100350000080BDE81C407047704770477047754685
:1003600000F02CF8AE4605006946534620F0070021
:10037000854618B020B5FFF765FFBDE820404FF077
:1003800000064FF000074FF000084FF0000BAC469E
:10039000ACE8C009ACE8C009ACE8C009ACE8C009E9
:1003A00021F007018D46704710B50446AFF3008079
:1003B0002046BDE81040FFF730BF000000487047FE
:1003C0001000002001491820ABBEFEE72600020005
:1003D00070470000FEE7000040F2B400C2F20000E7
:1003E00000F0A0B970B540F2700440F2B405C2F25A
:1003F00000040E2601200021C2F20005C4E908060F
:10040000C4E90011C4E90211C4E90411C4E90610E9
:100410002846214600F07AF8284600F08BFB284653
:10042000022100F009F86662666170BD7047000045
:1004300072B600BFFEE7000090F82020013A012AC2
:1004400008D8006800F114020020136819431160F5
:10045000704700BF00F1240201204FF4802113688F
:10046000194311607047000010B590F820E0D0F8F3
:1004700000C0AEF1010EBEF1010FDCF808E00FD8AC
:100480001EF0E05F16D0CEF3016E012000FA0EF0F0
:1004900018608B68C3B1486843EAC00316E000BF28
:1004A00000F1240101204FF480220B681A430A60F6
:1004B00010BD00BF00F1240101204FF400120B68B1
:1004C0001A430A6010BD00BF08684305D1E9030460
:1004D00003430CEB0E10C0F88031C0F88441097D55
:1004E000012905D100F5C2710B6843F480730B60DC
:1004F0005168C0F88C11126800F5C071C0F88821ED
:10050000002001220B681A430A6010BDB0B590F8B4
:100510002020013A012A2FD846F20060C4F20000E0
:10052000026842F001020260026822F47C5202601A
:10053000D1F814E0CC694A6A0368012C43EA02222C
:1005400002600EF01F024FF0010303FA02F2C369CA
:100550006FEA020C23EA0203C36113D02CBBC36809
:1005600003EA0C03C360CB688C8844EA034300EBC6
:10057000CE0423640B4611E0416A41F480214162BC
:100580000120B0BDC3681343C3600B688C8844EA84
:10059000034300EBCE04236401F10C038C681B8839
:1005A00043EA044300EBCE04636443688D6943EA85
:1005B0000204D1F810E0096A002D08BF03EA0C0418
:1005C00044604369BEF1000F43EA020408BF03EA36
:1005D0000C040129446102D1C1691143C161016860
:1005E00021F0010101600020B0BD00007047000053
:1005F00010B590F82040013C012C7BD8D0F800C009
:10060000002900F08180DCF81040A40700F0818010
:100610000CEB011CDCF8B0410CF5D87E14F004049E
:100620009460DCF8B04119BFE4085460640D1460B4
:10063000DEF800400CF5DA7E04F00204D460DCF849
:10064000B44124075ABFDEF8004004F00F04082428
:100650001461DEF800400029C4F307249461DEF839
:1006600000404FEA14445461DCF8B8211A70026863
:1006700002EB0112D2F8B8214FEA12225A70026836
:1006800002EB0112D2F8B8214FEA12429A700268C6
:1006900002EB0112D2F8B8214FEA1262DA70026856
:1006A00002EB0112D2F8BC211A71026802EB0112AE
:1006B000D2F8BC214FEA12225A71026802EB0112F1
:1006C000D2F8BC214FEA12429A71026802EB011281
:1006D000D2F8BC214FEA1262DA71006814BF00F14F
:1006E000100100F10C01002020220B681A430A605F
:1006F00010BD00BF00F1240101204FF480220B68DF
:100700001A430A6010BD00BFDCF80C40A4077FF458
:100710007FAF00F1240101204FF400120B681A434F
:100720000A6010BD2DE9F04F81B0044600684669AB
:10073000D0F804908768D0F80CB0D0F810A0D0F8AA
:100740001880F10704D1002530071DD424E000BF34
:10075000F90710D00121BA07816009D4780700F1A8
:10076000AF80380700F1B680204600F011FA02E0B1
:10077000204600F00FFA0025F80500F18780F80305
:1007800000F1B180300707D51BF0100004D02068BD
:1007900045F400751021C160700708D51BF00800F2
:1007A00005D020680821C160204600F0AFF9B007ED
:1007B00006D52068C068800702D0204600F0A8F95E
:1007C000700607D51AF0100004D0206845F4806543
:1007D00010210161B00608D51AF0080005D0206884
:1007E00008210161204600F09FF9F00606D5206837
:1007F0000069800702D0204600F098F9B00308D5C0
:1008000019F0100005D0206810214160204600F04A
:100810008FF9F00308D519F0080005D020680821E9
:100820004160204600F0C0F9300440F19B805FEA4F
:10083000497040F1948006F4807008EA1020284343
:100840005FEA8871014648BF41F00201B20558BF16
:1008500001465FEA48700D4648BF45F00405700543
:1008600058BF0D46300540F17A8018F0700000F056
:1008700076801038000905286CD8DFE800F00359AD
:100880005D61656945F0080564E000BF20684FF4CC
:100890008071BA0581600BD4780515D438051DD454
:1008A000204600F079F9F8037FF56CAF1BE000BF3C
:1008B000204600F073F9F8037FF564AF13E000BF42
:1008C0004FF4006558E700BF05F50055F8037FF5C4
:1008D00059AF08E04FF480554EE700BF05F580455D
:1008E000F8037FF54FAF20684FF48031BA03816081
:1008F0000AD4780310D4380314D4204600F050F9F9
:1009000030073FF541AF47E7204600F04BF930078D
:100910003FF53AAF40E700BF05F5004530073FF52A
:1009200033AF39E705F5803530073FF52DAF33E7B5
:1009300045F010050EE000BF45F020050AE000BFBD
:1009400045F0400506E000BF45F0800502E000BF2D
:1009500045F480752068816921F07001816120680B
:100960000421416055B1606A40EA05012046616298
:1009700001B0BDE8F04FFFF739BE00BF01B0BDE8E0
:10098000F08F0000B0B5C8B1044690F8200010B94F
:10099000204600F071F82068016841F00101016013
:1009A00000F0F6F9054600BF20684168C90707D185
:1009B00000F0EEF9401B0B28F6D312E00120B0BD89
:1009C000016821F00201016000F0E2F9054600BF74
:1009D0002068416889070DD500F0DAF9401B0B2823
:1009E000F6D3606A052140F400306062012084F88B
:1009F0002010B0BD217E0268012922F0800208BFCC
:100A000080320260617E0268012922F0400208BF44
:100A100040320260A17E0268012922F0200208BF54
:100A200020320260E17E0268012922F0100218BF24
:100A300010320260217F0268012922F0080208BFFB
:100A400008320260617F0268012922F0040208BFB7
:100A500004320260D4E901C2D4E9033561691A4362
:100A60002A431143ACF101021143C161002001216D
:100A7000606284F82010B0BD80B586B0016846F68B
:100A80000000C4F20000814202D006B080BD00BF69
:100A9000002143F640020191C4F20202136800F5FE
:100AA000CE3043F080631360136803F080630193DA
:100AB000019B0191136843F000731360136803F006
:100AC00000730193019B019152F8103C43F0020323
:100AD00042F8103C52F8102C02F002020192019AE6
:100AE000602201920222CDE9022103210491092111
:100AF000059101A900F06EF840200021002200F0CD
:100B0000C7F9402000F0B4F906B080BD704700007E
:100B100080B582B040F29802C2F200026B4600211A
:100B2000FFF766FD02B080BD70470000704700000F
:100B300070470000B0B5044690F8200001281DD190
:100B4000022084F820002068016821F00101016082
:100B500000F01EF9054600BF20684068C00713D0AA
:100B600000F016F9401B0B28F6D3606A40F4003001
:100B70006062052084F820000120B0BD606A40F466
:100B8000002060620120B0BD00206062B0BD0000A6
:100B90007047000070470000704700007047000079
:100BA000704700007047000070470000B0B5044671
:100BB00000F0EEF8054640F20000C2F200000078B6
:100BC000611C18BF044400BF00F0E2F8401BA042C3
:100BD000FAD3B0BD2DE9F04F82B000F13E4241F6AC
:100BE000004502F1FF77C4F2020508224FEAB7265A
:100BF000A84208BF0722072E38BF4FEAB7224FF09E
:100C0000010A002400274FF00008009208E000BF0E
:100C1000023708F10108202F04F1040400F0B48029
:100C20000E680AFA08F916EA090FF1D0D1F804A003
:100C30000AF0030BABF10106012E17D803228668D8
:100C400002FA07FECA6826EA0E06BA4032438260FC
:100C50004268CAF3001522EA090205FA08F54FEACC
:100C6000480C6FEA0E062A4342600BE00322BA40AA
:100C7000D643BBF1030FBC4604D1BC464FF0030B77
:100C800022E000BFC2688D68324005FA0CF52A43A5
:100C9000BBF1020FC26017D16FF0030202EA5802E3
:100CA000024404F01C030F25D2F820E005FA03FAF1
:100CB0000D692EEA0A0E05FA03F343EA0E031362E6
:100CC000D1F804A00AF0030B02680BFA0CF33240CF
:100CD0001A431AF4403F4FF0010A026098D00022F4
:100CE00043F644030192C4F202031A6843F6004E2D
:100CF00042F480421A601A68C4F2010E02F4804283
:100D00000192019A28F003024FF6084C7244CFF684
:100D1000FF7C52F80C3004F00C060F25B540AB43B5
:100D2000009D05FA06F6334342F80C30DEF8082041
:100D30004B6842EA090643F60C4CDD0258BF22EA32
:100D40000906CEF80860C4F2010CDCF800209D0210
:100D500042EA090658BF22EA0906CCF80060DEF82C
:100D600004209D0342EA090658BF22EA0906CEF88C
:100D70000460DEF80020DB0342EA090658BF22EADD
:100D80000906CEF8006043E702B0BDE8F08F00002E
:100D900040F2C850C2F200000068704740F2000004
:100DA00040F2C851C2F20000C2F2000100780A68A5
:100DB000104408607047000080B543F60040C4F25C
:100DC0000200016841F400710160016841F4806132
:100DD0000160016841F480710160032000F084F833
:100DE0000F2000F005F800F027F8002080BD00007B
:100DF00070B540F20006C2F2000640F208013278F7
:100E0000C2F200014FF47A730968B3FBF2F20446B0
:100E1000B1FBF2F1084600F08BFC0F2C4FF00105FE
:100E200008D838B94FF0FF3021460022002500F0E5
:100E30002FF87460284670BD82B0002043F6400150
:100E40000190C4F202014A6842F480424A604A6852
:100E500002F480420192019A0090086840F08050AC
:100E60000860086800F080500090009802B0704759
:100E7000002848BF704700F01F01012202FA01F16B
:100E80004EF200124009CEF2000242F820107047E4
:100E900010B54EF60C5CCEF2000CDCF80030C3F35B
:100EA000022E8EF00704042C28BF0424BEF1030395
:100EB0004FF0FF3E0EFA04F438BF0023A1439940DF
:100EC0000EFA03F39A43114300F00F02043A62440E
:100ED00009010C3200F16043B0F1FF3FC8BF03F5D8
:100EE0006442117010BD00004EF60C51CEF20001AC
:100EF0000A684FF6FF031A4060F30A2242F080604E
:100F000040F0FD7008607047F0B581B0002800F037
:100F100025810446056890F8950428B9002084F8D6
:100F20009404204600F02AF90320B5F1A04F84F87C
:100F3000950404BF0020A071206801F097F894E8A0
:100F40000F00267C009600F0EFFC002840F00381A3
:100F50002068002101F092F8002840F0FC802179FF
:100F6000002900F0F180A1F1010C01F0030EBCF1A9
:100F7000030F4FF0000045D301F0FC0504F19A0285
:100F8000012600235F1C02F8627C22F8487C9F1C2B
:100F900002F8863C22F86C3C02F83E7C22F8247C65
:100FA000DF1C043302F8856C02F8820C42F87E0CD8
:100FB00042F87A0C42F8760C02F8616C02F85E0C8A
:100FC00042F85A0C42F8560C42F8520C02F83D6CAA
:100FD00002F83A0C42F8360C42F8320C42F82E0C69
:100FE00002F8196C02F81A7C178002F8160C42F805
:100FF000120C42F80E0C42F80A0CAB4202F19002BD
:10100000C0D11846BEF1000F2CD000EBC00204EB9B
:10101000820501230022BEF1010F6B752875E8855A
:101020002A76C5E907226A621CD0451C05EBC50675
:1010300004EB8606BEF1020F73753575F5853276C1
:10104000C6E9072272620DD0023000EBC00204EB49
:10105000820201231075D085002053751076C2E9F5
:101060000700506200296FD0BCF1030F4FF000025F
:1010700033D301F0FC0004F5347100235F1C01F848
:10108000587C9F1C01F87C3C01F8347CDF1C043345
:1010900001F87B2C01F8782C41E91D2241F86C2CD9
:1010A00001F8572C01F8542C41E9142241F8482C3E
:1010B00001F8332C01F8302C41E90B2241F8242CA3
:1010C00001F80F2C01F8107C01F80C2C41E90222E8
:1010D00041F8902B8342D1D11A46BEF1000F33D094
:1010E00002EBC20004EB80010020BEF1010F81F889
:1010F000550281F8542281F85802C1E99700C1F8DD
:10110000640221D0511C01EBC10304EB8303BEF147
:10111000020F83F8550283F8541283F85802C3E98A
:101120009700C3F864020FD0901C00EBC00104EBE1
:101130008101002281F8552281F8540281F8582259
:10114000C1E99722C1F8642294E80F00277C009738
:1011500000F036FD30B1022084F8950401252846C0
:1011600001B0F0BD00250120657484F89504206865
:1011700000F016FD284601B0F0BD0000B0B586B005
:101180000068B0F1A04F01D006B0B0BD002543F615
:1011900030040195C4F20204206801A940F0010066
:1011A0002060206800F00100019001984FF4C050C9
:1011B00001900220CDE90205032004900A20059049
:1011C0000020C4F20200FFF705FD606840F08000D7
:1011D00060600095606940F480406061606900F47F
:1011E00080400090009806B0B0BD00002DE9F041AD
:1011F000002800F08B8043F60808C4F20208044679
:10120000D8F8F8030D4600F00700884207D288F8A6
:10121000F853D8F8F80300F00700A84276D1206808
:10122000810717D5410705D5D8F8001041F4E051E2
:10123000C8F80010010705D5D8F8001041F4604146
:10124000C8F80010D8F80010A26821F0F00111438E
:10125000C8F80010C0073FD1D8F8F80300F0070025
:10126000A84207D988F8F853D8F8F80300F0070027
:10127000A8424BD12068410707D5D8F80010E26892
:1012800021F4E0511143C8F80010000708D5D8F840
:101290000000216920F4604040EAC100C8F8000065
:1012A00000F054F8D8F8001042F23E42C1F30311A6
:1012B000C0F60002515C40F2080220FA01F140F24F
:1012C0000400C2F200000068C2F200021160FFF7E1
:1012D0008FFD0020BDE8F0816068811E022907D2E1
:1012E00058F8081C89015CBF0120BDE8F08111E0BD
:1012F000012807D158F8081C89035CBF0120BDE80C
:10130000F08107E058F8081C890703D40120BDE8E4
:10131000F08100BFD8F8001021F003010843C8F89D
:101320000000FFF735FD064641F28837D8F8000087
:10133000616800F00C00B0EB810F8DD0FFF728FD45
:10134000801BB842F2D90320BDE8F08110B543F606
:101350000404C4F20204606800F00C0008280BD0FA
:10136000042819BF42F20040C0F2F40041F60030F8
:10137000C0F2B70010BD00BF206821682368490291
:1013800041F60031C0F2B70100F03F02C3F388100C
:101390005CBF42F20041C0F2F401A1FB0001002356
:1013A000FEF762FF21680222C1F3014102EB410115
:1013B000B0FBF1F010BD00002DE9F04182B0002833
:1013C0006AD00446007843F60006C007C4F202065D
:1013D0000BD0B06800F00C00042840F0A180306809
:1013E000800302D56068002856D0207880071AD57F
:1013F000B06810F00C0F09D0B06800F00C0008289D
:1014000040F0A8807068400200F1A4803068800736
:1014100002D5E06801283FD13068216920F0F8004A
:1014200040EAC10030602078000739D420784007B6
:101430004ED4A5695DB3B06800F00C00082840F0F8
:10144000BD80012D28D07068E16900F480028A42D5
:1014500022D1216A00F03F028A421DD147F6C071B5
:10146000626A0140B1EB821F16D1A26A0023CFF657
:10147000FF7303EBC23200F440316FF30F0291426D
:101480000AD1E16A00F07060B0EB016F04D1002076
:1014900002B0BDE8F08100BF012002B0BDE8F081DC
:1014A0006069002840F20000C4F2472076D0012194
:1014B000C0F8801EFFF76CFC054600BF706F800708
:1014C000B4D4FFF765FC401B0228F7D9DDE000BF6C
:1014D000306C10F080580AD100200190306C40F040
:1014E00080503064306C00F080500190019847F2D9
:1014F0000007C4F200073868C00541D4386840F4DA
:1015000080703860FFF744FC054600BF3868C005AE
:1015100036D4FFF73DFC401B0228F7D9B5E000BFE9
:10152000B06800F00C00082803D1706840023FF555
:1015300056AF6068B0F5803F07D0B0F5A02F40F0FF
:101540008D80306840F480203060306840F4803016
:1015500030608DE0E068002852D00020C4F24720BF
:1015600001210160FFF714FC054600BF30688007C9
:101570003FF552AFFFF70CFC401B0228F6D984E080
:10158000A068012805D005284ED1306F40F0040036
:101590003067306F40F0010030674FE00021C0F845
:1015A000801EFFF7F5FB0546706F80077FF53EAFA5
:1015B000FFF7EEFB401B0228F6D966E00027C4F2D5
:1015C000472700203866FFF7E3FB022D05460BD1C5
:1015D000306880015ED5FFF7DBFB401B02284FF02F
:1015E0000300F5D954E700BF306880017FF54FAFA5
:1015F000FFF7CEFB401B02284FF00300F4D947E76A
:101600000020C4F2472000210160FFF7C1FB05461E
:10161000306880077FF507AFFFF7BAFB401B022851
:101620004FF00300F4D933E7316F002821F00101B6
:101630003167316F21F0040131674DD0FFF7A8FB0E
:10164000054641F2883700BF306F800756D4FFF758
:101650009FFB401BB842F7D917E000BF3168002854
:1016600021F480313160316821F4802131604FD024
:10167000FFF78EFB054600BF306880033FF5B5AE2F
:10168000FFF786FB401B6428F6D9032002B0BDE8B3
:10169000F08100BF04F11C052FCD08430021CFF6D7
:1016A000FF7140EA821001EBC3316FF30F0140EA92
:1016B00005600843706001203866FFF769FB044647
:1016C000306880013FF5E3AEFFF762FB001B0228A4
:1016D0004FF00300F4D9DBE6FFF75AFB054641F271
:1016E000883700BF306F800708D5FFF751FB401BDC
:1016F000B8424FF00300F5D9CAE600BFB8F1000FB9
:101700007FF497AE306C20F08050306491E600BFDB
:10171000FFF73EFB054600BF306880037FF565AEEE
:10172000FFF736FB401B64284FF00300F4D9AFE607
:10173000411E0020B0EB116F1CBF012070474EF21C
:101740001002CEF2000251604EF62351CEF200019B
:10175000F0230B700721906011607047FEE70000D6
:1017600080B540F2B40046F60001C2F20000C4F2B7
:1017700000010322002380E80E0000F10C014FF469
:10178000102C4FF4001E81E8085083618383FFF71B
:10179000F9F8002808BF80BDBDE88040FEF748BECC
:1017A00083B0002043F630010290C4F202010A68BF
:1017B00042F002020A600A6802F002020292029AF1
:1017C00001900A6842F001020A600A6802F0010210
:1017D0000192019A0090086840F080000860086853
:1017E00000F080000090009803B0704780B540F290
:1017F000DC00C2F200004FF0A04101600421017141
:101800004FF40071C1800221C0F809100021C1818C
:10181000FFF77AFB002808BF80BDBDE88040FEF7D7
:1018200007BE0000FEE70000FEE700007047000072
:1018300080B588B0082306930023CDE9043340F235
:10184000B403C2F200039842029101D008B080BDF7
:1018500040F2B400C2F2000002A901ABFEF704FEA0
:1018600008B080BD70470000FFF798BAB0B592B0DD
:10187000002443F64000CDE90A44CDE9084405942C
:10188000CDE90344CDE901440094C4F202000168AB
:10189000022541F080510160006800F08050009006
:1018A000009847F200000094C4F20000016841F47F
:1018B00080410160006800F48040009000980120A1
:1018C00006904FF4803007904FF480000D90062072
:1018D0000E90A820CDE90F050720119006A80C95C1
:1018E000FFF76AFD10B172B6FEE700BF0F20CDE929
:1018F00001054FF4A05004904FF48050059001A8CA
:1019000005210394FFF772FC10B172B6FEE700BF29
:1019100012B0B0BD4EF68850CEF20000016841F41E
:10192000700101607047000082B002F47F42B2F59E
:10193000807F40F09980826B4FF6BF7322F4803233
:101940008263C268CFF6BD731A40C260029BC26850
:10195000DBB222F44012012BC26003D1C26842F410
:101960008012C26000220092009A01320092009A16
:10197000B2F1706F00F2F0800269002A21D4009A5F
:1019800001320092009AB2F1706F00F2E5800269B4
:10199000002A16D4009A01320092009AB2F1706FB8
:1019A00000F2DA800269002A0BD4009A0132009218
:1019B000009AB2F1706F00F2CF800269B2F1FF3F7E
:1019C000D2DC0A220092009AAAB100BF009A013A22
:1019D0000092009A7AB1009A013A0092009A52B1AC
:1019E000009A013A0092009A2AB1009A013A0092B4
:1019F000009A002AEAD1026942F001020261009ACB
:101A000001320092009AB2F1706F00F2A580026973
:101A1000D20720D0009A01320092009AB2F1706F82
:101A200000F29A800269D20715D0009A0132009222
:101A3000009AB2F1706F00F28F800269D2070AD06B
:101A4000009A01320092009AB2F1706F00F2848025
:101A50000269D207D3D14FF0000C01F47F01B1F538
:101A6000803F40F099808FE0C26842F04002C2603F
:101A700000220192019A01320192019AB2F1706F33
:101A800072D80269002A1ED4019A01320192019A89
:101A9000B2F1706F68D80269002A14D4019A013239
:101AA0000192019AB2F1706F5ED80269002A0AD4DD
:101AB000019A01320192019AB2F1706F54D8026911
:101AC000B2F1FF3FD6DC0A220192019AAAB100BF0F
:101AD000019A013A0192019A7AB1019A013A01926E
:101AE000019A52B1019A013A0192019A2AB1019ADE
:101AF000013A0192019A002AEAD1026942F00102F8
:101B00000261019A01320192019AB2F1706F2BD8F1
:101B10000269D2071DD0019A01320192019AB2F1F5
:101B2000706F21D80269D20713D0019A0132019255
:101B3000019AB2F1706F17D80269D20709D0019AE1
:101B400001320192019AB2F1706F0DD80269D20789
:101B5000D7D14FF0000C09E04FF0030C01F47F01E6
:101B6000B1F5803F18D10FE04FF0030C826B13F4F6
:101B70007F4F14BF22F4803242F48032826301F43A
:101B80007F01B1F5803F07D1816841F00601816096
:101B9000816841F020018160604602B0704700001A
:101BA0000146D0F8000E20F00300C1F8000ED1F875
:101BB000040840F002020020C1F804287047000029
:101BC0002DE9F04F86B0C3F3074988460021B9F1EB
:101BD000000FC0F80411C0F80811C0F80C11C0F8CB
:101BE0001011C0F81411C0F81811C0F81C11C0F879
:101BF0002011C0F82411C0F82811C0F82C11C0F829
:101C00003011C0F83411C0F83811C0F83C1107D0B9
:101C1000816B21F400118163816B41F4002110E09C
:101C2000D0F8041841F00201C0F80418816B41F4A7
:101C300000118163816B21F400218163816B21F4A8
:101C4000802102F47F4381630021B3F5807FC0F8D7
:101C5000001E07D1D0F80038B1EB186F08D1C0F8DA
:101C6000003809E0D0F8001841F0030102E000BF9D
:101C700043F00101C0F800180021049104990131DA
:101C800004910499B1F1706F52D8016900291ED4F2
:101C90000499013104910499B1F1706F48D8016938
:101CA000002914D40499013104910499B1F1706FA1
:101CB0003ED8016900290AD404990131049104999C
:101CC000B1F1706F34D80169B1F1FF3FD6DC00216A
:101CD00004914FF4846101610499013104910499E4
:101CE000B1F1706F24D8016989061DD504990131BD
:101CF00004910499B1F1706F1AD80169890613D55E
:101D00000499013104910499B1F1706F10D80169FF
:101D1000890609D50499013104910499B1F1706FD4
:101D200006D801698906D7D44FF0000A02E000BF47
:101D30004FF0010A0021059105990131059105999E
:101D4000B1F1706F4ED8016900291ED40599013197
:101D500005910599B1F1706F44D80169002914D437
:101D60000599013105910599B1F1706F3AD8016972
:101D700000290AD40599013105910599B1F1706FD7
:101D800030D80169B1F1FF3FD6DC00210591102167
:101D900001610599013105910599B1F1706F21D863
:101DA0000169C90620D50599013105910599B1F15F
:101DB000706F17D80169C90616D5059901310591CB
:101DC0000599B1F1706F0DD80169C9060CD5059957
:101DD000013105910599B1F1706F03D80169C90608
:101DE000D7D401E04FF0010A5FFA88F44FF0000BFE
:101DF000002CC0F810B8C0F814B8C0F81CB800F037
:101E0000088100F5106631684FF0006303EA111194
:101E10004FF67F35B4F1010E3160C6F810B0B560F1
:101E20007AD01746A21ECDF80CA0032A0EF0030AA2
:101E300004D22023BAF1000F44D166E0CDE9008935
:101E400002972EF0030700234FF0904C4FF67F329D
:101E50004FF0000800EB0801D1F82099043F0CEA8C
:101E6000E975C1F82059C1F83039C1F82829D1F8ED
:101E7000405908F180080CEAE575C1F84059C1F8ED
:101E80005039C1F84829D1F860590CEAE575C1F814
:101E90006059C1F87039C1F86829D1F880590CEA45
:101EA000E575C1F88059C1F89039C1F88829D1D1B8
:101EB00008F12003029FDDE900894FF67F35BAF172
:101EC000000F22D0F1584FF0904C0CEAE171F2185B
:101ED000F15000264FF67F33BAF1010F166193607F
:101EE00013D0116ABAF1020F0CEAE17111621663A4
:101EF00093620AD0116C4FF0904303EAE1711164D0
:101F0000002111654FF67F319164DDF80CA0002CA3
:101F10003A464FF000637CD0D0F8001BBEF1000FB2
:101F200003EA1111C0F8001B4FF00001C0F8101BAC
:101F3000C0F8085B6DD0A11E03290EF0030C05D27A
:101F40002024BCF1000F3FD163E000BFCDE9022A9D
:101F50002EF0030500234FF090474FF67F3200210B
:101F60004618D6F8204B043D07EAE474C6F8204B27
:101F7000C6F8303BC6F8282BD6F8404B01F180015B
:101F800007EAE474C6F8404BC6F8503BC6F8482B45
:101F9000D6F8604B07EAE474C6F8604BC6F8703BAD
:101FA000C6F8682BD6F8804B07EAE474C6F8804B75
:101FB000C6F8903BC6F8882BD2D1DDE9022A01F1A0
:101FC0002004BCF1000F24D000F530673E594FF0DB
:101FD000904303EAE67639193E5100274FF67F34E5
:101FE000BCF1010F0F618C6013D00E6ABCF1020FBF
:101FF00003EAE6730B620F638C620AD00F6C4FF03A
:10200000904303EAE7730B6400230B654FF67F33BD
:102010008B64D0F8101818F47F0F21F48071C0F889
:1020200010186FF08041C0F818B0416103D1816988
:1020300041F010018161816943F60003C8F23C035D
:10204000194312F47F0F816103D0816941F00801C7
:102050008161B9F1010F05D1816941F0804141F001
:1020600004018161504606B0BDE8F08F01468068EA
:1020700020F0010200208A6070470000B0B50446DD
:10208000C068002920F0C040E06000F0998001297C
:1020900040F0B080E0680A2540F00050E0600A207F
:1020A000FEF784FD54F8140FC00740F09C800A200E
:1020B000FEF77CFD2068C00740F09E800A20FEF7F6
:1020C00075FD2068C00740F0A5800A20FEF76EFD70
:1020D0002068C00740F0AC800A20FEF767FD20684A
:1020E000C00740F0B3800A20FEF760FD2068C007FB
:1020F00040F0BA800A20FEF759FD2068C00740F082
:10210000C1800A20FEF752FD2068C00740F0C88059
:102110000A20FEF74BFD2068C00740F0CF800A2060
:10212000FEF744FD2068C00740F0D6800A20FEF785
:102130003DFD2068C00740F0DD800A20FEF736FD37
:102140002068C00740F0E4800A20FEF72FFD2068D9
:10215000C00740F0EB800A20FEF728FD2068C0078A
:1021600040F0F2800A20FEF721FD2068C00740F011
:10217000F9800A20FEF71AFD2068C00740F00081B0
:102180000A20FEF713FD2068C00740F007810A20EF
:10219000FEF70CFD2068C00740F00E810A20FEF714
:1021A00005FD2068C00740F016810A20FEF7FEFCFE
:1021B0002068C825A5F1C800B0FA80F04009B0BD7C
:1021C000E0680A2540F08040E0600A20FEF7EEFC5F
:1021D00054F8140FC00706D00A20FEF7E7FC206869
:1021E000C00711D11425A5F1C800B0FA80F040094C
:1021F000B0BD00BF0120B0BD1425A5F1C800B0FAE4
:1022000080F04009B0BD00BF0A20FEF7CFFC206877
:10221000C00707D11E25A5F1C800B0FA80F040091B
:10222000B0BD00BF0A20FEF7C1FC2068C00707D17F
:102230002825A5F1C800B0FA80F04009B0BD00BF64
:102240000A20FEF7B3FC2068C00707D13225A5F1AC
:10225000C800B0FA80F04009B0BD00BF0A20FEF708
:10226000A5FC2068C00707D13C25A5F1C800B0FA3D
:1022700080F04009B0BD00BF0A20FEF797FC20683F
:10228000C00707D14625A5F1C800B0FA80F0400983
:10229000B0BD00BF0A20FEF789FC2068C00707D147
:1022A0005025A5F1C800B0FA80F04009B0BD00BFCC
:1022B0000A20FEF77BFC2068C00707D15A25A5F14C
:1022C000C800B0FA80F04009B0BD00BF0A20FEF798
:1022D0006DFC2068C00707D16425A5F1C800B0FADD
:1022E00080F04009B0BD00BF0A20FEF75FFC206807
:1022F000C00707D16E25A5F1C800B0FA80F04009EB
:10230000B0BD00BF0A20FEF751FC2068C00707D10E
:102310007825A5F1C800B0FA80F04009B0BD00BF33
:102320000A20FEF743FC2068C00707D18225A5F1EB
:10233000C800B0FA80F04009B0BD00BF0A20FEF727
:1023400035FC2068C00707D18C25A5F1C800B0FA7C
:1023500080F04009B0BD00BF0A20FEF727FC2068CE
:10236000C00707D19625A5F1C800B0FA80F0400952
:10237000B0BD00BF0A20FEF719FC2068C00707D1D6
:10238000A025A5F1C800B0FA80F04009B0BD00BF9B
:102390000A20FEF70BFC2068C00707D1AA25A5F18B
:1023A000C800B0FA80F04009B0BD00BF0A20FEF7B7
:1023B000FDFB2068C00707D1B425A5F1C800B0FA1D
:1023C00080F04009B0BD00BF0A20FEF7EFFB206897
:1023D000C0077FF4EAAEBE25A5F1C800B0FA80F0D0
:1023E0004009B0BDFEE70000FEF7E6FCFFF73EFA4D
:1023F000FFF7D6F9FFF7B4F9FFF7F8F9FDF7F2FFA9
:1024000040F2C05440F2B405C2F200040126C2F208
:10241000000500BF284640F2012122462680FFF732
:1024200007FAF7E7F1EE100A4FF6FF71C0F2C0317C
:1024300020EA010040F04070E1EE100A7047000011
:102440000000000000000102030406070809000064
:10245000702400080000002010000000C4010008E3
:102460008024000810000020C0450000E0010008A2
:1024700001000000100000000024F4000000000033
:040000050800018965
:00000001FF
