:020000040800F2
:1000000050410020B50100082927000801230008FD
:1000100025270008E50200088D28000800000000E0
:10002000000000000000000000000000652700083C
:1000300025030008000000002D270008692700089C
:10004000CF010008CF010008CF010008CF01000850
:10005000CF010008CF010008CF010008CF01000840
:10006000CF010008CF010008CF010008E902000815
:10007000F5020008CF010008CF01000801030008C5
:100080000D03000819030008CF010008CF01000884
:1000900081280008CF010008CF010008CF01000827
:1000A000CF010008CF010008CF010008CF010008F0
:1000B00071270008CF010008CF010008CF01000818
:1000C000CF010008CF010008CF010008CF010008D0
:1000D000CF010008CF010008CF010008CF010008C0
:1000E000CF010008CF010008CF01000800F002F89E
:1000F00000F050F814A696E8000CB244B344DA4578
:1001000001D100F047F8BAE80F000FA696E83000DA
:10011000A5EB040504EB0607AAEB0704A7F101070A
:100120004FEA15154FEA3414A4F10104AC4201D38F
:1001300000F030F813F0010F18BFFB1A43F0010371
:1001400000F001F8DBE71847D42B0000F42B000087
:10015000103A24BF78C878C1FAD8520724BF30C8F3
:1001600030C144BF04680C60704700007047000055
:100170000023002400250026103A28BF78C1FBD8B0
:10018000520728BF30C148BF0B6070471FB51FBD65
:1001900010B510BD00F058F81146FFF7F7FF02F058
:1001A000DBFC00F076F803B4FFF7F2FF03BC00F0CD
:1001B0007DF800000948804709480047FEE7FEE750
:1001C000FEE7FEE7FEE7FEE7FEE7FEE7FEE7FEE707
:1001D00004480549054A064B704700006D27000892
:1001E000ED000008503B002050410020503D002011
:1001F000503D00204FF0000200B51346944696464D
:10020000203922BFA0E80C50A0E80C50B1F1200129
:10021000BFF4F7AF090728BFA0E80C5048BF0CC0D7
:100220005DF804EB890028BF40F8042B08BF704735
:1002300048BF20F8022B11F0804F18BF00F8012BA7
:100240007047704770477047754600F02BF8AE4610
:1002500005006946534620F00700854618B020B5D2
:10026000FFF7B6FFBDE820404FF000064FF0000753
:100270004FF000084FF0000BAC46ACE8C009ACE80A
:10028000C009ACE8C009ACE8C00921F007018D46FF
:10029000704710B50446AFF300802046BDE810401B
:1002A000FFF781BF00487047100000200149182067
:1002B000ABBEFEE7260002007047000080B50020BC
:1002C0000021002202F0F4FBBDE8804002F0F2BA07
:1002D00080B5FF200021002202F0EAFBBDE880404B
:1002E00002F0E8BAFEE7000043F6E810C2F20000B0
:1002F00000F0A0BB43F67020C2F2000000F09ABBF1
:1003000043F66010C2F2000000F094BB43F62C20CC
:10031000C2F2000000F08EBB43F6A410C2F200004F
:1003200000F088BB70470000EFF3108072B600BF8A
:10033000FEE7000010B590F820E0D0F800C0AEF164
:10034000010EBEF1010FDCF808E011D81EF0E05FED
:1003500018D0CEF301640120A04018608B68DBB197
:10036000D1F804E0C86840EACE0040EA030E17E086
:1003700000F1240301204FF480211A681143196011
:1003800010BD00BF00F1240301204FF400111A68D2
:100390001143196010BD00BF0868CB6843EA405E96
:1003A0000CF5C07000EB0413240140F804E00C6964
:1003B000184640F8044F097D012903D1016841F432
:1003C0008071016050680121D86010689860002039
:1003D0001A681143196010BD70470000B0B590F85D
:1003E0002040013C012C7DD8D0F800C000290CBF72
:1003F000DCF80C40DCF81040A4077DD00CF5D87573
:100400004FEA011C55F80C4014F00404946055F8B0
:100410000CE005EB011C19BF4FEADE0555604FEA01
:100420005E551560DCF80050E64605F00205D56023
:100430005EF8044F24075ABFDEF8004004F00F04B2
:1004400008241461DEF800400029C4F307249461F5
:10045000DEF800504FEA15455561DCF808201A70A7
:10046000026802EB0112D2F8B8214FEA12225A7048
:10047000026802EB0112D2F8B8214FEA12429A70D8
:10048000026802EB0112D2F8B8214FEA1262DA7068
:10049000026802EB0112D2F8BC211A71026802EB69
:1004A0000112D2F8BC214FEA12225A71026802EB03
:1004B0000112D2F8BC214FEA12429A71026802EB93
:1004C0000112D2F8BC214FEA1262DA7100680CBF47
:1004D00000F10C0100F11001002020220B681A43EA
:1004E0000A60B0BD00F1240101204FF480220B68A6
:1004F0001A430A60B0BD00BF00F1240101204FF48F
:1005000000120B681A430A60B0BD00002DE9F04FDD
:1005100081B0044600684669D0F804908768D0F836
:100520000CB0D0F810A0D0F81880F10704D1002545
:1005300030071DD424E000BFF90710D00121BA070D
:10054000816009D4780700F1AF80380700F1B680E8
:10055000204600F005FA02E0204600F003FA0025EC
:10056000F80500F18780F80300F1B180300707D566
:100570001BF0100004D0206845F400751021C16004
:10058000700708D51BF0080005D020680821C1605D
:10059000204600F0ADF9B00706D52068C068800796
:1005A00002D0204600F0A6F9700607D51AF0100018
:1005B00004D0206845F4806510210161B00608D59B
:1005C0001AF0080005D0206808210161204600F0DB
:1005D000C1F9F00606D520680069800702D02046E0
:1005E00000F0BAF9B00308D519F0100005D0206862
:1005F00010214160204600F0B1F9F00308D519F050
:10060000080005D0206808214160204600F0B4F9B8
:10061000300440F19B805FEA497040F1948006F419
:10062000807008EA102028435FEA8871014648BFBD
:1006300041F00201B20558BF01465FEA48700D461D
:1006400048BF45F00405700558BF0D46300540F120
:100650007A8018F0700000F07680103800090528C4
:100660006CD8DFE800F003655D61596945F0080565
:1006700064E000BF20684FF48071BA0581600BD43C
:10068000780515D438051DD4204600F06DF9F8031F
:100690007FF56CAF1BE000BF204600F067F9F80360
:1006A0007FF564AF13E000BF4FF4006558E700BF6B
:1006B00005F50055F8037FF559AF08E04FF4805574
:1006C0004EE700BF05F58045F8037FF54FAF206882
:1006D0004FF48031BA0381600AD4780310D4380310
:1006E00014D4204600F044F930073FF541AF47E706
:1006F000204600F03FF930073FF53AAF40E700BF32
:1007000005F5004530073FF533AF39E705F580358E
:1007100030073FF52DAF33E745F080050EE000BF11
:1007200045F020050AE000BF45F0400506E000BFA7
:1007300045F0100502E000BF45F48075206881692E
:1007400021F07001816120680421416055B1606A27
:1007500040EA05012046616201B0BDE8F04FFFF7B5
:100760003BBE00BF01B0BDE8F08F0000002804BF11
:1007700001207047B0B5044690F8200010B920461B
:1007800000F06EF82068016841F00101016000F09E
:10079000D5FB054620684168C90705D100F0CEFBAE
:1007A000401B0B28F6D310E0016821F00201016024
:1007B00000F0C4FB054600BF2068416889070DD5DD
:1007C00000F0BCFB401B0B28F6D3606A052140F407
:1007D00000306062012084F82010B0BD217E0268E4
:1007E000012922F0800208BF80320260617E026827
:1007F000012922F0400208BF40320260A17E026857
:10080000012922F0200208BF20320260E17E026846
:10081000012922F0100218BF10320260217F026805
:10082000012922F0080208BF08320260617F0268D5
:10083000012922F0040208BF04320260D4E901C297
:10084000D4E9033561691A432A431143ACF101022B
:100850001143C16100200121606284F82010B0BD05
:10086000B0B586B040F60004C4F201040068A4F5F7
:100870002442002190420591CDE90311029101D05B
:1008800006B0B0BD41F21800C4F20200426802ADE9
:1008900042F000724260426802F000720192019AD6
:1008A000026842F004020260006800F00400019057
:1008B00001984FF40060CDE90201049120462946D9
:1008C00000F02EFA4FF48050029002200390032093
:1008D00005902046294600F023FA14200321002227
:1008E00000F0ACFB142000F097FB06B0B0BD000098
:1008F00070470000B0B540F28005C2F20005044622
:1009000000202B4643F8080F586003F108022046E8
:100910000021FFF763FD206846F20041C4F20001A8
:10092000884201D0B0BD00BF286940F24221884210
:100930000AD040F24121884218BFB0BDFFF7C8FC81
:1009400001202870B0BD00BFFFF7B8FC0020287060
:10095000B0BD000070470000704700007047000005
:1009600070470000704700007047000070470000AB
:1009700070470000704700007047000090F8211099
:10098000022923D1026840F2040C1168C4F2020C5F
:1009900021F00E01116013682F21C4F202018A4276
:1009A00023F00103136015DD3023C4F202039A42E1
:1009B0001CD04423C4F202039A421BD05823C4F231
:1009C00002039A421CD14FF4803321E00421816359
:1009D000012070470823C4F202039A420ED01C2360
:1009E000C4F202039A420BD1102311E04FF480733A
:1009F0000EE000BF4FF480530AE000BF012307E080
:100A00000CF168014FF080738A4208BF4FF48013E5
:100A10000121CCF8003080F82110416B0022002920
:100A200080F8202004BF0020704780B58847002050
:100A300080BD000010B5D0E90FCE0168DCF80030B1
:100A40000A6823FA0EF35C072AD512F0040427D0B3
:100A50000A68920603D40A6822F004020A602F2270
:100A6000C4F20202914240F20402C4F202025BDDCF
:100A70003023C4F20203994272D04423C4F2020329
:100A8000994273D05823C4F20203994240F07A800D
:100A90004FF480231360C16A002940F098806FE012
:100AA0009C0727D512F0020424D00A68920606D4C7
:100AB0000A6822F00A020A60012280F821202F220F
:100AC000C4F20202914240F20402C4F202023BDD8F
:100AD0003023C4F20203994260D04423C4F20203DB
:100AE00099425FD05823C4F20203994260D14FF477
:100AF000003365E01B0743D512F0080208BF10BDA4
:100B00000A6822F00E020A60012101FA0EF2CCF806
:100B10000420816380F82110016B0022002980F8F5
:100B2000202054D12CE000BF0823C4F202039942D4
:100B300022D01C23C4F20203994223D14023136024
:100B4000C16A002943D11BE00823C4F20203994281
:100B50002CD01C23C4F20203994229D120232FE078
:100B60004FF480631360C16A89BB09E04FF480438E
:100B70001360C16A59BB03E004231360C16A31BB2F
:100B800010BD00BF02F168044FF08063A14208BFAE
:100B90004FF480031360C16AC9B9F1E74FF40073E1
:100BA0000EE000BF4FF400530AE000BF022307E04D
:100BB00002F168044FF00073A14208BF4FF4001324
:100BC0001360816A0022002980F82020D8D0BDE877
:100BD00010400847014600284FF0010008BF704749
:100BE0002DE9F043D1F800C04FF6F873CBF6FD7352
:100BF0004CF6CD426344CCF6CC42A3FB02236FF00B
:100C0000030202EA93020023C4F2020301F10C087A
:100C1000C1E90F320222D1E9019E98E8F00181F882
:100C20002120DCF8002043F6F0739A4342EA0902DF
:100C300042EA0E0222432A4332433A4342EA08027E
:100C4000CCF8002000228A6381F8210081F820205E
:100C50000020BDE8F043704790F820C0BCF1010FC0
:100C600004BF02207047F0B54FF0010E80F820E07D
:100C700090F821C0BCF1010F26D14FF0020C80F892
:100C800021C04FF0000CC0F838C0D0E900C4C56ADC
:100C9000C66BDCF80070102C27F00107CCF8007050
:100CA000006C0EFA00F070600846CCF8043004BF07
:100CB00010460A46CCF80800CCF80C20DCF80000FE
:100CC00045B140F00E000DE0002180F82010022018
:100CD000F0BD00BF20F00400CCF80000DCF80000FC
:100CE00040F00A00CCF80000DCF8000040F0010001
:100CF000CCF800000020F0BDB0B5044600F01EF9AD
:100D0000054640F20000C2F200000078611C18BFE6
:100D1000044400BF00F012F9401BA042FAD3B0BD5A
:100D20002DE9F04F82B00E68002E00F0FD8041F2F8
:100D30000042C4F20102042340F2004E904208BF78
:100D400003234FF6FF7CC4F2010E0093002401231D
:100D5000C1F2100C4FF0000A4FF000094BE000BF49
:100D600041F20002C4F20102009F904208BF022734
:100D700004F00C030F229A402BEA020207FA03F355
:100D80004FEA9A051A4346F825204E6840F20C4572
:100D9000F202DEF8082054BF22EA080242EA080202
:100DA000C4F20105CEF808202A68B30254BF22EA33
:100DB000080242EA08022A60B303DEF8042054BFA6
:100DC00022EA080242EA0802F303CEF80420DEF821
:100DD00000204FF0010354BF22EA080242EA080251
:100DE000CEF800200E680AF1010A36FA0AF204F180
:100DF000040400F0998003FA0AFB16EA0B08F1D00C
:100E00004E68664512DC122E56D8DFE806F0350B28
:100E10004D495555555555555555555555555545A6
:100E2000510000BFD1F80C9046E000BF4FF6FF72B2
:100E3000C1F2210296420FDC0022C1F21102964259
:100E40001AD00022C1F21202964215D00022C1F23D
:100E50002102964210D02FE00022C1F222029642D7
:100E60000AD00022C1F23102964205D00022C1F21E
:100E70003202964220D100BF8A684AB1012A14BFCB
:100E8000C0F814B0C0F810B04FF0080914E000BF6B
:100E90004FF0040910E000BFCA6802F104090BE03A
:100EA0004FF0000908E000BFCA6802F1080903E03A
:100EB000CA6802F10C0900BF02462646B8F5807FD9
:100EC00024BF0432203E17680F25B54027EA0505E8
:100ED00009FA06F635431560CA79D2067FF582AF66
:100EE00041F21803C4F202031A68AEF57E7642F0AE
:100EF00001021A601A6802F001020192019A2AF0B6
:100F0000030256F802B040F60002C4F20102904219
:100F100008D040F60042C4F2010290427FF420AFB4
:100F2000012725E7002723E702B0BDE8F08F000086
:100F30008068084018BF01207047000043F6483021
:100F4000C2F200000068704740F2000043F64831EA
:100F5000C2F20000C2F2000100780A681044086082
:100F60007047000080B542F20000C4F20200016840
:100F700041F010010160032000F08CF80F2000F018
:100F800005F800F027F8002080BD000070B540F2A1
:100F90000006C2F2000640F208013278C2F20001F7
:100FA0004FF47A730968B3FBF2F20446B1FBF2F135
:100FB000084600F05DFB0F2C4FF0010508D838B94A
:100FC0004FF0FF3021460022002500F037F8746012
:100FD000284670BD82B041F21800C4F202000168D8
:100FE000022241F001010160016801F0010101915B
:100FF0000199416841F080514160406800F08050A3
:10100000009000980420C4F20100016862F31A61A4
:10101000016002B070470000002848BF704700F030
:101020001F01012202FA01F11C2202EAD0004EF255
:101030000012CEF2000281507047000010B54EF64B
:101040000C5CCEF2000CDCF80030C3F3022E8EF004
:101050000704042C28BF0424BEF103034FF0FF3E15
:101060000EFA04F438BF0023A14399400EFA03F3AB
:101070009A43114300F00F0200F160430901043A62
:1010800003F564436244002848BF02F10C03197061
:1010900010BD00004EF60C51CEF200010A684FF66A
:1010A000FF031A4060F30A2242F0806040F0FD70B6
:1010B00008607047002804BF012070472DE9F04305
:1010C00081B042F20008C4F202080446D8F80000D9
:1010D0000D4600F0070081420CD9D8F8000020F03E
:1010E00007002843C8F80000D8F8000000F0070007
:1010F000A8426CD1206841F204098107C4F20209B8
:1011000017D5410705D5D9F8001041F4E061C9F8B9
:101110000010010705D5D9F8001041F46051C9F855
:101120000010D9F80010A26821F0F0011143C9F8AD
:101130000010C00742D1D8F8000000F00700854237
:101140000CD2D8F8000020F007002843C8F80000AF
:10115000D8F8000000F00700A84238D12068410705
:1011600007D5D9F80010E26821F4E0611143C9F80D
:101170000010000708D5D9F80000216920F460505C
:1011800040EAC100C9F80000D9F8002002F00C00C4
:10119000082841F20020C0F27A004DD142F6B8434F
:1011A000C2F38341C0F60003595CD20338D440F641
:1011B0000010C0F23D0048433EE000BF606859F8AF
:1011C000041C022808D0012826D1890306D4012056
:1011D00001B0BDE8F08300BF8901F8D5D9F800104F
:1011E00021F003010843C9F80000FFF7A7FE0646F7
:1011F00041F28837D9F80000616800F00C00B0EBCC
:10120000810F98D0FFF79AFE801BB842F2D90320D5
:1012100001B0BDE8F08300BF8907D8D5DEE700BF85
:10122000D9F8002042F6B643C2F34042C0F60003AC
:101230009A5C4843B0FBF2F0D9F8001042F6A6429F
:10124000C1F30311C0F60002515C40F2080220FA1B
:1012500001F140F20400C2F200000068C2F2000294
:101260001160FFF793FE002001B0BDE8F08300009D
:10127000002804BF012070472DE9F04182B00446E8
:10128000007841F20006C007C4F202060CD0706874
:1012900000F00C00042840F081803068800303D502
:1012A0006068002800F04681207880071BD57068B0
:1012B00010F00C0F09D0706800F00C00082840F006
:1012C00087807068C00300F183803068800703D591
:1012D0002069012840F02E813068616920F0F80013
:1012E00040EAC10030602078000713D4207840071E
:1012F0002CD4E569002D00F01881706800F00C0016
:10130000082840F0A780012D40F00481012002B0A0
:10131000BDE8F081A069002800F084800020C4F2BC
:1013200042200121C0F88014FFF708FE054600BFE7
:10133000706A800700F1B280FFF700FE401B0228B0
:10134000F6D9032002B0BDE8F08100BFF0695FEA82
:10135000C00808D4F06940F08050F061F06900F0F6
:1013600080500090009847F20007C4F200073868E8
:10137000C00549D4386840F480703860FFF7DEFD5E
:10138000054600BF3868C0053ED4FFF7D7FD401BB7
:101390006428F7D9032002B0BDE8F081706800F03E
:1013A0000C00082803D17068C0033FF576AF616870
:1013B0003068002900F00C81B1F5A02F00F0008109
:1013C000B1F5803F40F01A8140F480301CE100BF4D
:1013D0002069002840F20000C4F2422000F088801A
:1013E00001210160FFF7AAFD054600BF30688007B4
:1013F0003FF572AFFFF7A2FD401B0228F6D903208C
:1014000002B0BDE8F08100BFE168306A002900F059
:101410009D80052900F09280012940F0AF8040F0C6
:101420000100B1E00020C4F242200021C0F8801485
:10143000FFF784FD054600BF706A80077FF556AF51
:10144000FFF77CFD401B0228F6D9032002B0BDE85F
:10145000F08100BF0027C4F2422700203866FFF762
:101460006DFD022D05460DD13068800140F1DE8012
:10147000FFF764FD401B02284FF00300F4D902B0CF
:10148000BDE8F081306880014FD5FFF757FD401B64
:1014900002284FF00300F5D9F1E700BF40F2080041
:1014A000C2F20000006844F6D351C1F26201A0FB11
:1014B0000101480A019000BF00BF0198411E0028A9
:1014C00001913FF413AF00BF0198411E0028019124
:1014D0003FF40CAF00BF0198411E002801913FF47A
:1014E00005AF00BF0198411E00280191E4D1FDE63F
:1014F00000210160FFF722FD054600BF306880072C
:101500007FF5F1AEFFF71AFD401B02284FF00300F4
:10151000F4D9B4E77068216A00F480328A4209D1B4
:10152000616A00F47010884204D1002002B0BDE866
:10153000F08100BF012002B0BDE8F08140F004005E
:101540003062306A40F001001EE000BF20F0010070
:101550003062306A20F004003062FFF7EFFC05468D
:1015600041F28837306A800720D5FFF7E7FC401B3F
:10157000B8424FF00300F5D981E700BF20F0010029
:101580003062306A20F004003062FFF7D7FC054675
:1015900041F28837306A800708D4FFF7CFFC401B40
:1015A000B842F7D9032002B0BDE8F081B8F1000FCE
:1015B0003FF59FAEF06920F08050F06199E600BFE2
:1015C00040F480203060306840F480301CE000BF80
:1015D00020F480303060306820F480203060FFF7E5
:1015E000ADFC0546306880037FF55EAEFFF7A6FCD4
:1015F000401B64284FF00300F4D940E720F480300A
:101600003060306820F480203060FFF797FC05469A
:10161000306880033FF548AEFFF790FC401B64281C
:10162000F6D9032002B0BDE8F08100BF206AB0F512
:10163000803F05D17168A26821F4003111437160C7
:101640007168626A21F474111143084370600120CB
:101650003866FFF773FC0446306880013FF565AFDC
:10166000FFF76CFC001B02284FF00300F4D906E7DB
:10167000411E0020B0EB116F1CBF012070474EF2DD
:101680001002CEF2000251604EF62351CEF200015C
:10169000F0230B70072190601160704770470000C5
:1016A0007047000090F83C20012A4FF0020236D02B
:1016B00010B580F83D200268D2F804E0D2F808C0E6
:1016C0000C682EF07003234340F2FF74C4F2000450
:1016D000A24253600ADCB2F1804F13D040F20043C3
:1016E000C4F200039A420DD011E000BF42F600435D
:1016F000C4F201039A4205D040F60003C4F200038D
:101700009A4204D149682CF0800319439160012169
:10171000002280F83D1080F83C20BDE810401046C3
:1017200070470000002804BF0120704710B590F8F2
:101730003D1031B9002180F83C10044600F070F8EB
:101740002046022180F83D10016840F2FF740B68CA
:10175000C4F2000442F6004CA142C4F2010C15DCB4
:10176000B1F1804F1AD040F20042C4F2000291421F
:1017700014D0A14218DCB1F1804F1DD040F20042DC
:10178000C4F20002914217D01AE000BF614505D0B3
:1017900040F60002C4F200029142EAD1826823F0CE
:1017A00070031343A142E6DD614505D040F6000217
:1017B000C4F20002914203D1026923F4407313433F
:1017C000846923F08002D0F804E0C36822436145B5
:1017D0000A60CB62C1F828E002D14269CCF830201F
:1017E00001224A610B69DB0703D00B6923F0010377
:1017F0000B6180F8462080F83E2080F83F2080F87A
:10180000402080F8412080F8422080F8432080F872
:10181000442080F8452080F83D20002010BD0000C5
:101820002DE9F04F83B00446006840F20041C4F255
:10183000000188426CD0B0F1804F40F0B18041F29D
:101840001C00C4F20200016840F2080841F00101E6
:1018500001600068C4F2020800F0010002900298E2
:1018600043F6601508F15000C2F20005102600276B
:101870004FF080094FF4807A4FF4806B85E8C10EF9
:101880002846C5E90677FFF7A5F9002818BFFEF737
:101890004BFD65626C6243F6E815C2F2000505F186
:1018A000080080E8800E2846C5E90086C5E906776D
:1018B000FFF790F9002818BFFEF736FDE5626C626D
:1018C00043F6A41508F17800C2F2000510210022A9
:1018D00080234FF480774FF4806685E88F00284698
:1018E000C5E90562EA61FFF775F9002818BFFEF740
:1018F0001BFD1C2000210022A56225636C62FFF7FE
:101900009DFB1C2003B0BDE8F04FFFF785BB00BF77
:1019100041F21C00C4F20200016840F2080841F0E4
:10192000020101600068C4F2020800F002000190A8
:10193000019843F62C2508F16400C2F20005102737
:101940000026C5E9000705F108004FF080094FF4B3
:10195000807A4FF4806B80E8400E2846C5E9066621
:10196000FFF738F9002818BFFEF7DEFC6562A563B3
:101970006C6243F6702508F11400C2F20005C5E957
:10198000000705F1080080E8400E2846C5E9066614
:10199000FFF720F9002818BFFEF7C6FCE5626C626D
:1019A00003B0BDE8F08F000090F83C20012A4FF012
:1019B00002026CD080B580F83D20D0F800C04FF610
:1019C0007772DCF8083023EA0202CCF808200B68B2
:1019D0004F2B29DC1F2B45DD202B46D0302B44D04C
:1019E000402B40F0AF80D1F804E0C968DCF820302B
:1019F000DCF8202022F00102CCF82020DCF81820AE
:101A000022F0F00242EA011123F00A0242EA0E0239
:101A1000CCF81810CCF82020DCF8081041F0470171
:101A200021F0300128E000BF6F2B33DDB3F5005FFC
:101A300074D0B3F5805F21D0702B40F08380D1E962
:101A400001E3C968DCF8082043EA0E0322F47F4270
:101A500043EA01211143CCF80810DCF8081041F0EA
:101A6000770109E00BB1102B6CD1DCF8081021F0E4
:101A70007001194341F00701CCF808100022012140
:101A800080F83D10002180F83C10BDE880401046F1
:101A9000704700BF502B21D0602B53D1D1F804E008
:101AA000C968DCF82030DCF8202022F01002CCF8E5
:101AB0002020DCF8182022F4704242EA013123F0A1
:101AC000A00242EA0E12CCF81810CCF82020DCF864
:101AD000081041F0670121F01001CDE7D1F804E0D2
:101AE000C968DCF82030DCF8202022F00102CCF8B4
:101AF0002020DCF8182022F0F00242EA011123F045
:101B00000A0242EA0E02CCF81810CCF82020DCF8C9
:101B1000081041F0570121F02001ADE7D1E901E3C0
:101B2000C968DCF8082043EA0E0322F47F4243EA46
:101B300001211143CCF80810DCF8081041F4804171
:101B40009AE700BF01229AE7704700007047000043
:101B500070B504460068C5680669B10716D515F06A
:101B6000020113D06FF00201016101212177806928
:101B7000800703D02046FFF7E9FF05E0204600F08C
:101B80008FF8204600F010FA00202077700719D552
:101B900015F0040016D020686FF0040101610221E5
:101BA0002177806910F4407F04D02046FFF7CEFFF4
:101BB00006E000BF204600F073F8204600F0F4F97C
:101BC00000202077300717D515F0080014D02068C2
:101BD0006FF00801016104212177C069800703D0FB
:101BE0002046FFF7B3FF05E0204600F059F82046F5
:101BF00000F0DAF900202077F00619D515F0100072
:101C000016D020686FF01001016108212177C069AA
:101C100010F4407F04D02046FFF798FF06E000BF95
:101C2000204600F03DF8204600F0BEF90020207765
:101C3000F00718BF15F0010002D1300609D412E0F8
:101C400020686FF001010161204600F055FB30066D
:101C500009D515F0800006D020686FF08001016181
:101C60002046FFF71BFD700609D515F0400006D091
:101C700020686FF040010161204600F03FFBB00694
:101C800058BF70BD15F0200008D021686FF0200209
:101C900020460A61BDE87040FFF702BD70BD00003C
:101CA0007047000090F83C30012B04BF02207047C1
:101CB0004FEAB202032A00F2F1802DE9F043DFE897
:101CC00002F003A53B7500BF036842F600461D6A9B
:101CD0001A6AC4F2010622F001021A621A465C680E
:101CE00052F818CFB3428E68D1F800E025F0020513
:101CF00045EA06050CD1CE68D1E9057824F4407494
:101D000025F00C0526F004063C43354344EA08045C
:101D10002CF0730747EA0E075C609F614F68096902
:101D20005F631D629F6947F008079F619F6927F005
:101D300004079F61A6E000BF036842F600461D6AE3
:101D40001A6AC4F2010622F480721A621A46D3F8A3
:101D500004C052F81CEFB3428E680C6825F400757D
:101D600045EA06250FD1CE68D1E90598360240F242
:101D7000FF4725F44065BE4335432CF4405748EAFD
:101D8000090647EA061C2EF073072743C3F804C070
:101D9000DF614F680969DF631D62DF6947F008078B
:101DA000DF61DF6927F00407DF616BE0036842F65B
:101DB0000047D3F820C01A6AC4F2010722F4805207
:101DC0001A621A465C6852F81C5FD1F800E08E680F
:101DD000BB4204D14F6924F4804444EA87142CF4B4
:101DE000005747EA063725F4E64646EA0E265C60C9
:101DF000DE614E6809691E641F62DF6947F400678F
:101E0000DF61DF6927F48067DF613AE0036842F64B
:101E100000461D6A1A6AC4F2010622F010021A6214
:101E20001A46D3F804C052F8184FB3428E68D1F85E
:101E300000E025F0200545EA06150FD1CE68D1E96E
:101E400005986FF0400725F0C00507EA06163543F0
:101E50002CF4406748EA090647EA860C24F4E64475
:101E600044EA0E27C3F804C09F614F6809699F6365
:101E70001D629F6947F400679F619F6927F480672F
:101E80009F6109021368194311600021BDE8F04306
:101E9000002280F83C200846704700BF0121002244
:101EA00080F83C2008467047002804BF0120704796
:101EB00010B590F83D1031B9002180F83C1004466F
:101EC00000F070F82046022180F83D10016840F2D1
:101ED000FF740B68C4F2000442F6004CA142C4F245
:101EE000010C15DCB1F1804F1AD040F20042C4F26F
:101EF0000002914214D0A14218DCB1F1804F1DD0F4
:101F000040F20042C4F20002914217D01AE000BF32
:101F1000614505D040F60002C4F200029142EAD1C8
:101F2000826823F070031343A142E6DD614505D0CA
:101F300040F60002C4F20002914203D1026923F488
:101F400040731343846923F08002D0F804E0C3682F
:101F5000224361450A60CB62C1F828E002D14269A0
:101F6000CCF8302001224A610B69DB0703D00B69F2
:101F700023F001030B6180F8462080F83E2080F8B2
:101F80003F2080F8402080F8412080F8422080F8EF
:101F9000432080F8442080F8452080F83D20002030
:101FA00010BD00007047000080B5016840F200429B
:101FB000C4F2000291420BD0B1F1804F21D1007FD9
:101FC00002281ED143F6B420C2F20000042110E022
:101FD000007F042808D0012818BF80BD43F6FC20EC
:101FE000C2F20000002104E043F6FC20C2F200002F
:101FF000082100F025F943F64430C2F20000002128
:10200000017080BD7047000070B5B9B14125082945
:1020100008BF4025042908BF3F25455D022D04BFA8
:10202000022070BD08291BD0042914BF00F141050E
:1020300000F13F052D78012D0AD016E0054615F870
:102040003E4F022C04BF022070BD2D78012D0CD113
:10205000002A4FF0010C18BF002B09D1604670BD5B
:1020600000F140052D78012DF2D0012070BD00BF98
:10207000022569B1082913D0042914BF80F8415002
:1020800080F83F504FEAB105032D0FD9E6E700BFB6
:1020900080F83E504FEAB105032D07D9DEE700BFB7
:1020A00080F840504FEAB105032DD7D80E46DFE83F
:1020B00005F00365234300BF456A42F27D74C0F614
:1020C0000004AC62456A42F2E974C0F60004EC62B6
:1020D000456A42F621040168C0F600042C630546F7
:1020E000406A01F1340C11466246FEF7B5FD002846
:1020F000BBD14FF4007161E0C56A42F27D74C0F655
:102100000004AC62C56A42F2E974C0F60004EC62F5
:10211000C56A42F621040168C0F600042C63054636
:10212000C06A01F13C0C11466246FEF795FD00289D
:102130009BD14FF4006141E0056B42F27D74C0F623
:102140000004AC62056B42F2E974C0F60004EC6274
:10215000056B42F621040168C0F600042C630546B5
:10216000006B01F1400C11466246FEF775FD002838
:102170007FF47BAF4FF4805120E000BF856A42F2CC
:102180007D74C0F60004AC62856A42F2E974C0F660
:102190000004EC62856A42F621040168C0F600047E
:1021A0002C630546806A01F1380C11466246FEF741
:1021B00053FD00287FF459AF4FF480612868C2684E
:1021C0001143C16006F01F010122036A8A4023EA1D
:1021D00002010162036A42F64441C4F201011A435A
:1021E000A1F144039842026203D10A6842F400421A
:1021F0000A6040F2FF71C4F20001884206DCB0F1CF
:10220000804F0FD040F2004108E000BF42F600418D
:10221000C4F20101884205D040F60001C4F2000179
:10222000884204D1816801F00701062903D00168C2
:1022300041F0010101604FF0000C604670BD0000EC
:10224000F0B581B004464FEAB10003284FF0010613
:102250004FD80D4642F6E8412268C0F6000151F819
:102260002010D36804EB80001940D160406A42F628
:102270000047C4F20107FEF781FB206805F01F014B
:10228000026A06FA01F122EA01010162016AB8421A
:1022900001620DD1396A41F21112114208D1016A6D
:1022A00040F24442114203D1416C21F400414164A7
:1022B000016A41F21112114208D1016A40F244420E
:1022C000114203D1016821F0010101600120082DB4
:1022D0000CD0042D06D0002D14BF84F8410084F8E2
:1022E0003E0005E084F83F0002E000BF84F84000B3
:1022F0000026304601B0F0BD704700007047000076
:10230000FEE7000080B543F6381046F20041C2F205
:102310000000C4F20001002302224FF0807C4FF441
:10232000702E80E80E50C0E905338383FEF71EFA55
:10233000002808BF80BDBDE88040FDF7F5BF000064
:1023400080B582B041F21400C4F20200016800229C
:1023500041F0010101600068002100F001000190DE
:1023600001980B20FEF76AFE0B20FEF755FE0C20AD
:1023700000210022FEF762FE0C20FEF74DFE0F202A
:1023800000210022FEF75AFE0F20FEF745FE102026
:1023900000210022FEF752FE1020FEF73DFE112024
:1023A00000210022FEF74AFE112002B0BDE8804065
:1023B000FEF732BE80B586B0002041F21801CDE9AB
:1023C0000400CDE90200C4F202010A6842F02002D2
:1023D0000A600A6802F020020192019A0A6842F03B
:1023E00004020A600A6802F004020192019A0A6873
:1023F00042F008020A60096801F0080101910199A0
:102400004FF4F841CDE902100120049040F600405D
:10241000C4F2010002A9FEF783FC06B080BD0000F3
:10242000B0B594B043F6B4200021C2F200004FF0E2
:10243000804259230E91CDE90C110991CDE9071184
:10244000CDE90511CDE90311CDE90111C0E9002164
:10245000C0E9021301618161FFF764F9002818BF28
:10246000FDF762FF4FF480500B9043F6B420C2F2A8
:1024700000000BA9FFF798FA002818BFFDF754FFDA
:1024800043F6B420C2F20000FFF70EFD002818BF8B
:10249000FDF74AFF43F6B4200024C2F2000008A969
:1024A000CDE90844FFF7FEF8002818BFFDF73CFF10
:1024B0006020CDE9010443F6B420C2F2000001A976
:1024C000002203940594FFF7EDFB002818BFFDF7E9
:1024D0002BFF43F6B420C2F2000001A90422FFF74B
:1024E000E1FB002818BFFDF71FFF43F6B424C2F23A
:1024F000000401A920460822FFF7D4FB002818BFDA
:10250000FDF712FF206840F20041C4F2000188424A
:102510004FF00001CDE91211CDE9101118D0B0F142
:10252000804F43D141F21800C4F20200016841F02B
:1025300004010160006800F004000F900F9807206C
:1025400010900220119040F60000C4F2010028E033
:1025500041F21800C4F20200016840F6000441F0A4
:10256000040101600168C4F2010401F004010F914B
:102570000F990168022541F008010160006810A967
:1025800000F008000F900F98402010900320139047
:1025900020461195FEF7C4FB0120CDE9100504F596
:1025A00080600321139110A9FEF7BAFB14B0B0BDEF
:1025B000B0B594B040F60004C4F2010443F6FC2028
:1025C0000021A4F58232C2F2000059230E91CDE918
:1025D0000C110991CDE90711CDE90511CDE90311E0
:1025E000CDE90111C0E90021C0E902130161816157
:1025F000FFF798F8002818BFFDF796FE4FF48050BB
:102600000B9043F6FC20C2F200000BA9FFF7CCF9B7
:10261000002818BFFDF788FE43F6FC20C2F2000038
:10262000FFF742FC002818BFFDF77EFE43F6FC20B2
:102630000025C2F2000008A9CDE90855FFF732F8DD
:10264000002818BFFDF770FE6020CDE9010543F6B4
:10265000FC20C2F2000001A9002203950595FFF7B6
:1026600021FB002818BFFDF75FFE43F6FC25C2F2F0
:10267000000501A928460822FFF714FB002818BF0F
:10268000FDF752FE286840F20041C4F20001884282
:102690004FF00001CDE91211CDE9101114D0B0F1C5
:1026A000804F3CD141F21800C4F20200016841F0B1
:1026B00004010160006800F004000F900F980720EB
:1026C00010900220119024E041F21800C4F20200A0
:1026D0000168022541F004010160016801F0040174
:1026E0000F910F99016841F008010160006810A97D
:1026F00000F008000F900F984020109003201390D6
:1027000020461195FEF70CFB012004F58064CDE90D
:1027100010050320139010A92046FEF701FB14B00A
:10272000B0BD0000FEE70000FEE7000070470000BB
:1027300080B588B0082306930023CDE9043343F61F
:102740003813C2F200039842029101D008B080BD54
:1027500043F63810C2F2000002A901ABFDF7EAFD12
:1027600008B080BD70470000FEF7EEBB7047000068
:1027700043F6B420C2F20000FFF7EAB910B5446A8C
:10278000616A884212D0A16A884217D0E16A884201
:102790001CD0216B884220D1806908210028217734
:1027A00004BF012084F8410017E000BF81690120C7
:1027B0000029207708BF84F83E000EE080690221DE
:1027C000217750B9012084F83F0006E08069042198
:1027D000217710B9012084F840002046FFF7E4FB80
:1027E0000020207710BD000010B5446A616A88425D
:1027F0000AD0A16A884209D0E16A884208D0216BD8
:10280000884207D1082004E0012002E0022000E015
:10281000042020772046FFF7F5FB0020207710BD2D
:1028200010B5446A616A88420CD0A16A88420FD010
:10283000E16A884212D0216B884215D0012084F8C9
:102840003D0016E00120207784F83E0011E000BF33
:1028500002202077012084F83F000AE0042020773E
:10286000012084F8400004E008202077012084F84B
:1028700041002046FFF768F90020207710BD0000D6
:1028800043F63810C2F20000FDF740BEFEE700003C
:1028900080B540F2AC00C2F2000040F25551FDF7A5
:1028A000A9FC40F20460C2F2000043F23431FDF7AB
:1028B000A1FC80BD2DE9F04F81B040F2046A40F2E6
:1028C000AC084FF0000BC2F2000AC2F200082AE086
:1028D00000244FF0000C0AEB4C006421FDF78AFC49
:1028E000AE686D6809EB4900322101EBC00083B28C
:1028F000284631465246FFF787FBC4EB041048F6E2
:1029000038114000C0F24101A0FB0101881DFEF713
:10291000F3F928463146FFF793FC0BF1010BBBF1AD
:10292000030F00F0C18042F6F8410BEB4B00C0F6FC
:10293000000131F8209001EB8005B9F1000FC7D0FC
:10294000B5F802E009EB490002014FEAC00C002390
:10295000002600950EEB060080B200EB400008EB6D
:10296000000595F90140392118F9007095F9020028
:10297000B4F1FF3FC8BF1D212AF8031061064FF0D4
:1029800039010AEB030558BF1D216980A1064FF0EC
:10299000390158BF1D21A980E1064FF0390158BF08
:1029A0001D21E98021074FF0390158BF1D212981E0
:1029B00061074FF0390158BF1D216981A1074FF010
:1029C000390158BF1D21A981E1074FF0390108BF26
:1029D0001D21E9813921B7F1FF3FC8BF1D2129829F
:1029E00079064FF0390158BF1D216982B9064FF0B1
:1029F000390158BF1D21A982F9064FF0390158BF8E
:102A00001D21E98239074FF0390158BF1D21298363
:102A100079074FF0390158BF1D216983B9074FF07D
:102A2000390158BF1D21A983F9074FF0390108BFAB
:102A30001D21E9833921B0F1FF3FC8BF1D21298441
:102A400041064FF0390158BF1D21698481064FF0BE
:102A5000390158BF1D21A984C1064FF0390158BF63
:102A60001D21E98401074FF0390158BF1D21298537
:102A700041074FF0390158BF1D21698581074FF08B
:102A8000390158BF1D21C0074FF0390003F1300351
:102A9000A98508BF1D209A4206F10106E8857FF44A
:102AA00059AF009D4C4616E701B0BDE8F08F00001D
:102AB00010B540F2AC0C0023C2F2000C40F2555E9F
:102AC0000CEB03040CF80300273373456170A2700C
:102AD000E07021716271A071E17122726072A17265
:102AE000E27220736173A273E07321746274A07444
:102AF000E17422756075A175E27520766176A27623
:102B0000E07621776277A077E17784F8202084F857
:102B1000210084F8221084F8232084F8240084F80B
:102B2000251084F82620CBD110BD0000B0F5E37F3E
:102B300088BF704780B540F2AC0C00EB4000C2F299
:102B4000000C0CEB000E0CF800108EF801208EF833
:102B50000230BDE88040704790B0FEF703FA0024D1
:102B60000120CDE90B44CDE9094406900A904FF4C9
:102B7000E0104FF4803102250F9006A8CDE907142C
:102B8000CDE90D51FEF774FB20B1EFF3108072B662
:102B9000FEE700BF0F20CDE901054FF48060CDE9CD
:102BA000040401A802210394FEF784FA20B1EFF394
:102BB000108072B6FEE700BFFFF7FCFBFFF7C0FB1B
:102BC000FFF72EFCFFF79EFBFFF7F2FCFFF760FE1E
:102BD000002500BFA5F1FA0080B20C284FF00000DC
:102BE00038BF0120ACB20021B4F5877F88BF012136
:102BF00008434042C1B2204600220023FFF796FF5F
:102C0000B4F5E37F05F10105E4D340F60044C4F2D6
:102C10000104FFF74FFE40F27007C2F2000740F2D6
:102C2000800643F638184FF00109C2F200064FF053
:102C3000000A7D1CC2F2000802E000BF87F800A075
:102C400020464FF48061FEF773F9C8B120464FF477
:102C50000061FEF76DF998B120464FF48051FEF700
:102C600067F968B120464FF40051FEF761F938B1B9
:102C700020464FF48041FEF75BF90028DED100BF0B
:102C800038780028DCD1307887F800900128D7D137
:102C9000FDF714FB404640F241312A4686F800A079
:102CA000FFF746FDCCE70000000000000000010235
:102CB00003040607080901020203040506070809C0
:102CC0000A0B0C0D0E0F1010020000000400000093
:102CD0000800000010000000FDFFFFFFFBFFFFFFEA
:102CE000F7FFFFFFEFFFFFFFFFFDFFFFFFFBFFFF12
:102CF000FFF7FFFFFFEFFFFF0F010000B43A0020D6
:102D0000040000005C000F01FC3A002000000000FD
:102D10005C006B01FC3A002008000000402D000818
:102D2000000000201000000050010008502D000895
:102D30001000002040410000700100080000000069
:102D4000010000001000000000127A0000000000E6
:04000005080000ED02
:00000001FF
