:020000040800F2
:100000004046002055020008B52F0008FD2D0008CD
:10001000B12F000845060008A543000800000000B5
:10002000000000000000000000000000393200085D
:10003000F90600080000000025300008B132000871
:100040006F0200086F0200086F0200086F020008CC
:100050006F0200086F0200086F0200086F020008BC
:100060006F0200086F0200086F0200086F020008AC
:100070006F0200086F0200086F0200086F0200089C
:100080006F0200086F0200086F0200086F0200088C
:100090006F0200086F0200086F0200086F0200087C
:1000A0006F0200086F0200086F0200086F0200086C
:1000B000893300086F0200086F0200086F02000811
:1000C0006F0200086F0200086F0200086F0200084C
:1000D0006F0200086F0200086F0200086F0200083C
:1000E0006F0200086F0200086F0200086F0200082C
:1000F0006F0200086F0200086F0200086F0200081C
:100100006F0200086F0200086F0200086F0200080B
:100110006F0200086F0200086F0200086F020008FB
:100120006F0200086F0200086F0200086F020008EB
:100130006F0200086F0200086F0200086F020008DB
:10014000490600086F0200086F0200086F020008ED
:100150006F0200086F0200086F0200086F020008BB
:100160006F0200086F0200086F0200086F020008AB
:100170006F0200086F0200086F0200080000000014
:100180006F0200086F02000800F002F800F052F859
:1001900014A696E8000CB244B344DA4501D100F04D
:1001A00049F8BAE80F000FA696E83000A5EB040561
:1001B00004EB0607AAEB0704A7F101074FEA1515A0
:1001C0004FEA3414A4F10104AC4201D300F032F838
:1001D00013F0010F18BFFB1A43F0010300F001F800
:1001E000DBE71847E842000008430000103A24BF4C
:1001F00078C878C1FAD8520724BF30C830C144BF8C
:1002000004680C6070470000704700000023002461
:1002100000250026103A28BF78C1FBD8520728BF16
:1002200030C148BF0B6070471FB504F039F91FBDDE
:1002300010B510BD00F0D0F81146FFF7F5FF04F03F
:1002400013F900F0EEF803B4FFF7F2FF03BC00F07F
:10025000F5F800000948804709480047FEE7FEE737
:10026000FEE7FEE7FEE7FEE7FEE7FEE7FEE7FEE766
:1002700004480549054A064B7047000075330008DD
:10028000890100084006002040460020402600204A
:100290004026002053EA020C00F069802DE9F04B63
:1002A0004FF00006002B1FBFB3FA83F503FA05F4E5
:1002B00024FA05F65E4012BF1643B2FA82F502FA3E
:1002C00005F4C5F120051EBF22FA05FC44EA0C0422
:1002D000203556EA044C4FEA144418BF641C4FF012
:1002E00000084FF00009904271EB030C39D300294C
:1002F00019BFB1FA81F701FA07F6B0FA80F700FAF0
:1003000007F6C7F120071EBF20FA07FC46EA0C06D5
:100310002037B6FBF4FCA7EB0507103F07F01F0BD7
:10032000CBF120062CFA06F60CFA0BFB44BFB346C1
:100330000026202FA4BF5E464FF0000B5BEA060CA0
:1003400008BF4FF0010B19EB0B0948EB0608ABFB9C
:10035000027C06FB02CC0BFB03CCC01B71EB0C0137
:10036000C1E70B46024641464846BDE8F08B13B54F
:10037000084318BF4FF0FF300146AFF30080BDE8DF
:100380001C4070474FF0000200B513469446964655
:10039000203922BFA0E80C50A0E80C50B1F1200198
:1003A000BFF4F7AF090728BFA0E80C5048BF0CC046
:1003B0005DF804EB890028BF40F8042B08BF7047A4
:1003C00048BF20F8022B11F0804F18BF00F8012B16
:1003D0007047704770477047754600F02BF8AE467F
:1003E00005006946534620F00700854618B020B541
:1003F000FFF73EFFBDE820404FF000064FF000073A
:100400004FF000084FF0000BAC46ACE8C009ACE878
:10041000C009ACE8C009ACE8C00921F007018D466D
:10042000704710B50446AFF300802046BDE8104089
:10043000FFF709BF0048704710000020014918204D
:10044000ABBEFEE7260002007047000081B000202E
:100450008DF80200FFE79DF80200042814DCFFE796
:100460009DF8021040F22460C2F20000405C20B906
:10047000FFE700208DF803000AE0FFE79DF8020087
:1004800001308DF80200E6E701208DF80300FFE758
:100490009DF8030001B0704782B0FFE70020019093
:1004A00043F63000C4F20200016841F0200101600F
:1004B000006800F0200001900198FFE7FFE70020AE
:1004C000009043F64400C4F20200016841F48061E8
:1004D0000160006800F4806000900098FFE741F23E
:1004E0000041C4F20201086840F44010086041F283
:1004F0000C41C4F20201086820F44010086042F286
:100500000431C4F20101086820F440300860086832
:1005100040F48030086042F20421C4F2010100205E
:10052000086042F20821C4F20101086042F20C2284
:10053000C4F20102106042F21022C4F20102106003
:1005400042F22C23C4F20103186042F23023C4F2B9
:100550000103186042F23423C4F20103082018603A
:10056000106840F0E0601060086840F0010008602A
:1005700002B0704781B0ADF80200BDF8020048F249
:100580001421484300F2FF7140F20110C0F2100044
:10059000A1FB0020091A00EB5100C00A01B070470E
:1005A00080B582B0002001908DF80300FFE79DF830
:1005B000030007280DD8FFE700F010F80146019866
:1005C00008440190FFE79DF8030001308DF8030017
:1005D000EDE70198C0F3CF0002B080BD82B048F2D1
:1005E000A060C0F20100009042F20021C4F20101BB
:1005F0000020086042F20821C4F20101086840F0BE
:1006000080400860FFE742F20020C4F20100006869
:10061000800700280AD4FFE70098411E009120B906
:10062000FFE70020ADF8060008E0ECE742F24C20BE
:10063000C4F201000068ADF80600FFE7BDF806004F
:1006400002B07047FFE7FEE780B540F2CC00C2F28F
:10065000000000F00BFB80BD80B584B040F270015B
:10066000C2F2000102910E2203924A624A61012302
:100670000B6200208861CB61086048608860C860B8
:100680004A61086140F2CC00C2F20000019000F023
:100690000FF9019800F0A6FE0198022100F032F84F
:1006A000029903984862486104B080BD81B000207F
:1006B0008DF803008DF80200FFE79DF80200042882
:1006C00016DCFFE79DF8021040F22460C2F2000041
:1006D000405C30B9FFE79DF8030001308DF803005E
:1006E000FFE7FFE79DF8020001308DF80200E4E724
:1006F0009DF8030001B070477047000072B6FFE735
:10070000FEE7000084B002900191029890F820006A
:100710008DF803009DF80300012805D0FFE79DF840
:10072000030002280AD1FFE7019A0298016848698C
:100730001043486100208DF80F0008E00299486AD4
:1007400040F48020486201208DF80F00FFE79DF8FB
:100750000F0004B07047000088B006900591049225
:100760000393069890F820008DF80700069800681B
:10077000806800900598806808B9FFE700E0FFE70F
:100780009DF80700012806D0FFE79DF80700022822
:1007900040F08080FFE79DF80300400700280CD45C
:1007A000FFE79DF803000007002806D4FFE79DF847
:1007B0000300C006002864D5FFE70098C0F301607D
:1007C000029002990120884003990860059880688A
:1007D00068B9FFE705980168C06840EA415006998A
:1007E0000968029A01EB0211C1F880010EE0059937
:1007F0004A688868C96840EAC200084306990968DF
:10080000029A01EB0211C1F88001FFE70598006927
:1008100006990968029A01EB0211C1F88401059852
:10082000007D01280CD1FFE706980068029900EBD3
:100830000111D1F8840140F48070C1F88401FFE710
:100840000498406806990968029A01EB0211C1F800
:100850008C010498006806990968029A01EB02115C
:10086000C1F8880106980068029900EB0111D1F8DF
:10087000800140F00100C1F8800100208DF81F00C8
:1008800011E00699486A40F40010486201208DF892
:100890001F0008E00699486A40F480204862012061
:1008A0008DF81F00FFE79DF81F0008B0704700009B
:1008B00086B004900391049890F820008DF803000E
:1008C0009DF80300012806D0FFE79DF803000228E9
:1008D00040F0B080FFE746F20040C4F20000019013
:1008E0000199D1F8000240F00100C1F8000201991D
:1008F000D1F8000220F47C50C1F800020398426A4B
:100900000199D1F8000240EA0220C1F800020398E0
:10091000406900F01F01012088400290029A01996D
:10092000D1F81C029043C1F81C020398C069F0B9C9
:10093000FFE7029A0199D1F80C029043C1F80C022A
:10094000039A9088D168526940EA0140019901EB0D
:10095000C201C1F84002039A10889168526940EAC6
:100960000140019901EBC201C1F84402FFE703987D
:10097000C06901281ED1FFE7029A0199D1F80C0243
:100980001043C1F80C02039A90881168526940EA3A
:100990000140019901EBC201C1F84002039A90891C
:1009A0009168526940EA0140019901EBC201C1F826
:1009B0004402FFE70398806940B9FFE7029A019972
:1009C000D1F804029043C1F8040207E0029A0199A9
:1009D000D1F804021043C1F80402FFE7039800694C
:1009E00040B9FFE7029A0199D1F814029043C1F887
:1009F000140207E0029A0199D1F814021043C1F8D9
:100A00001402FFE70398006A012808D1FFE7029A61
:100A10000199D1F81C021043C1F81C02FFE70199AB
:100A2000D1F8000220F00100C1F8000200208DF88A
:100A3000170008E00499486A40F4802048620120C9
:100A40008DF81700FFE79DF8170006B0704700000B
:100A500081B0009001B0704786B00490039102927B
:100A60000193049890F820008DF803009DF803008E
:100A7000012806D0FFE79DF80300022840F0E88037
:100A8000FFE7039880B9FFE704980068C068800713
:100A900048B9FFE70499486A40F400104862012011
:100AA0008DF81700DDE00FE004980068006980070A
:100AB00048B9FFE70499486A40F4001048620120F1
:100AC0008DF81700CDE0FFE704980068039900EB6C
:100AD0000110D0F8B00100F004000299886002987B
:100AE000806858B9FFE704980068039900EB01108B
:100AF000D0F8B001400D029908600AE0049800683F
:100B0000039900EB0110D0F8B001C00802994860C9
:100B1000FFE704980068039900EB0110D0F8B001DA
:100B200000F002000299C86004980068039900EB85
:100B30000110D0F8B40100F00F00082804D3FFE73B
:100B40000299082008610BE004980068039900EB03
:100B50000110D0F8B40100F00F0002990861FFE71E
:100B600004980068039900EB0110D0F8B40180B23A
:100B7000000A0299886104980068039900EB01104B
:100B8000D0F8B401000C02994861049800680399F8
:100B900000EB0110D0F8B8010199087004980068C2
:100BA000039900EB0110D0F8B801000A01994870D0
:100BB00004980068039900EB0110D0F8B801000C0C
:100BC0000199887004980068039900EB0110D0F82F
:100BD000B801000E0199C87004980068039900EBF1
:100BE0000110D0F8BC0101990871049800680399BC
:100BF00000EB0110D0F8BC01000A0199487104987B
:100C00000068039900EB0110D0F8BC01000C0199B9
:100C1000887104980068039900EB0110D0F8BC01BA
:100C2000000E0199C871039838B9FFE7049801686C
:100C3000C86840F02000C86006E0049801680869B0
:100C400040F020000861FFE700208DF8170008E061
:100C50000499486A40F48020486201208DF817000A
:100C6000FFE79DF8170006B07047000080B58AB016
:100C70000990002008900998006840690790099839
:100C80000068406806900998006880680590099897
:100C90000068C0680490099800680069039009988A
:100CA0000068806902909DF81C00C007002800F0D1
:100CB0009480FFE79DF81400C00758B3FFE7099838
:100CC0000168012088609DF814008007002804D581
:100CD000FFE7099800F0D0FB1BE09DF814004007E7
:100CE000002805D5FFE7089840F4006008900FE061
:100CF0009DF814000007002805D5FFE7089840F488
:100D00008050089003E0099800F0B2FBFFE7FFE78E
:100D1000FFE7FFE79DF81500C00760B3FFE70998FC
:100D200001684FF4807088609DF8150080070028E6
:100D300004D5FFE7099800F0A7FB1BE09DF815001C
:100D40004007002805D5FFE7089840F400500890B8
:100D50000FE09DF815000007002805D5FFE708986B
:100D600040F48040089003E0099800F089FBFFE719
:100D7000FFE7FFE7FFE79DF81600C00760B3FFE756
:100D8000099801684FF4803088609DF8160080074C
:100D9000002804D5FFE7099800F07EFB1BE09DF8D2
:100DA00016004007002805D5FFE7089840F40040EA
:100DB00008900FE09DF816000007002805D5FFE712
:100DC000089840F48030089003E0099800F060FB38
:100DD000FFE7FFE7FFE7FFE7FFE79DF81C000007DD
:100DE000002810D5FFE79DF81000C006002809D59F
:100DF000FFE7089840F400700890099801681020F7
:100E0000C860FFE7FFE79DF81C00400700280FD5EA
:100E1000FFE79DF810000007002808D5FFE70998B4
:100E200001680820C860099800F06EFAFFE7FFE744
:100E30009DF81C00800700280BD5FFE70998006883
:100E4000C068800720B1FFE7099800F061FAFFE76A
:100E5000FFE79DF81C004006002810D5FFE79DF82D
:100E60000C00C006002809D5FFE7089840F4806010
:100E700008900998016810200861FFE7FFE79DF8D6
:100E80001C00800600280FD5FFE79DF80C00000726
:100E9000002808D5FFE7099801680820086109982B
:100EA00000F094FAFFE7FFE79DF81C00C006002859
:100EB0000BD5FFE7099800680069800720B1FFE7BC
:100EC000099800F087FAFFE7FFE79DF81E0080070A
:100ED00000280FD5FFE79DF81800C006002808D5A8
:100EE000FFE70998016810204860099800F076FA39
:100EF000FFE7FFE79DF81E00C00778B1FFE79DF808
:100F000018000007002808D5FFE7099801680820A5
:100F10004860099800F0C4FAFFE7FFE79DF81D005C
:100F20000006002840F18D80FFE79DF8180040077B
:100F3000002840F18180FFE79DF81D00C00750B1F7
:100F4000FFE79DF80800C00728B1FFE7089840F0C8
:100F500001000890FFE79DF81D00800700280BD5D1
:100F6000FFE79DF808008007002805D5FFE70898EF
:100F700040F002000890FFE79DF81D0040070028A0
:100F80000BD5FFE79DF808004007002805D5FFE7CF
:100F9000089840F004000890FFE79DF81D00000746
:100FA000002848D5FFE79DF8080010F0700F42D0E8
:100FB000FFE7029800F0700001460191102814D05C
:100FC000FFE70198202815D0FFE70198302816D0B8
:100FD000FFE70198402817D0FFE70198502818D064
:100FE000FFE70198602819D01DE0089840F008003C
:100FF000089019E0089840F01000089014E0089854
:1010000040F0200008900FE0089840F04000089061
:101010000AE0089840F08000089005E0089840F445
:101020008070089000E0FFE709980168886920F067
:1010300070008861FFE7FFE70998016804204860B5
:10104000FFE7089848B1FFE7089A0999486A1043F2
:1010500048620998FFF7FCFCFFE70AB080BD00007A
:1010600080B584B00290029820B9FFE701208DF886
:101070000F00E0E0029890F8200020B9FFE7029806
:1010800000F0DEF8FFE702980168086840F0010010
:10109000086000F007FC0190FFE7029800684068D4
:1010A000C007A8B9FFE700F0FDFB0199401A0B2823
:1010B0000DD3FFE70299486A40F400304862029974
:1010C000052081F8200001208DF80F00B3E0E4E74F
:1010D00002980168086820F00200086000F0E2FB56
:1010E0000190FFE70298006840688007002815D546
:1010F000FFE700F0D7FB0199401A0B280DD3FFE75B
:101100000299486A40F4003048620299052081F84B
:10111000200001208DF80F008DE0E3E70298007EAB
:10112000012807D1FFE702980168086840F08000B5
:10113000086006E002980168086820F080000860F6
:10114000FFE70298407E012807D1FFE70298016877
:10115000086840F04000086006E0029801680868EE
:1011600020F040000860FFE70298807E012807D148
:10117000FFE702980168086840F02000086006E078
:1011800002980168086820F020000860FFE70298D4
:10119000C07E012807D1FFE702980168086820F0A7
:1011A0001000086006E002980168086840F010002E
:1011B0000860FFE70298007F012807D1FFE7029847
:1011C0000168086840F00800086006E002980168BD
:1011D000086820F008000860FFE70298407F0128B7
:1011E00007D1FFE702980168086840F00400086032
:1011F00006E002980168086820F004000860FFE734
:10120000029B19685A689868D3F80CC040EA0C0031
:10121000D3F810C040EA0C005B691843013A104350
:10122000C861029900204862029A012182F82010C8
:101230008DF80F00FFE79DF80F0004B080BD00009F
:1012400080B58CB00B9000200A9009900890079010
:1012500006900B98006846F60001C4F2000188422F
:101260004FD1FFE7FFE70020059043F64000C4F2AE
:101270000200016841F080610160006800F0806058
:1012800005900598FFE7FFE70020049043F6400033
:10129000C4F20200016841F000710160006800F0D2
:1012A000007004900498FFE7FFE70020039043F6E6
:1012B0003000C4F20200016841F0020101600068E0
:1012C00000F0020003900398FFE7602006900220E0
:1012D00007900020019008900320099009200A90AF
:1012E00040F20040C4F2020006A900F0FFF8019AA3
:1012F00040200290114600F06DFB029800F060FB68
:10130000FFE70CB080BD000081B0009001B07047D5
:1013100080B584B00390039840F29C02C2F20002B0
:10132000002101ABFFF798FB039840F2CC01C2F219
:101330000001884248D1FFE740F29C00C2F2000061
:101340000068009040F20131884218D0FFE7009811
:1013500040F21131884219D0FFE7009840F2213164
:1013600088421AD0FFE7009840F2313188421BD002
:10137000FFE7009840F2413188421CD022E040F261
:10138000F401C2F20001012008701CE040F2F401F7
:10139000C2F200010220087015E040F2F401C2F22E
:1013A0000001032008700EE040F2F401C2F20001D7
:1013B0000420087007E040F2F401C2F200010520A9
:1013C000087000E0FFE7FFE704B080BD81B0009047
:1013D00001B0704781B0009001B0704781B00090BB
:1013E00001B0704780B584B00290029890F8200058
:1013F00001282FD1FFE70299022081F820000298EE
:101400000168086820F00100086000F04BFA0190C4
:10141000FFE7029800684068C007A8B1FFE700F046
:1014200041FA0199401A0B280DD3FFE70299486A47
:1014300040F4003048620299052081F82000012024
:101440008DF80F000FE0E4E70299002048628DF864
:101450000F0008E00299486A40F400204862012029
:101460008DF80F00FFE79DF80F0004B080BD00006D
:1014700081B0009001B0704781B0009001B070471A
:1014800081B0009001B0704781B0009001B070470A
:1014900081B0009001B0704781B0009001B07047FA
:1014A00081B0009001B0704780B584B0039000F027
:1014B000F9F90290039801900198013048B1FFE7D3
:1014C00040F20800C2F2000001780198084401903F
:1014D000FFE7FFE700F0E6F90299401A0199884218
:1014E00001D2FFE7F6E704B080BD00008EB00D909A
:1014F0000C9100200A90099008900B90FFE70B9840
:101500000F2800F2CC81FFE70B99012088400A9058
:101510000C9800680A990840099009980A9988422D
:1015200040F0B881FFE70C98406800F00300012804
:1015300007D0FFE70C98406800F0030002282FD185
:10154000FFE70D98806808900B984100032000FA8F
:1015500001F10898884308900C98C0680B994900DD
:1015600000FA01F108980843089008980D998860DE
:101570000D98406808900B99012000FA01F1089835
:10158000884308900C984068C0F300100B9900FA4B
:1015900001F108980843089008980D994860FFE702
:1015A0000C98406800F00300032818D0FFE70D985E
:1015B000C06808900B984100032000FA01F10898D8
:1015C000884308900C9880680B99490000FA01F153
:1015D00008980843089008980D99C860FFE70C9890
:1015E000406800F00300022826D1FFE70D980B9910
:1015F0006FF0030202EA51010844006A08900B9858
:1016000000F0070081000F2000FA01F108988843DC
:1016100008900C9800690B9901F00701890000FA05
:1016200001F108980843089008980D990B9B02EA6D
:10163000530211440862FFE70D98006808900B9868
:101640004100032000FA01F10898884308900C98A3
:10165000406800F003000B99490000FA01F1089876
:101660000843089008980D9908600C9880798007C5
:10167000002800F00E81FFE7FFE70020079043F607
:101680004400C4F20200016841F480410160006836
:1016900000F4804007900798FFE70B9820F00300C4
:1016A00043F60801C4F20101405808900B9800F07D
:1016B000030081000F2000FA01F108988843089088
:1016C0000D980021C4F20201884203D1FFE70020F7
:1016D00006905EE00D9840F20041C4F2020188429B
:1016E00003D1FFE70120059050E00D9840F600017E
:1016F000C4F20201884203D1FFE70220049042E0D5
:101700000D9840F60041C4F20201884203D1FFE780
:101710000320039034E00D9841F20001C4F202016D
:10172000884203D1FFE70420029026E00D9841F2A1
:101730000041C4F20201884203D1FFE70520019075
:1017400018E00D9841F60001C4F20201884203D16D
:10175000FFE7062000900AE00D9941F60042C4F22E
:1017600002020820914208BF07200090FFE700987E
:101770000190FFE701980290FFE702980390FFE7CE
:1017800003980490FFE704980590FFE705980690FA
:10179000FFE70698C0B20B9901F00301890000FA37
:1017A00001F108980843089008980B9921F003016B
:1017B00043F60802C4F20102885043F60840C4F21E
:1017C00001000068089009990898884308900C98CF
:1017D0008079C006002805D5FFE7099908980843D5
:1017E0000890FFE7089843F60841C4F20101086039
:1017F00043F60C40C4F2010000680890099908986B
:10180000884308900C9880798006002805D5FFE76A
:101810000999089808430890FFE7089843F60C4197
:10182000C4F20101086043F60440C4F201000068FC
:10183000089009990898884308900C988079800747
:10184000002805D5FFE70999089808430890FFE7A5
:10185000089843F60441C4F20101086043F60040D1
:10186000C4F201000068089009990898884308901C
:101870000C988079C00728B1FFE7099908980843B8
:101880000890FFE7089843F60041C4F201010860A0
:10189000FFE7FFE7FFE70B9801300B902FE60EB054
:1018A0007047000040F23860C2F2000000687047E4
:1018B00040F20800C2F20000027840F23861C2F241
:1018C00000010868104408607047000080B543F6C6
:1018D0000041C4F20201086840F400700860086822
:1018E00040F480600860086840F48070086003205D
:1018F00000F08AF80F2000F005F800F03BF8002017
:1019000080BD000080B582B0009040F20000C2F2BD
:101910000000006840F20801C2F200010A784FF4AA
:101920007A71B1FBF2F1B0FBF1F000F0EDFE20B105
:10193000FFE701208DF8070018E000980F280DD868
:10194000FFE700994FF0FF30002200F043F80098C5
:1019500040F20C01C2F20001086003E001208DF8A2
:10196000070003E000208DF80700FFE79DF807005F
:1019700002B080BD82B0FFE70020019043F6440032
:10198000C4F20200016841F480410160006800F483
:10199000804001900198FFE7FFE70020009043F6A8
:1019A0004000C4F20200016841F08051016000680B
:1019B00000F0805000900098FFE702B070470000F0
:1019C00080B582B08DF807009DF9070002F0ECFCAD
:1019D00002B080BD80B586B08DF8170004910392E7
:1019E0000020029002F0F8FC02909DF9170001908F
:1019F00002980499039A01F0DFFA0146019802F077
:101A0000F3FC06B080BD000080B582B00190019863
:101A100002F00CFD02B080BD80B58EB00C900C9829
:101A200020B9FFE701208DF8370012E10C9800681B
:101A30000B900C9890F8950440B9FFE70C990020A2
:101A400081F894040C9800F009F9FFE70C99032041
:101A500081F895040B98B0F1A04F04D1FFE70C99E1
:101A600000208871FFE70C98006802F02FFB0C9BA8
:101A70001868197C8DF8241059689A68DB680893F7
:101A8000079206910699079A089BDDF824C0EE4656
:101A9000CEF800C002F006F940B1FFE70C99022031
:101AA00081F8950401208DF83700D2E00C98006889
:101AB000002102F095FB40B1FFE70C99022081F86C
:101AC000950401208DF83700C3E000208DF82B002D
:101AD000FFE79DF82B000C990979884241DAFFE76E
:101AE0000C989DF82B1001EBC10100EB8101012046
:101AF00048759DF82B000C9900EBC00201EB8201A8
:101B000008759DF82B000C9900EBC00201EB8201D7
:101B1000C8850C989DF82B1001EBC10100EB8101E9
:101B2000002008760C999DF82B2002EBC20201EBF5
:101B30008201C8610C999DF82B2002EBC20201EBD7
:101B4000820108620C999DF82B2002EBC20201EB86
:101B500082014862FFE79DF82B0001308DF82B00D1
:101B6000B7E700208DF82B00FFE79DF82B000C99BC
:101B7000097988423EDAFFE70C989DF82B1001EBBB
:101B8000C10100EB8101002081F855029DF82B1066
:101B90000C9A01EBC10302EB830282F854120C99F8
:101BA0009DF82B2002EBC20201EB820181F8580262
:101BB0000C999DF82B2002EBC20201EB8201C1F8C7
:101BC0005C020C999DF82B2002EBC20201EB820112
:101BD000C1F860020C999DF82B2002EBC20201EBC8
:101BE0008201C1F86402FFE79DF82B0001308DF8F7
:101BF0002B00BAE70C9B1868197C8DF814105968F3
:101C00009A68DB680493039202910299039A049BF9
:101C1000DDF814C0EE46CEF800C002F009F940B17C
:101C2000FFE70C99022081F8950401208DF8370018
:101C30000FE00C990020019048740C99012081F864
:101C400095040C98006802F0DDF801988DF83700D3
:101C5000FFE79DF837000EB080BD000080B588B06A
:101C6000079000200690059004900390029007983A
:101C70000068B0F1A04F3ED1FFE7FFE700200190E0
:101C800043F63000C4F20200016841F00101016036
:101C9000006800F0010001900198FFE74FF4C05088
:101CA00002900220039000200490032005900A2057
:101CB00006900020C4F2020002A9FFF717FCFFE71C
:101CC00043F63401C4F20201086840F08000086065
:101CD000FFE70020009043F64400C4F202000168D0
:101CE00041F480410160006800F480400090009859
:101CF000FFE7FFE7FFE708B080BD000080B584B0D4
:101D000002900191029820B9FFE701208DF80F00A1
:101D100021E1019843F60041C4F20201096801F093
:101D20000701884212D9FFE7019943F60040C4F247
:101D300002000170006800F007000199884204D099
:101D4000FFE701208DF80F0005E1FFE7029800781A
:101D5000800700282AD5FFE702980078400700286E
:101D600009D5FFE743F60801C4F20201086840F410
:101D7000E0500860FFE7029800780007002809D5C6
:101D8000FFE743F60801C4F20201086840F460402E
:101D90000860FFE743F60801C4F20201086820F07A
:101DA000F000029A926810430860FFE702980078FA
:101DB000C00700286ED0FFE702984068012811D1C3
:101DC000FFE743F60000C4F20200006800F40031AF
:101DD0000020B0EB514F04D1FFE701208DF80F0038
:101DE000B9E02CE002984068022805D0FFE702988D
:101DF0004068032811D1FFE743F60000C4F2020057
:101E0000006800F000710020B0EB516F04D1FFE7D3
:101E100001208DF80F009EE010E043F60000C4F2B0
:101E20000200006800F002010020B0EB510F04D165
:101E3000FFE701208DF80F008DE0FFE7FFE743F695
:101E40000801C4F20201086820F00300029A5268F7
:101E500010430860FFF726FD0090FFE743F60800F7
:101E6000C4F20200006800F00C0002994968B0EB6F
:101E7000810F0ED0FFE7FFF715FD0099401A41F2E0
:101E80008931884204D3FFE703208DF80F0062E018
:101E9000E4E7FFE7019843F60041C4F20201096854
:101EA00001F00701884212D2FFE7019943F6004092
:101EB000C4F202000170006800F007000199884236
:101EC00004D0FFE701208DF80F0044E0FFE70298FF
:101ED0000078400700280CD5FFE743F60801C4F25C
:101EE0000201086820F4E050029AD26810430860AA
:101EF000FFE702980078000700280DD5FFE743F6BA
:101F00000801C4F20201086820F46040029A1269D4
:101F100040EAC2000860FFE700F022F843F608013B
:101F2000C4F202010968C9B20A0944F2BA41C0F612
:101F30000001895CC84040F20001C2F20001086063
:101F400040F20C00C2F200000068FFF7DBFC00204A
:101F50008DF80F00FFE79DF80F0004B080BD000072
:101F600080B586B00020059004900390029043F65F
:101F70000800C4F20200006800F00C000146019164
:101F800040B1FFE7019804280AD0FFE7019808282C
:101F90000CD04FE042F20040C0F2F40002904FE05B
:101FA00041F60030C0F2B700029049E043F6040069
:101FB000C4F20200016801F03F010591006840028F
:101FC000002813D5FFE743F60400C4F202000068BE
:101FD000C0F3881041F60031C0F2B701A0FB010147
:101FE000059A0023FEF756F9049012E043F6040028
:101FF000C4F202000068C0F3881042F20041C0F24F
:10200000F401A0FB0101059A0023FEF743F90490B7
:10201000FFE743F60400C4F20200006800F4403118
:10202000022000EBD130039004980399B0FBF1F04B
:10203000029005E042F20040C0F2F4000290FFE797
:10204000029806B080BD000080B586B00490049868
:1020500020B9FFE701208DF8170050E304980078BD
:10206000C007002800F0A580FFE743F60800C4F28F
:102070000200006800F00C00042813D0FFE743F6CC
:102080000800C4F20200006800F00C0008281ED10D
:10209000FFE743F60400C4F2020000684002002893
:1020A00015D5FFE743F60000C4F20200006800F413
:1020B00000310020B0EB514F08D0FFE70498406892
:1020C00020B9FFE701208DF8170018E370E0FFE763
:1020D00004984068B0F5803F09D1FFE743F600015E
:1020E000C4F20201086840F48030086020E00498DF
:1020F0004068B0F5A02F0DD1FFE743F60001C4F210
:102100000201086840F480200860086840F48030CC
:1021100008600CE043F60001C4F20201086820F4F4
:1021200080300860086820F480200860FFE7FFE73F
:10213000FFE704984068E8B1FFE7FFF7B3FB0390BF
:10214000FFE743F60000C4F20200006800F400312B
:102150000020B0EB514F0CD1FFE7FFF7A3FB039931
:10216000401A652804D3FFE703208DF81700C6E264
:10217000E7E71CE0FFF796FB0390FFE743F600005C
:10218000C4F20200006800F400310020B0EB514FAF
:102190000CD0FFE7FFF786FB0399401A652804D3AC
:1021A000FFE703208DF81700A9E2E7E7FFE7FFE765
:1021B000FFE7049800788007002840F19680FFE749
:1021C00043F60800C4F20200006810F00C0F13D0B0
:1021D000FFE743F60800C4F20200006800F00C00BC
:1021E00008282CD1FFE743F60400C4F2020000687F
:1021F0004002002823D4FFE743F60000C4F20200A7
:10220000006800F002010020B0EB510F09D0FFE799
:102210000498C068012804D0FFE701208DF817005A
:102220006DE243F60001C4F20201086820F0F800F4
:10223000049A126940EAC2000860FFE754E004987B
:10224000C06870B3FFE70021C4F247210120086095
:10225000FFF728FB0390FFE743F60000C4F20200FB
:10226000006800F002010020B0EB510F0CD1FFE735
:10227000FFF718FB0399401A032804D3FFE7032054
:102280008DF817003BE2E7E743F60001C4F20201D4
:10229000086820F0F800049A126940EAC200086059
:1022A00021E00021C4F2472100200860FFF7FAFA7C
:1022B0000390FFE743F60000C4F20200006800F05C
:1022C00002010020B0EB510F0CD0FFE7FFF7EAFA54
:1022D0000399401A032804D3FFE703208DF8170061
:1022E0000DE2E7E7FFE7FFE7FFE704980078000764
:1022F00000284BD5FFE70498406918B3FFE740F684
:102300008061C4F2472101200860FFF7CBFA0390F7
:10231000FFE743F67400C4F20200006800F0020117
:102320000020B0EB510F0CD1FFE7FFF7BBFA039988
:10233000401A032804D3FFE703208DF81700DEE1DD
:10234000E7E722E040F68061C4F247210020086000
:10235000FFF7A8FA0390FFE743F67400C4F2020007
:10236000006800F002010020B0EB510F0CD0FFE735
:10237000FFF798FA0399401A032804D3FFE70320D4
:102380008DF81700BBE1E7E7FFE7FFE70498007867
:102390004007002840F1CE80FFE700208DF80700BD
:1023A00043F64000C4F202000068C000002815D4C3
:1023B000FFE7FFE70020009043F64000C4F2020070
:1023C000016841F080510160006800F08050009089
:1023D0000098FFE701208DF80700FFE747F20000B3
:1023E000C4F200000068C005002822D4FFE747F2CD
:1023F0000001C4F20001086840F480700860FFF733
:1024000051FA0390FFE747F20000C4F200000068B1
:10241000C00500280CD4FFE7FFF744FA0399401ADF
:10242000032804D3FFE703208DF8170067E1EAE7EC
:10243000FFE7FFE704988068012809D1FFE743F62A
:102440007001C4F20201086840F0010008601FE05A
:102450000498806805280DD1FFE743F67001C4F2A7
:102460000201086840F004000860086840F00100BC
:1024700008600CE043F67001C4F20201086820F025
:1024800001000860086820F004000860FFE7FFE72B
:10249000FFE704988068F8B1FFE7FFF703FA0390BD
:1024A000FFE743F67000C4F20200006800F002018A
:1024B0000020B0EB510F0ED1FFE7FFF7F3F90399BE
:1024C000401A41F28931884204D3FFE703208DF896
:1024D000170014E1E5E71EE0FFF7E4F90390FFE7DA
:1024E00043F67000C4F20200006800F00201002010
:1024F000B0EB510F0ED0FFE7FFF7D4F90399401A64
:1025000041F28931884204D3FFE703208DF8170098
:10251000F5E0E5E7FFE79DF80700012809D1FFE7AF
:1025200043F64001C4F20201086820F080500860C0
:10253000FFE7FFE704988069002800F0DC80FFE7F0
:1025400043F60800C4F20200006800F00C000828FE
:1025500000F08580FFE70498806902285CD1FFE7DE
:102560006021C4F2472100200860FFF79BF9039027
:10257000FFE743F60000C4F20200006800F00071BB
:102580000020B0EB516F0CD0FFE7FFF78BF90399F8
:10259000401A032804D3FFE703208DF81700AEE0AC
:1025A000E7E70499C869D1F820C04B6A8A6A40EA13
:1025B0000C0040EA8310D2034FF6FF739A43A2F552
:1025C00080321043C96A40EA016043F60401C4F254
:1025D000020108606021C4F2472101200860FFF772
:1025E00061F90390FFE743F60000C4F202000068BF
:1025F00000F000710020B0EB516F0CD1FFE7FFF746
:1026000051F90399401A032804D3FFE703208DF8FA
:10261000170074E0E7E721E06021C4F247210020C1
:102620000860FFF73FF90390FFE743F60000C4F2AC
:102630000200006800F000710020B0EB516F0CD078
:10264000FFE7FFF72FF90399401A032804D3FFE7A8
:1026500003208DF8170052E0E7E7FFE74AE004980F
:102660008069012804D1FFE701208DF8170046E0BA
:1026700043F60400C4F202000068029004988069E6
:10268000012831D0FFE7029800F480000499C9695D
:10269000884229D1FFE7029800F03F000499096AB7
:1026A000884221D1FFE7029847F6C071084004999B
:1026B000496AB0EB811F17D1FFE7029800F4403060
:1026C0000499896AC9034FF6FF729143A1F58031DD
:1026D000884209D1FFE7029800F070600499C96A46
:1026E000B0EB016F04D0FFE701208DF8170006E082
:1026F000FFE7FFE7FFE700208DF81700FFE79DF8F1
:10270000170006B080BD000080B582B0019001982E
:1027100000F0A4FD02B080BD81B0009001B0704710
:1027200081B0009001B0704785B003900291FFE73F
:10273000039890F83C00012804D1FFE702208DF8AF
:1027400013007EE00399012081F83C00FFE7FFE7DA
:102750000399022081F83D000398006840680190C9
:102760000398006880680090019820F07000019044
:10277000029801680198084301900198039909683B
:102780004860039800680021C4F2010188423CD0EF
:10279000FFE703980068B0F1804F36D0FFE7039859
:1027A000006840F20041C4F2000188422DD0FFE7EA
:1027B0000398006840F60001C4F20001884224D06A
:1027C000FFE70398006840F60041C4F20001884228
:1027D0001BD0FFE70398006840F20041C4F20101FA
:1027E000884212D0FFE70398006844F20001C4F267
:1027F0000101884209D0FFE70398006841F6000113
:10280000C4F2000188420ED1FFE7009820F080005A
:10281000009002984168009808430090009803993E
:1028200009688860FFE70399012081F83D00FFE710
:102830000399002081F83C00FFE700208DF8130089
:10284000FFE79DF8130005B07047000080B582B027
:102850000090009820B9FFE701208DF807003FE0C5
:10286000009890F83D0040B9FFE70099002081F8FA
:102870003C00009800F038F8FFE70099022081F84A
:102880003D00009951F8040B00F086FD00990120ED
:1028900081F84600FFE70099012081F83E00009989
:1028A00081F83F00009981F84000009981F84100CB
:1028B000FFE7FFE70099012081F84200009981F8C5
:1028C0004300009981F84400009981F84500FFE732
:1028D0000099012081F83D0000208DF80700FFE7F6
:1028E0009DF8070002B080BD80B584B003900398C6
:1028F0000068B0F1804F1BD1FFE7FFE70020029096
:1029000043F64000C4F20200016841F00101016099
:10291000006800F0010002900298FFE71C2001907F
:1029200000221146FFF756F80198FFF749F8FFE734
:1029300004B080BD83B00190019890F83D0001285B
:1029400004D0FFE701208DF80B006AE00199022016
:1029500081F83D0001980168C86840F00100C86036
:10296000019800680021C4F2010188423CD0FFE7D1
:1029700001980068B0F1804F36D0FFE701980068F9
:1029800040F20041C4F2000188422DD0FFE70198D7
:10299000006840F60001C4F20001884224D0FFE73D
:1029A0000198006840F60041C4F2000188421BD043
:1029B000FFE70198006840F20041C4F2010188423B
:1029C00012D0FFE70198006844F20001C4F201014F
:1029D000884209D0FFE70198006841F60001C4F27F
:1029E0000001884212D1FFE701980068806800F07A
:1029F000070000900098062807D0FFE701980168BB
:102A0000086840F001000860FFE706E001980168EF
:102A1000086840F001000860FFE700208DF80B0017
:102A2000FFE79DF80B0003B07047000080B586B04B
:102A30000490039100208DF80B00FFE7049890F8B4
:102A40003C00012804D1FFE702208DF81700ABE01D
:102A50000499012081F83C00FFE7FFE70499022078
:102A600081F83D000498006880680190019820F08A
:102A700077000190019820F47F400190019804991B
:102A800009688860039800680090002872D0FFE70A
:102A9000009810286ED0FFE7009820286AD0FFE742
:102AA0000098302866D0FFE70098402855D0FFE70F
:102AB0000098502837D0FFE70098602840D0FFE703
:102AC000009870280BD0FFE70098B0F5805F05D024
:102AD000FFE70098B0F5005F16D052E055E004988B
:102AE0000068039B5A689968DB6800F027FD04982A
:102AF000006880680190019840F07700019001988B
:102B000004990968886040E004980068039B5A684B
:102B10009968DB6800F012FD04980168886840F449
:102B20008040886031E004980068039A5168D26858
:102B300000F034FD04980068502100F019FD24E0F5
:102B400004980068039A5168D26800F04FFD049819
:102B50000068602100F00CFD17E004980068039AFB
:102B60005168D26800F01AFD04980068402100F016
:102B7000FFFC0AE0049800680399096800F0F8FC7B
:102B800003E001208DF80B00FFE70499012081F894
:102B90003D00FFE70499002081F83C00FFE79DF825
:102BA0000B008DF81700FFE79DF8170006B080BDF9
:102BB00081B0009001B0704780B584B00390039855
:102BC0000068C068029003980068006901909DF851
:102BD00004008007002824D5FFE79DF8080080073F
:102BE00000281DD5FFE7039801686FF00200086117
:102BF000039901200877039800688069800720B155
:102C0000FFE70398FFF7D4FF06E0039800F0E2F82F
:102C1000039800F0E3F8FFE7039900200877FFE747
:102C2000FFE79DF804004007002825D5FFE79DF841
:102C30000800400700281ED5FFE7039801686FF0E1
:102C400004000861039902200877039800688069EE
:102C500010F4407F04D0FFE70398FFF7A9FF06E0D8
:102C6000039800F0B7F8039800F0B8F8FFE703996D
:102C700000200877FFE7FFE79DF804000007002821
:102C800024D5FFE79DF80800000700281DD5FFE7C1
:102C9000039801686FF00800086103990420087721
:102CA00003980068C069800720B1FFE70398FFF729
:102CB0007FFF06E0039800F08DF8039800F08EF88F
:102CC000FFE7039900200877FFE7FFE79DF804007E
:102CD000C006002825D5FFE79DF80800C00600289B
:102CE0001ED5FFE7039801686FF010000861039993
:102CF0000820087703980068C06910F4407F04D06A
:102D0000FFE70398FFF754FF06E0039800F062F82E
:102D1000039800F063F8FFE7039900200877FFE7C6
:102D2000FFE79DF80400C00778B1FFE79DF80800B1
:102D3000C00748B1FFE7039801686FF00100086120
:102D4000039800F04FF8FFE7FFE79DF80400000646
:102D5000002810D5FFE79DF808000006002809D5D7
:102D6000FFE7039801686FF0800008610398FFF7A0
:102D7000D3FCFFE7FFE79DF804004006002810D5CC
:102D8000FFE79DF808004006002809D5FFE70398F3
:102D900001686FF040000861039800F02BF8FFE72E
:102DA000FFE79DF804008006002810D5FFE79DF896
:102DB00008008006002809D5FFE7039801686FF036
:102DC000200008610398FFF7ABFCFFE7FFE704B0C2
:102DD00080BD000081B0009001B0704781B00090CC
:102DE00001B0704780B582B00190019800F08CFC72
:102DF00002B080BD81B0009001B07047FFE7FEE7F0
:102E000080B582B040F2CC00C2F20000009046F6DD
:102E10000001C4F200010160032141600021019121
:102E20008160C1604FF4102202614FF400124261D0
:102E3000017641768176C17601774177FEF710F908
:102E400018B1FFE7FDF75AFCFFE702B080BD0000B4
:102E500083B0FFE70020029043F63000C4F2020086
:102E6000016841F002010160006800F00200029078
:102E70000298FFE7FFE70020019043F63000C4F21C
:102E80000200016841F001010160006800F00100EA
:102E900001900198FFE7FFE70020009043F6300023
:102EA000C4F20200016841F080010160006800F096
:102EB000800000900098FFE703B0704780B588B0AD
:102EC00000210191079106910591049103910291CE
:102ED00040F2DC50C2F200004FF080420260532208
:102EE0004260816040F2E732C26001618161FFF7B8
:102EF000ADFC18B1FFE7FDF701FCFFE74FF4805090
:102F0000049040F2DC50C2F2000004A9FFF78EFDED
:102F100018B1FFE7FDF7F2FBFFE7002002900390F6
:102F200040F2DC50C2F2000002A9FFF7FDFB18B12D
:102F3000FFE7FDF7E3FBFFE708B080BD80B582B097
:102F400040F2F800C2F2000001904FF0A041016091
:102F5000042101710222C2710021817142728172C9
:102F6000C17201738173C173FEF756FD18B1FFE79B
:102F7000FDF7C4FBFFE702B080BD000081B08DF813
:102F800003009DF80300012810DBFFE79DF8030014
:102F900005280BDCFFE79DF8030040F22461C2F234
:102FA00000010144012001F8010CFFE701B0704766
:102FB000FFE7FEE7FFE7FEE788B00790069105927E
:102FC000079800F0070004900498C0F10700052856
:102FD00003D3FFE70420019004E00498C0F1070048
:102FE0000190FFE70198039004980430062803D865
:102FF000FFE70020009003E0049803380090FFE70B
:103000000098029006980399012202FA01F1013911
:103010000840029B984005999A40013A11400843A4
:1030200008B070477047000080B584B08DF80E007E
:1030300000208DF8080001208DF80700FFE79DF8BB
:103040000700052819DCFFE79DF807009DF80E1022
:1030500088420BD0FFE79DF807009DF80820511C1F
:103060008DF808100DF109018854FFE7FFE79DF87E
:10307000070001308DF80700E1E79DF8080020B94E
:10308000FFE700208DF80F000EE000F0D7F80246B1
:103090009DF80810B2FBF1F000FB11210DF10900C1
:1030A000405C8DF80F00FFE79DF80F0004B080BD75
:1030B00080B582B000208DF801008DF80000FFE798
:1030C0009DF8000004281CDCFFE79DF8001040F28A
:1030D0002460C2F20000405C60B9FFE79DF8000088
:1030E00001309DF80120511C8DF801100DF10201F5
:1030F0008854FFE7FFE79DF8000001308DF80000DD
:10310000DEE79DF8010020B9FFE700208DF80700F9
:103110000EE000F093F802469DF80110B2FBF1F0CA
:1031200000FB11210DF10200405C8DF80700FFE764
:103130009DF8070002B080BD80B584B00390029175
:10314000FDF7B4FA8DF807009DF8070038B9FFE7DE
:1031500000F056F8FDF7AAFA8DF80700FFE7FFF731
:10316000A7FF039908709DF8070002281CDBFFE702
:10317000FFE7FFF79DFF02990870FFE702980178CB
:103180000120009051B1FFE7029800780399097877
:10319000401AB0FA80F040090090FFE70098C0079D
:1031A0000028E6D1FFE706E003980078FFF73CFF30
:1031B00002990870FFE704B080BD000080B58AB0B6
:1031C0000990ADF822100792082005900020039086
:1031D0000490BDF922000190099840F2CC01C2F29E
:1031E000000188420AD1FFE7079A40F2CC00C2F200
:1031F000000001A96B46FDF7AFFAFFE70AB080BDFA
:1032000081B000208DF80300FFE79DF8030004283B
:103210000FDCFFE79DF8032040F22461C2F20001B9
:1032200000208854FFE79DF8030001308DF803006B
:10323000EBE701B0704700007047000040F2040067
:10324000C2F20000016843F2390344F66D62C4F231
:10325000C61201FB023101600068704780B582B080
:10326000009000980138B0F1807F03D3FFE7012080
:10327000019019E0009801384EF21401CEF20001DD
:1032800008604FF0FF300F2101F0AEF84EF2180148
:10329000CEF20001002008604EF21002CEF20002D1
:1032A000072111600190FFE7019802B080BD000086
:1032B00080B5FEF7FDFA80BD80B594B008A8302136
:1032C000FDF760F8002007900690059004900390A9
:1032D000FFE70020029043F64000C4F202000168BC
:1032E00041F080510160006800F080500290029827
:1032F000FFE7FFE70020019047F20000C4F2000062
:10330000016841F480410160006800F48040019050
:103310000198FFE7012008904FF4803009900220C7
:103320000E904FF480010F9106211091A821119168
:1033300012900720139008A8FEF786FE18B1FFE749
:10334000FDF7DCF9FFE70F20039002200490002036
:1033500005904FF4A05006904FF48050079003A8BA
:103360000521FEF7CBFC18B1FFE7FDF7C7F9FFE732
:1033700014B080BD4EF68851CEF20001086840F4CA
:10338000700008607047000080B540F2DC50C2F267
:103390000000FFF711FC80BD83B0029001910298FC
:1033A0000068009002980021C4F20101884225D0F3
:1033B000FFE70298B0F1804F20D0FFE7029840F27B
:1033C0000041C4F20001884218D0FFE7029840F69D
:1033D0000001C4F20001884210D0FFE7029840F6D5
:1033E0000041C4F20001884208D0FFE7029840F291
:1033F0000041C4F2010188420AD1FFE7009820F0A1
:103400007000009001984168009808430090FFE721
:1034100002980021C4F20101884255D0FFE70298CA
:10342000B0F1804F50D0FFE7029840F20041C4F263
:103430000001884248D0FFE7029840F60001C4F23C
:103440000001884240D0FFE7029840F60041C4F2F4
:103450000001884238D0FFE7029840F20041C4F2F0
:103460000101884230D0FFE7029844F20001C4F223
:103470000101884228D0FFE7029844F20041C4F2DB
:103480000101884220D0FFE7029844F60001C4F20F
:103490000101884218D0FFE7029841F60001C4F20A
:1034A0000001884210D0FFE7029841F60041C4F2C3
:1034B0000001884208D0FFE7029842F20001C4F2FE
:1034C000000188420AD1FFE7009820F44070009084
:1034D0000198C168009808430090FFE7009820F029
:1034E0008000019949690843009001988068029919
:1034F000C862019800680299886202980021C4F2AB
:103500000101884208D0FFE7029840F20041C4F26E
:103510000101884205D1FFE701980069029908631B
:10352000FFE70299086840F0040008600299012052
:10353000486100980299086003B0704785B0049014
:10354000039102920193049880680090009820F4FF
:103550007F40009003980299019A41EA02210143B9
:1035600000980843009000980499886005B070475F
:1035700083B002900191029880680090009820F03A
:103580007000009001980099084340F007000090F7
:1035900000980299886003B07047000085B00490DD
:1035A000039102920498006A00900499086A20F03E
:1035B00001000862049880690190019820F0F000F1
:1035C00001900299019840EA01100190009820F0C2
:1035D0000A0000900399009808430090019804990C
:1035E000886100980499086205B0704785B004901E
:1035F000039102920498006A00900499086A20F0EE
:1036000010000862049880690190019820F47040CD
:1036100001900299019840EA01300190009820F051
:10362000A00000900399009840EA011000900198D2
:103630000499886100980499086205B070470000F9
:1036400080B582B040F23461C2F2000100200190E6
:10365000086040F2F401C2F20001087040F2C801B3
:10366000C2F20001086040F23261C2F2000108704B
:1036700040F23361C2F20001087040F2C401C2F2AC
:103680000001087040F22961C2F20001087040F2A6
:10369000C501C2F200010870FFF7B2FDFEF702F9A2
:1036A0007B3040F20401C2F200010860FCF7F4FE36
:1036B000019840F29901C2F200010870FCF770FF16
:1036C000014640F2BC00C2F2000001800088FCF715
:1036D00051FF0199024640F2B800C2F200000260B8
:1036E000006845F2F052904238BF012140F2980044
:1036F000C2F200000170007840F2BF01C2F2000186
:10370000087002B080BD000080B588B007900798AF
:103710000068B0F1804F01D0FFE7E0E100F0E2FD8A
:1037200040F29800C2F20000007898B3FFE740F240
:10373000C500C2F20000007840F2C101C2F20001EF
:10374000087040F23260C2F20000007840F2C2011C
:10375000C2F20001087040F23360C2F2000000784B
:1037600040F2C301C2F20001087040F2C400C2F28C
:103770000000007840F2BE01C2F20001087040F281
:103780002960C2F20000007840F2C001C2F20001DC
:103790000870A4E140F23461C2F20001086801300F
:1037A000086040F2C500C2F20000017840F2C10298
:1037B000C2F20002117040F23261C2F200010978D7
:1037C00040F2C202C2F20002117040F23361C2F252
:1037D0000001097840F2C302C2F20002117040F207
:1037E000C401C2F20001097840F2BE02C2F2000236
:1037F000117040F22961C2F20001097840F2C00262
:10380000C2F20002117000780146069148B1FFE74C
:103810000698012843D0FFE70698022800F0F280BE
:103820004CE1FCF713FE18B1FFE7FFF7E9FCFFE7F7
:1038300040F23260C2F20000049040F23361C2F202
:1038400000010591FFF778FC0498007800F0C6F9B4
:103850000598007800F0C2F940F2C801C2F20001F8
:1038600008680130086040F2F401C2F20001002053
:10387000087040F2C401C2F20001087040F22961F0
:10388000C2F20001087040F23461C2F20001086027
:1038900040F2C501C2F20001012008701FE140F2B0
:1038A000F400C2F20000007840F23261C2F200017E
:1038B000097888420DD0FFE740F2F400C2F2000020
:1038C000007840F23361C2F200010978884270D179
:1038D000FFE740F2F400C2F200000390017840F2EA
:1038E000C400C2F2000001700078FFF747FB0398A4
:1038F000007840F23261C2F200010978884207D1B3
:10390000FFE740F23360C2F200000078029006E068
:1039100040F23260C2F2000000780290FFE70298A5
:1039200040F22961C2F200010870FCF78FFD38B344
:10393000FFE740F23260C2F20000007840F23361EB
:10394000C2F20001097800F031F940F2F401C2F24C
:1039500000010020087040F2C401C2F200010870AA
:1039600040F22961C2F20001087040F23461C2F2F3
:103970000001086040F2C501C2F200010870AEE02B
:1039800040F2C400C2F20000007800F0ABF840F250
:10399000F401C2F200010020087040F23461C2F26A
:1039A0000001086040F2C501C2F200010220087067
:1039B00027E040F23460C2F20000006840F6C41113
:1039C00088421DD3FFE740F23260C2F20000007867
:1039D00040F23361C2F20001097800F0E7F840F2EA
:1039E000F401C2F200010020087040F23461C2F21A
:1039F0000001086040F2C501C2F200010870FFE753
:103A0000FFE76CE040F2F400C2F20000007840F200
:103A10002961C2F200010978884224D1FFE740F20F
:103A20002960C2F2000001900078FFF7A7FA019820
:103A3000007800F057F8019940F2F402C2F2000257
:103A40000020107040F2C402C2F200021070087030
:103A500040F23461C2F20001086040F2C501C2F2D6
:103A60000001087029E040F23460C2F200000068F2
:103A7000B0F57A7F20D3FFE740F22960C2F2000060
:103A80000090007800F02EF8009940F2F402C2F2A3
:103A900000020020107040F2C402C2F20002107056
:103AA000087040F23461C2F20001086040F2C501C2
:103AB000C2F200010870FFE7FFE710E040F2C50125
:103AC000C2F200010020087040F2F401C2F20001CD
:103AD000087040F23461C2F200010860FFE708B0EC
:103AE00080BD000080B582B08DF8070040F29800DC
:103AF000C2F20000007808B1FFE755E040F22A6109
:103B0000C2F200010020486008609DF807000138FB
:103B100001460091042846D80099DFE801F003101F
:103B20001D2A370040F2CC00C2F2000040F22A62A7
:103B3000C2F2000240F20221FFF740FB34E040F203
:103B4000CC00C2F2000040F22A62C2F2000240F24F
:103B50001221FFF733FB27E040F2CC00C2F2000055
:103B600040F22A62C2F2000240F22221FFF726FB55
:103B70001AE040F2CC00C2F2000040F22A62C2F227
:103B8000000240F23221FFF719FB0DE040F2CC00B9
:103B9000C2F2000040F22A62C2F2000240F2422168
:103BA000FFF70CFB00E0FFE702B080BD80B582B0FC
:103BB0008DF807008DF806109DF80700FFF792FFBB
:103BC0009DF806009DF80710884205D0FFE79DF894
:103BD0000600FFF787FFFFE702B080BD80B582B027
:103BE0008DF8070040F29800C2F20000007808B19A
:103BF000FFE755E040F22A61C2F200010020486070
:103C000008609DF80700013801460091042846D855
:103C10000099DFE801F003101D2A370040F2CC00C4
:103C2000C2F2000040F22A62C2F2000240F2012118
:103C3000FFF7C4FA34E040F2CC00C2F2000040F2D8
:103C40002A62C2F2000240F21121FFF7B7FA27E020
:103C500040F2CC00C2F2000040F22A62C2F200023E
:103C600040F22121FFF7AAFA1AE040F2CC00C2F29A
:103C7000000040F22A62C2F2000240F23121FFF756
:103C80009DFA0DE040F2CC00C2F2000040F22A6240
:103C9000C2F2000240F24121FFF790FA00E0FFE794
:103CA00002B080BD80B58AB0DDF830C0CDF814C058
:103CB0000493039202919DF814108DF82410029938
:103CC000039A049B08930792069101909DF81D00AA
:103CD000012823D1FFE70199886B20F480308863A5
:103CE0000199C8684FF6BF72CFF6BD721040C86028
:103CF0000199C86820F44010C8609DF8240001288C
:103D000006D1FFE70199C86840F48010C860FFE75A
:103D1000019800F033F88DF803001AE00199C868A3
:103D200040F04000C860019800F028F88DF80300CA
:103D30009DF8210030B9FFE70199886B40F480308D
:103D4000886305E00199886B20F480308863FFE781
:103D5000FFE79DF81A0001280BD1FFE70199886859
:103D600040F0060088600199886840F02000886073
:103D7000FFE79DF803000AB080BD000083B001900A
:103D800000200090FFE70098013000900098B0F10B
:103D9000706F04D9FFE703208DF80B002EE0FFE7DA
:103DA00001980069C00F0028EDD0FFE70A200090BD
:103DB000FFE7009820B1FFE7009801380090F8E78E
:103DC0000199086940F001000861FFE7009801309F
:103DD00000900098B0F1706F04D9FFE703208DF8D0
:103DE0000B000BE0FFE70198006900F001000128DB
:103DF000ECD0FFE700208DF80B00FFE79DF80B00EB
:103E000003B0704782B00190019800900099D1F8FA
:103E1000000E20F00300C1F8000E0099D1F804084C
:103E200040F00200C1F80408002002B07047000012
:103E300080B58CB0DDF838C0CDF81CC00693059273
:103E400004919DF81C108DF82C100499059A069B7E
:103E50000A9309920891039000208DF80B000399B2
:103E600001910090FFE700980E280CD8FFE7039817
:103E7000009900EB81010020C1F80401FFE70098E0
:103E800001300090EFE79DF82A00B8B9FFE70199EB
:103E9000D1F8040840F00200C1F804080399886BC7
:103EA00040F4001088630399886B20F40020886335
:103EB0000399886B20F4802088630AE00399886B5B
:103EC00020F4001088630399886B40F40020886315
:103ED000FFE701990020C1F8000E9DF82500012898
:103EE0000FD1FFE79DF8230028B9FFE703980021D1
:103EF00000F0E6F904E00398012100F0E1F9FFE7A2
:103F000004E00398032100F0DBF9FFE70398102198
:103F100000F020F920B1FFE701208DF80B00FFE74A
:103F2000039800F0DDF820B1FFE701208DF80B00C9
:103F3000FFE701990020C1F810080199C1F81408A1
:103F40000199C1F81C080090FFE700989DF8201027
:103F500088423BD2FFE70198009900EB4110D0F86E
:103F60000009C00FB0B1FFE7009848B9FFE701981A
:103F7000009900EB41114FF00060C1F8000908E022
:103F80000198009900EB41114FF09040C1F80009F1
:103F9000FFE707E00198009900EB41110020C1F80C
:103FA0000009FFE70198009900EB41110020C1F8DA
:103FB00010090198009900EB41114FF67F30C1F8CC
:103FC0000809FFE7009801300090BEE7002000904C
:103FD000FFE700989DF8201088423BD2FFE7019848
:103FE000009900EB4110D0F8000BC00FB0B1FFE713
:103FF000009848B9FFE70198009900EB41114FF094
:104000000060C1F8000B08E00198009900EB411135
:104010004FF09040C1F8000BFFE707E001980099CE
:1040200000EB41110020C1F8000BFFE70198009957
:1040300000EB41110020C1F8100B0198009900EB32
:1040400041114FF67F30C1F8080BFFE700980130AF
:104050000090BEE70199D1F8100820F48070C1F8F3
:10406000100803990020886103996FF0804048612F
:104070009DF8220030B9FFE70399886940F01000ED
:104080008861FFE70399886943F60002C8F23C02A1
:10409000104388619DF8260030B1FFE703998869D5
:1040A00040F008008861FFE79DF82A00012808D148
:1040B000FFE7039988690422C4F200021043886173
:1040C000FFE79DF80B000CB080BD000081B00090B0
:1040D0000099886820F001008860002001B07047D6
:1040E00083B0019000200090FFE70098013000901D
:1040F0000098B0F1706F04D9FFE703208DF80B0032
:1041000024E0FFE701980069C00F0028EDD0FFE729
:1041100000200090019910200861FFE7009801300D
:1041200000900098B0F1706F04D9FFE703208DF87C
:104130000B000BE0FFE70198006900F01000102869
:10414000ECD0FFE700208DF80B00FFE79DF80B0097
:1041500003B0704784B00290019100200090FFE707
:104160000098013000900098B0F1706F04D9FFE71B
:1041700003208DF80F0026E0FFE702980069C00FCA
:104180000028EDD0FFE7002000900198800120304A
:1041900002990861FFE70098013000900098B0F1A3
:1041A000706F04D9FFE703208DF80F000BE0FFE7E5
:1041B0000298006900F020002028ECD0FFE70020E2
:1041C0008DF80F00FFE79DF80F0004B07047000066
:1041D00081B000900098406900F0010001B0704784
:1041E00080B586B004908DF80F10002002900499DD
:1041F000C86820F0C040C8609DF80F00012823D196
:10420000FFE70499C86840F00050C860FFE70A2043
:10421000FDF74AF902980A300290FFE70498FFF789
:10422000D7FF014600200129019007D0FFE702993E
:104230000020C82938BF01200190FFE70198C0077E
:104240000028E4D1FFE72AE09DF80F0010BBFFE74C
:104250000499C86840F08040C860FFE70A20FDF775
:1042600023F902980A300290FFE70498FFF7B0FFA5
:1042700001460020009039B1FFE702990020C829CB
:1042800038BF01200090FFE70098C0070028E5D163
:10429000FFE703E001208DF817000CE0FFE702982C
:1042A000C82804D1FFE701208DF8170003E00020A3
:1042B0008DF81700FFE79DF8170006B080BD0000DD
:1042C00083B002908DF80710029800909DF80720A7
:1042D0000099D1F800081043C1F80008002003B08D
:1042E0007047000080B540F29902C2F200021078D7
:1042F000411CC8B21170312801D8FFE750E040F2EC
:104300009901C2F2000100200870FCF749F901464A
:1043100040F2BC00C2F2000001800088FCF72AF9DC
:1043200040F2B801C2F20001086040F29800C2F207
:1043300000000078B0B9FFE740F2B800C2F2000018
:10434000006845F2EF5188420CD8FFE740F298012F
:10435000C2F200010120087040F2BF01C2F2000168
:1043600008701DE040F29800C2F200000078B0B181
:10437000FFE740F2B800C2F20000006845F6D9112C
:1043800088420CD3FFE740F29801C2F200010020FE
:10439000087040F2BF01C2F200010870FFE7FFE7BA
:1043A00080BD0000FFE7FEE781B08DF803009DF9B6
:1043B000030000280ED4FFE79DF9031001F01F024F
:1043C000012090404A094EF20011CEF2000141F85E
:1043D0002200FFE701B070474EF60C50CEF200000D
:1043E0000068C0F30220704782B08DF8070000918A
:1043F0009DF9070000280AD4FFE7009800019DF905
:1044000007104EF20042CEF2000288540BE00098F2
:1044100000019DF8071001F00F014EF61452CEF284
:1044200000028854FFE702B07047000083B002909A
:10443000029800F0070000904EF60C51CEF20001F9
:104440000868019001984FF6FF0210400190019812
:10445000009A40EA02200022C0F2FA521043019072
:104460000198086003B0704780B582B000200190C9
:10447000FDF72CFAFEF720FFFEF7EAFCFEF7C0FC82
:10448000FEF75CFDFEF71AFDFCF7E6F8FFF7D8F83B
:1044900040F2DC50C2F20000FEF74CFAFFE7FEE704
:1044A000F1EE100A4FF6FF71C0F2C03120EA0100B0
:1044B00040F04070E1EE100A70470000000000007C
:1044C000000001020304060708090000F044000888
:1044D0000000002010000000EC010008004500086A
:1044E00010000020304600000C0200080000000010
:1044F0000024F40001000000010000001000000092
:040000050800018965
:00000001FF
