:020000040800F2
:1000000058480020B50100087D270008C5210008D8
:1000100079270008BD020008AD2E0008000000008E
:10002000000000000000000000000000792D000822
:100030000903000800000000812700087D2D00084A
:10004000CF010008CF010008CF010008CF01000850
:10005000CF010008CF010008CF010008CF01000840
:10006000CF010008CF010008CF010008C10200083D
:10007000CD020008D9020008CF010008E5020008FF
:10008000F1020008FD020008CF010008CF010008BE
:10009000A12E0008CF010008CF010008CF01000801
:1000A000CF010008CF010008CF010008CF010008F0
:1000B000852D0008CF010008912D0008CF01000810
:1000C000CF010008CF010008CF010008CF010008D0
:1000D000CF010008CF010008CF010008CF010008C0
:1000E000CF010008CF010008CF01000800F002F89E
:1000F00000F050F814A696E8000CB244B344DA4578
:1001000001D100F047F8BAE80F000FA696E83000DA
:10011000A5EB040504EB0607AAEB0704A7F101070A
:100120004FEA15154FEA3414A4F10104AC4201D38F
:1001300000F030F813F0010F18BFFB1A43F0010371
:1001400000F001F8DBE71847704600009046000019
:10015000103A24BF78C878C1FAD8520724BF30C8F3
:1001600030C144BF04680C60704700007047000055
:100170000023002400250026103A28BF78C1FBD8B0
:10018000520728BF30C148BF0B6070471FB51FBD65
:1001900010B510BD00F058F81146FFF7F7FF02F058
:1001A000CBFF00F076F803B4FFF7F2FF03BC00F0DA
:1001B0007DF800000948804709480047FEE7FEE750
:1001C000FEE7FEE7FEE7FEE7FEE7FEE7FEE7FEE707
:1001D00004480549054A064B70470000812D000878
:1001E000ED000008584200205848002058440020E4
:1001F000584400204FF0000200B51346944696463E
:10020000203922BFA0E80C50A0E80C50B1F1200129
:10021000BFF4F7AF090728BFA0E80C5048BF0CC0D7
:100220005DF804EB890028BF40F8042B08BF704735
:1002300048BF20F8022B11F0804F18BF00F8012BA7
:100240007047704770477047754600F02BF8AE4610
:1002500005006946534620F00700854618B020B5D2
:10026000FFF7B6FFBDE820404FF000064FF0000753
:100270004FF000084FF0000BAC46ACE8C009ACE80A
:10028000C009ACE8C009ACE8C00921F007018D46FF
:10029000704710B50446AFF300802046BDE810401B
:1002A000FFF781BF00487047100000200149182067
:1002B000ABBEFEE72600020070470000FEE700002C
:1002C00044F26400C2F2000000F08EBA44F2301032
:1002D000C2F2000000F088BA44F2EC00C2F2000062
:1002E00000F082BA43F6DC70C2F2000000F07CBA83
:1002F00044F2A800C2F2000000F076BA44F22000F6
:10030000C2F2000000F070BA70470000EFF31080F6
:1003100072B600BFFEE7000070470000B0B590F86D
:100320002040013C012C7DD8D0F800C000290CBF32
:10033000DCF80C40DCF81040A4077DD00CF5D87533
:100340004FEA011C55F80C4014F00404946055F871
:100350000CE005EB011C19BF4FEADE0555604FEAC2
:100360005E551560DCF80050E64605F00205D560E4
:100370005EF8044F24075ABFDEF8004004F00F0473
:1003800008241461DEF800400029C4F307249461B6
:10039000DEF800504FEA15455561DCF808201A7068
:1003A000026802EB0112D2F8B8214FEA12225A7009
:1003B000026802EB0112D2F8B8214FEA12429A7099
:1003C000026802EB0112D2F8B8214FEA1262DA7029
:1003D000026802EB0112D2F8BC211A71026802EB2A
:1003E0000112D2F8BC214FEA12225A71026802EBC4
:1003F0000112D2F8BC214FEA12429A71026802EB54
:100400000112D2F8BC214FEA1262DA7100680CBF07
:1004100000F10C0100F11001002020220B681A43AA
:100420000A60B0BD00F1240101204FF480220B6866
:100430001A430A60B0BD00BF00F1240101204FF44F
:1004400000120B681A430A60B0BD00002DE9F04F9E
:1004500081B0044600684669D0F804908768D0F8F7
:100460000CB0D0F810A0D0F81880F10704D1002506
:1004700030071DD424E000BFF90710D00121BA07CE
:10048000816009D4780700F1AF80380700F1B680A9
:10049000204600F03FF902E0204600F03DF900253B
:1004A000F80500F18780F80300F1B180300707D527
:1004B0001BF0100004D0206845F400751021C160C5
:1004C000700708D51BF0080005D020680821C1601E
:1004D000204600F0EBF8B00706D52068C06880071A
:1004E00002D0204600F0E4F8700607D51AF010009C
:1004F00004D0206845F4806510210161B00608D55C
:100500001AF0080005D0206808210161204600F09B
:10051000FBF8F00606D520680069800702D0204667
:1005200000F0F4F8B00308D519F0100005D02068E9
:1005300010214160204600F0EBF8F00308D519F0D7
:10054000080005D0206808214160204600F0EEF840
:10055000300440F19B805FEA497040F1948006F4DA
:10056000807008EA102028435FEA8871014648BF7E
:1005700041F00201B20558BF01465FEA48700D46DE
:1005800048BF45F00405700558BF0D46300540F1E1
:100590007A8018F0700000F0768010380009052885
:1005A0006CD8DFE800F003655D61596945F0080526
:1005B00064E000BF20684FF48071BA0581600BD4FD
:1005C000780515D438051DD4204600F0A7F8F803A7
:1005D0007FF56CAF1BE000BF204600F0A1F8F803E8
:1005E0007FF564AF13E000BF4FF4006558E700BF2C
:1005F00005F50055F8037FF559AF08E04FF4805535
:100600004EE700BF05F58045F8037FF54FAF206842
:100610004FF48031BA0381600AD4780310D43803D0
:1006200014D4204600F07EF830073FF541AF47E78D
:10063000204600F079F830073FF53AAF40E700BFB9
:1006400005F5004530073FF533AF39E705F580354F
:1006500030073FF52DAF33E745F080050EE000BFD2
:1006600045F020050AE000BF45F0400506E000BF68
:1006700045F0100502E000BF45F4807520688169EF
:1006800021F07001816120680421416055B1606AE8
:1006900040EA05012046616201B0BDE8F04FFFF776
:1006A0003BBE00BF01B0BDE8F08F00007047000006
:1006B000B0B540F28005C2F20005044600202B468A
:1006C00043F8080F586003F1080220460021FFF7A5
:1006D00025FE206846F20041C4F20001884201D0A4
:1006E000B0BD00BF286940F24121884208D040F2E5
:1006F0004221884218BFB0BD00202870B0BD00BFA5
:1007000001202870B0BD0000704700007047000055
:1007100070470000704700007047000070470000FD
:1007200070470000704700007047000070470000ED
:1007300090F82110022923D1026840F2040C1168BC
:10074000C4F2020C21F00E01116013682F21C4F2D3
:1007500002018A4223F00103136015DD3023C4F245
:1007600002039A421CD04423C4F202039A421BD0D3
:100770005823C4F202039A421CD14FF4803321E083
:1007800004218163012070470823C4F202039A42C6
:100790000ED01C23C4F202039A420BD1102311E0A5
:1007A0004FF480730EE000BF4FF480530AE000BFA7
:1007B000012307E00CF168014FF080738A4208BF03
:1007C0004FF480130121CCF8003080F82110416BE8
:1007D0000022002980F8202004BF0020704780B547
:1007E0008847002080BD000010B5D0E90FCE016819
:1007F000DCF800300A6823FA0EF35C072AD512F001
:10080000040427D00A68920603D40A6822F004027E
:100810000A602F22C4F20202914240F20402C4F2A2
:1008200002025BDD3023C4F20203994272D04423FA
:10083000C4F20203994273D05823C4F202039942CE
:1008400040F07A804FF480231360C16A002940F0A1
:1008500098806FE09C0727D512F0020424D00A6824
:10086000920606D40A6822F00A020A60012280F881
:1008700021202F22C4F20202914240F20402C4F26B
:1008800002023BDD3023C4F20203994260D04423CC
:10089000C4F2020399425FD05823C4F20203994282
:1008A00060D14FF4003365E01B0743D512F0080216
:1008B00008BF10BD0A6822F00E020A60012101FA89
:1008C0000EF2CCF80420816380F82110016B002225
:1008D000002980F8202054D12CE000BF0823C4F266
:1008E0000203994222D01C23C4F20203994223D16D
:1008F00040231360C16A002943D11BE00823C4F2DE
:10090000020399422CD01C23C4F20203994229D13C
:1009100020232FE04FF480631360C16A89BB09E094
:100920004FF480431360C16A59BB03E00423136092
:10093000C16A31BB10BD00BF02F168044FF0806393
:10094000A14208BF4FF480031360C16AC9B9F1E73F
:100950004FF400730EE000BF4FF400530AE000BFF5
:10096000022307E002F168044FF00073A14208BFC0
:100970004FF400131360816A0022002980F82020C0
:10098000D8D0BDE810400847014600284FF00100CC
:1009900008BF70472DE9F043D1F800C04FF6F87357
:1009A000CBF6FD734CF6CD426344CCF6CC42A3FBB0
:1009B00002236FF0030202EA93020023C4F202034F
:1009C00001F10C08C1E90F320222D1E9019E98E839
:1009D000F00181F82120DCF8002043F6F0739A43FF
:1009E00042EA090242EA0E0222432A4332433A43D0
:1009F00042EA0802CCF8002000228A6381F8210034
:100A000081F820200020BDE8F043704790F820C016
:100A1000BCF1010F04BF02207047F0B54FF0010E8A
:100A200080F820E090F821C0BCF1010F26D14FF0F2
:100A3000020C80F821C04FF0000CC0F838C0D0E99B
:100A400000C4C56AC66BDCF80070102C27F00107E3
:100A5000CCF80070006C0EFA00F070600846CCF81C
:100A6000043004BF10460A46CCF80800CCF80C202D
:100A7000DCF8000045B140F00E000DE0002180F8E8
:100A800020100220F0BD00BF20F00400CCF80000D0
:100A9000DCF8000040F00A00CCF80000DCF80000B0
:100AA00040F00100CCF800000020F0BDB0B50446D5
:100AB00000F01EF9054640F20000C2F20000007886
:100AC000611C18BF044400BF00F012F9401BA04293
:100AD000FAD3B0BD2DE9F04F82B00E68002E00F0C1
:100AE000FD8041F20042C4F20102042340F2004EB4
:100AF000904208BF03234FF6FF7CC4F2010E00931F
:100B000000240123C1F2100C4FF0000A4FF000093D
:100B10004BE000BF41F20002C4F20102009F90428C
:100B200008BF022704F00C030F229A402BEA0202AE
:100B300007FA03F34FEA9A051A4346F825204E6850
:100B400040F20C45F202DEF8082054BF22EA080207
:100B500042EA0802C4F20105CEF808202A68B3026E
:100B600054BF22EA080242EA08022A60B303DEF810
:100B7000042054BF22EA080242EA0802F303CEF836
:100B80000420DEF800204FF0010354BF22EA0802DF
:100B900042EA0802CEF800200E680AF1010A36FA8D
:100BA0000AF204F1040400F0998003FA0AFB16EA41
:100BB0000B08F1D04E68664512DC122E56D8DFE8DD
:100BC00006F0350B4D495555555555555555555507
:100BD00055555545510000BFD1F80C9046E000BF77
:100BE0004FF6FF72C1F2210296420FDC0022C1F2E1
:100BF000110296421AD00022C1F21202964215D07A
:100C00000022C1F22102964210D02FE00022C1F250
:100C1000220296420AD00022C1F23102964205D049
:100C20000022C1F23202964220D100BF8A684AB146
:100C3000012A14BFC0F814B0C0F810B04FF0080972
:100C400014E000BF4FF0040910E000BFCA6802F1D1
:100C500004090BE04FF0000908E000BFCA6802F188
:100C6000080903E0CA6802F10C0900BF02462646E3
:100C7000B8F5807F24BF0432203E17680F25B540A9
:100C800027EA050509FA06F635431560CA79D20642
:100C90007FF582AF41F21803C4F202031A68AEF581
:100CA0007E7642F001021A601A6802F00102019297
:100CB000019A2AF0030256F802B040F60002C4F28C
:100CC0000102904208D040F60042C4F20102904274
:100CD0007FF420AF012725E7002723E702B0BDE816
:100CE000F08F00008068084018BF012070470000A6
:100CF00044F25020C2F200000068704740F2000049
:100D000044F25021C2F20000C2F2000100780A68E9
:100D1000104408607047000080B542F20000C4F241
:100D20000200016841F010010160032000F08CF81E
:100D30000F2000F005F800F027F8002080BD00002B
:100D400070B540F20006C2F2000640F208013278A7
:100D5000C2F200014FF47A730968B3FBF2F2044661
:100D6000B1FBF2F1084600F05DFB0F2C4FF00105DE
:100D700008D838B94FF0FF3021460022002500F096
:100D800037F87460284670BD82B041F21800C4F292
:100D900002000168022241F001010160016801F0D6
:100DA000010101910199416841F080514160406821
:100DB00000F08050009000980420C4F20100016807
:100DC00062F31A61016002B070470000002848BF5A
:100DD000704700F01F01012202FA01F11C2202EA11
:100DE000D0004EF20012CEF2000281507047000097
:100DF00010B54EF60C5CCEF2000CDCF80030C3F3FC
:100E0000022E8EF00704042C28BF0424BEF1030335
:100E10004FF0FF3E0EFA04F438BF0023A14399407F
:100E20000EFA03F39A43114300F00F0200F16043FE
:100E30000901043A03F564436244002848BF02F103
:100E40000C03197010BD00004EF60C51CEF20001DB
:100E50000A684FF6FF031A4060F30A2242F08060EE
:100E600040F0FD7008607047002804BF0120704703
:100E70002DE9F04381B042F20008C4F202080446B2
:100E8000D8F800000D4600F0070081420CD9D8F8D0
:100E9000000020F007002843C8F80000D8F8000040
:100EA00000F00700A8426CD1206841F204098107D4
:100EB000C4F2020917D5410705D5D9F8001041F44D
:100EC000E061C9F80010010705D5D9F8001041F418
:100ED0006051C9F80010D9F80010A26821F0F001A3
:100EE0001143C9F80010C00742D1D8F8000000F043
:100EF000070085420CD2D8F8000020F007002843F4
:100F0000C8F80000D8F8000000F00700A84238D167
:100F10002068410707D5D9F80010E26821F4E061A4
:100F20001143C9F80010000708D5D9F8000021695D
:100F300020F4605040EAC100C9F80000D9F8002050
:100F400002F00C00082841F20020C0F27A004DD1D6
:100F500044F2D653C2F38341C0F60003595CD20376
:100F600038D440F60010C0F23D0048433EE000BFD8
:100F7000606859F8041C022808D0012826D189038A
:100F800006D4012001B0BDE8F08300BF8901F8D587
:100F9000D9F8001021F003010843C9F80000FFF759
:100FA000A7FE064641F28837D9F80000616800F0D4
:100FB0000C00B0EB810F98D0FFF79AFE801BB8426F
:100FC000F2D9032001B0BDE8F08300BF8907D8D56E
:100FD000DEE700BFD9F8002044F2D453C2F3404208
:100FE000C0F600039A5C4843B0FBF2F0D9F8001059
:100FF00044F2C452C1F30311C0F60002515C40F246
:10100000080220FA01F140F20400C2F20000006878
:10101000C2F200021160FFF793FE002001B0BDE8AC
:10102000F0830000002804BF012070472DE9F04143
:1010300082B00446007841F20006C007C4F20206FE
:101040000CD0706800F00C00042840F081803068FB
:10105000800303D56068002800F04681207880076F
:101060001BD5706810F00C0F09D0706800F00C00F0
:10107000082840F087807068C00300F183803068E2
:10108000800703D52069012840F02E81306861690E
:1010900020F0F80040EAC10030602078000713D447
:1010A000207840072CD4E569002D00F01881706885
:1010B00000F00C00082840F0A780012D40F00481CA
:1010C000012002B0BDE8F081A069002800F0848012
:1010D0000020C4F242200121C0F88014FFF708FE6E
:1010E000054600BF706A800700F1B280FFF700FE7E
:1010F000401B0228F6D9032002B0BDE8F08100BFF2
:10110000F0695FEAC00808D4F06940F08050F061EF
:10111000F06900F080500090009847F20007C4F298
:1011200000073868C00549D4386840F480703860DA
:10113000FFF7DEFD054600BF3868C0053ED4FFF767
:10114000D7FD401B6428F7D9032002B0BDE8F08129
:10115000706800F00C00082803D17068C0033FF5E8
:1011600076AF61683068002900F00C81B1F5A02FDE
:1011700000F00081B1F5803F40F01A8140F48030EA
:101180001CE100BF2069002840F20000C4F24220A8
:1011900000F0888001210160FFF7AAFD054600BF2D
:1011A000306880073FF572AFFFF7A2FD401B0228B1
:1011B000F6D9032002B0BDE8F08100BFE168306AD3
:1011C000002900F09D80052900F09280012940F05F
:1011D000AF8040F00100B1E00020C4F242200021C5
:1011E000C0F88014FFF784FD054600BF706A8007D1
:1011F0007FF556AFFFF77CFD401B0228F6D9032090
:1012000002B0BDE8F08100BF0027C4F242270020F1
:101210003866FFF76DFD022D05460DD1306880015F
:1012200040F1DE80FFF764FD401B02284FF0030011
:10123000F4D902B0BDE8F081306880014FD5FFF7E6
:1012400057FD401B02284FF00300F5D9F1E700BF1E
:1012500040F20800C2F20000006844F6D351C1F227
:101260006201A0FB0101480A019000BF00BF019884
:10127000411E002801913FF413AF00BF0198411EA9
:10128000002801913FF40CAF00BF0198411E0028D7
:1012900001913FF405AF00BF0198411E0028019164
:1012A000E4D1FDE600210160FFF722FD054600BF05
:1012B000306880077FF5F1AEFFF71AFD401B02286A
:1012C0004FF00300F4D9B4E77068216A00F480326B
:1012D0008A4209D1616A00F47010884204D100206A
:1012E00002B0BDE8F08100BF012002B0BDE8F0818E
:1012F00040F004003062306A40F001001EE000BFA0
:1013000020F001003062306A20F004003062FFF704
:10131000EFFC054641F28837306A800720D5FFF799
:10132000E7FC401BB8424FF00300F5D981E700BF4E
:1013300020F001003062306A20F004003062FFF7D4
:10134000D7FC054641F28837306A800708D4FFF79A
:10135000CFFC401BB842F7D9032002B0BDE8F081B2
:10136000B8F1000F3FF59FAEF06920F08050F061BA
:1013700099E600BF40F480203060306840F480304F
:101380001CE000BF20F480303060306820F4802002
:101390003060FFF7ADFC0546306880037FF55EAE38
:1013A000FFF7A6FC401B64284FF00300F4D940E788
:1013B00020F480303060306820F480203060FFF707
:1013C00097FC0546306880033FF548AEFFF790FC78
:1013D000401B6428F6D9032002B0BDE8F08100BFAD
:1013E000206AB0F5803F05D17168A26821F4003110
:1013F000114371607168626A21F4741111430843EA
:10140000706001203866FFF773FC04463068800185
:101410003FF565AFFFF76CFC001B02284FF003009F
:10142000F4D906E7411E0020B0EB116F1CBF01206C
:1014300070474EF21002CEF2000251604EF6235178
:10144000CEF20001F0230B7007219060116070470D
:10145000704700007047000090F83C20012A4FF0D0
:10146000020236D010B580F83D200268D2F804E0C0
:10147000D2F808C00C682EF07003234340F2FF74CA
:10148000C4F20004A24253600ADCB2F1804F13D0D0
:1014900040F20043C4F200039A420DD011E000BFB5
:1014A00042F60043C4F201039A4205D040F600031D
:1014B000C4F200039A4204D149682CF08003194316
:1014C00091600121002280F83D1080F83C20BDE8A9
:1014D0001040104670470000002804BF01207047EC
:1014E00010B590F83D1031B9002180F83C10044649
:1014F00000F070F82046022180F83D10016840F2AB
:10150000FF740B68C4F2000442F6004CA142C4F21E
:10151000010C15DCB1F1804F1AD040F20042C4F248
:101520000002914214D0A14218DCB1F1804F1DD0CD
:1015300040F20042C4F20002914217D01AE000BF0C
:10154000614505D040F60002C4F200029142EAD1A2
:10155000826823F070031343A142E6DD614505D0A4
:1015600040F60002C4F20002914203D1026923F462
:1015700040731343846923F08002D0F804E0C36809
:10158000224361450A60CB62C1F828E002D142697A
:10159000CCF8302001224A610B69DB0703D00B69CC
:1015A00023F001030B6180F8462080F83E2080F88C
:1015B0003F2080F8402080F8412080F8422080F8C9
:1015C000432080F8442080F8452080F83D2000200A
:1015D00010BD00002DE9F04F83B00446006840F6CE
:1015E0000001C4F20001884200F0D08040F20041C6
:1015F000C4F2000188426BD0B0F1804F40F0C3804C
:1016000041F21C00C4F20200016840F2080841F0F7
:10161000010101600068C4F2020800F001000290BC
:10162000029843F6DC7508F15000C2F2000510265E
:1016300000274FF080094FF4807A4FF4806B85E8E3
:10164000C10E2846C5E90677FFF79EF9002818BFA6
:10165000FEF75CFE65626C6244F26405C2F200054E
:1016600005F1080080E8800E2846C5E90086C5E936
:101670000677FFF789F9002818BFFEF747FEE562F5
:101680006C6244F2200508F17800C2F200051021D6
:10169000002280234FF480774FF4806685E88F0026
:1016A0002846C5E90562EA61FFF76EF9002818BF10
:1016B000FEF72CFE1C2000210022A56225636C622F
:1016C000FFF796FB1C2003B0BDE8F04FFFF77EBB91
:1016D00041F21C00C4F20200016840F2080841F027
:1016E000020101600068C4F2020800F002000190EB
:1016F000019844F2A80508F16400C2F20005102622
:1017000000274FF080094FF4807A4FF4806B85E812
:10171000C10E2846C5E90677FFF736F9002818BF3D
:10172000FEF7F4FD6562A5636C6244F2EC0508F116
:101730002800C2F2000585E8C10E2846C5E90677F3
:10174000FFF722F9002818BFFEF7E0FDA5626C62E2
:1017500044F2301508F11400C2F2000510210022F5
:1017600080234FF480774FF4806685E88F00284609
:10177000C5E90562EA61FFF707F9002818BFFEF71F
:10178000C5FDE5626C6203B0BDE8F08F41F21C005C
:10179000C4F202000168002241F004010160006807
:1017A000012100F00400009000981E20FFF720FBAC
:1017B0001E2003B0BDE8F04FFFF708BB90F83D10C6
:1017C00001291CBF01207047022180F83D100068EC
:1017D00040F2FF72C168C4F20002904241F0010180
:1017E000C16009DCB0F1804F12D040F20041C4F278
:1017F000000188420CD012E042F60041C4F201011F
:10180000884205D040F60001C4F20001884206D1AA
:10181000816801F00701062904BF002070470168B4
:1018200041F00101016000207047000090F83C2069
:10183000012A4FF002026CD080B580F83D20D0F82C
:1018400000C04FF67772DCF8083023EA0202CCF8C9
:1018500008200B684F2B29DC1F2B45DD202B46D0A1
:10186000302B44D0402B40F0AF80D1F804E0C96861
:10187000DCF82030DCF8202022F00102CCF8202017
:10188000DCF8182022F0F00242EA011123F00A02EB
:1018900042EA0E02CCF81810CCF82020DCF8081030
:1018A00041F0470121F0300128E000BF6F2B33DD0C
:1018B000B3F5005F74D0B3F5805F21D0702B40F09A
:1018C0008380D1E901E3C968DCF8082043EA0E030C
:1018D00022F47F4243EA01211143CCF80810DCF8DE
:1018E000081041F0770109E00BB1102B6CD1DCF846
:1018F000081021F07001194341F00701CCF80810DD
:101900000022012180F83D10002180F83C10BDE844
:1019100080401046704700BF502B21D0602B53D120
:10192000D1F804E0C968DCF82030DCF8202022F08F
:101930001002CCF82020DCF8182022F4704242EA91
:10194000013123F0A00242EA0E12CCF81810CCF8B4
:101950002020DCF8081041F0670121F01001CDE7EC
:10196000D1F804E0C968DCF82030DCF8202022F04F
:101970000102CCF82020DCF8182022F0F00242EA24
:10198000011123F00A0242EA0E02CCF81810CCF83A
:101990002020DCF8081041F0570121F02001ADE7CC
:1019A000D1E901E3C968DCF8082043EA0E0322F418
:1019B0007F4243EA01211143CCF80810DCF80810FB
:1019C00041F480419AE700BF01229AE77047000086
:1019D0007047000070B504460068C5680669B10725
:1019E00016D515F0020113D06FF00201016101213B
:1019F00021778069800703D02046FFF7E9FF05E0E3
:101A0000204600F08FF8204600F010FA00202077E2
:101A1000700719D515F0040016D020686FF0040186
:101A2000016102212177806910F4407F04D02046B3
:101A3000FFF7CEFF06E000BF204600F073F8204617
:101A400000F0F4F900202077300717D515F00800D2
:101A500014D020686FF00801016104212177C0696A
:101A6000800703D02046FFF7B3FF05E0204600F0D3
:101A700059F8204600F0DAF900202077F00619D551
:101A800015F0100016D020686FF0100101610821D8
:101A90002177C06910F4407F04D02046FFF798FFFB
:101AA00006E000BF204600F03DF8204600F0BEF9F9
:101AB00000202077F00718BF15F0010002D1300692
:101AC00009D412E020686FF001010161204600F0A6
:101AD0006DFB300609D515F0800006D020686FF048
:101AE000800101612046FFF7B3FC700609D515F0AF
:101AF000400006D020686FF040010161204600F0F0
:101B00005FFBB00658BF70BD15F0200008D02168FB
:101B10006FF0200220460A61BDE87040FFF79ABCD2
:101B200070BD00007047000090F83C30012B04BFEE
:101B3000022070474FEAB202032A00F2F1802DE939
:101B4000F043DFE802F003A53B7500BF036842F6EF
:101B500000461D6A1A6AC4F2010622F001021A62E6
:101B60001A465C6852F818CFB3428E68D1F800E08C
:101B700025F0020545EA06050CD1CE68D1E90578C5
:101B800024F4407425F00C0526F004063C4335434C
:101B900044EA08042CF0730747EA0E075C609F6173
:101BA0004F6809695F631D629F6947F008079F617D
:101BB0009F6927F004079F61A6E000BF036842F613
:101BC00000461D6A1A6AC4F2010622F480721A6283
:101BD0001A46D3F804C052F81CEFB3428E680C6862
:101BE00025F4007545EA06250FD1CE68D1E90598A0
:101BF000360240F2FF4725F44065BE4335432CF4DE
:101C0000405748EA090647EA061C2EF073072743A7
:101C1000C3F804C0DF614F680969DF631D62DF69D3
:101C200047F00807DF61DF6927F00407DF616BE039
:101C3000036842F60047D3F820C01A6AC4F20107CD
:101C400022F480521A621A465C6852F81C5FD1F87E
:101C500000E08E68BB4204D14F6924F4804444EA1A
:101C600087142CF4005747EA063725F4E64646EA7F
:101C70000E265C60DE614E6809691E641F62DF69C2
:101C800047F40067DF61DF6927F48067DF613AE0CE
:101C9000036842F600461D6A1A6AC4F2010622F081
:101CA00010021A621A46D3F804C052F8184FB34211
:101CB0008E68D1F800E025F0200545EA06150FD121
:101CC000CE68D1E905986FF0400725F0C00507EA16
:101CD000061635432CF4406748EA090647EA860CA5
:101CE00024F4E64444EA0E27C3F804C09F614F6819
:101CF00009699F631D629F6947F400679F619F693F
:101D000027F480679F61090213681943116000215D
:101D1000BDE8F043002280F83C200846704700BF31
:101D20000121002280F83C2008467047002804BFAB
:101D30000120704710B590F83D1031B9002180F8AE
:101D40003C10044600F070F82046022180F83D1057
:101D5000016840F2FF740B68C4F2000442F6004CC4
:101D6000A142C4F2010C15DCB1F1804F1AD040F24F
:101D70000042C4F20002914214D0A14218DCB1F139
:101D8000804F1DD040F20042C4F20002914217D0B1
:101D90001AE000BF614505D040F60002C4F200021F
:101DA0009142EAD1826823F070031343A142E6DD39
:101DB000614505D040F60002C4F20002914203D111
:101DC000026923F440731343846923F08002D0F83E
:101DD00004E0C368224361450A60CB62C1F828E091
:101DE00002D14269CCF8302001224A610B69DB073D
:101DF00003D00B6923F001030B6180F8462080F8C3
:101E00003E2080F83F2080F8402080F8412080F874
:101E1000422080F8432080F8442080F8452080F854
:101E20003D20002010BD00007047000080B5016813
:101E300040F20042C4F2000291420FD0B1F1804F53
:101E400039D1007F042823D0022815D0012832D1AF
:101E500044F27410C2F20000002124E0007F042844
:101E60001CD002280ED0012818BF80BD44F2BC103F
:101E7000C2F20000002116E044F27410C2F2000029
:101E8000042110E044F2BC10C2F2000004210AE078
:101E900044F27410C2F2000004E000BF44F2BC102F
:101EA000C2F20000082100F025F944F24C20C2F2F1
:101EB00000000021017080BD7047000070B5B9B10D
:101EC0004125082908BF4025042908BF3F25455D55
:101ED000022D04BF022070BD08291BD0042914BFA5
:101EE00000F1410500F13F052D78012D0AD016E0E3
:101EF000054615F83E4F022C04BF022070BD2D7818
:101F0000012D0CD1002A4FF0010C18BF002B09D174
:101F1000604670BD00F140052D78012DF2D0012002
:101F200070BD00BF022569B1082913D0042914BF70
:101F300080F8415080F83F504FEAB105032D0FD98A
:101F4000E6E700BF80F83E504FEAB105032D07D900
:101F5000DEE700BF80F840504FEAB105032DD7D827
:101F60000E46DFE805F00365234300BF456A42F6ED
:101F70009D54C0F60004AC62456A42F60964C0F69E
:101F80000004EC62456A42F641640168C0F6000450
:101F90002C630546406A01F1340C11466246FEF797
:101FA00035FD0028BBD14FF4007161E0C56A42F6EF
:101FB0009D54C0F60004AC62C56A42F60964C0F6DE
:101FC0000004EC62C56A42F641640168C0F6000490
:101FD0002C630546C06A01F13C0C11466246FEF7CF
:101FE00015FD00289BD14FF4006141E0056B42F6DE
:101FF0009D54C0F60004AC62056B42F60964C0F65D
:102000000004EC62056B42F641640168C0F600040E
:102010002C630546006B01F1400C11466246FEF749
:10202000F5FC00287FF47BAF4FF4805120E000BF27
:10203000856A42F69D54C0F60004AC62856A42F699
:102040000964C0F60004EC62856A42F641640168E6
:10205000C0F600042C630546806A01F1380C114675
:102060006246FEF7D3FC00287FF459AF4FF480613D
:102070002868C2681143C16006F01F010122036A8B
:102080008A4023EA02010162036A42F64441C4F233
:1020900001011A43A1F144039842026203D10A6884
:1020A00042F400420A6040F2FF71C4F2000188422B
:1020B00006DCB0F1804F0FD040F2004108E000BFD5
:1020C00042F60041C4F20101884205D040F6000109
:1020D000C4F20001884204D1816801F00701062999
:1020E00003D0016841F0010101604FF0000C60462F
:1020F00070BD0000F0B581B004464FEAB10003287E
:102100004FF001064FD80D4644F208612268C0F630
:10211000000151F82010D36804EB80001940D16011
:10212000406A42F60047C4F20107FEF701FB20684F
:1021300005F01F01026A06FA01F122EA01010162BB
:10214000016AB84201620DD1396A41F2111211429D
:1021500008D1016A40F24442114203D1416C21F49A
:1021600000414164016A41F21112114208D1016A31
:1021700040F24442114203D1016821F001010160A3
:102180000120082D0CD0042D06D0002D14BF84F89A
:10219000410084F83E0005E084F83F0002E000BF03
:1021A00084F840000026304601B0F0BD006840F6DB
:1021B0000001C4F20001884218BF704700F004B863
:1021C00070470000FEE700002DE9F04140F2700684
:1021D000C2F200063079002818BFBDE8F08140F651
:1021E0000044C4F2010420464FF480614FF480653E
:1021F000FEF778FD44F218670028C0F600074ED0BD
:1022000020464FF400614FF40065FEF76BFD002897
:102210003ED020464FF480514FF48055FEF762FDCA
:10222000C0B320464FF400514FF40055FEF75AFD5D
:1022300090B320464FF480414FF48045FEF752FDA5
:1022400060B3A4F58068404608210825FEF74AFDE2
:10225000C0B3404610211025FEF744FDB0B3204620
:1022600040214025FEF73EFDA0B320468021802579
:10227000FEF738FD80B320464FF400414FF400458F
:10228000FEF730FD50B300210020002513E000BF11
:10229000083704E0103702E0183700E0203702204A
:1022A0003178BA79914206D07270F0703581F16858
:1022B0000131F16011463170B070F5803171BDE8C7
:1022C000F08100BF28370120EAE700BF3037012046
:1022D000E6E700BF3837E2E74037E0E74837DEE7B8
:1022E00080B582B041F21400C4F2020001680022FD
:1022F00041F0010101600068002100F0010001903F
:1023000001980B20FEF774FD0B20FEF75FFD0C20FB
:1023100000210022FEF76CFD0C20FEF757FD0D207A
:1023200000210022FEF764FD0D20FEF74FFD0F2077
:1023300000210022FEF75CFD0F20FEF747FD102074
:1023400000210022FEF754FD1020FEF73FFD112072
:1023500000210022FEF74CFD112002B0BDE88040B4
:10236000FEF734BDF0B585B0002641F21800CDE986
:102370000366CDE90166C4F20200016840F600047C
:1023800041F0200101600168C4F2010401F0200164
:1023900000910099016801AD41F0040101600168FC
:1023A000012701F0040100910099016841F0080142
:1023B00001600068294600F008000090009818208D
:1023C000CDE9010620460397FEF784FB4FF6C04097
:1023D00001A9C1C104F580602946FEF77BFB05B069
:1023E000F0BD0000B0B594B044F274100021C2F208
:1023F00000004FF0804259230E91CDE90C11099154
:10240000CDE90711CDE90511CDE90311CDE90111A0
:10241000C0E90021C0E9021301618161FFF75CF8A6
:10242000002818BFFDF772FF4FF480500B9044F264
:102430007410C2F200000BA9FFF7F8F9002818BFCA
:10244000FDF764FF44F27410C2F20000FFF76EFC67
:10245000002818BFFDF75AFF44F274100024C2F29E
:10246000000008A9CDE90844FEF7F6FF002818BFD0
:10247000FDF74CFF6020CDE9010444F27410C2F274
:10248000000001A9002203940594FFF74DFB0028EA
:1024900018BFFDF73BFF44F27410C2F2000001A91F
:1024A0000422FFF741FB002818BFFDF72FFF44F27D
:1024B0007414C2F2000401A920460822FFF734FB7D
:1024C000002818BFFDF722FF206840F20041C4F247
:1024D000000188424FF00001CDE91211CDE9101141
:1024E00018D0B0F1804F43D141F21800C4F202007D
:1024F000016841F004010160006800F004000F90E1
:102500000F98072010900220119040F60000C4F2AE
:10251000010028E041F21800C4F20200016840F610
:10252000000441F0040101600168C4F2010401F0FB
:1025300004010F910F990168022541F00801016023
:10254000006810A900F008000F900F98C0201090AC
:102550000320139020461195FEF7BCFA0120CDE927
:10256000100504F580600321139110A9FEF7B2FA5B
:1025700014B0B0BDB0B594B040F60004C4F201048C
:1025800044F2BC100021A4F58232C2F200005923AB
:102590000E91CDE90C110991CDE90711CDE9051195
:1025A000CDE90311CDE90111C0E90021C0E9021311
:1025B00001618161FEF790FF002818BFFDF7A6FEBC
:1025C0004FF480500B9044F2BC10C2F200000BA9F3
:1025D000FFF72CF9002818BFFDF798FE44F2BC1055
:1025E000C2F20000FFF7A2FB002818BFFDF78EFE25
:1025F00044F2BC100025C2F2000008A9CDE908553C
:10260000FEF72AFF002818BFFDF780FE6020CDE905
:10261000010544F2BC10C2F2000001A9002203959A
:102620000595FFF781FA002818BFFDF76FFE44F209
:10263000BC10C2F2000001A90422FFF775FA0028BD
:1026400018BFFDF763FE44F2BC15C2F2000501A9F4
:1026500028460822FFF768FA002818BFFDF756FE43
:10266000286840F20041C4F2000188424FF00001A6
:10267000CDE91211CDE9101114D0B0F1804F3CD149
:1026800041F21800C4F20200016841F00401016047
:10269000006800F004000F900F98072010900220AF
:1026A000119024E041F21800C4F2020001680225F2
:1026B00041F004010160016801F004010F910F99DC
:1026C000016841F008010160006810A900F00800ED
:1026D0000F900F98C0201090032013902046119562
:1026E000FEF7F8F9012004F58064CDE91005032018
:1026F000139010A92046FEF7EDF914B0B0BD00000C
:1027000080B586B044F2042040F600020021C2F2F7
:102710000000C4F2000241F61F434FF0090C05917E
:10272000CDE90311CDE90011C0E90023C0E9021C85
:1027300001618161FEF7D0FE002818BFFDF7E6FDBC
:102740004FF48050029044F20420C2F2000002A92B
:10275000FFF76CF8002818BFFDF7D8FD44F20420FD
:10276000C2F200006946FEF777FE002818BFFDF7A9
:10277000CDFD06B080BD0000FEE70000FEE70000D2
:10278000704700002DE9F047044600200021002298
:1027900000F09EFC44F26860C0F60000851E8426AE
:1027A00035F8020FFF210022002300F0AFFC013EAC
:1027B000F6D1E01C81B24CF6CD467143C90C01EB59
:1027C0008101A0EB410505F2C71080B2FF21002274
:1027D000002300F09BFC201D81B27143C90C01EB6A
:1027E0008101A0EB410A0AF2C71080B2FF2100224A
:1027F000002300F08BFC601D81B27143C90C01EB1A
:102800008101A0EB410808F2C71080B2FF2100222D
:10281000002300F07BFCA01C81B27143C90C01EBCA
:102820008101A0EB410707F2D11080B2FF21002205
:10283000002300F06BFC05F2D11080B2FF210022D2
:10284000002300F063FC0AF2D11080B2FF210022C5
:10285000002300F05BFC601C81B27143C90C01EBEA
:102860008101A0EB410909F2DB1080B2FF210022B7
:10287000002300F04BFC07F2DB1080B2FF210022A6
:10288000002300F043FC05F2DB1080B2FF210022A0
:10289000002300F03BFC04FB06F0C00C00EB8000C2
:1028A000A4EB400404F2E51080B2FF2100220023D3
:1028B00000F02CFC09F2E51080B2FF210022002379
:1028C00000F024FC07F2E51080B2FF210022002373
:1028D00000F01CFC09F2EF1080B2FF21002200235F
:1028E00000F014FC07F2EF1080B2FF210022002359
:1028F00000F00CFC05F2EF1080B2FF210022002353
:1029000000F004FC07F2F91080B2FF21002200233E
:1029100000F0FCFB05F2F91080B2FF210022002339
:1029200000F0F4FB0AF2F91080B2FF21002200232C
:1029300000F0ECFB05F2032080B2FF21002200230F
:1029400000F0E4FB0AF2032080B2FF210022002302
:1029500000F0DCFB08F2032080B2FF2100220023FC
:1029600000F0D4FB05F20D2080B2FF2100220023ED
:1029700000F0CCFB0AF20D2080B2FF2100220023E0
:1029800000F0C4FB08F20D2080B2FF2100220023DA
:1029900000F0BCFB07F2172080B2FF2100220023C9
:1029A00000F0B4FB05F2172080B2FF2100220023C3
:1029B00000F0ACFB0AF2172080B2FF2100220023B6
:1029C00000F0A4FB09F2212080B2FF2100220023A5
:1029D00000F09CFB07F2212080B2FF21002200239F
:1029E00000F094FB05F2212080B2FF210022002399
:1029F00000F08CFB04F22B2080B2FF210022002388
:102A000000F084FB09F22B2080B2FF21002200237A
:102A100000F07CFB07F22B2080B2FF210022002374
:102A200000F074FB09F2352080B2FF210022002360
:102A300000F06CFB07F2352080B2FF21002200235A
:102A400000F064FB05F2352080B2FF210022002354
:102A500000F05CFB07F23F2080B2FF210022002340
:102A600000F054FB05F23F2080B2FF21002200233A
:102A700000F04CFB0AF23F2080B2FF21002200232D
:102A800000F044FB05F2492080B2FF210022002320
:102A900000F03CFB0AF2492080B2FF210022002313
:102AA00000F034FB08F2492080B2FF21002200230D
:102AB00000F02CFB05F2532080B2FF2100220023FE
:102AC00000F024FB0AF2532080B2FF2100220023F1
:102AD00000F01CFB08F2532080B2FF2100220023EB
:102AE00000F014FB07F25D2080B2FF2100220023DA
:102AF00000F00CFB05F25D2080B2FF2100220023D4
:102B000000F004FB0AF25D2080B2FF2100220023C6
:102B100000F0FCFA09F2672080B2FF2100220023B6
:102B200000F0F4FA07F2672080B2FF2100220023B0
:102B300000F0ECFA05F2672080B2FF2100220023AA
:102B400000F0E4FA04F2712080B2FF210022002399
:102B500000F0DCFA09F2712080B2FF21002200238C
:102B600000F0D4FA07F2712080B2FF210022002386
:102B700000F0CCFA09F27B2080B2FF210022002372
:102B800000F0C4FA07F27B2080B2FF21002200236C
:102B900000F0BCFA05F27B2080B2FF210022002366
:102BA00000F0B4FA07F2852080B2FF210022002352
:102BB00000F0ACFA05F2852080B2FF21002200234C
:102BC00000F0A4FA0AF2852080B2FF21002200233F
:102BD00000F09CFA05F28F2080B2FF210022002332
:102BE00000F094FA0AF28F2080B2FF210022002325
:102BF00000F08CFA08F28F2080B2FF21002200231F
:102C000000F084FA05F2992080B2FF21002200230F
:102C100000F07CFA0AF2992080B2FF210022002302
:102C200000F074FA08F2992080B2FF2100220023FC
:102C300000F06CFA07F2A32080B2FF2100220023EB
:102C400000F064FA05F2A32080B2FF2100220023E5
:102C500000F05CFA0AF2A32080B2FF2100220023D8
:102C600000F054FA09F2AD2080B2FF2100220023C7
:102C700000F04CFA07F2AD2080B2FF2100220023C1
:102C800000F044FA05F2AD2080B2FF2100220023BB
:102C900000F03CFA04F2B72080B2FF2100220023AA
:102CA00000F034FA09F2B72080B2FF21002200239D
:102CB00000F02CFA07F2B72080B2FF210022002397
:102CC00000F024FA09F2C12080B2FF210022002383
:102CD00000F01CFA07F2C12080B2FF21002200237D
:102CE00000F014FA05F2C12080B2FF210022002377
:102CF00000F00CFA07F2CB2080B2FF210022002363
:102D000000F004FA05F2CB2080B2FF21002200235C
:102D100000F0FCF90AF2CB2080B2FF210022002350
:102D200000F0F4F905F2D52080B2FF210022002343
:102D300000F0ECF90AF2D52080B2FF210022002336
:102D400000F0E4F908F2D52080B2FF210022002330
:102D500000F0DCF940F21B35ACB22046FF21002226
:102D6000002300F0D3F9B4F5587F05F10105F3D342
:102D7000BDE8F04700F0AEB870470000FDF7BEBFF9
:102D80007047000044F27410C2F20000FEF722BE49
:102D900044F20420C2F20000FEF71CBE10B5446AE3
:102DA000616A884212D0A16A884217D0E16A8842DB
:102DB0001CD0216B884220D180690821002821770E
:102DC00004BF012084F8410017E000BF81690120A1
:102DD0000029207708BF84F83E000EE080690221B8
:102DE000217750B9012084F83F0006E08069042172
:102DF000217710B9012084F840002046FFF716F82B
:102E00000020207710BD000010B5446A616A884236
:102E10000AD0A16A884209D0E16A884208D0216BB1
:102E2000884207D1082004E0012002E0022000E0EF
:102E3000042020772046FFF73FF80020207710BDC0
:102E400010B5446A616A88420CD0A16A88420FD0EA
:102E5000E16A884212D0216B884215D0012084F8A3
:102E60003D0016E00120207784F83E0011E000BF0D
:102E700002202077012084F83F000AE00420207718
:102E8000012084F8400004E008202077012084F825
:102E900041002046FEF79AFD0020207710BD00007B
:102EA00043F6B470C2F20000FDF7D0BAFEE70000AE
:102EB00080B540F2AC00C2F2000040F62321FDF7DD
:102EC00099F940F6D020C2F2000043F2E441FDF748
:102ED00091F980BD2DE9F04F81B040F6D02A40F243
:102EE000AC084FF0000BC2F2000AC2F200082AE060
:102EF00000244FF0000C0AEB4C006421FDF77AF936
:102F0000AE686D6809EB4900322101EBC00083B265
:102F1000284631465246FEF7D1FFC4EB041048F66E
:102F200038114000C0F24101A0FB0101881DFDF7EE
:102F3000BDFD28463146FFF7DDF80BF1010BBBF173
:102F4000060F00F0C18044F270710BEB4B00C0F62D
:102F5000000131F8209001EB8005B9F1000FC7D0D6
:102F6000B5F802E009EB490002014FEAC00C00236A
:102F7000002600950EEB060080B200EB400008EB47
:102F8000000595F90140392118F9007095F9020002
:102F9000B4F1FF3FC8BF1D212AF8031061064FF0AE
:102FA00039010AEB030558BF1D216980A1064FF0C6
:102FB000390158BF1D21A980E1064FF0390158BFE2
:102FC0001D21E98021074FF0390158BF1D212981BA
:102FD00061074FF0390158BF1D216981A1074FF0EA
:102FE000390158BF1D21A981E1074FF0390108BF00
:102FF0001D21E9813921B7F1FF3FC8BF1D21298279
:1030000079064FF0390158BF1D216982B9064FF08A
:10301000390158BF1D21A982F9064FF0390158BF67
:103020001D21E98239074FF0390158BF1D2129833D
:1030300079074FF0390158BF1D216983B9074FF057
:10304000390158BF1D21A983F9074FF0390108BF85
:103050001D21E9833921B0F1FF3FC8BF1D2129841B
:1030600041064FF0390158BF1D21698481064FF098
:10307000390158BF1D21A984C1064FF0390158BF3D
:103080001D21E98401074FF0390158BF1D21298511
:1030900041074FF0390158BF1D21698581074FF065
:1030A000390158BF1D21C0074FF0390003F130032B
:1030B000A98508BF1D209A4206F10106E8857FF424
:1030C00059AF009D4C4616E701B0BDE8F08F0000F7
:1030D00010B540F2AC0C0023C2F2000C40F6232ED7
:1030E0000CEB03040CF803000F3373456170A270FE
:1030F000E07021716271A071E17122726072A1723F
:10310000E27220736173A273EAD110BDB0F5587FEB
:1031100088BF704780B540F2AC0C00EB4000C2F2B3
:10312000000C0CEB000E0CF800108EF801208EF84D
:103130000230BDE88040704792B0FDF7EDFD0024FD
:103140000120CDE90D44CDE90B4408900C904FF4DB
:10315000E0104FF480310225119008A8CDE9091440
:10316000CDE90F51FDF75EFF20B1EFF3108072B68D
:10317000FEE700BF0F20CDE903054FF48060CDE9E5
:10318000060403A802210594FDF76EFE20B1EFF3BB
:10319000108072B6FEE700BFFFF7E4F8FFF7A0F873
:1031A000FFF720F9FFF7E6F9FFF7AAFAFDF7A0FD10
:1031B000074644F20420C2F20000FEF7FFFA28B1ED
:1031C000EFF3108072B600BFFEE700BFFFF770FE9E
:1031D00000204FF00009FFF7D5FA40F27001C2F26B
:1031E000000140F2DE2640F21A344FF000084FF0A2
:1031F000000B4FF0000A00200090029009E000BF91
:103200004FF0000B0120FDF751FC40F27001C2F2BB
:1032100000010D79002D00F07B81B8F1000F81F8DD
:10322000049040F077814879002840F073810120B4
:1032300048710020002100220197FFF749FF681E16
:10324000092801F22981DFE810F00B006F037301F8
:10325000B305E1062709B902A9043505F70700BF40
:103260000120FF2100220023FFF750FF0220FF2151
:1032700000220023FFF74AFF0320FF210022002342
:10328000FFF744FF0420FF2100220023FFF73EFF49
:103290000520FF2100220023FFF738FF0620FF2131
:1032A00000220023FFF732FF0720FF210022002326
:1032B000FFF72CFF0820FF2100220023FFF726FF45
:1032C0000920FF2100220023FFF720FF0A20FF2111
:1032D00000220023FFF71AFF0B20FF21002200230A
:1032E000FFF714FF0C20FF2100220023FFF70EFF41
:1032F0000D20FF2100220023FFF708FF0E20FF21F1
:1033000000220023FFF702FF0F20FF2100220023ED
:10331000FFF7FCFE1020FF2100220023FFF7F6FE3E
:103320001120FF2100220023FFF7F0FE1220FF21D1
:1033300000220023FFF7EAFE1320FF2100220023D2
:10334000FFF7E4FE1420FF2100220023FFF7DEFE3A
:103350001520FF2100220023FFF7D8FE1620FF21B1
:1033600000220023FFF7D2FE1720FF2100220023B6
:10337000FFF7CCFE1820FF2100220023FFF7C6FE36
:103380001920FF2100220023FFF7C0FE1A20FF2191
:1033900000220023FFF7BAFE1B20FF21002200239A
:1033A000FFF7B4FE1C20FF2100220023FFF7AEFE32
:1033B0001D20FF2100220023FFF7A8FE1E20FF2171
:1033C00000220023FFF7A2FE1F20FF21002200237E
:1033D000FFF79CFE2020FF2100220023FFF796FE2E
:1033E0002120FF2100220023FFF790FE2220FF2151
:1033F00000220023FFF78AFE2320FF210022002362
:10340000FFF784FE2420FF2100220023FFF77EFE29
:103410002520FF2100220023FFF778FE2620FF2130
:1034200000220023FFF772FE2720FF210022002345
:10343000FFF76CFE2820FF2100220023FFF766FE25
:103440002920FF2100220023FFF760FE2A20FF2110
:1034500000220023FFF75AFE2B20FF210022002329
:10346000FFF754FE2C20FF2100220023FFF74EFE21
:103470002D20FF2100220023FFF748FE2E20FF21F0
:1034800000220023FFF742FE2F20FF21002200230D
:10349000FFF73CFE40F20F17BDB22846FF21002285
:1034A0000023FFF733FEB5F5E37F07F10107F3D300
:1034B00040F2C717BDB22846FF2100220023FFF7C4
:1034C00025FEB54207F10107F4D340F2DF2700BF24
:1034D000BDB22846FF2100220023FFF717FEA542B8
:1034E00007F10107F4D340F21B3700BFBDB22846F5
:1034F000FF2100220023FFF709FE68091A2807F1BF
:103500000107F3D92F204FF0010A009000F048BFC7
:1035100081F80590BBFA8BF0BBF1000F4FEA501514
:1035200040F04687B8F1000F7FF46AAE00F040BF6C
:103530005A20FF2100220023FFF7E8FD5B20FF2136
:1035400000220023FFF7E2FD5C20FF210022002380
:10355000FFF7DCFD5D20FF2100220023FFF7D6FDF1
:103560005E20FF2100220023FFF7D0FD5F20FF2116
:1035700000220023FFF7CAFD6020FF210022002364
:10358000FFF7C4FD6120FF2100220023FFF7BEFDED
:103590006220FF2100220023FFF7B8FD6320FF21F6
:1035A00000220023FFF7B2FD6420FF210022002348
:1035B000FFF7ACFD6520FF2100220023FFF7A6FDE9
:1035C0006620FF2100220023FFF7A0FD6720FF21D6
:1035D00000220023FFF79AFD6820FF21002200232C
:1035E000FFF794FD6920FF2100220023FFF78EFDE5
:1035F0006A20FF2100220023FFF788FD6B20FF21B6
:1036000000220023FFF782FD6C20FF21002200230F
:10361000FFF77CFD6D20FF2100220023FFF776FDE0
:103620006E20FF2100220023FFF770FD6F20FF2195
:1036300000220023FFF76AFD7020FF2100220023F3
:10364000FFF764FD7120FF2100220023FFF75EFDDC
:103650007220FF2100220023FFF758FD7320FF2175
:1036600000220023FFF752FD7420FF2100220023D7
:10367000FFF74CFD7520FF2100220023FFF746FDD8
:103680007620FF2100220023FFF740FD7720FF2155
:1036900000220023FFF73AFD7820FF2100220023BB
:1036A000FFF734FD7920FF2100220023FFF72EFDD4
:1036B0007A20FF2100220023FFF728FD7B20FF2135
:1036C00000220023FFF722FD7C20FF21002200239F
:1036D000FFF71CFD7D20FF2100220023FFF716FDD0
:1036E0007E20FF2100220023FFF710FD7F20FF2115
:1036F00000220023FFF70AFD8020FF210022002383
:10370000FFF704FD8120FF2100220023FFF7FEFCCC
:103710008220FF2100220023FFF7F8FC8320FF21F5
:1037200000220023FFF7F2FC8420FF210022002367
:10373000FFF7ECFC8520FF2100220023FFF7E6FCC9
:1037400040F20F17BDB22846FF2100220023FFF7E9
:10375000DDFCB5F5E37F07F10107F3D340F2C717AE
:10376000BDB22846FF2100220023FFF7CFFCB5425F
:1037700007F10107F4D340F2DF2700BFBDB22846AE
:10378000FF2100220023FFF7C1FCA54207F101073A
:10379000F4D340F21B3700BFBDB22846FF21002200
:1037A0000023FFF7B3FC68091A2807F10107F3D9D2
:1037B000852000904FF05A0A00F0F2BDE620FF216C
:1037C00000220023FFF7A2FCE720FF2100220023B4
:1037D000FFF79CFCE820FF2100220023FFF796FC66
:1037E000E920FF2100220023FFF790FCEA20FF21BF
:1037F00000220023FFF78AFCEB20FF210022002398
:10380000FFF784FCEC20FF2100220023FFF77EFC61
:10381000ED20FF2100220023FFF778FCEE20FF219E
:1038200000220023FFF772FCEF20FF21002200237B
:10383000FFF76CFCF020FF2100220023FFF766FC5D
:10384000F120FF2100220023FFF760FCF220FF217E
:1038500000220023FFF75AFCF320FF21002200235F
:10386000FFF754FCF420FF2100220023FFF74EFC59
:10387000F520FF2100220023FFF748FCF620FF215E
:1038800000220023FFF742FCF720FF210022002343
:10389000FFF73CFCF820FF2100220023FFF736FC55
:1038A000F920FF2100220023FFF730FC40F20F1720
:1038B000BDB22846FF2100220023FFF727FCB5F503
:1038C000E37F07F10107F3D340F2C717BDB22846E3
:1038D000FF2100220023FFF719FCB54207F1010781
:1038E000F4D340F2DF2700BFBDB22846FF210022FB
:1038F0000023FFF70BFCA54207F10107F4D340F2C8
:103900001B3700BFBDB22846FF2100220023FFF76E
:10391000FDFB68091A2807F10107F3D9F920009087
:103920004FF0E60A00F03CBD3020FF2100220023CA
:10393000FFF7ECFB3120FF2100220023FFF7E6FB1D
:103940003220FF2100220023FFF7E0FB3320FF217C
:1039500000220023FFF7DAFB3420FF21002200239E
:10396000FFF7D4FB3520FF2100220023FFF7CEFB19
:103970003620FF2100220023FFF7C8FB3720FF215C
:1039800000220023FFF7C2FB3820FF210022002382
:10399000FFF7BCFB3920FF2100220023FFF7B6FB15
:1039A0003A20FF2100220023FFF7B0FB3B20FF213C
:1039B00000220023FFF7AAFB3C20FF210022002366
:1039C000FFF7A4FB3D20FF2100220023FFF79EFB11
:1039D0003E20FF2100220023FFF798FB3F20FF211C
:1039E00000220023FFF792FB4020FF21002200234A
:1039F000FFF78CFB4120FF2100220023FFF786FB0D
:103A00004220FF2100220023FFF780FB4320FF21FB
:103A100000220023FFF77AFB4420FF21002200232D
:103A2000FFF774FB4520FF2100220023FFF76EFB08
:103A30004620FF2100220023FFF768FB4720FF21DB
:103A400000220023FFF762FB4820FF210022002311
:103A5000FFF75CFB4920FF2100220023FFF756FB04
:103A60004A20FF2100220023FFF750FB4B20FF21BB
:103A700000220023FFF74AFB4C20FF2100220023F5
:103A8000FFF744FB4D20FF2100220023FFF73EFB00
:103A90004E20FF2100220023FFF738FB4F20FF219B
:103AA00000220023FFF732FB5020FF2100220023D9
:103AB000FFF72CFB5120FF2100220023FFF726FBFC
:103AC0005220FF2100220023FFF720FB5320FF217B
:103AD00000220023FFF71AFB5420FF2100220023BD
:103AE000FFF714FB5520FF2100220023FFF70EFBF8
:103AF0005620FF2100220023FFF708FB5720FF215B
:103B000000220023FFF702FB5820FF2100220023A0
:103B1000FFF7FCFA5920FF2100220023FFF7F6FAF5
:103B200040F20F17BDB22846FF2100220023FFF705
:103B3000EDFAB5F5E37F07F10107F3D340F2C717BC
:103B4000BDB22846FF2100220023FFF7DFFAB5426D
:103B500007F10107F4D340F2DF2700BFBDB22846CA
:103B6000FF2100220023FFF7D1FAA54207F1010748
:103B7000F4D340F21B3700BFBDB22846FF2100221C
:103B80000023FFF7C3FA68091A2807F10107F3D9E0
:103B9000592000904FF0300A00F002BCFA20FF21BB
:103BA00000220023FFF7B2FAFB20FF2100220023AE
:103BB000FFF7ACFAFC20FF2100220023FFF7A6FA52
:103BC000FD20FF2100220023FFF7A0FAFE20FF21A5
:103BD00000220023FFF79AFAFF20FF210022002392
:103BE000FFF794FA4FF48070FF2100220023FFF7C3
:103BF0008DFA40F20110FF2100220023FFF786FA20
:103C00004FF48170FF2100220023FFF77FFA40F27A
:103C10000310FF2100220023FFF778FA4FF482708F
:103C2000FF2100220023FFF771FA40F20510FF2167
:103C300000220023FFF76AFA40F20F17BDB22846B0
:103C4000FF2100220023FFF761FAB5F5E37F07F1BA
:103C50000107F3D340F2C717BDB22846FF21002267
:103C60000023FFF753FAB54207F10107F4D340F2FE
:103C7000DF2700BFBDB22846FF2100220023FFF747
:103C800045FAA54207F10107F4D340F21B3700BF04
:103C9000BDB22846FF2100220023FFF737FA68094A
:103CA0001A2807F10107F3D940F2051000904FF0F0
:103CB000FA0A75E34FF48370FF2100220023FFF717
:103CC00025FA40F20710FF2100220023FFF71EFA19
:103CD0004FF48470FF2100220023FFF717FA40F20F
:103CE0000910FF2100220023FFF710FA4FF485701E
:103CF000FF2100220023FFF709FA40F20B10FF21F9
:103D000000220023FFF702FA4FF48670FF21002201
:103D10000023FFF7FBF940F20D10FF2100220023E2
:103D2000FFF7F4F94FF48770FF2100220023FFF71B
:103D3000EDF940F20F1700BFBDB22846FF21002267
:103D40000023FFF7E3F9B5F5E37F07F10107F3D3AC
:103D500040F2C717BDB22846FF2100220023FFF71B
:103D6000D5F9B54207F10107F4D340F2DF2700BFD0
:103D7000BDB22846FF2100220023FFF7C7F9A54264
:103D800007F10107F4D340F21B3700BFBDB228464C
:103D9000FF2100220023FFF7B9F968091A2807F16B
:103DA0000107F3D94FF4877000904FF4837AF7E25C
:103DB0008620FF2100220023FFF7A8F98720FF219A
:103DC00000220023FFF7A2F98820FF210022002310
:103DD000FFF79CF98920FF2100220023FFF796F9C5
:103DE0008A20FF2100220023FFF790F98B20FF217A
:103DF00000220023FFF78AF98C20FF2100220023F4
:103E0000FFF784F98D20FF2100220023FFF77EF9C0
:103E10008E20FF2100220023FFF778F98F20FF2159
:103E200000220023FFF772F99020FF2100220023D7
:103E3000FFF76CF99120FF2100220023FFF766F9BC
:103E40009220FF2100220023FFF760F99320FF2139
:103E500000220023FFF75AF99420FF2100220023BB
:103E6000FFF754F99520FF2100220023FFF74EF9B8
:103E70009620FF2100220023FFF748F99720FF2119
:103E800000220023FFF742F99820FF21002200239F
:103E9000FFF73CF99920FF2100220023FFF736F9B4
:103EA0009A20FF2100220023FFF730F99B20FF21F9
:103EB00000220023FFF72AF99C20FF210022002383
:103EC000FFF724F99D20FF2100220023FFF71EF9B0
:103ED0009E20FF2100220023FFF718F99F20FF21D9
:103EE00000220023FFF712F9A020FF210022002367
:103EF000FFF70CF9A120FF2100220023FFF706F9AC
:103F0000A220FF2100220023FFF700F9A320FF21B8
:103F100000220023FFF7FAF8A420FF21002200234B
:103F2000FFF7F4F8A520FF2100220023FFF7EEF8A9
:103F3000A620FF2100220023FFF7E8F8A720FF2199
:103F400000220023FFF7E2F8A820FF21002200232F
:103F5000FFF7DCF8A920FF2100220023FFF7D6F8A5
:103F6000AA20FF2100220023FFF7D0F8AB20FF2179
:103F700000220023FFF7CAF8AC20FF210022002313
:103F8000FFF7C4F8AD20FF2100220023FFF7BEF8A1
:103F900040F20F17BDB22846FF2100220023FFF791
:103FA000B5F8B5F5E37F07F10107F3D340F2C71782
:103FB000BDB22846FF2100220023FFF7A7F8B54233
:103FC00007F10107F4D340F2DF2700BFBDB2284656
:103FD000FF2100220023FFF799F8A54207F101070E
:103FE000F4D340F21B3700BFBDB22846FF210022A8
:103FF0000023FFF78BF868091A2807F10107F3D9A6
:10400000AD2000904FF0860ACAE100BFAE20FF212C
:1040100000220023FFF77AF8AF20FF2100220023BF
:10402000FFF774F8B020FF2100220023FFF76EF89D
:10403000B120FF2100220023FFF768F8B220FF2102
:1040400000220023FFF762F8B320FF2100220023A3
:10405000FFF75CF8B420FF2100220023FFF756F899
:10406000B520FF2100220023FFF750F8B620FF21E2
:1040700000220023FFF74AF8B720FF210022002387
:10408000FFF744F8B820FF2100220023FFF73EF895
:10409000B920FF2100220023FFF738F8BA20FF21C2
:1040A00000220023FFF732F8BB20FF21002200236B
:1040B000FFF72CF8BC20FF2100220023FFF726F891
:1040C000BD20FF2100220023FFF720F8BE20FF21A2
:1040D00000220023FFF71AF8BF20FF21002200234F
:1040E000FFF714F8C020FF2100220023FFF70EF88D
:1040F000C120FF2100220023FFF708F8C220FF2182
:1041000000220023FFF702F8C320FF210022002332
:10411000FEF7FCFFC420FF2100220023FEF7F6FF7C
:10412000C520FF2100220023FEF7F0FFC620FF215B
:1041300000220023FEF7EAFFC720FF210022002310
:10414000FEF7E4FFC820FF2100220023FEF7DEFF78
:10415000C920FF2100220023FEF7D8FFCA20FF213B
:1041600000220023FEF7D2FFCB20FF2100220023F4
:10417000FEF7CCFFCC20FF2100220023FEF7C6FF74
:10418000CD20FF2100220023FEF7C0FFCE20FF211B
:1041900000220023FEF7BAFFCF20FF2100220023D8
:1041A000FEF7B4FFD020FF2100220023FEF7AEFF70
:1041B000D120FF2100220023FEF7A8FF40F20F17B5
:1041C000BDB22846FF2100220023FEF79FFFB5F570
:1041D000E37F07F10107F3D340F2C717BDB22846CA
:1041E000FF2100220023FEF791FFB54207F10107EE
:1041F000F4D340F2DF2700BFBDB22846FF210022E2
:104200000023FEF783FFA54207F10107F4D340F234
:104210001B3700BFBDB22846FF2100220023FEF756
:1042200075FF68091A2807F10107F3D9D12000901A
:104230004FF0AE0AB4E000BFD220FF2100220023DD
:10424000FEF764FFD320FF2100220023FEF75EFF6C
:10425000D420FF2100220023FEF758FFD520FF21A4
:1042600000220023FEF752FFD620FF210022002368
:10427000FEF74CFFD720FF2100220023FEF746FF68
:10428000D820FF2100220023FEF740FFD920FF2184
:1042900000220023FEF73AFFDA20FF21002200234C
:1042A000FEF734FFDB20FF2100220023FEF72EFF64
:1042B000DC20FF2100220023FEF728FFDD20FF2164
:1042C00000220023FEF722FFDE20FF210022002330
:1042D000FEF71CFFDF20FF2100220023FEF716FF60
:1042E000E020FF2100220023FEF710FFE120FF2144
:1042F00000220023FEF70AFFE220FF210022002314
:10430000FEF704FFE320FF2100220023FEF7FEFE5C
:10431000E420FF2100220023FEF7F8FEE520FF2124
:1043200000220023FEF7F2FE40F20F17BDB228462E
:10433000FF2100220023FEF7E9FEB5F5E37F07F138
:104340000107F3D340F2C717BDB22846FF21002270
:104350000023FEF7DBFEB54207F10107F4D340F27C
:10436000DF2700BFBDB22846FF2100220023FEF751
:10437000CDFEA54207F10107F4D340F21B3700BF81
:10438000BDB22846FF2100220023FEF7BFFE6809C8
:104390001A2807F10107F3D9E52000904FF0D20A5F
:1043A000FEF798FD019F4FF0010800254FF0010B2B
:1043B000FCF79EFCC01B9628FEF424AFFCF798FC8B
:1043C000074602984CF6CD42093081B25143C90CE0
:1043D00001EB8101A0EB410002902DB180B2FEF70C
:1043E000D1F9FEF70FBF00BF002000210022B9461F
:1043F000FEF76EFE009885B21FFA8AF0A8420BD82D
:10440000574600BFB8B2FF2100220023FEF77EFE10
:104410000137B8B2A842F5D940F20F17BDB228460D
:10442000FF2100220023FEF771FEB5F5E37F07F1BF
:104430000107F3D340F2C717BDB22846FF2100227F
:104440000023FEF763FEB54207F10107F4D340F203
:10445000DF2700BFBDB22846FF2100220023FEF760
:1044600055FEA54207F10107F4D340F21B3700BF08
:10447000BDB22846FF2100220023FEF747FEB5F516
:10448000587F07F10107F3D3FEF724FD4F464FF0A5
:104490000009FEF7B7BE00BFFA20FF21002200236B
:1044A000FEF734FEFB20FF2100220023FEF72EFE44
:1044B000FC20FF2100220023FEF728FEFD20FF2123
:1044C00000220023FEF722FEFE20FF21002200230F
:1044D000FEF71CFEFF20FF2100220023FEF716FE40
:1044E0004FF48070FF2100220023FEF70FFE40F200
:1044F0000110FF2100220023FEF708FE4FF4817017
:10450000FF2100220023FEF701FE40F20310FF21ED
:1045100000220023FEF7FAFD4FF48270FF210022F3
:104520000023FEF7F3FD40F20510FF2100220023D7
:10453000FEF7ECFD40F20F17BDB22846FF21002226
:104540000023FEF7E3FDB5F5E37F07F10107F3D3A1
:1045500040F2C717BDB22846FF2100220023FEF714
:10456000D5FDB54207F10107F4D340F2DF2700BFC4
:10457000BDB22846FF2100220023FEF7C7FDA54259
:1045800007F10107F4D340F21B3700BFBDB2284644
:10459000FF2100220023FEF7B9FDB5F5587F07F192
:1045A0000107F3D3FEF796FC019F4FF001084FF08F
:1045B000000BBBFA8BF0BBF1000F4FEA50153EF435
:1045C000B1AFF5E6000000000000000001020304A6
:1045D00006070809010202030405060708090A0B79
:1045E0000C0D0E0F1010000002000000040000006F
:1045F0000800000010000000FDFFFFFFFBFFFFFFB1
:10460000F7FFFFFFEFFFFFFFFFFDFFFFFFFBFFFFD8
:10461000FFF7FFFFFFEFFFFF000C01400004010068
:10462000000C014000080200000C014000100300D3
:10463000000C014000200400000C01400040050077
:1046400000080140080006000008014010000700B3
:10465000000C014040000800000C014080000900EF
:10466000000C014000800A000000010002000A0066
:104670000B000C000D000E001600170018001900AA
:104680001A00220023002400250026002E002F00FF
:104690003000300031003200330034003500360085
:1046A0003700380039003A003B003C003D003E0036
:1046B0003F004000410042004300440045004600E6
:1046C0004700480049004A004B004C004D004E0096
:1046D0004F00500051005200530054005500560046
:1046E0005700580059005A005B00650066007000D2
:1046F00071007B007C0086008700900091009A008A
:104700009B00A400A500AE00AF00B000B100B20055
:10471000B300B400B500B600B700B800B900BA00E5
:10472000BB00BC00BD00BE00BF00C000C100C20095
:10473000C300C400C500C600C700C800C900CA0045
:10474000CB00CC00CD00CE00CF00D000D100D200F5
:10475000D700DC00E100E600EB00F000F500060108
:104760000701080109010A010B010C010D010E01ED
:104770000F01000074410020040000005C000F01E4
:10478000BC410020000000005C006B01BC41002027
:10479000080000001801C70174410020000000005B
:1047A0003C00DF02744100200800000046001B03AB
:1047B000BC41002004000000D84700080000002091
:1047C0001000000050010008E84700081000002019
:1047D00048480000700100080100000010000000BF
:0847E00000127A000000000045
:04000005080000ED02
:00000001FF
