:020000040800F2
:10000000B0480020B5010008FD3C00089938000800
:10001000F93C000801030008ED470008000000005B
:10002000000000000000000000000000453F000844
:100030006D040008000000006D3D00081D40000830
:10004000CF010008CF010008CF010008CF01000850
:10005000CF010008CF010008CF010008CF01000840
:10006000CF010008CF010008CF010008BD03000840
:10007000CD030008DD030008CF010008ED030008F0
:10008000FD0300080D040008CF010008CF0100089F
:10009000DD470008CF010008CF010008CF010008AC
:1000A000CF010008CF010008CF010008CF010008F0
:1000B00095400008CF010008A5400008CF010008C6
:1000C000CF010008CF010008CF010008CF010008D0
:1000D000CF010008CF010008CF010008CF010008C0
:1000E000CF010008CF010008CF01000800F002F89E
:1000F00000F050F814A696E8000CB244B344DA4578
:1001000001D100F047F8BAE80F000FA696E83000DA
:10011000A5EB040504EB0607AAEB0704A7F101070A
:100120004FEA15154FEA3414A4F10104AC4201D38F
:1001300000F030F813F0010F18BFFB1A43F0010371
:1001400000F001F8DBE718470C4F00002C4F0000CF
:10015000103A24BF78C878C1FAD8520724BF30C8F3
:1001600030C144BF04680C60704700007047000055
:100170000023002400250026103A28BF78C1FBD8B0
:10018000520728BF30C148BF0B6070471FB51FBD65
:1001900010B510BD00F07AF81146FFF7F7FF04F034
:1001A000A3FC00F098F803B4FFF7F2FF03BC00F0E3
:1001B0009FF800000948804709480047FEE7FEE72E
:1001C000FEE7FEE7FEE7FEE7FEE7FEE7FEE7FEE707
:1001D00004480549054A064B704700009140000855
:1001E000ED000008B0420020B0480020B0440020DC
:1001F000B04400204FF000020429C0F0128010F03B
:10020000030C00F01B80CCF1040CBCF1020F18BFF2
:1002100000F8012BA8BF20F8022BA1EB0C0100F085
:100220000DB85FEAC17C24BF00F8012B00F8012B58
:1002300048BF00F8012B70474FF0000200B513468D
:1002400094469646203922BFA0E80C50A0E80C50F6
:10025000B1F12001BFF4F7AF090728BFA0E80C50A7
:1002600048BF0CC05DF804EB890028BF40F8042BA0
:1002700008BF704748BF20F8022B11F0804F18BF0D
:1002800000F8012B7047704770477047754600F0C3
:100290002BF8AE4605006946534620F00700854618
:1002A00018B020B5FFF794FFBDE820404FF00006DE
:1002B0004FF000074FF000084FF0000BAC46ACE8E1
:1002C000C009ACE8C009ACE8C009ACE8C00921F03D
:1002D00007018D46704710B50446AFF300802046F5
:1002E000BDE81040FFF75FBF00487047580000208E
:1002F00001491820ABBEFEE726000200704700004F
:10030000FFE7FEE783B0029001910298006846F291
:100310000041C4F20001884223D1FFE70198009018
:1003200040F2012188420CD0FFE7009840F2022100
:1003300088420DD0FFE7009840F2FF21884207D0A5
:100340000DE043F6F071C2F200010120087007E0F1
:1003500043F6F071C2F200010020087000E0FFE7F0
:10036000FFE703B07047000080B584B040F2C001E1
:10037000C2F2000102910E200390486248610122FE
:100380000A6200208861CA61086048608860C860AD
:100390004861086143F6F470C2F20000019000F079
:1003A00015FA019800F04AFF0198022100F038F98F
:1003B000029903984862486104B080BD80B544F258
:1003C000A400C2F2000001F029F880BD80B544F21B
:1003D0007010C2F2000001F021F880BD80B544F237
:1003E0002C10C2F2000001F019F880BD80B544F273
:1003F0001C00C2F2000001F011F880BD80B544F28B
:10040000E800C2F2000001F009F880BD80B544F2B6
:100410006000C2F2000001F001F880BD84B00390DA
:100420000291019200930398C16B026C01209040ED
:10043000486000980399096848600398406810284C
:1004400009D1FFE701980399096888600298039928
:100450000968C86008E002980399096888600198F3
:1004600003990968C860FFE704B07047704700004F
:1004700080B584B0ADF80E000020ADF80C00FFE7A9
:10048000BDF80C0003286CD8FFE7BDF80C0046212E
:100490004843ADF80A000020ADF80800FFE7BDF8BA
:1004A0000800062856D8FFE7BDF80A00BDF8082066
:1004B00044F6EC61C0F6000131F812100844ADF8C2
:1004C00006000020ADF80400FFE7BDF80400022894
:1004D00039D8FFE7BDF8081044F6DE60C0F600002A
:1004E00030F81100BDF80E100844BDF8041008449F
:1004F00049F69A11C1F69911A0FB012101EB810186
:10050000A0EB4100ADF80200BDF80600BDF80210F6
:100510000844ADF80000BDF80000B0F58C7F0BDAA0
:10052000FFE7BDF8000000F2C71080B2FF210023F2
:100530001A4604F04BFAFFE7FFE7BDF8040001306C
:10054000ADF80400C1E7FFE7BDF808000130ADF8E1
:100550000800A4E7FFE7BDF80C000130ADF80C007F
:100560008EE704B080BD000080B584B068460023EB
:1005700003930360FA2040F20511FF22029203F078
:10058000E3FC029A039B6846036040F20F104FF4AD
:10059000E37103F0D9FC04B080BD000080B582B0E7
:1005A0000020ADF80600FFE7BDF80600832814D848
:1005B000FFE7BDF8061044F64C70C0F6000030F8B6
:1005C0001100FF2100231A4604F000FAFFE7BDF8EE
:1005D00006000130ADF80600E6E702B080BD00007D
:1005E00081B0EFF3108072B60090FFE7FEE70000E5
:1005F00081B044F28E20C2F2000000788DF8030032
:100600009DF8030038B1FFE744F28E21C2F20001E9
:1006100000200870FFE79DF8030001B0704700005C
:1006200084B002900191029890F820008DF80300A8
:100630009DF80300012805D0FFE79DF8030002287C
:100640000AD1FFE7019A029801684869104348619E
:1006500000208DF80F0008E00299486A40F48020DD
:10066000486201208DF80F00FFE79DF80F0004B0ED
:100670007047000088B00690059104920393069895
:1006800090F820008DF807000698006880680090B8
:100690000598806808B9FFE700E0FFE79DF80700CC
:1006A000012806D0FFE79DF80700022840F080806F
:1006B000FFE79DF80300400700280CD4FFE79DF8F2
:1006C00003000007002806D4FFE79DF80300C006DA
:1006D000002864D5FFE70098C0F3016002900299FA
:1006E00001208840039908600598806868B9FFE791
:1006F00005980168C06840EA415006990968029A65
:1007000001EB0211C1F880010EE005994A68886882
:10071000C96840EAC200084306990968029A01EBD9
:100720000211C1F88001FFE7059800690699096880
:10073000029A01EB0211C1F884010598007D01289D
:100740000CD1FFE706980068029900EB0111D1F87F
:10075000840140F48070C1F88401FFE70498406888
:1007600006990968029A01EB0211C1F88C010498FC
:10077000006806990968029A01EB0211C1F8880124
:1007800006980068029900EB0111D1F8800140F051
:100790000100C1F8800100208DF81F0011E00699CA
:1007A000486A40F40010486201208DF81F0008E0FC
:1007B0000699486A40F48020486201208DF81F00A5
:1007C000FFE79DF81F0008B07047000086B0049056
:1007D0000391049800680190049890F820008DF827
:1007E00003009DF80300012806D0FFE79DF80300F1
:1007F000022840F09B80FFE70199D1F8000240F009
:100800000100C1F800020398406900F01F010120B7
:1008100088400290029A0199D1F81C029043C1F8D5
:100820001C020398C069F0B9FFE7029A0199D1F858
:100830000C029043C1F80C02039A9088D168526967
:1008400040EA0140019901EBC201C1F84002039A5C
:1008500010889168526940EA0140019901EBC20198
:10086000C1F84402FFE70398C06901281ED1FFE7E1
:10087000029A0199D1F80C021043C1F80C02039AB4
:1008800090881168526940EA0140019901EBC20168
:10089000C1F84002039A90899168526940EA014088
:1008A000019901EBC201C1F84402FFE70398806996
:1008B00040B9FFE7029A0199D1F804029043C1F8C8
:1008C000040207E0029A0199D1F804021043C1F82A
:1008D0000402FFE70398006940B9FFE7029A019913
:1008E000D1F814029043C1F8140207E0029A01996A
:1008F000D1F814021043C1F81402FFE70398006A0C
:10090000012808D1FFE7029A0199D1F81C0210438F
:10091000C1F81C02FFE70199D1F8000220F00100A4
:10092000C1F8000200208DF8170008E00499486A19
:1009300040F48020486201208DF81700FFE79DF801
:10094000170006B07047000081B0009001B07047FA
:1009500086B00490039102920193049890F82000CD
:100960008DF803009DF80300012806D0FFE79DF8ED
:100970000300022840F0E880FFE7039880B9FFE712
:1009800004980068C068800748B9FFE70499486A7E
:1009900040F40010486201208DF81700DDE00FE000
:1009A000049800680069800748B9FFE70499486A1D
:1009B00040F40010486201208DF81700CDE0FFE7F9
:1009C00004980068039900EB0110D0F8B00100F022
:1009D0000400029988600298806858B9FFE704987B
:1009E0000068039900EB0110D0F8B001400D0299A6
:1009F00008600AE004980068039900EB0110D0F841
:100A0000B001C00802994860FFE7049800680399A4
:100A100000EB0110D0F8B00100F002000299C860AC
:100A200004980068039900EB0110D0F8B40100F0BD
:100A30000F00082804D3FFE70299082008610BE0A3
:100A400004980068039900EB0110D0F8B40100F09D
:100A50000F0002990861FFE704980068039900EB12
:100A60000110D0F8B40180B2000A0299886104989C
:100A70000068039900EB0110D0F8B401000C029952
:100A8000486104980068039900EB0110D0F8B801A0
:100A90000199087004980068039900EB0110D0F8E0
:100AA000B801000A0199487004980068039900EBA6
:100AB0000110D0F8B801000C019988700498006802
:100AC000039900EB0110D0F8B801000E0199C8702D
:100AD00004980068039900EB0110D0F8BC0101995B
:100AE000087104980068039900EB0110D0F8BC016C
:100AF000000A0199487104980068039900EB0110FD
:100B0000D0F8BC01000C0199887104980068039921
:100B100000EB0110D0F8BC01000E0199C8710398D8
:100B200038B9FFE704980168C86840F02000C86041
:100B300006E004980168086940F020000861FFE7BA
:100B400000208DF8170008E00499486A40F48020DE
:100B5000486201208DF81700FFE79DF8170006B0E6
:100B60007047000080B58AB009900020089009986D
:100B700000684069079009980068406806900998E5
:100B800000688068059009980068C068049009981A
:100B900000680069039009980068806902909DF8D8
:100BA0001C00C007002800F09480FFE79DF81400A7
:100BB000C00758B3FFE709980168012088609DF8D5
:100BC00014008007002804D5FFE7099800F080FB97
:100BD0001BE09DF814004007002805D5FFE70898A2
:100BE00040F4006008900FE09DF814000007002812
:100BF00005D5FFE7089840F48050089003E0099875
:100C000000F062FBFFE7FFE7FFE7FFE79DF8150055
:100C1000C00760B3FFE7099801684FF480708860EF
:100C20009DF815008007002804D5FFE7099800F01B
:100C300057FB1BE09DF815004007002805D5FFE78E
:100C4000089840F4005008900FE09DF81500000748
:100C5000002805D5FFE7089840F48040089003E09D
:100C6000099800F039FBFFE7FFE7FFE7FFE79DF892
:100C70001600C00760B3FFE7099801684FF48030A1
:100C800088609DF816008007002804D5FFE70998C2
:100C900000F02EFB1BE09DF816004007002805D54C
:100CA000FFE7089840F4004008900FE09DF8160018
:100CB0000007002805D5FFE7089840F48030089029
:100CC00003E0099800F010FBFFE7FFE7FFE7FFE70D
:100CD000FFE79DF81C000007002810D5FFE79DF8EE
:100CE0001000C006002809D5FFE7089840F40070FE
:100CF0000890099801681020C860FFE7FFE79DF899
:100D00001C00400700280FD5FFE79DF810000007E2
:100D1000002808D5FFE7099801680820C8600998ED
:100D200000F062FAFFE7FFE79DF81C00800700284B
:100D30000BD5FFE709980068C068800720B1FFE77E
:100D4000099800F055FAFFE7FFE79DF81C00400600
:100D5000002810D5FFE79DF80C00C006002809D533
:100D6000FFE7089840F48060089009980168102017
:100D70000861FFE7FFE79DF81C00800600280FD5FB
:100D8000FFE79DF80C000007002808D5FFE7099849
:100D9000016808200861099800F044FAFFE7FFE7BE
:100DA0009DF81C00C00600280BD5FFE709980068D5
:100DB0000069800720B1FFE7099800F037FAFFE7E4
:100DC000FFE79DF81E00800700280FD5FFE79DF87C
:100DD0001800C006002808D5FFE709980168102010
:100DE0004860099800F026FAFFE7FFE79DF81E002B
:100DF000C00778B1FFE79DF818000007002808D564
:100E0000FFE70998016808204860099800F074FA23
:100E1000FFE7FFE79DF81D000006002840F18D80E8
:100E2000FFE79DF818004007002840F18180FFE7A8
:100E30009DF81D00C00750B1FFE79DF80800C007EE
:100E400028B1FFE7089840F001000890FFE79DF8FF
:100E50001D00800700280BD5FFE79DF808008007DC
:100E6000002805D5FFE7089840F002000890FFE74A
:100E70009DF81D00400700280BD5FFE79DF80800EE
:100E80004007002805D5FFE7089840F004000890C7
:100E9000FFE79DF81D000007002848D5FFE79DF8F3
:100EA000080010F0700F42D0FFE7029800F07000C9
:100EB00001460191102814D0FFE70198202815D091
:100EC000FFE70198302816D0FFE70198402817D097
:100ED000FFE70198502818D0FFE70198602819D043
:100EE0001DE0089840F00800089019E0089840F0CC
:100EF0001000089014E0089840F0200008900FE0DF
:100F0000089840F0400008900AE0089840F08000FF
:100F1000089005E0089840F48070089000E0FFE732
:100F200009980168886920F070008861FFE7FFE791
:100F30000998016804204860FFE7089848B1FFE776
:100F4000089A0999486A104348620998FFF7FCFC1F
:100F5000FFE70AB080BD000080B584B0029002981F
:100F600020B9FFE701208DF80F00E0E0029890F82B
:100F7000200020B9FFE7029800F0DEF8FFE70298B2
:100F80000168086840F00100086000F013FE01905D
:100F9000FFE7029800684068C007A8B9FFE700F0C3
:100FA00009FE0199401A0B280DD3FFE70299486A00
:100FB00040F4003048620299052081F820000120A9
:100FC0008DF80F00B3E0E4E702980168086820F0AC
:100FD0000200086000F0EEFD0190FFE70298006853
:100FE00040688007002815D5FFE700F0E3FD019970
:100FF000401A0B280DD3FFE70299486A40F40030ED
:1010000048620299052081F8200001208DF80F0028
:101010008DE0E3E70298007E012807D1FFE7029800
:101020000168086840F08000086006E002980168E6
:10103000086820F080000860FFE70298407E0128E1
:1010400007D1FFE702980168086840F04000086097
:1010500006E002980168086820F040000860FFE799
:101060000298807E012807D1FFE70298016808688E
:1010700040F02000086006E002980168086820F04F
:1010800020000860FFE70298C07E012807D1FFE733
:1010900002980168086820F01000086006E00298D5
:1010A0000168086840F010000860FFE70298007FC0
:1010B000012807D1FFE702980168086840F008009E
:1010C000086006E002980168086820F008000860DF
:1010D000FFE70298407F012807D1FFE702980168E7
:1010E000086840F00400086006E00298016808689B
:1010F00020F004000860FFE7029B19685A689868AE
:10110000D3F80CC040EA0C00D3F810C040EA0C0041
:101110005B691843013A1043C86102990020486294
:10112000029A012182F820108DF80F00FFE79DF848
:101130000F0004B080BD000080B58CB00B90002083
:101140000A900990089007900B98006846F20041B9
:10115000C4F20001884244D1FFE7FFE741F21C00DE
:10116000C4F20200016841F000710160006800F003
:10117000007006900698FFE7FFE741F21800C4F2FE
:101180000200016841F004010160006800F0040001
:1011900005900598FFE74FF400600790002003904A
:1011A0000890099040F60000C4F20100009007A9E1
:1011B000019100F057FB009801994FF4805207927B
:1011C00002220892032202920A9200F04BFB02993B
:1011D000039A1420049000F089FD049800F07CFD2F
:1011E000FFE70CB080BD000081B0009001B07047F7
:1011F00080B582B0019040F2B803C2F20003002132
:1012000059601960019844F29022C2F200020092E3
:10121000FFF79EFB009901980968FFF773F802B089
:1012200080BD000081B0009001B0704781B0009097
:1012300001B0704781B0009001B0704780B584B0B4
:101240000290029890F8200001282FD1FFE7029920
:10125000022081F8200002980168086820F001004F
:10126000086000F0A7FC0190FFE702980068406862
:10127000C007A8B1FFE700F09DFC0199401A0B28B8
:101280000DD3FFE70299486A40F4003048620299A2
:10129000052081F8200001208DF80F000FE0E4E721
:1012A0000299002048628DF80F0008E00299486A10
:1012B00040F40020486201208DF80F00FFE79DF800
:1012C0000F0004B080BD000081B0009001B07047F5
:1012D00081B0009001B0704781B0009001B07047BC
:1012E00081B0009001B0704781B0009001B07047AC
:1012F00081B0009001B0704781B0009001B070479C
:1013000080B588B0079000208DF81B00079890F8F2
:101310002100022807D0FFE70799042088630120F5
:101320008DF81B0076E007980168086820F00E0031
:10133000086007980168086820F0010008600798B5
:1013400000680821C4F20201884203D1FFE70120AE
:10135000059047E0079800681C21C4F2020188420A
:1013600003D1FFE71020049039E00798006830218E
:10137000C4F20201884204D1FFE74FF48070039069
:101380002AE0079800684421C4F20201884204D18F
:10139000FFE74FF4805002901BE007980068582147
:1013A000C4F20201884204D1FFE74FF4803001907B
:1013B0000CE0079801686C22C4F202024FF08070C2
:1013C000914208BF4FF480100190FFE7019802900E
:1013D000FFE702980390FFE703980490FFE7049863
:1013E0000590FFE705980421C4F2020108600799FF
:1013F000012081F82100FFE70799002081F82000F3
:10140000FFE70798406B20B1FFE70798416B8847DB
:10141000FFE7FFE79DF81B0008B080BD80B58EB0E8
:101420000D900D98C06B00680C900D9800680068D6
:101430000B900C980D99096CC8404007002875D591
:10144000FFE79DF82C00400700286FD5FFE70D98B7
:10145000006800688006002807D4FFE70D9801683F
:10146000086820F004000860FFE70D980068082174
:10147000C4F20201884203D1FFE704200A9047E04A
:101480000D9800681C21C4F20201884203D1FFE7D5
:101490004020099039E00D9800683021C4F2020123
:1014A000884204D1FFE74FF4806008902AE00D984D
:1014B00000684421C4F20201884204D1FFE74FF4DE
:1014C000804007901BE00D9800685821C4F202018B
:1014D000884204D1FFE74FF4802006900CE00D987D
:1014E00001686C22C4F202024FF08060914208BF92
:1014F0004FF480000690FFE706980790FFE70798F3
:101500000890FFE708980990FFE709980A90FFE71D
:101510000A980421C4F2020108600D98C06A20B143
:10152000FFE70D98C16A8847FFE7B8E00C980D996E
:10153000096CC8408007002840F18080FFE79DF8D3
:101540002C008007002879D5FFE70D980068006817
:10155000800600280BD4FFE70D980168086820F08A
:101560000A0008600D99012081F82100FFE70D981D
:1015700000680821C4F20201884203D1FFE702207B
:10158000059047E00D9800681C21C4F202018842D2
:1015900003D1FFE72020049039E00D980068302146
:1015A000C4F20201884204D1FFE74FF400700390B7
:1015B0002AE00D9800684421C4F20201884204D157
:1015C000FFE74FF4005002901BE00D98006858218F
:1015D000C4F20201884204D1FFE74FF400300190C9
:1015E0000CE00D9801686C22C4F202024FF000700A
:1015F000914208BF4FF400100190FFE7019802905C
:10160000FFE702980390FFE703980490FFE7049830
:101610000590FFE705980421C4F202010860FFE786
:101620000D99002081F82000FFE70D98806A20B115
:10163000FFE70D98816A8847FFE72FE00C980D9926
:10164000096CC8400007002827D5FFE79DF82C004B
:101650000007002821D5FFE70D980168086820F0F1
:101660000E0008600D98C26B016C012000FA01F1B8
:1016700051600D9988630D9981F82100FFE70D995C
:10168000002081F82000FFE70D98006B20B1FFE7F4
:101690000D98016B8847FFE7FFE7FFE7FFE70EB014
:1016A00080BD000083B0019000200090019820B917
:1016B000FFE701208DF80B0047E0019908684FF61D
:1016C000F872CBF6FD7210444CF6CD42CCF6CC420B
:1016D000A0FB02026FF0030000EA92000864019987
:1016E0000020C4F20200C8630199022081F82100A1
:1016F0000198006800680090009843F6F0718843F4
:10170000009001994868D1F808C0CB680A6940EA9E
:101710000C00184310434A6910438A691043C96991
:1017200001430098084300900098019909680860F7
:10173000019900208863019A012182F82110019902
:1017400081F820008DF80B00FFE79DF80B0003B037
:101750007047000080B586B0049003910292019317
:1017600000208DF80300FFE7049890F8200001287E
:1017700004D1FFE702208DF817004CE00499012006
:1017800081F82000FFE7FFE7049890F82100012886
:1017900032D1FFE70499022081F82100049900204A
:1017A000886304980168086820F0010008600498C4
:1017B0000399029A019BFEF731FE0498C06A38B182
:1017C000FFE704980168086840F00E0008600CE02C
:1017D00004980168086820F0040008600498016813
:1017E000086840F00A000860FFE70498016808688C
:1017F00040F00100086009E0FFE70499002081F84B
:101800002000FFE702208DF80300FFE79DF80300AA
:101810008DF81700FFE79DF8170006B080BD0000A7
:1018200080B584B0039000F0C5F902900398019050
:101830000198013048B1FFE740F24C00C2F20000CD
:101840000178019808440190FFE7FFE700F0B2F942
:101850000299401A0199884201D2FFE7F6E704B0E5
:1018600080BD000090B00F900E9100200D90099067
:10187000FFE70E9800680D99C840002800F07F81AE
:10188000FFE70D99012088400C900E9800680C9994
:1018900008400B900B980C99884240F06C81FFE750
:1018A0000E9840680590002851D0FFE70598012860
:1018B0003AD0FFE7059802283FD0FFE705980328B4
:1018C0005FD0FFE70598112832D0FFE7059812286E
:1018D00038D0FFE705980021C1F21101884236D0C7
:1018E000FFE705980021C1F2120188422FD0FFE7DF
:1018F00005980021C1F22101884228D0FFE7059810
:101900000021C1F22201884221D0FFE70598002181
:10191000C1F2310188421AD0FFE705980021C1F2D7
:101920003201884213D02FE00E98C06809902CE055
:101930000E98C0680430099027E00E98C0680830FF
:10194000099022E00E98C0680C3009901DE00E98B6
:10195000806818B9FFE70420099011E00E988068AC
:10196000012806D1FFE7082009900C980F9908611B
:1019700005E0082009900C980F994861FFE7FFE700
:1019800003E00020099000E0FFE70B98FF2803D850
:10199000FFE70F98049003E00F9804300490FFE7EE
:1019A000049808900B98FF2804D8FFE70D98800052
:1019B000039006E00D996FF01F0000EB810003908B
:1019C000FFE70398079008980068079A0F21914055
:1019D0008843099991400843089908600E98C07996
:1019E000C006002840F1C680FFE7FFE741F218007B
:1019F000C4F20200016841F001010160006800F0DA
:101A0000010006900698FFE70D9820F003000821DA
:101A1000C4F2010140580A900D9800F003008100C3
:101A20000F2000FA01F10A9888430A900F9840F6B7
:101A30000001C4F20101884203D1FFE700200290B7
:101A400026E00F9840F60041C4F20101884203D11C
:101A5000FFE70120019018E00F9841F20001C4F265
:101A60000101884203D1FFE7022000900AE00F99AC
:101A700041F20042C4F201020420914208BF032057
:101A80000090FFE700980190FFE701980290FFE7C0
:101A900002980D9901F00301890000FA01F10A98FA
:101AA00008430A900A980D9921F003010822C4F214
:101AB000010288500E988079C006002809D5FFE7FA
:101AC0000B9A40F20841C4F2010108681043086013
:101AD00008E00B9A40F20841C4F201010868904303
:101AE0000860FFE70E9880798006002809D5FFE797
:101AF0000B9A40F20C41C4F20101086810430860DF
:101B000008E00B9A40F20C41C4F2010108689043CE
:101B10000860FFE70E9880798007002809D5FFE765
:101B20000B9A40F20441C4F20101086810430860B6
:101B300008E00B9A40F20441C4F2010108689043A6
:101B40000860FFE70E988079C00748B1FFE70B9A5D
:101B500040F20041C4F2010108681043086008E047
:101B60000B9A40F20041C4F20101086890430860FA
:101B7000FFE7FFE7FFE70D9801300D9079E610B021
:101B80007047000082B00190ADF8021001988068A3
:101B9000BDF80210084204D0FFE701208DF80100D3
:101BA00003E000208DF80100FFE79DF8010002B07E
:101BB0007047000044F2AC20C2F200000068704799
:101BC00040F24C00C2F20000027844F2AC21C2F2B2
:101BD00000010868104408607047000080B542F2B8
:101BE0000001C4F20201086840F010000860032000
:101BF00000F096F80F2000F005F800F03BF8002008
:101C000080BD000080B582B0009040F20000C2F2BA
:101C10000000006840F24C01C2F200010A784FF463
:101C20007A71B1FBF2F1B0FBF1F000F049FD20B1A7
:101C3000FFE701208DF8070018E000980F280DD865
:101C4000FFE700994FF0FF30002200F04FF80098B6
:101C500040F25001C2F20001086003E001208DF85B
:101C6000070003E000208DF80700FFE79DF807005C
:101C700002B080BD83B0FFE741F21800C4F2020059
:101C8000016841F001010160006800F0010002906C
:101C90000298FFE7FFE741F21C00C4F2020001686E
:101CA00041F080510160006800F08050019001987F
:101CB000FFE7FFE70421C4F20101086800900098E3
:101CC00020F0E0600090009840F0007000900098D4
:101CD0000860FFE703B0704780B582B08DF8070059
:101CE0009DF9070002F0A0FE02B080BD80B586B06D
:101CF0008DF81700049103920020029002F0ACFED0
:101D000002909DF91700019002980499039A01F03E
:101D1000F7FF0146019802F0A7FE06B080BD000063
:101D200080B582B00190019802F0C0FE02B080BD83
:101D300080B584B002900191029820B9FFE701209C
:101D40008DF80F001BE1019842F20001C4F202017C
:101D5000096801F00701884216D9FFE742F2000046
:101D6000C4F20200016821F00701019A11430160E9
:101D7000006800F007000199884204D0FFE70120C5
:101D80008DF80F00FBE0FFE702980078800700283D
:101D90002AD5FFE7029800784007002809D5FFE719
:101DA00041F20401C4F20201086840F4E0600860F6
:101DB000FFE7029800780007002809D5FFE741F205
:101DC0000401C4F20201086840F460500860FFE7B3
:101DD00041F20401C4F20201086820F0F000029A06
:101DE000926810430860FFE702980078C007002857
:101DF00060D0FFE70298406801280ED1FFE741F26A
:101E00000000C4F2020000688003002804D4FFE749
:101E100001208DF80F00B2E021E00298406802280E
:101E20000ED1FFE741F20000C4F202000068800119
:101E3000002804D4FFE701208DF80F009FE00DE09B
:101E400041F20000C4F2020000688007002804D4B8
:101E5000FFE701208DF80F0091E0FFE7FFE741F277
:101E60000401C4F20201086820F00300029A5268DB
:101E700010430860FFF79EFE0090FFE741F2040068
:101E8000C4F20200006800F00C0002994968B0EB4F
:101E9000810F0ED0FFE7FFF78DFE0099401A41F247
:101EA0008931884204D3FFE703208DF80F0066E0F4
:101EB000E4E7FFE7019842F20001C4F20201096879
:101EC00001F00701884216D2FFE742F20000C4F297
:101ED0000200016821F00701019A114301600068C6
:101EE00000F007000199884204D0FFE701208DF837
:101EF0000F0044E0FFE702980078400700280CD567
:101F0000FFE741F20401C4F20201086820F4E06036
:101F1000029AD26810430860FFE702980078000731
:101F200000280DD5FFE741F20401C4F20201086860
:101F300020F46050029A126940EAC2000860FFE78C
:101F400000F022F841F20401C4F202010968C9B2AA
:101F50000A0944F6BC61C0F60001895CC84040F241
:101F60000001C2F20001086040F25000C2F200001D
:101F70000068FFF747FE00208DF80F00FFE79DF88F
:101F80000F0004B080BD000086B0002005900490D2
:101F900003900290019041F20400C4F20200006834
:101FA0000590059800F00C000146009100283FD0F4
:101FB000FFE70098042804D0FFE70098082806D01F
:101FC00037E041F20020C0F27A00019037E0059836
:101FD000C0F3834144F6CC60C0F60000405C029040
:101FE0009DF81600C007C0B1FFE741F20400C4F23B
:101FF00002000068C0F3404144F6DC60C0F6000017
:10200000405C0490029841F20021C0F27A014843FA
:102010000499B0FBF1F0039007E0029840F600113C
:10202000C0F23D0148430390FFE70398019006E0AA
:10203000FFE741F20020C0F27A000190FFE701982B
:1020400006B0704780B586B00490049820B9FFE7C9
:1020500001208DF817002EE304980078C0070028AF
:1020600000F0AE80FFE741F20400C4F20200006815
:1020700000F00C00042813D0FFE741F20400C4F282
:102080000200006800F00C0008281BD1FFE741F2B5
:102090000400C4F202000068C003002812D5FFE764
:1020A00041F20000C4F2020000688003002808D555
:1020B000FFE70498406820B9FFE701208DF817007A
:1020C000F9E27CE0FFE704984068B0F5803F09D171
:1020D000FFE741F20001C4F20201086840F48030D9
:1020E000086032E00498406868B9FFE741F20001F7
:1020F000C4F20201086820F480300860086820F407
:102100008020086020E004984068B0F5A02F0DD131
:10211000FFE741F20001C4F20201086840F48020A8
:102120000860086840F4803008600CE041F200016B
:10213000C4F20201086820F480300860086820F4C6
:1021400080200860FFE7FFE7FFE7FFE704984068AB
:10215000D0B1FFE7FFF72EFD0390FFE741F200004B
:10216000C4F202000068800300280CD4FFE7FFF7E8
:1021700021FD0399401A652804D3FFE703208DF859
:10218000170098E2EAE719E0FFF714FD0390FFE774
:1021900041F20000C4F202000068800300280CD560
:1021A000FFE7FFF707FD0399401A652804D3FFE70F
:1021B00003208DF817007EE2EAE7FFE7FFE7FFE77D
:1021C000049800788007002840F18D80FFE741F2F5
:1021D0000400C4F20200006810F00C0F13D0FFE7F7
:1021E00041F20400C4F20200006800F00C0008286C
:1021F00029D1FFE741F20400C4F202000068C003E5
:10220000002820D4FFE741F20000C4F20200006879
:102210008007002809D5FFE704980069012804D049
:10222000FFE701208DF8170045E241F20001C4F2FA
:102230000201086820F0F800049A526940EAC200DE
:102240000860FFE74EE00498006958B3FFE70021FB
:10225000C4F2422101200860FFF7ACFC0390FFE7C5
:1022600041F20000C4F202000068800700280CD48C
:10227000FFE7FFF79FFC0399401A032804D3FFE709
:1022800003208DF8170016E2EAE741F20001C4F2DC
:102290000201086820F0F800049A526940EAC2007E
:1022A00008601EE00021C4F2422100200860FFF710
:1022B00081FC0390FFE741F20000C4F202000068D5
:1022C000800700280CD5FFE7FFF774FC0399401A3C
:1022D000032804D3FFE703208DF81700EBE1EAE7BA
:1022E000FFE7FFE7FFE7049800780007002848D5DC
:1022F000FFE70498806918B3FFE740F28041C4F219
:10230000422101200860FFF755FC0390FFE741F2EE
:102310002400C4F202000068800700280CD4FFE704
:10232000FFF748FC0399401A032804D3FFE7032072
:102330008DF81700BFE1EAE7012001F01FFD1FE063
:1023400040F28041C4F2422100200860FFF732FCD5
:102350000390FFE741F22400C4F202000068800706
:1023600000280CD5FFE7FFF725FC0399401A032846
:1023700004D3FFE703208DF817009CE1EAE7FFE7AD
:10238000FFE7049800784007002840F1D880FFE775
:1023900000208DF8070041F21C00C4F20200006822
:1023A000C000002813D4FFE7FFE741F21C00C4F28D
:1023B0000200016841F080510160006800F0805027
:1023C00000900098FFE701208DF80700FFE747F233
:1023D0000000C4F200000068C005002822D4FFE716
:1023E00047F20001C4F20001086840F48070086000
:1023F000FFF7E0FB0390FFE747F20000C4F20000A4
:102400000068C00500280CD4FFE7FFF7D3FB039951
:10241000401A652804D3FFE703208DF817004AE12E
:10242000EAE7FFE7FFE70498C068012809D1FFE762
:1024300041F22001C4F20201086840F00100086086
:1024400031E00498C06868B9FFE741F22001C4F2A6
:102450000201086820F001000860086820F004000C
:1024600008601FE00498C06805280DD1FFE741F21D
:102470002001C4F20201086840F004000860086806
:1024800040F0010008600CE041F22001C4F20201BA
:10249000086820F001000860086820F00400086067
:1024A000FFE7FFE7FFE7FFE70498C068E0B1FFE759
:1024B000FFF780FB0390FFE741F22000C4F2020027
:1024C0000068800700280ED4FFE7FFF773FB03992D
:1024D000401A41F28931884204D3FFE703208DF886
:1024E0001700E8E0E8E71BE0FFF764FB0390FFE775
:1024F00041F22000C4F202000068800700280ED5D7
:10250000FFE7FFF757FB0399401A41F289318842F0
:1025100004D3FFE703208DF81700CCE0E8E7FFE7DE
:102520009DF80700012809D1FFE741F21C01C4F220
:102530000201086820F080500860FFE7FFE7049878
:10254000C069002800F0B380FFE741F20400C4F244
:102550000200006800F00C00082800F08280FFE70D
:102560000498C06902285CD1FFE76021C4F24221CF
:1025700000200860FFF71EFB0390FFE741F2000018
:10258000C4F202000068800100280CD5FFE7FFF7C5
:1025900011FB0399401A032804D3FFE703208DF8A9
:1025A000170088E0EAE70498006AB0F5803F0CD194
:1025B000FFE741F20401C4F20201086820F4003090
:1025C000049A926810430860FFE741F20401C4F2E4
:1025D0000201086820F47410049B1A6A5B6A1A43AB
:1025E000104308606021C4F2422101200860FFF717
:1025F000E1FA0390FFE741F20000C4F20200006834
:10260000800100280CD4FFE7FFF7D4FA0399401AA1
:10261000032804D3FFE703208DF817004BE0EAE717
:102620001EE06021C4F2422100200860FFF7C2FAD8
:102630000390FFE741F20000C4F20200006880014D
:1026400000280CD5FFE7FFF7B5FA0399401A0328D5
:1026500004D3FFE703208DF817002CE0EAE7FFE73B
:1026600024E00498C069012804D1FFE701208DF817
:10267000170020E041F20400C4F20200006802905A
:10268000029800F480300499096A884208D1FFE773
:10269000029800F470100499496A884204D0FFE758
:1026A00001208DF8170006E0FFE7FFE7FFE70020B5
:1026B0008DF81700FFE79DF8170006B080BD0000F9
:1026C00080B582B00190019801F07EFC02B080BD1F
:1026D00081B0009001B0704781B0009001B07047A8
:1026E00085B003900291FFE7039890F83C00012821
:1026F00004D1FFE702208DF813005BE0039901206D
:1027000081F83C00FFE7FFE70399022081F83D00D4
:102710000398006840680190039800688068009002
:10272000019820F070000190029801680198084318
:10273000019001980399096848600398006842F67F
:102740000041C4F20101884218D0FFE703980068F5
:10275000B0F1804F12D0FFE70398006840F20041CB
:10276000C4F20001884209D0FFE70398006840F6F0
:102770000001C4F2000188420ED1FFE7009820F06A
:1027800080000090029841680098084300900098EB
:10279000039909688860FFE70399012081F83D00EB
:1027A000FFE70399002081F83C00FFE700208DF847
:1027B0001300FFE79DF8130005B0704780B582B0A5
:1027C0000090009820B9FFE701208DF807003FE056
:1027D000009890F83D0040B9FFE70099002081F88B
:1027E0003C00009800F038F8FFE70099022081F8DB
:1027F0003D00009951F8040B01F05CFC00990120A8
:1028000081F84600FFE70099012081F83E00009919
:1028100081F83F00009981F84000009981F841005B
:10282000FFE7FFE70099012081F84200009981F855
:102830004300009981F84400009981F84500FFE7C2
:102840000099012081F83D0000208DF80700FFE786
:102850009DF8070002B080BD80B58CB00B900B983E
:102860000068B0F1804F40F09C80FFE7FFE741F245
:102870001C00C4F20200016841F00101016000681F
:1028800000F001000A900A98FFE744F21C00C2F22F
:10289000000007905821C4F202010160102141603C
:1028A000002181608022C2604FF4807202614FF487
:1028B000806242618161C161FEF7F4FE18B1FFE7F9
:1028C000FDF78EFEFFE7FFE70B9844F21C01C2F212
:1028D000000141620B984862FFE744F2A400C2F293
:1028E000000006900821C4F202010160102141603D
:1028F000002181608022C2604FF4807202614FF437
:10290000806242618161C161FEF7CCFE18B1FFE7D0
:10291000FDF766FEFFE7FFE70B9844F2A401C2F261
:102920000001C1620B984862FFE744F26000C2F206
:10293000000005908021C4F2020101601021416075
:10294000002181608022C2604FF4807202614FF4E6
:10295000806242618161C161FEF7A4FE18B1FFE7A8
:10296000FDF73EFEFFE7FFE70B9844F26001C2F27D
:10297000000181620B984862FFE7FFE70B9844F281
:102980006001C2F2000101630B984862FFE71C205E
:10299000049000221146FFF7A9F90498FFF79CF96B
:1029A000BFE00B98006840F20041C4F20001884289
:1029B00040F09380FFE7FFE741F21C00C4F2020001
:1029C000016841F002010160006800F00200099016
:1029D0000998FFE744F2E800C2F2000003906C217E
:1029E000C4F2020101601021416000218160802257
:1029F000C2604FF4807202614FF480624261816173
:102A0000C161FEF74FFE18B1FFE7FDF7E9FDFFE7F3
:102A1000FFE70B9844F2E801C2F2000141620B9813
:102A20004862FFE7FFE70B9844F2E801C2F20001B9
:102A300081630B984862FFE744F22C10C2F2000059
:102A400002903021C4F20201016010214160002196
:102A500081608022C2604FF4807202614FF4806214
:102A600042618161C161FEF71DFE18B1FFE7FDF70C
:102A7000B7FDFFE7FFE70B9844F22C11C2F200010B
:102A800081620B984862FFE744F27010C2F20000C6
:102A900001901C21C4F2020101601021416000215B
:102AA00081608022C2604FF4807202614FF48062C4
:102AB00042618161C161FEF7F5FD18B1FFE7FDF7E5
:102AC0008FFDFFE7FFE70B9844F27011C2F200019F
:102AD000C1620B984862FFE722E00B98006840F65D
:102AE0000001C4F20001884219D1FFE7FFE741F27B
:102AF0001C00C4F20200016841F00401016000689A
:102B000000F0040008900898FFE71E2000900121C3
:102B10000022FFF7EBF80098FFF7DEF8FFE7FFE78A
:102B2000FFE70CB080BD000083B00190019890F8E1
:102B30003D00012804D0FFE701208DF80B0047E09D
:102B40000199022081F83D0001980168C86840F0B1
:102B50000100C8600198006842F60041C4F201011A
:102B6000884218D0FFE701980068B0F1804F12D07A
:102B7000FFE70198006840F20041C4F2000188427A
:102B800009D0FFE70198006840F60001C4F2000197
:102B9000884212D1FFE701980068806800F00700C2
:102BA00000900098062807D0FFE7019801680868A0
:102BB00040F001000860FFE706E00198016808683E
:102BC00040F001000860FFE700208DF80B00FFE7F0
:102BD0009DF80B0003B0704780B586B00490039158
:102BE00000208DF80B00FFE7049890F83C000128C6
:102BF00004D1FFE702208DF81700ABE00499012013
:102C000081F83C00FFE7FFE70499022081F83D00CE
:102C10000498006880680190019820F07700019086
:102C2000019820F47F400190019804990968886018
:102C3000039800680090002872D0FFE700981028E1
:102C40006ED0FFE7009820286AD0FFE70098302870
:102C500066D0FFE70098402855D0FFE7009850283D
:102C600037D0FFE70098602840D0FFE70098702831
:102C70000BD0FFE70098B0F5805F05D0FFE7009824
:102C8000B0F5005F16D052E055E004980068039B51
:102C90005A689968DB6801F093FB049800688068C3
:102CA0000190019840F0770001900198049909681B
:102CB000886040E004980068039B5A689968DB6864
:102CC00001F07EFB04980168886840F480408860C9
:102CD00031E004980068039A5168D26801F02CFD35
:102CE00004980068502101F085FB24E004980068F6
:102CF000039A5168D26801F047FD0498006860218A
:102D000001F078FB17E004980068039A5168D268D4
:102D100001F012FD04980068402101F06BFB0AE00D
:102D2000049800680399096801F064FB03E001203E
:102D30008DF80B00FFE70499012081F83D00FFE7C3
:102D40000499002081F83C00FFE79DF80B008DF806
:102D50001700FFE79DF8170006B080BD81B0009016
:102D600001B0704781B0009001B0704780B584B069
:102D7000039003980068C068029003980068006997
:102D800001909DF804008007002824D5FFE79DF8F6
:102D90000800800700281DD5FFE7039801686FF041
:102DA0000200086103990120087703980068806990
:102DB000800720B1FFE70398FFF7D4FF06E00398F0
:102DC00000F056F9039800F04BFAFFE70399002052
:102DD0000877FFE7FFE79DF804004007002825D5A6
:102DE000FFE79DF80800400700281ED5FFE703987D
:102DF00001686FF0040008610399022008770398C6
:102E00000068806910F4407F04D0FFE70398FFF763
:102E1000A9FF06E0039800F02BF9039800F020FAD0
:102E2000FFE7039900200877FFE7FFE79DF804001C
:102E30000007002824D5FFE79DF8080000070028B8
:102E40001DD5FFE7039801686FF00800086103993A
:102E50000420087703980068C069800720B1FFE765
:102E60000398FFF77FFF06E0039800F001F903984D
:102E700000F0F6F9FFE7039900200877FFE7FFE786
:102E80009DF80400C006002825D5FFE79DF808003E
:102E9000C00600281ED5FFE7039801686FF01000F8
:102EA000086103990820087703980068C06910F446
:102EB000407F04D0FFE70398FFF754FF06E0039834
:102EC00000F0D6F8039800F0CBF9FFE70399002053
:102ED0000877FFE7FFE79DF80400C00778B1FFE738
:102EE0009DF80800C00748B1FFE7039801686FF03C
:102EF00001000861039800F0B9FCFFE7FFE79DF8C7
:102F000004000006002810D5FFE79DF80800000621
:102F1000002809D5FFE7039801686FF08000086179
:102F20000398FFF7D5FBFFE7FFE79DF80400400695
:102F3000002810D5FFE79DF808004006002809D5B5
:102F4000FFE7039801686FF040000861039800F004
:102F50009FFCFFE7FFE79DF804008006002810D5DE
:102F6000FFE79DF808008006002809D5FFE70398D1
:102F700001686FF0200008610398FFF7ADFBFFE7E1
:102F8000FFE704B080BD000080B58CB00B9000203E
:102F90000A900990089007900B980068B0F1804F54
:102FA0001DD1FFE7FFE741F21800C4F202000168FB
:102FB00041F004010160006800F0040006900698EA
:102FC000FFE7072007900220089003200A9040F6B0
:102FD0000000C4F2010007A9FEF744FC45E00B988D
:102FE000006840F20041C4F2000188423CD1FFE792
:102FF000FFE741F21800C4F20200016841F0040149
:103000000160006800F0040005900598FFE7FFE705
:1030100041F21800C4F20200016841F008010160A9
:10302000006800F0080004900498FFE7C0200790B3
:10303000022001900890032002900A9040F60000C0
:10304000C4F2010007A90391FEF70CFC019A029853
:1030500003990123079308920A9040F60040C4F2B6
:103060000100FEF7FFFBFFE7FFE70CB080BD0000AB
:1030700081B0009001B0704780B586B00490039194
:10308000029200208DF80700FFE7049890F83C00BA
:10309000012804D1FFE702208DF8170089E0049988
:1030A000012081F83C00FFE7FFE7029800900C2820
:1030B00000F270800099DFE801F0076D6D6D206D02
:1030C0006D6D3A6D6D6D530004980068039901F0C1
:1030D000A7F904980168886940F00800886104989D
:1030E0000168886920F004008861039802690498E7
:1030F000016888691043886150E00498006803996A
:1031000001F0F6F904980168886940F4006088616C
:1031100004980168886920F48060886103980269D6
:1031200004980168886940EA0220886136E00498C2
:103130000068039901F048FA04980168C86940F0F2
:103140000800C86104980168C86920F00400C861DB
:103150000398026904980168C8691043C8611DE0BA
:1031600004980068039901F09BFA04980168C86903
:1031700040F40060C86104980168C86920F4806068
:10318000C8610398026904980168C86940EA02208E
:10319000C86103E001208DF80700FFE7FFE704990D
:1031A000002081F83C00FFE79DF807008DF817002C
:1031B000FFE79DF8170006B080BD000080B582B023
:1031C0000090009820B9FFE701208DF807003FE04C
:1031D000009890F83D0040B9FFE70099002081F881
:1031E0003C00009800F038F8FFE70099022081F8D1
:1031F0003D00009951F8040B00F05CFF009901209C
:1032000081F84600FFE70099012081F83E0000990F
:1032100081F83F00009981F84000009981F8410051
:10322000FFE7FFE70099012081F84200009981F84B
:103230004300009981F84400009981F84500FFE7B8
:103240000099012081F83D0000208DF80700FFE77C
:103250009DF8070002B080BD81B0009001B07047BA
:1032600080B584B0039003980068B0F1804F3DD1E1
:10327000FFE70398007F01280FD1FFE744F2B41065
:10328000C2F200000021029100F036FA029844F2E6
:103290008C21C2F20001087027E00398007F022809
:1032A0000ED1FFE744F2B410C2F20000042100F096
:1032B00023FA44F28C21C2F200010020087013E0CE
:1032C0000398007F04280ED1FFE744F2B410C2F245
:1032D0000000082100F010FA44F28C21C2F2000133
:1032E00000200870FFE7FFE7FFE746E0039800686B
:1032F00040F20041C4F2000188423DD1FFE703984B
:10330000007F01280FD1FFE744F2FC10C2F2000059
:103310000021019100F0F0F9019844F28C21C2F2F1
:103320000001087027E00398007F02280ED1FFE714
:1033300044F2FC10C2F20000042100F0DDF944F276
:103340008C21C2F200010020087013E00398007F76
:1033500004280ED1FFE744F2FC10C2F2000008215D
:1033600000F0CAF944F28C21C2F20001002008707A
:10337000FFE7FFE7FFE7FFE7FFE704B080BD0000DE
:1033800081B0009001B0704780B590B00E900D9163
:103390000C92ADF82E3000208DF82D000D9828B934
:1033A000FFE70E9890F83E0009901CE00D98042865
:1033B00005D1FFE70E9890F83F00089010E00D98B7
:1033C000082805D1FFE70E9890F84000079004E028
:1033D0000E9890F841000790FFE707980890FFE7E4
:1033E00008980990FFE70998022804D1FFE7022016
:1033F0008DF83F007BE10D9828B9FFE70E9890F813
:103400003E0006901CE00D98042805D1FFE70E98B9
:1034100090F83F00059010E00D98082805D1FFE7CF
:103420000E9890F84000049004E00E9890F8410047
:103430000490FFE704980590FFE705980690FFE7E2
:103440000698012834D1FFE70C9820B1FFE7BDF8BA
:103450002E0020B9FFE701208DF83F0047E10D98CD
:1034600028B9FFE70E99022081F83E001EE00D9872
:10347000042806D1FFE70E99022081F83F0003904F
:1034800012E00D98082806D1FFE70E99022081F876
:103490004000029005E00E99022081F84100029060
:1034A000FFE702980390FFE70398FFE7FFE703E0D9
:1034B00001208DF83F001AE1FFE70D9801900C28DC
:1034C00000F2B6800199DFE801F007B3B3B332B37D
:1034D000B3B35DB3B3B388000E98416A44F2F510FC
:1034E000C0F6000088620E98416A44F2B120C0F62E
:1034F0000000C8620E98416A44F22530C0F6000010
:1035000008630E980268406A0C993432BDF82E3078
:10351000FEF720F920B1FFE701208DF83F00E6E03B
:103520000E980168C86840F40070C86084E00E9886
:10353000816A44F2F510C0F6000088620E98816A34
:1035400044F2B120C0F60000C8620E98816A44F2CD
:103550002530C0F6000008630E980268806A0C9956
:103560003832BDF82E30FEF7F5F820B1FFE7012024
:103570008DF83F00BBE00E980168C86840F4806099
:10358000C86059E00E98C16A44F2F510C0F6000018
:1035900088620E98C16A44F2B120C0F60000C86289
:1035A0000E98C16A44F22530C0F6000008630E98F8
:1035B0000268C06A0C993C32BDF82E30FEF7CAF89A
:1035C00020B1FFE701208DF83F0090E00E980168E0
:1035D000C86840F40060C8602EE00E98016B44F2A9
:1035E000F510C0F6000088620E98016B44F2B1201D
:1035F000C0F60000C8620E98016B44F22530C0F698
:10360000000008630E980268006B0C994032BDF808
:103610002E30FEF79FF820B1FFE701208DF83F0024
:1036200065E00E980168C86840F48050C86003E007
:1036300001208DF82D00FFE79DF82D00002851D1C5
:10364000FFE70E9800680D99012200F0B7FD0E9873
:10365000006842F60041C4F20101884207D1FFE749
:103660000E980168486C40F400404864FFE70E98EB
:10367000006842F60041C4F20101884218D0FFE719
:103680000E980068B0F1804F12D0FFE70E980068E6
:1036900040F20041C4F20001884209D0FFE70E98D1
:1036A000006840F60001C4F20001884212D1FFE731
:1036B0000E980068806800F007000A900A980628B3
:1036C00007D0FFE70E980168086840F00100086025
:1036D000FFE706E00E980168086840F00100086006
:1036E000FFE7FFE79DF82D008DF83F00FFE79DF80D
:1036F0003F0010B080BD000080B586B005900491F9
:1037000000208DF80F00049802900C2835D80299FB
:10371000DFE801F007333333123333331D333333F0
:10372000280005980168C86820F40070C8600598F2
:10373000406AFDF7E5FD24E005980168C86820F4BB
:103740008060C8600598806AFDF7DAFD19E0059889
:103750000168C86820F40060C8600598C06AFDF779
:10376000CFFD0EE005980168C86820F48050C8605D
:103770000598006BFDF7C4FD03E001208DF80F00F4
:10378000FFE79DF80F0000286CD1FFE7059800685F
:103790000499002200F012FD0598006842F60041ED
:1037A000C4F2010188421BD1FFE7FFE705980068DA
:1037B000006A41F21111084210D1FFE70598006834
:1037C000006A40F24441084207D1FFE705980168CA
:1037D000486C20F400404864FFE7FFE7FFE7FFE79D
:1037E000FFE705980068006A41F21111084210D104
:1037F000FFE705980068006A40F24441084207D19B
:10380000FFE705980168086820F001000860FFE7FD
:10381000FFE7FFE7049828B9FFE70599012081F841
:103820003E001EE00498042806D1FFE70599012018
:1038300081F83F00019012E00498082806D1FFE7C4
:103840000599012081F84000009005E005990120CC
:1038500081F841000090FFE700980190FFE7019890
:10386000FFE7FFE79DF80F0006B080BD80B582B08E
:1038700001900198006840F60001C4F200018842FE
:1038800003D1FFE700F018F8FFE702B080BD0000A9
:1038900081B0009001B07047FFE7FEE780B582B0CD
:1038A00068460023036040F21B304FF45871FF223A
:1038B00000F04AFB02B080BD80B544F28E20C2F217
:1038C0000000007840B9FFE700F098FA44F28E213A
:1038D000C2F200010870FFE780BD000080B582B031
:1038E00043F6F470C2F20000009046F20041C4F2C8
:1038F00000010160022141600021019181604FF0CF
:103900008072C2604FF4702202614161017641769B
:103910008176C17601774177FDF71EFB18B1FFE78D
:10392000FCF75EFEFFE702B080BD000080B588B006
:10393000FFE741F21400C4F20200016841F0010106
:103940000160006800F0010007900798FFE70B2076
:103950000090002205921146FEF7C8F90098FEF784
:10396000BBF9059A0C2001901146FEF7BFF90198AA
:10397000FEF7B2F9059A0D2002901146FEF7B6F94E
:103980000298FEF7A9F9059A0F2003901146FEF759
:10399000ADF90398FEF7A0F9059A1020049011469E
:1039A000FEF7A4F90498FEF797F9059A11200690FE
:1039B0001146FEF79BF90698FEF78EF908B080BD18
:1039C00080B58AB000200990089007900690FFE724
:1039D00041F21800C4F20200016841F020010160C8
:1039E000006800F0200005900598FFE7FFE741F22E
:1039F0001800C4F20200016841F00401016000688F
:103A000000F0040004900498FFE7FFE741F218007B
:103A1000C4F20200016841F008010160006800F092
:103A2000080003900398FFE71820069000200090FC
:103A3000079001200190089040F60000C4F20100B8
:103A400006A90291FDF70EFF009A019802994FF620
:103A5000C04306930792089040F60040C4F201006C
:103A6000FDF700FF0AB080BD80B58EB00021009147
:103A70000D910C910B910A91099108910791069172
:103A80000591049103910291019144F2B410C2F2A4
:103A900000004FF080420260416081605922C260A4
:103AA00001618161FEF78AFE18B1FFE7FCF798FD1E
:103AB000FFE74FF480500A9044F2B410C2F20000C5
:103AC0000AA9FFF789F818B1FFE7FCF789FDFFE7BE
:103AD00044F2B410C2F20000FFF770FB18B1FFE728
:103AE000FCF77EFDFFE700200890099044F2B41037
:103AF000C2F2000008A9FEF7F3FD18B1FFE7FCF7DA
:103B00006FFDFFE760200190002202920392059270
:103B100044F2B410C2F2000001A9FFF7ADFA18B1E7
:103B2000FFE7FCF75DFDFFE744F2B410C2F20000CE
:103B300001A90422FFF7A0FA18B1FFE7FCF750FD36
:103B4000FFE744F2B410C2F2000001A90822FFF717
:103B500093FA18B1FFE7FCF743FDFFE744F2B41016
:103B6000C2F20000FFF710FA0EB080BD80B58EB033
:103B7000002100910D910C910B910A9109910891EE
:103B8000079106910591049103910291019144F2EC
:103B9000FC10C2F2000040F20042C4F200020260D7
:103BA000416081605922C26001618161FEF706FEB9
:103BB00018B1FFE7FCF714FDFFE74FF480500A90BF
:103BC00044F2FC10C2F200000AA9FFF705F818B190
:103BD000FFE7FCF705FDFFE744F2FC10C2F200002E
:103BE000FFF7ECFA18B1FFE7FCF7FAFCFFE700205B
:103BF0000890099044F2FC10C2F2000008A9FEF7F8
:103C00006FFD18B1FFE7FCF7EBFCFFE760200190C8
:103C1000002202920392059244F2FC10C2F20000CC
:103C200001A9FFF729FA18B1FFE7FCF7D9FCFFE774
:103C300044F2FC10C2F2000001A90422FFF71CFAB2
:103C400018B1FFE7FCF7CCFCFFE744F2FC10C2F22E
:103C5000000001A90822FFF70FFA18B1FFE7FCF7EF
:103C6000BFFCFFE744F2FC10C2F20000FFF78CF942
:103C70000EB080BD80B588B00021019107910691FA
:103C8000059104910391029144F24420C2F2000094
:103C900040F60002C4F20002026041F61F42426098
:103CA00081600922C26001618161FEF787FD18B160
:103CB000FFE7FCF795FCFFE74FF48050049044F2D7
:103CC0004420C2F2000004A9FEF786FF18B1FFE706
:103CD000FCF786FCFFE700200290039044F24420AA
:103CE000C2F2000002A9FEF7FBFC18B1FFE7FCF7E7
:103CF00077FCFFE708B080BDFFE7FEE7FFE7FEE7E0
:103D000088B0079006910592079800F0070004908C
:103D10000498C0F10700052803D3FFE704200190B1
:103D200004E00498C0F107000190FFE701980390B8
:103D300004980430062803D8FFE70020009003E031
:103D4000049803380090FFE70098029006980399C2
:103D5000012202FA01F101390840029B98400599BD
:103D60009A40013A1140084308B07047704700007C
:103D700080B5012000F0A6F880BD000082B001905F
:103D8000019840F20001C2F200010968C90844F636
:103D9000D352C1F26202A1FB02218909484300907B
:103DA000FFE700BFFFE70098411E00910028F8D10F
:103DB000FFE702B07047000080B58AB00990ADF807
:103DC0002210079208200590002003900490BDF96E
:103DD00022000190099843F6F471C2F20001884272
:103DE0000AD1FFE7079A43F6F470C2F2000001A976
:103DF0006B46FCF73FFCFFE70AB080BD80B582B0A0
:103E000000208DF80600FFE79DF8060009281CD861
:103E1000FFE79DF8062044F6FC60C0F6000000EBCA
:103E2000C20150F832008988FDF7ACFE30B9FFE7D7
:103E30009DF8060001308DF807000AE0FFE79DF8C5
:103E4000060001308DF80600DEE700208DF807003F
:103E5000FFE79DF8070002B080BD000080B586B086
:103E6000ADF81600ADF81410ADF812200022039240
:103E70001046114600F084FD039BBDF81600BDF806
:103E800014106A461360FF22029200F05DF8029A55
:103E9000039B6846036040F2C71040F2DE2100F049
:103EA00053F8029A039B6846036040F2DF2040F219
:103EB0001A3100F049F8FFF7F1FC00F00FFD06B0F1
:103EC00080BD000080B582B08DF80700002210464A
:103ED000114600F055FDFCF747FB9DF8070058B16F
:103EE000FFE768460023036040F2C71040F2DE217E
:103EF000FF2200F029F8FFE768460023036040F244
:103F0000DF2040F21A31FF2200F01EF8FFF7C6FC56
:103F100000F0E4FC02B080BD80B582B0ADF80600D0
:103F200000221046114600F02BFDFCF737FBBDF8D0
:103F30000600FCF79DFAFFF7B1FC00F0CFFC02B0E1
:103F400080BD00007047000080B584B084460698AC
:103F5000ADF80EC0ADF80C108DF80B208DF80A30BE
:103F60008DF80900BDF80E00B0F5587F01DDFFE7C0
:103F700027E0BDF80C00B0F5587F05DDFFE74FF4F2
:103F80005870ADF80C00FFE7BDF80E00ADF8060064
:103F9000FFE7BDF80600BDF80C10884211DCFFE712
:103FA000BDF806009DF80B109DF80A209DF8093019
:103FB00000F00CFDFFE7BDF806000130ADF806008B
:103FC000E7E704B080BD000080B582B000900098A3
:103FD0000138B0F1807F03D3FFE70120019019E0A1
:103FE000009801384EF21401CEF2000108604FF043
:103FF000FF300F2100F038FD4EF21801CEF2000123
:10400000002008604EF21002CEF20002072111607B
:104010000190FFE7019802B080BD000080B5FDF778
:10402000CFFD80BD80B590B006A800902821FCF798
:1040300003F90098002305930493039302930193DB
:10404000012206924FF48031079108930A920222CE
:104050000D920E914FF4E0110F91FDF7F3FF18B19F
:10406000FFE7FCF7BDFAFFE70F2001900221029164
:10407000002003904FF480620492059001A8FDF7A0
:1040800057FE18B1FFE7FCF7ABFAFFE710B080BDB1
:104090007047000080B544F2B410C2F20000FEF791
:1040A00065FE80BD80B544F24420C2F20000FEF7F8
:1040B0005DFE80BD83B0029001910298006800907F
:1040C000029842F60041C4F20101884215D0FFE790
:1040D0000298B0F1804F10D0FFE7029840F2004103
:1040E000C4F20001884208D0FFE7029840F60001C0
:1040F000C4F2000188420AD1FFE7009820F0700066
:10410000009001984168009808430090FFE70298EA
:1041100042F60041C4F20101884215D0FFE702983F
:10412000B0F1804F10D0FFE7029840F20041C4F296
:104130000001884208D0FFE7029840F60001C4F26F
:10414000000188420AD1FFE7009820F440700090F7
:104150000198C168009808430090FFE7009820F09C
:10416000800001994969084300900098029908600D
:10417000019880680299C862019800680299886273
:10418000029842F60041C4F20101884205D1FFE7DE
:104190000198006902990863FFE7029901204861CC
:1041A00002980069C00730B1FFE70299086920F062
:1041B00001000861FFE703B07047000084B003907E
:1041C00002910192029800F01F01012088400090A6
:1041D000009A0399086A904308620198029901F0D5
:1041E0001F0100FA01F20399086A1043086204B043
:1041F0007047000080B582B001900198406A00903D
:1042000001980099496A88420DD1FFE70099012081
:1042100008770198806928B9FFE70099012081F8A3
:104220003E00FFE73CE001980099896A88420DD181
:10423000FFE70099022008770198806928B9FFE715
:104240000099012081F83F00FFE728E001980099DC
:10425000C96A88420DD1FFE70099042008770198C8
:10426000806928B9FFE70099012081F84000FFE745
:1042700014E001980099096B88420DD1FFE700997D
:10428000082008770198806928B9FFE70099012084
:1042900081F84100FFE700E0FFE7FFE7FFE7FFE706
:1042A0000098FEF7DDFF00990020087702B080BD7E
:1042B00080B582B001900198406A00900198009901
:1042C000496A884204D1FFE700990120087721E07C
:1042D00001980099896A884204D1FFE70099022079
:1042E000087716E001980099C96A884204D1FFE76F
:1042F0000099042008770BE001980099096B884227
:1043000004D1FFE700990820087700E0FFE7FFE706
:10431000FFE7FFE70098FFF733F8009900200877E0
:1043200002B080BD80B582B001900198406A0090D3
:1043300001980099496A884207D1FFE70099012056
:104340000877009981F83E0031E001980099896A68
:10435000884208D1FFE700990220087700990120E0
:1043600081F83F0022E001980099C96A884208D18B
:10437000FFE70099042008770099012081F84000A8
:1043800013E001980099096B884208D1FFE7009972
:10439000082008770099012081F8410004E0009985
:1043A000012081F83D00FFE7FFE7FFE7FFE7009806
:1043B000FEF7D4FC00990020087702B080BD000011
:1043C00085B0049003910292019304988068009054
:1043D000009820F47F40009003980299019A41EAE6
:1043E00002210143009808430090009804998860D6
:1043F00005B0704783B002900191029880680090E8
:10440000009820F07000009001980099084340F057
:104410000700009000980299886003B07047000080
:1044200085B0049003910498006A01900499086A89
:1044300020F00100086204984068009004988069A8
:104440000290029820F070000290029820F0030081
:10445000029003980168029808430290019820F0A6
:104460000200019003988168019808430190049824
:1044700042F60041C4F2010188420ED1FFE70198E3
:1044800020F0080001900398C1680198084301904A
:10449000019820F004000190FFE7049842F60041E3
:1044A000C4F20101884213D1FFE7009820F4807024
:1044B0000090009820F400700090039841690098E3
:1044C0000843009003988169009808430090FFE733
:1044D000009804994860029804998861039840689C
:1044E0000499486301980499086205B07047000078
:1044F00085B0049003910498006A01900499086AB9
:1045000020F01000086204984068009004988069C8
:104510000290029820F4E0400290029820F440704B
:10452000029003980168029840EA012002900198E5
:1045300020F02000019003988168019840EA011062
:104540000190049842F60041C4F2010188420FD163
:10455000FFE7019820F0800001900398C16801985E
:1045600040EA01100190019820F040000190FFE71F
:10457000049842F60041C4F20101884215D1FFE7D8
:10458000009820F480600090009820F40060009073
:1045900003984169009840EA81000090039881697E
:1045A000009840EA81000090FFE700980499486075
:1045B0000298049988610398406804998863019877
:1045C0000499086205B0704785B00490039104987F
:1045D000006A01900499086A20F4807008620498C7
:1045E000406800900498C0690290029820F0700022
:1045F0000290029820F0030002900398016802984C
:1046000008430290019820F400700190039881689B
:10461000019840EA01200190049842F60041C4F25A
:10462000010188420FD1FFE7019820F4006001905A
:104630000398C168019840EA01200190019820F494
:1046400080600190FFE7049842F60041C4F2010146
:10465000884215D1FFE7009820F480500090009820
:1046600020F40050009003984169009840EA01103E
:10467000009003988169009840EA01100090FFE7DC
:1046800000980499486002980499C86103984068AA
:104690000499C86301980499086205B07047000046
:1046A00085B0049003910498006A01900499086A07
:1046B00020F4805008620498406800900498C06913
:1046C0000290029820F4E0400290029820F440709A
:1046D000029003980168029840EA01200290019834
:1046E00020F40050019003988168019840EA01305D
:1046F0000190049842F60041C4F2010188420BD1B6
:10470000FFE7009820F480400090039841690098EA
:1047100040EA81100090FFE70098049948600298F1
:104720000499C86103984068049908640198049941
:10473000086205B07047000085B0049003910292B2
:104740000498006A00900499086A20F00100086249
:10475000049880690190019820F0F000019002997E
:10476000019840EA01100190009820F00A000090A2
:104770000399009808430090019804998861009873
:104780000499086205B0704785B0049003910292C5
:104790000498006A00900499086A20F010000862EA
:1047A000049880690190019820F47040019002996A
:1047B000019840EA01300190009820F0A00000909C
:1047C0000399009840EA01100090019804998861CB
:1047D00000980499086205B07047000080B543F660
:1047E000F470C2F20000FCF7BDF980BDFFE7FEE700
:1047F00080B586B08DF817009DF8170000EB4001DA
:1048000040F20400C2F2000000EB8100049000209E
:104810000390ADF80A00FFE7BDF80A000499098883
:1048200088423CDAFFE704984088BDF80A10084443
:10483000ADF80800BDF8080000EB400340F2E802C4
:10484000C2F20002D118487889780004D25C40EAAC
:1048500002200844019017200090FFE700980028EC
:1048600016D4FFE701980099C840C1071D20002910
:1048700018BF3920039A511C039140F60C31C2F243
:10488000000121F81200FFE7009801380090E5E7E9
:10489000FFE7BDF80A000130ADF80A00BCE7039954
:1048A00040F60C30C2F2000000EB41006421FBF73F
:1048B000A1FC06B080BD000080B540F2E800C2F265
:1048C000000040F62321FBF795FC40F60C30C2F2C5
:1048D000000043F2E441FBF78DFC80BD80B582B05F
:1048E00000208DF80700FFE79DF80700052844DC4D
:1048F000FFE79DF80700FFF77BFF9DF8070000EB3F
:10490000400340F20402C2F20002009202EB830173
:104910004868896832F8232002EB4203322202EB16
:10492000C30293B240F60C32C2F20002FEF72CFD35
:1049300000989DF8071001EB410130F82100C0EB11
:104940000010400048F63811C0F24101A0FB0110F0
:104950000630FCF765FF00989DF8071001EB410158
:1049600000EB810148688968FEF7C6FEFFE79DF805
:10497000070001308DF80700B6E702B080BD0000E7
:1049800080B582B08DF807008DF806108DF80520EF
:104990000020ADF80200FFE7BDF80200B0F5587F37
:1049A00011DCFFE7BDF802009DF807109DF8062016
:1049B0009DF8053000F00AF8FFE7BDF8020001306D
:1049C000ADF80200E8E702B080BD000082B0ADF8AB
:1049D00006008DF805108DF804208DF80330BDF821
:1049E0000600B0F5587F01DDFFE71BE09DF80500EC
:1049F000BDF8061001EB410240F2E801C2F20001ED
:104A000088549DF80400BDF8062002EB42020A44D7
:104A100050709DF80300BDF8062002EB42021144DD
:104A20008870FFE702B0704781B08DF803009DF9F0
:104A3000030000280ED4FFE79DF9031001F01F02C8
:104A4000012090404A094EF20011CEF2000141F8D7
:104A50002200FFE701B070474EF60C50CEF2000086
:104A60000068C0F30220704782B08DF80700009103
:104A70009DF9070000280AD4FFE7009800019DF97E
:104A800007104EF20042CEF2000288540BE000986C
:104A900000019DF8071001F00F014EF61452CEF2FE
:104AA00000028854FFE702B07047000083B0029014
:104AB000029800F0070000904EF60C51CEF2000173
:104AC0000868019001984FF6FF021040019001988C
:104AD000009A40EA02200022C0F2FA5210430190EC
:104AE0000198086003B0704780B58AB0002001903B
:104AF0000990FDF773F8FFF795FAFEF761FFFEF7EF
:104B000015FFFEF7B1FFFEF7E9FEFFF72FF8FFF7FD
:104B1000B1F80198ADF82200FDF74CF80146019874
:104B200007918DF81B008DF81A00ADF81800ADF84C
:104B30001600FF218DF815100490039044F24420D4
:104B4000C2F20000FDF7F0FF18B1FFE7FBF748FDE8
:104B5000FFE7FBF709FCFFF7AFFE00221046114606
:104B6000FFF70EFFFEF79AFEFFF7B8FEFFE743F6EA
:104B7000F070C2F2000000788DF80B00FBF738FDF2
:104B80008DF80A009DF80A00002818BF01208DF852
:104B900009009DF80B009DF81510884231D0FFE701
:104BA0009DF80B008DF815009DF80B00B0B1FFE7E4
:104BB000002000908DF81B008DF81A00ADF8180049
:104BC000ADF81600FCF7F6FF014600980791ADF826
:104BD0002200BDF82200FFF79FF911E000228DF8B6
:104BE0001B208DF81A20ADF81820ADF816201046BD
:104BF0001146FFF7C5FEFEF751FEFFF76FFEFFE718
:104C0000FFE79DF80B00002800F00881FFE79DF802
:104C10001B00002840F00281FFE79DF809000028F2
:104C200000F0FC80FFE744F28D20C2F20000007823
:104C3000002840F0F280FFE744F28D21C2F200012B
:104C4000012008708DF81B0043F6F470C2F20000DA
:104C500040F2013103AAFFF7AFF89DF80A000128DE
:104C600011D1FFE701208DF81A00ADF818002F20B0
:104C7000ADF81600BDF81800BDF81610BDF82220DA
:104C8000FFF7ECF8C8E09DF80A00022812D1FFE710
:104C900001208DF81A003020ADF818005920ADF829
:104CA0001600BDF81800BDF81610BDF82220FFF759
:104CB000D5F8B0E09DF80A00032812D1FFE70120E3
:104CC0008DF81A005A20ADF818008520ADF81600AE
:104CD000BDF81800BDF81610BDF82220FFF7BEF889
:104CE00098E09DF80A00042812D1FFE701208DF812
:104CF0001A008620ADF81800AD20ADF81600BDF8FA
:104D00001800BDF81610BDF82220FFF7A7F880E0C4
:104D10009DF80A00052812D1FFE701208DF81A003E
:104D2000AE20ADF81800D120ADF81600BDF818007F
:104D3000BDF81610BDF82220FFF790F868E09DF846
:104D40000A000A2812D1FFE701208DF81A00D220AC
:104D5000ADF81800E520ADF81600BDF81800BDF854
:104D60001610BDF82220FFF779F850E09DF80A00F0
:104D7000072812D1FFE701208DF81A00E620ADF8D0
:104D80001800F920ADF81600BDF81800BDF816108F
:104D9000BDF82220FFF762F838E09DF80A000828E5
:104DA00013D1FFE701208DF81A00FA20ADF81800A2
:104DB00040F20510ADF81600BDF81800BDF8161049
:104DC000BDF82220FFF74AF81FE09DF80A000928E5
:104DD00014D1FFE701208DF81A004FF48370ADF86D
:104DE00018004FF48770ADF81600BDF81800BDF834
:104DF0001610BDF82220FFF731F805E000208DF8ED
:104E00001A00FEF7B5FFFFE7FFE7FFE7FFE7FFE761
:104E1000FFE7FFE7FFE7FFE7FFE7FFE79DF8090090
:104E200038B9FFE744F28D21C2F20001002008707A
:104E3000FFE79DF80B00A8B3FFE79DF81A0020B923
:104E4000FFE79DF81B0068BBFFE7FCF7B3FE07997F
:104E5000401A962826D3FFE7FCF7ACFE0790BDF872
:104E6000220009304CF6CD41CCF6CC41A0FB01210B
:104E7000C90801EB8101A0EB4100ADF822009DF8CB
:104E80001A0048B1FFE7BDF81800BDF81610BDF8CC
:104E90002220FEF7E3FF04E0BDF82200FFF73CF814
:104EA000FFE7FFE79DF80B0020B9FFE70120FCF7C3
:104EB000B7FC5CE60120FCF7B3FC58E600000000FC
:104EC00000000000010203040607080902030405AC
:104ED000060708090A0B0C0D0E0F10100102030043
:104EE00002000100000001000200030000000A00AF
:104EF00014001E00280032003C000000000C01409D
:104F000000040000000C014000080000000C0140FB
:104F100000100000000C014000200000000C0140C7
:104F200000400000000801400800000000080140A7
:104F300010000000000C014040000000000C014087
:104F400080000000000C0140008000000000010013
:104F500002000A000B000C000D000E0016001700E6
:104F6000180019001A002200230024002500260042
:104F70002E002F00300030003100320033003400AA
:104F8000350036003700380039003A003B003C005D
:104F90003D003E003F00400041004200430044000D
:104FA000450046004700480049004A004B004C00BD
:104FB0004D004E004F00500051005200530054006D
:104FC000550056005700580059005A005B00650014
:104FD0006600700071007B007C00860087009000F6
:104FE00091009A009B00A400A500AE00AF00B000A5
:104FF000B100B200B300B400B500B600B700B8000D
:10500000B900BA00BB00BC00BD00BE00BF00C000BC
:10501000C100C200C300C400C500C600C700C8006C
:10502000C900CA00CB00CC00CD00CE00CF00D0001C
:10503000D100D200D700DC00E100E600EB00F00078
:10504000F50006010701080109010A010B010C0125
:105050000D010E01785000080000002058000000EB
:1050600050010008D05000085800002058480000A7
:10507000700100080000000000127A000F0100001B
:10508000B4410020040000005C000F01FC4100203E
:10509000000000005C006B01FC41002008000000E3
:1050A0001801C701B4410020000000003C00DF02ED
:1050B000B44100200800000046001B03FC41002012
:1050C00004000000010000001000000000000000CB
:04000005080000ED02
:00000001FF
